{
  "address": "0xA655851724749f143aC955ACf01863eab0A0Fbc0",
  "abi": [
    {
      "inputs": [
        {
          "internalType": "address",
          "name": "implementation",
          "type": "address"
        },
        {
          "internalType": "address",
          "name": "owner",
          "type": "address"
        }
      ],
      "stateMutability": "nonpayable",
      "type": "constructor"
    },
    {
      "inputs": [
        {
          "internalType": "address",
          "name": "implementation",
          "type": "address"
        }
      ],
      "name": "BeaconInvalidImplementation",
      "type": "error"
    },
    {
      "inputs": [
        {
          "internalType": "address",
          "name": "owner",
          "type": "address"
        }
      ],
      "name": "OwnableInvalidOwner",
      "type": "error"
    },
    {
      "inputs": [
        {
          "internalType": "address",
          "name": "account",
          "type": "address"
        }
      ],
      "name": "OwnableUnauthorizedAccount",
      "type": "error"
    },
    {
      "anonymous": false,
      "inputs": [
        {
          "indexed": true,
          "internalType": "address",
          "name": "previousOwner",
          "type": "address"
        },
        {
          "indexed": true,
          "internalType": "address",
          "name": "newOwner",
          "type": "address"
        }
      ],
      "name": "OwnershipTransferred",
      "type": "event"
    },
    {
      "anonymous": false,
      "inputs": [
        {
          "indexed": true,
          "internalType": "address",
          "name": "implementation",
          "type": "address"
        }
      ],
      "name": "Upgraded",
      "type": "event"
    },
    {
      "inputs": [],
      "name": "implementation",
      "outputs": [
        {
          "internalType": "address",
          "name": "",
          "type": "address"
        }
      ],
      "stateMutability": "view",
      "type": "function"
    },
    {
      "inputs": [],
      "name": "owner",
      "outputs": [
        {
          "internalType": "address",
          "name": "",
          "type": "address"
        }
      ],
      "stateMutability": "view",
      "type": "function"
    },
    {
      "inputs": [],
      "name": "renounceOwnership",
      "outputs": [],
      "stateMutability": "nonpayable",
      "type": "function"
    },
    {
      "inputs": [
        {
          "internalType": "address",
          "name": "newOwner",
          "type": "address"
        }
      ],
      "name": "transferOwnership",
      "outputs": [],
      "stateMutability": "nonpayable",
      "type": "function"
    },
    {
      "inputs": [
        {
          "internalType": "address",
          "name": "newImplementation",
          "type": "address"
        }
      ],
      "name": "upgradeTo",
      "outputs": [],
      "stateMutability": "nonpayable",
      "type": "function"
    }
  ],
  "transactionHash": "0x2391b939db8bd741e6223aec4657cf31d43be3c54e2c1284bc8fbe7a5d734c91",
  "args": [
    "0x2315AB62967C852a5A9C45E60b3888C1d3575e97",
    "0xCf4eC0E2Fa3B3f1f706183128D729a9C86c69e4d"
  ],
  "numDeployments": 1,
  "solcInputHash": "a552e11ea74d77e900733b617f40e22c",
  "bytecode": "0x60806040523461002b5761001a6100146100d2565b906100f4565b6040516103b96102be82396103b990f35b600080fd5b634e487b7160e01b600052604160045260246000fd5b90601f01601f191681019081106001600160401b0382111761006757604052565b610030565b9061008061007960405190565b9283610046565b565b6001600160a01b031690565b90565b6001600160a01b0381160361002b57565b9050519061008082610091565b919060408382031261002b5761008e9060206100cb82866100a2565b94016100a2565b6100f0610677803803806100e58161006c565b9283398101906100af565b9091565b906100809161010561008092610133565b6101e2565b61008261008e61008e9290565b61008e9061010a565b6001600160a01b03909116815260200190565b600061013e81610117565b6001600160a01b0381166001600160a01b038416146101625750506100809061026b565b631e4fbdf760e01b8252819061017b9060048301610120565b0390fd5b61008e61008e61008e9290565b61008e90610082906001600160a01b031682565b61008e9061018c565b61008e906101a0565b906101c261008e6101de926101a9565b82546001600160a01b0319166001600160a01b03919091161790565b9055565b6000813b6101f66101f28361017f565b9190565b1461024057508061020b6102109260016101b2565b6101a9565b7fbc7cd75a20ee27fd9adebab32041f755214dbc6bffa90cc0225b39da2e5c2d3b61023a60405190565b600090a2565b61017b819263211eb15960e21b835260048301610120565b61008e90610082565b61008e9054610258565b61028c61028661027b6000610261565b61020b8460006101b2565b916101a9565b907f8be0079c531659141344cd1fd0a4f28419497f9722a3daafe3b4186f6b6457e06102b760405190565b600090a356fe6080604052600436101561001257600080fd5b60003560e01c80633659cfe6146100625780635c60da1b1461005d578063715018a6146100585780638da5cb5b146100535763f2fde38b0361006757610149565b61012e565b610116565b6100ef565b6100af565b600080fd5b6001600160a01b031690565b90565b6001600160a01b0381160361006757565b905035906100998261007b565b565b90602082820312610067576100789161008c565b34610067576100c76100c236600461009b565b610176565b60405180805b0390f35b600091031261006757565b6001600160a01b03909116815260200190565b34610067576100ff3660046100d1565b6100cd61010a61017f565b604051918291826100dc565b34610067576101263660046100d1565b6100c76101c6565b346100675761013e3660046100d1565b6100cd61010a6101ce565b34610067576100c761015c36600461009b565b610235565b6100999061016d61023e565b610099906102dc565b61009990610161565b6001546001600160a01b031690565b61019661023e565b6100996101b4565b61006c6100786100789290565b6100789061019e565b6100996101c160006101ab565b610352565b61009961018e565b6000546001600160a01b031690565b610099906101e961023e565b60006101f4816101ab565b6001600160a01b0381166001600160a01b0384161461021857505061009990610352565b631e4fbdf760e01b8252819061023190600483016100dc565b0390fd5b610099906101dd565b6102466101ce565b339081906001600160a01b03160361025b5750565b63118cdaa760e01b6000908152906102749060046100dc565b036000fd5b6100786100786100789290565b6100789061006c906001600160a01b031682565b61007890610286565b6100789061029a565b906102bc6100786102d8926102a3565b82546001600160a01b0319166001600160a01b03919091161790565b9055565b6000813b6102f06102ec83610279565b9190565b1461033a57508061030561030a9260016102ac565b6102a3565b7fbc7cd75a20ee27fd9adebab32041f755214dbc6bffa90cc0225b39da2e5c2d3b61033460405190565b600090a2565b610231819263211eb15960e21b8352600483016100dc565b61037b61037561036a6000546001600160a01b031690565b6103058460006102ac565b916102a3565b907f8be0079c531659141344cd1fd0a4f28419497f9722a3daafe3b4186f6b6457e06103a660405190565b600090a356fea164736f6c634300081c000a",
  "devdoc": {
    "errors": {
      "BeaconInvalidImplementation(address)": [
        {
          "details": "The `implementation` of the beacon is invalid."
        }
      ],
      "OwnableInvalidOwner(address)": [
        {
          "details": "The owner is not a valid owner account. (eg. `address(0)`)"
        }
      ],
      "OwnableUnauthorizedAccount(address)": [
        {
          "details": "The caller account is not authorized to perform an operation."
        }
      ]
    },
    "events": {
      "Upgraded(address)": {
        "details": "Emitted when the implementation returned by the beacon is changed."
      }
    },
    "kind": "dev",
    "methods": {
      "implementation()": {
        "details": "Returns the current implementation address."
      },
      "owner()": {
        "details": "Returns the address of the current owner."
      },
      "renounceOwnership()": {
        "details": "Leaves the contract without owner. It will not be possible to call `onlyOwner` functions. Can only be called by the current owner. NOTE: Renouncing ownership will leave the contract without an owner, thereby disabling any functionality that is only available to the owner."
      },
      "transferOwnership(address)": {
        "details": "Transfers ownership of the contract to a new account (`newOwner`). Can only be called by the current owner."
      },
      "upgradeTo(address)": {
        "details": "Upgrades the beacon to a new implementation. Emits an {Upgraded} event. Requirements: - msg.sender must be the owner of the contract. - `newImplementation` must be a contract."
      }
    },
    "version": 1
  },
  "userdoc": {
    "kind": "user",
    "methods": {},
    "notice": "Beacon 合约，用于指向可升级的实现合约",
    "version": 1
  },
  "storageLayout": {
    "storage": [
      {
        "astId": 2594,
        "contract": "contracts/BBGameTableBeacon.sol:BBGameTableBeacon",
        "label": "_owner",
        "offset": 0,
        "slot": "0",
        "type": "t_address"
      },
      {
        "astId": 3312,
        "contract": "contracts/BBGameTableBeacon.sol:BBGameTableBeacon",
        "label": "_implementation",
        "offset": 0,
        "slot": "1",
        "type": "t_address"
      }
    ],
    "types": {
      "t_address": {
        "encoding": "inplace",
        "label": "address",
        "numberOfBytes": "20"
      }
    }
  }
}