{
  "address": "0xd714f826EF451a4d98D78D9a65Ff328eb82f2893",
  "abi": [
    {
      "inputs": [],
      "stateMutability": "nonpayable",
      "type": "constructor"
    },
    {
      "inputs": [
        {
          "internalType": "address",
          "name": "target",
          "type": "address"
        }
      ],
      "name": "AddressEmptyCode",
      "type": "error"
    },
    {
      "inputs": [
        {
          "internalType": "address",
          "name": "implementation",
          "type": "address"
        }
      ],
      "name": "ERC1967InvalidImplementation",
      "type": "error"
    },
    {
      "inputs": [],
      "name": "ERC1967NonPayable",
      "type": "error"
    },
    {
      "inputs": [],
      "name": "FailedCall",
      "type": "error"
    },
    {
      "inputs": [],
      "name": "InvalidInitialization",
      "type": "error"
    },
    {
      "inputs": [],
      "name": "NotInitializing",
      "type": "error"
    },
    {
      "inputs": [
        {
          "internalType": "address",
          "name": "owner",
          "type": "address"
        }
      ],
      "name": "OwnableInvalidOwner",
      "type": "error"
    },
    {
      "inputs": [
        {
          "internalType": "address",
          "name": "account",
          "type": "address"
        }
      ],
      "name": "OwnableUnauthorizedAccount",
      "type": "error"
    },
    {
      "inputs": [],
      "name": "UUPSUnauthorizedCallContext",
      "type": "error"
    },
    {
      "inputs": [
        {
          "internalType": "bytes32",
          "name": "slot",
          "type": "bytes32"
        }
      ],
      "name": "UUPSUnsupportedProxiableUUID",
      "type": "error"
    },
    {
      "anonymous": false,
      "inputs": [
        {
          "indexed": true,
          "internalType": "address",
          "name": "oldImpl",
          "type": "address"
        },
        {
          "indexed": true,
          "internalType": "address",
          "name": "newImpl",
          "type": "address"
        },
        {
          "indexed": false,
          "internalType": "uint256",
          "name": "version",
          "type": "uint256"
        }
      ],
      "name": "ImplementationUpdated",
      "type": "event"
    },
    {
      "anonymous": false,
      "inputs": [
        {
          "indexed": false,
          "internalType": "uint64",
          "name": "version",
          "type": "uint64"
        }
      ],
      "name": "Initialized",
      "type": "event"
    },
    {
      "anonymous": false,
      "inputs": [
        {
          "indexed": true,
          "internalType": "address",
          "name": "previousOwner",
          "type": "address"
        },
        {
          "indexed": true,
          "internalType": "address",
          "name": "newOwner",
          "type": "address"
        }
      ],
      "name": "OwnershipTransferred",
      "type": "event"
    },
    {
      "anonymous": false,
      "inputs": [
        {
          "indexed": true,
          "internalType": "address",
          "name": "implementation",
          "type": "address"
        }
      ],
      "name": "Upgraded",
      "type": "event"
    },
    {
      "inputs": [],
      "name": "UPGRADE_INTERFACE_VERSION",
      "outputs": [
        {
          "internalType": "string",
          "name": "",
          "type": "string"
        }
      ],
      "stateMutability": "view",
      "type": "function"
    },
    {
      "inputs": [],
      "name": "beacon",
      "outputs": [
        {
          "internalType": "address",
          "name": "",
          "type": "address"
        }
      ],
      "stateMutability": "view",
      "type": "function"
    },
    {
      "inputs": [
        {
          "internalType": "uint256",
          "name": "tableId",
          "type": "uint256"
        },
        {
          "internalType": "string",
          "name": "tableName",
          "type": "string"
        },
        {
          "internalType": "address",
          "name": "bankerAddr",
          "type": "address"
        },
        {
          "internalType": "uint256",
          "name": "betAmount",
          "type": "uint256"
        },
        {
          "internalType": "uint8",
          "name": "maxPlayers",
          "type": "uint8"
        },
        {
          "internalType": "address",
          "name": "gameMainAddr",
          "type": "address"
        },
        {
          "internalType": "uint8",
          "name": "bankerFeePercent",
          "type": "uint8"
        },
        {
          "internalType": "uint8",
          "name": "firstRaise",
          "type": "uint8"
        },
        {
          "internalType": "uint8",
          "name": "secondRaise",
          "type": "uint8"
        },
        {
          "internalType": "uint256",
          "name": "rewardPoolId",
          "type": "uint256"
        }
      ],
      "name": "createGameTable",
      "outputs": [
        {
          "internalType": "address",
          "name": "",
          "type": "address"
        }
      ],
      "stateMutability": "nonpayable",
      "type": "function"
    },
    {
      "inputs": [
        {
          "internalType": "address",
          "name": "_beacon",
          "type": "address"
        }
      ],
      "name": "initialize",
      "outputs": [],
      "stateMutability": "nonpayable",
      "type": "function"
    },
    {
      "inputs": [],
      "name": "owner",
      "outputs": [
        {
          "internalType": "address",
          "name": "",
          "type": "address"
        }
      ],
      "stateMutability": "view",
      "type": "function"
    },
    {
      "inputs": [],
      "name": "proxiableUUID",
      "outputs": [
        {
          "internalType": "bytes32",
          "name": "",
          "type": "bytes32"
        }
      ],
      "stateMutability": "view",
      "type": "function"
    },
    {
      "inputs": [],
      "name": "renounceOwnership",
      "outputs": [],
      "stateMutability": "nonpayable",
      "type": "function"
    },
    {
      "inputs": [
        {
          "internalType": "address",
          "name": "newOwner",
          "type": "address"
        }
      ],
      "name": "transferOwnership",
      "outputs": [],
      "stateMutability": "nonpayable",
      "type": "function"
    },
    {
      "inputs": [
        {
          "internalType": "address",
          "name": "_implementation",
          "type": "address"
        }
      ],
      "name": "updateImplementation",
      "outputs": [],
      "stateMutability": "nonpayable",
      "type": "function"
    },
    {
      "inputs": [
        {
          "internalType": "address",
          "name": "newImplementation",
          "type": "address"
        },
        {
          "internalType": "bytes",
          "name": "data",
          "type": "bytes"
        }
      ],
      "name": "upgradeToAndCall",
      "outputs": [],
      "stateMutability": "payable",
      "type": "function"
    },
    {
      "inputs": [],
      "name": "version",
      "outputs": [
        {
          "internalType": "uint256",
          "name": "",
          "type": "uint256"
        }
      ],
      "stateMutability": "view",
      "type": "function"
    }
  ],
  "transactionHash": "0xbabca67db3e7fa2ad670d0bf08db0f821f77d596429d7e788c9783117d64a3f2",
  "args": [],
  "numDeployments": 1,
  "solcInputHash": "48576e987db7584d29c5cbb1887dec70",
  "bytecode": "0x60a06040523461003257610011610037565b60405161182c6101b18239608051818181610d410152610eab015261182c90f35b600080fd5b61003f61007e565b610047610102565b565b61005d90610060906001600160a01b031682565b90565b6001600160a01b031690565b61005d90610049565b61005d9061006c565b61008730610075565b608052565b61005d9060401c60ff1690565b61005d905461008c565b61005d905b6001600160401b031690565b61005d90546100a3565b61005d906100a8906001600160401b031682565b906100e261005d6100fe926100be565b82546001600160401b0319166001600160401b03919091161790565b9055565b7ff0c57e16840df040f15088dc2f81fe391c3923bec73e23a9662efc9c229c6a0061012c81610099565b61019e57610139816100b4565b6001600160401b0391908290811603610150575050565b8161017f7fc7f505b2f371ae2175ee4913f4499e1f2633a7b5936321eed1cdaeb6115181d293610199936100d2565b604051918291826001600160401b03909116815260200190565b0390a1565b63f92ee8a960e01b6000908152600490fdfe6080604052600436101561001257600080fd5b60003560e01c8063025b22bc146100c25780634f1ef286146100bd57806352d1902d146100b857806354fd4d50146100b357806359659e90146100ae57806369e949ca146100a9578063715018a6146100a45780638da5cb5b1461009f578063ad3cb1cc1461009a578063c4d66de8146100955763f2fde38b036100c757610536565b61051e565b6104f7565b61042f565b610417565b6103ef565b6102fa565b61029c565b61024e565b61022b565b61010e565b600080fd5b6001600160a01b031690565b90565b6100e4816100cc565b036100c757565b905035906100f8826100db565b565b906020828203126100c7576100d8916100eb565b346100c7576101266101213660046100fa565b610825565b60405180805b0390f35b634e487b7160e01b600052604160045260246000fd5b90601f01601f191681019081106001600160401b0382111761016757604052565b610130565b906100f861017960405190565b9283610146565b6001600160401b03811161016757602090601f01601f19160190565b0190565b90826000939282370152565b909291926101c16101bc82610180565b61016c565b93818552818301116100c7576100f89160208501906101a0565b9080601f830112156100c7578160206100d8933591016101ac565b9190916040818403126100c75761020d83826100eb565b9260208201356001600160401b0381116100c7576100d892016101db565b6101266102393660046101f6565b9061084e565b60009103126100c757565b9052565b346100c75761025e36600461023f565b61012c61026961089b565b6040515b9182918290815260200190565b6100d8916008021c81565b906100d8915461027a565b6100d860006001610285565b346100c7576102ac36600461023f565b61012c610269610290565b6100d8916008021c6001600160a01b031690565b906100d891546102b7565b6100d86000806102cb565b61024a906100cc565b6020810192916100f891906102e1565b346100c75761030a36600461023f565b61012c6103156102d6565b604051918291826102ea565b806100e4565b905035906100f882610321565b60ff81166100e4565b905035906100f882610334565b610140818303126100c75761035f8282610327565b9260208201356001600160401b0381116100c7578361037f9184016101db565b9261038d81604085016100eb565b9261039b8260608301610327565b926103a9836080840161033d565b926103b78160a085016100eb565b926103c58260c0830161033d565b926100d86103d68460e0850161033d565b936101206103e882610100870161033d565b9401610327565b346100c75761012c61031561040536600461034a565b98979097969196959295949394610946565b346100c75761042736600461023f565b610126610a04565b346100c75761043f36600461023f565b61012c610315610a0c565b906104576101bc83610180565b918252565b610466600561044a565b640352e302e360dc1b602082015290565b6100d861045c565b6100d8610477565b6100d861047f565b60005b8381106104a25750506000910152565b8181015183820152602001610492565b6104d36104dc60209361019c936104c7815190565b80835293849260200190565b9586910161048f565b601f01601f191690565b60208082526100d8929101906104b2565b346100c75761050736600461023f565b61012c610512610487565b604051918291826104e6565b346100c7576101266105313660046100fa565b610c90565b346100c7576101266105493660046100fa565b610ceb565b6100f89061055a610cf4565b61069f565b6100cc6100d86100d89290565b6100d89061055f565b1561057c57565b60405162461bcd60e51b815260206004820152601e60248201527f496e76616c696420696d706c656d656e746174696f6e20616464726573730000604482015280606481015b0390fd5b6100d8906100cc565b6100d890546105c6565b6100d8906100cc906001600160a01b031682565b6100d8906105d9565b6100d8906105ed565b905051906100f8826100db565b906020828203126100c7576100d8916105ff565b6040513d6000823e3d90fd5b6100d89081565b6100d8905461062c565b634e487b7160e01b600052601160045260246000fd5b60001981146106625760010190565b61063d565b90600019905b9181191691161790565b6100d86100d86100d89290565b906106946100d861069b92610677565b8254610667565b9055565b6000906106c66106b66106b18461056c565b6100cc565b6106bf836100cc565b1415610575565b6106da6106d56106d5846105cf565b6105f6565b9160206106e660405190565b635c60da1b60e01b815293849060049082905afa9283156107ef5781936107f4575b506107186106d56106d5836105cf565b803b156100c7578161072960405190565b918290631b2ce7f360e11b825281838161074689600483016102ea565b03925af180156107ef576107c2575b505061077361076c6107676001610633565b610653565b6001610684565b7fbe444e048be48a02d3602a86d2210c4cfd09be329f36642c342d033ef98a50096107bd6107b36107ad6107a76001610633565b956105f6565b936105f6565b9361026d60405190565b0390a3565b816107e192903d106107e8575b6107d98183610146565b81019061023f565b3880610755565b503d6107cf565b610620565b61081791935060203d60201161081e575b61080f8183610146565b81019061060c565b9138610708565b503d610805565b6100f89061054e565b906100f89161083b610d36565b906100f89161084981610db6565b610de0565b906100f89161082e565b6100d890610864610e9a565b610892565b6100d87f360894a13ba1a3210667c828492db98dca3e2076cc3735a920a3ca505d382bbc610677565b506100d8610869565b6100d86000610858565b989694929b9a9997959391906101608a019060008b016108c3919052565b89810360208b01526108d4916104b2565b9a604089016108e2916102e1565b606088015260ff16608087015260a086016108fc916102e1565b60ff1660c085015260ff1660e084015260ff166101008301526101208201526101400152565b916100d892610939604082019360008301906102e1565b60208184039101526104b2565b946004999461099a99946020999461098b9994610961600090565b5061096c6001610633565b9961097660405190565b9e8f9d8e016331cd894360e11b8152016108a5565b60208201810382520382610146565b6109a460006105cf565b604051916106968301908382106001600160401b038311176101675783926109d39261069661118a8639610922565b03906000f080156107ef576100d8906105f6565b6109ef610cf4565b6100f86100f86109ff600061056c565b610ed6565b6100f86109e7565b6100d860007f9016d09d72d40fdae2fd8ceac6b6234c7706214fd39c1cd1e609a0528c1993005b016105cf565b6100d89060401c60ff1690565b6100d89054610a39565b6100d8905b6001600160401b031690565b6100d89054610a50565b610a556100d86100d89290565b906001600160401b039061066d565b610a556100d86100d8926001600160401b031690565b90610aad6100d861069b92610a87565b8254610a78565b9060ff60401b9060401b61066d565b90610ad36100d861069b92151590565b8254610ab4565b61024a90610a6b565b6020810192916100f89190610ada565b7ff0c57e16840df040f15088dc2f81fe391c3923bec73e23a9662efc9c229c6a009081610b2f610b29610b2583610a46565b1590565b91610a61565b90600092610b3c84610a6b565b6001600160401b0384161480610c3a575b600193610b69610b5c86610a6b565b916001600160401b031690565b149081610c12575b155b9081610c09575b50610bfa57610ba39082610b9a86610b9187610a6b565b98019788610a9d565b610beb57610c67565b610bac57505050565b610bda610be6927fc7f505b2f371ae2175ee4913f4499e1f2633a7b5936321eed1cdaeb6115181d294610ac3565b60405191829182610ae3565b0390a1565b610bf58487610ac3565b610c67565b63f92ee8a960e01b8452600484fd5b15905038610b7a565b9050610b73610c20306105f6565b3b610c31610c2d88610677565b9190565b14919050610b71565b5081610b4d565b906001600160a01b039061066d565b90610c606100d861069b926105f6565b8254610c41565b610c8390610c7433610f5d565b610c7c610f6e565b6000610c50565b6100f861076c6001610677565b6100f890610af3565b6100f890610ca5610cf4565b6000610cb08161056c565b610cb9816100cc565b610cc2846100cc565b14610cd25750506100f890610ed6565b631e4fbdf760e01b825281906105c290600483016102ea565b6100f890610c99565b610cfc610a0c565b3390610d10610d0a836100cc565b916100cc565b03610d185750565b63118cdaa760e01b600090815290610d319060046102ea565b036000fd5b610d3f306105f6565b7f000000000000000000000000000000000000000000000000000000000000000090610d6d610d0a836100cc565b14908115610d8f575b50610d7d57565b63703e46dd60e11b6000908152600490fd5b9050610da5610d0a610d9f610f76565b926100cc565b141538610d76565b506100f8610cf4565b6100f890610dad565b905051906100f882610321565b906020828203126100c7576100d891610dbf565b91610ded6106d5846105f6565b916020610df960405190565b6352d1902d60e01b815293849060049082905afa60009381610e69575b50610e3357634c9c8ce360e01b6000908152610d318560046102ea565b909192610e416100d8610869565b8403610e52576100f8929350610f86565b632a87526960e21b60009081526004859052602490fd5b610e8c91945060203d602011610e93575b610e848183610146565b810190610dcc565b9238610e16565b503d610e7a565b610ea3306105f6565b610ecf610d0a7f00000000000000000000000000000000000000000000000000000000000000006100cc565b03610d7d57565b610f16610f107f9016d09d72d40fdae2fd8ceac6b6234c7706214fd39c1cd1e609a0528c1993006106d584610f0a836105cf565b92610c50565b916105f6565b907f8be0079c531659141344cd1fd0a4f28419497f9722a3daafe3b4186f6b6457e0610f4160405190565b80806107bd565b6100f890610f54610ff2565b6100f890611021565b6100f890610f48565b6100f8610ff2565b6100f8610f66565b6100d86000610a336100d8610869565b90610f908261102a565b610f99826105f6565b7fbc7cd75a20ee27fd9adebab32041f755214dbc6bffa90cc0225b39da2e5c2d3b610fc360405190565b600090a28051610fd6610c2d6000610677565b1115610fe857610fe5916110af565b50565b50506100f861106d565b610ffd610b256110d6565b61100357565b631afcd79f60e31b6000908152600490fd5b6100f890610ca5610ff2565b6100f890611015565b6000813b61103a610c2d83610677565b1461105557906100f89161104f6100d8610869565b01610c50565b6105c28192634c9c8ce360e01b8352600483016102ea565b600061107881610677565b34116110815750565b63b398979f60e01b8152600490fd5b3d156110aa5761109f3d61044a565b903d6000602084013e565b606090565b6000806100d8936110be606090565b50602081519101845af46110d0611090565b916110ff565b6100d87ff0c57e16840df040f15088dc2f81fe391c3923bec73e23a9662efc9c229c6a00610a46565b9061110a575061115a565b81519060009161111c610c2d84610677565b1480611145575b61112c57505090565b639996b31560e01b825281906105c290600483016102ea565b50803b611154610c2d84610677565b14611123565b805160009061116b610c2d83610677565b111561117a5750805190602001fd5b63d6bda27560e01b8152600490fdfe60a060405261001561000f610171565b90610193565b60405161018361051382396080518160cf015261018390f35b634e487b7160e01b600052604160045260246000fd5b90601f01601f191681019081106001600160401b0382111761006557604052565b61002e565b9061007e61007760405190565b9283610044565b565b6001600160a01b031690565b90565b6001600160a01b038116036100a057565b600080fd5b9050519061007e8261008f565b6001600160401b03811161006557602090601f01601f19160190565b60005b8381106100e15750506000910152565b81810151838201526020016100d1565b90929192610106610101826100b2565b61006a565b93818552818301116100a05761007e9160208501906100ce565b9080601f830112156100a057815161008c926020016100f1565b9190916040818403126100a05761015183826100a5565b60208201519093906001600160401b0381116100a05761008c9201610120565b61018f610696803803806101848161006a565b92833981019061013a565b9091565b9061019e90826101f6565b608052565b61008c90610080906001600160a01b031682565b61008c906101a3565b61008c906101b7565b61008c61008c61008c9290565b906020828203126100a05761008c916100a5565b6040513d6000823e3d90fd5b6101ff81610345565b610208816101c0565b7f1cf3b03a6cf19fa2baba4df148e9dcabedea7f8a5c07840e207e5c089be95d3e61023260405190565b600090a2815161024961024560006101c9565b9190565b11156102cf5761025b610260916101c0565b6101c0565b90602061026c60405190565b635c60da1b60e01b815292839060049082905afa80156102ca576102989260009161029b575b50610466565b50565b6102bd915060203d6020116102c3575b6102b58183610044565b8101906101d6565b38610292565b503d6102ab565b6101ea565b505061007e610412565b6001600160a01b03909116815260200190565b61008c7fa3f0ad74e5423aebfd80d3ef4346578335a9a72aeaee59ff6cb3582b35133d506101c9565b9061032561008c610341926101c0565b82546001600160a01b0319166001600160a01b03919091161790565b9055565b600090803b610356610245846101c9565b146103f95761025b8161025b610378938561037261008c6102ec565b01610315565b602061038360405190565b635c60da1b60e01b815291829060049082905afa9081156102ca5782916103da575b50803b6103b4610245846101c9565b146103bd575050565b634c9c8ce360e01b825281906103d690600483016102d9565b0390fd5b6103f3915060203d6020116102c3576102b58183610044565b386103a5565b631933b43b60e21b825281906103d690600483016102d9565b600061041d816101c9565b34116104265750565b63b398979f60e01b8152600490fd5b90610442610101836100b2565b918252565b3d15610461576104563d610435565b903d6000602084013e565b606090565b60008061008c93610475606090565b50602081519101845af4610487610447565b919061049357506104e3565b8151906000916104a5610245846101c9565b14806104ce575b6104b557505090565b639996b31560e01b825281906103d690600483016102d9565b50803b6104dd610245846101c9565b146104ac565b80516000906104f4610245836101c9565b11156105035750805190602001fd5b63d6bda27560e01b8152600490fdfe608060405261000c6100c7565b610155565b61002590610028906001600160a01b031682565b90565b6001600160a01b031690565b61002590610011565b61002590610034565b634e487b7160e01b600052604160045260246000fd5b90601f01601f1916810190811067ffffffffffffffff82111761007e57604052565b610046565b61008c81610028565b0361009357565b600080fd5b905051906100a582610083565b565b906020828203126100935761002591610098565b6040513d6000823e3d90fd5b6100f66100f17f000000000000000000000000000000000000000000000000000000000000000081565b61003d565b602061010160405190565b635c60da1b60e01b815291829060049082905afa90811561015057600091610127575090565b610025915060203d602011610149575b610141818361005c565b8101906100a7565b503d610137565b6100bb565b60008091368280378136915af43d6000803e15610171573d6000f35b3d6000fdfea164736f6c634300081c000aa164736f6c634300081c000a",
  "devdoc": {
    "details": "",
    "errors": {
      "AddressEmptyCode(address)": [
        {
          "details": "There's no code at `target` (it is not a contract)."
        }
      ],
      "ERC1967InvalidImplementation(address)": [
        {
          "details": "The `implementation` of the proxy is invalid."
        }
      ],
      "ERC1967NonPayable()": [
        {
          "details": "An upgrade function sees `msg.value > 0` that may be lost."
        }
      ],
      "FailedCall()": [
        {
          "details": "A call to an address target failed. The target may have reverted."
        }
      ],
      "InvalidInitialization()": [
        {
          "details": "The contract is already initialized."
        }
      ],
      "NotInitializing()": [
        {
          "details": "The contract is not initializing."
        }
      ],
      "OwnableInvalidOwner(address)": [
        {
          "details": "The owner is not a valid owner account. (eg. `address(0)`)"
        }
      ],
      "OwnableUnauthorizedAccount(address)": [
        {
          "details": "The caller account is not authorized to perform an operation."
        }
      ],
      "UUPSUnauthorizedCallContext()": [
        {
          "details": "The call is from an unauthorized context."
        }
      ],
      "UUPSUnsupportedProxiableUUID(bytes32)": [
        {
          "details": "The storage `slot` is unsupported as a UUID."
        }
      ]
    },
    "events": {
      "Initialized(uint64)": {
        "details": "Triggered when the contract has been initialized or reinitialized."
      },
      "Upgraded(address)": {
        "details": "Emitted when the implementation is upgraded."
      }
    },
    "kind": "dev",
    "methods": {
      "constructor": {
        "custom:oz-upgrades-unsafe-allow": "constructor"
      },
      "createGameTable(uint256,string,address,uint256,uint8,address,uint8,uint8,uint8,uint256)": {
        "details": "",
        "params": {
          "bankerAddr": "",
          "bankerFeePercent": "",
          "betAmount": "",
          "firstRaise": "",
          "gameMainAddr": "",
          "maxPlayers": "",
          "rewardPoolId": "ID",
          "secondRaise": "",
          "tableId": "ID",
          "tableName": ""
        },
        "returns": {
          "_0": ""
        }
      },
      "owner()": {
        "details": "Returns the address of the current owner."
      },
      "proxiableUUID()": {
        "details": "Implementation of the ERC-1822 {proxiableUUID} function. This returns the storage slot used by the implementation. It is used to validate the implementation's compatibility when performing an upgrade. IMPORTANT: A proxy pointing at a proxiable contract should not be considered proxiable itself, because this risks bricking a proxy that upgrades to it, by delegating to itself until out of gas. Thus it is critical that this function revert if invoked through a proxy. This is guaranteed by the `notDelegated` modifier."
      },
      "renounceOwnership()": {
        "details": "Leaves the contract without owner. It will not be possible to call `onlyOwner` functions. Can only be called by the current owner. NOTE: Renouncing ownership will leave the contract without an owner, thereby disabling any functionality that is only available to the owner."
      },
      "transferOwnership(address)": {
        "details": "Transfers ownership of the contract to a new account (`newOwner`). Can only be called by the current owner."
      },
      "updateImplementation(address)": {
        "details": "",
        "params": {
          "_implementation": ""
        }
      },
      "upgradeToAndCall(address,bytes)": {
        "custom:oz-upgrades-unsafe-allow-reachable": "delegatecall",
        "details": "Upgrade the implementation of the proxy to `newImplementation`, and subsequently execute the function call encoded in `data`. Calls {_authorizeUpgrade}. Emits an {Upgraded} event."
      }
    },
    "title": "BBGameTableFactory",
    "version": 1
  },
  "userdoc": {
    "kind": "user",
    "methods": {},
    "version": 1
  },
  "storageLayout": {
    "storage": [
      {
        "astId": 11145,
        "contract": "contracts/BBGameTableFactory.sol:BBGameTableFactory",
        "label": "beacon",
        "offset": 0,
        "slot": "0",
        "type": "t_address"
      },
      {
        "astId": 11147,
        "contract": "contracts/BBGameTableFactory.sol:BBGameTableFactory",
        "label": "version",
        "offset": 0,
        "slot": "1",
        "type": "t_uint256"
      },
      {
        "astId": 11151,
        "contract": "contracts/BBGameTableFactory.sol:BBGameTableFactory",
        "label": "__gap",
        "offset": 0,
        "slot": "2",
        "type": "t_array(t_uint256)5_storage"
      }
    ],
    "types": {
      "t_address": {
        "encoding": "inplace",
        "label": "address",
        "numberOfBytes": "20"
      },
      "t_array(t_uint256)5_storage": {
        "base": "t_uint256",
        "encoding": "inplace",
        "label": "uint256[5]",
        "numberOfBytes": "160"
      },
      "t_uint256": {
        "encoding": "inplace",
        "label": "uint256",
        "numberOfBytes": "32"
      }
    }
  }
}