{
  "address": "0xc6A8dd465BE6E3D5fe5092E195fB154037eE6aad",
  "abi": [
    {
      "inputs": [],
      "stateMutability": "nonpayable",
      "type": "constructor"
    },
    {
      "inputs": [
        {
          "internalType": "address",
          "name": "target",
          "type": "address"
        }
      ],
      "name": "AddressEmptyCode",
      "type": "error"
    },
    {
      "inputs": [
        {
          "internalType": "address",
          "name": "implementation",
          "type": "address"
        }
      ],
      "name": "ERC1967InvalidImplementation",
      "type": "error"
    },
    {
      "inputs": [],
      "name": "ERC1967NonPayable",
      "type": "error"
    },
    {
      "inputs": [],
      "name": "EnforcedPause",
      "type": "error"
    },
    {
      "inputs": [],
      "name": "ExpectedPause",
      "type": "error"
    },
    {
      "inputs": [],
      "name": "FailedCall",
      "type": "error"
    },
    {
      "inputs": [],
      "name": "InvalidInitialization",
      "type": "error"
    },
    {
      "inputs": [],
      "name": "NotInitializing",
      "type": "error"
    },
    {
      "inputs": [
        {
          "internalType": "address",
          "name": "owner",
          "type": "address"
        }
      ],
      "name": "OwnableInvalidOwner",
      "type": "error"
    },
    {
      "inputs": [
        {
          "internalType": "address",
          "name": "account",
          "type": "address"
        }
      ],
      "name": "OwnableUnauthorizedAccount",
      "type": "error"
    },
    {
      "inputs": [],
      "name": "ReentrancyGuardReentrantCall",
      "type": "error"
    },
    {
      "inputs": [],
      "name": "UUPSUnauthorizedCallContext",
      "type": "error"
    },
    {
      "inputs": [
        {
          "internalType": "bytes32",
          "name": "slot",
          "type": "bytes32"
        }
      ],
      "name": "UUPSUnsupportedProxiableUUID",
      "type": "error"
    },
    {
      "anonymous": false,
      "inputs": [
        {
          "indexed": false,
          "internalType": "uint256",
          "name": "minBet",
          "type": "uint256"
        },
        {
          "indexed": false,
          "internalType": "uint8",
          "name": "maxPlayers",
          "type": "uint8"
        }
      ],
      "name": "GameConfigUpdated",
      "type": "event"
    },
    {
      "anonymous": false,
      "inputs": [
        {
          "indexed": true,
          "internalType": "address",
          "name": "tableAddr",
          "type": "address"
        },
        {
          "indexed": true,
          "internalType": "address",
          "name": "banker",
          "type": "address"
        },
        {
          "indexed": false,
          "internalType": "uint256",
          "name": "betAmount",
          "type": "uint256"
        },
        {
          "indexed": false,
          "internalType": "uint8",
          "name": "maxPlayers",
          "type": "uint8"
        },
        {
          "indexed": false,
          "internalType": "uint256",
          "name": "bankerFeePercent",
          "type": "uint256"
        }
      ],
      "name": "GameTableCreated",
      "type": "event"
    },
    {
      "anonymous": false,
      "inputs": [
        {
          "indexed": true,
          "internalType": "address",
          "name": "tableAddr",
          "type": "address"
        }
      ],
      "name": "GameTableRemoved",
      "type": "event"
    },
    {
      "anonymous": false,
      "inputs": [
        {
          "indexed": false,
          "internalType": "uint64",
          "name": "version",
          "type": "uint64"
        }
      ],
      "name": "Initialized",
      "type": "event"
    },
    {
      "anonymous": false,
      "inputs": [
        {
          "indexed": true,
          "internalType": "address",
          "name": "previousOwner",
          "type": "address"
        },
        {
          "indexed": true,
          "internalType": "address",
          "name": "newOwner",
          "type": "address"
        }
      ],
      "name": "OwnershipTransferred",
      "type": "event"
    },
    {
      "anonymous": false,
      "inputs": [
        {
          "indexed": false,
          "internalType": "address",
          "name": "account",
          "type": "address"
        }
      ],
      "name": "Paused",
      "type": "event"
    },
    {
      "anonymous": false,
      "inputs": [
        {
          "indexed": false,
          "internalType": "address",
          "name": "account",
          "type": "address"
        }
      ],
      "name": "Unpaused",
      "type": "event"
    },
    {
      "anonymous": false,
      "inputs": [
        {
          "indexed": true,
          "internalType": "address",
          "name": "implementation",
          "type": "address"
        }
      ],
      "name": "Upgraded",
      "type": "event"
    },
    {
      "inputs": [],
      "name": "UPGRADE_INTERFACE_VERSION",
      "outputs": [
        {
          "internalType": "string",
          "name": "",
          "type": "string"
        }
      ],
      "stateMutability": "view",
      "type": "function"
    },
    {
      "inputs": [
        {
          "internalType": "string",
          "name": "tableName",
          "type": "string"
        },
        {
          "internalType": "uint256",
          "name": "betAmount",
          "type": "uint256"
        },
        {
          "internalType": "uint8",
          "name": "tableMaxPlayers",
          "type": "uint8"
        },
        {
          "internalType": "uint8",
          "name": "bankerFeePercent",
          "type": "uint8"
        },
        {
          "internalType": "uint8",
          "name": "firstRaise",
          "type": "uint8"
        },
        {
          "internalType": "uint8",
          "name": "secondRaise",
          "type": "uint8"
        },
        {
          "internalType": "uint256",
          "name": "rewardPoolId",
          "type": "uint256"
        }
      ],
      "name": "createGameTable",
      "outputs": [],
      "stateMutability": "payable",
      "type": "function"
    },
    {
      "inputs": [],
      "name": "gameTableFactoryAddress",
      "outputs": [
        {
          "internalType": "address",
          "name": "",
          "type": "address"
        }
      ],
      "stateMutability": "view",
      "type": "function"
    },
    {
      "inputs": [
        {
          "internalType": "address",
          "name": "",
          "type": "address"
        }
      ],
      "name": "gameTables",
      "outputs": [
        {
          "internalType": "address",
          "name": "",
          "type": "address"
        }
      ],
      "stateMutability": "view",
      "type": "function"
    },
    {
      "inputs": [],
      "name": "getAllGameTablesInactive",
      "outputs": [
        {
          "components": [
            {
              "internalType": "bool",
              "name": "active",
              "type": "bool"
            },
            {
              "internalType": "uint256",
              "name": "gameRound",
              "type": "uint256"
            },
            {
              "internalType": "uint256",
              "name": "gameLiquidatedCount",
              "type": "uint256"
            },
            {
              "internalType": "address",
              "name": "tableAddr",
              "type": "address"
            },
            {
              "internalType": "uint256",
              "name": "tableId",
              "type": "uint256"
            },
            {
              "internalType": "string",
              "name": "tableName",
              "type": "string"
            },
            {
              "internalType": "address",
              "name": "bankerAddr",
              "type": "address"
            },
            {
              "internalType": "uint256",
              "name": "betAmount",
              "type": "uint256"
            },
            {
              "internalType": "uint8",
              "name": "bankerFeePercent",
              "type": "uint8"
            },
            {
              "internalType": "uint8",
              "name": "playerCount",
              "type": "uint8"
            },
            {
              "internalType": "uint8",
              "name": "maxPlayers",
              "type": "uint8"
            },
            {
              "internalType": "enum GameState",
              "name": "state",
              "type": "uint8"
            },
            {
              "internalType": "uint256",
              "name": "lastActivityTimestamp",
              "type": "uint256"
            },
            {
              "internalType": "uint256",
              "name": "rewardPoolId",
              "type": "uint256"
            },
            {
              "components": [
                {
                  "internalType": "uint256",
                  "name": "poolId",
                  "type": "uint256"
                },
                {
                  "internalType": "string",
                  "name": "name",
                  "type": "string"
                },
                {
                  "internalType": "address",
                  "name": "banker",
                  "type": "address"
                },
                {
                  "internalType": "uint256",
                  "name": "totalAmount",
                  "type": "uint256"
                },
                {
                  "internalType": "uint256",
                  "name": "rewardPerGame",
                  "type": "uint256"
                },
                {
                  "internalType": "uint256",
                  "name": "winProbability",
                  "type": "uint256"
                },
                {
                  "internalType": "uint256",
                  "name": "remainingAmount",
                  "type": "uint256"
                },
                {
                  "internalType": "bool",
                  "name": "inUse",
                  "type": "bool"
                },
                {
                  "internalType": "uint256[10]",
                  "name": "__gap",
                  "type": "uint256[10]"
                }
              ],
              "internalType": "struct RewardPoolInfo",
              "name": "rewardPoolInfo",
              "type": "tuple"
            }
          ],
          "internalType": "struct GameTableInfoShort[]",
          "name": "",
          "type": "tuple[]"
        }
      ],
      "stateMutability": "view",
      "type": "function"
    },
    {
      "inputs": [],
      "name": "getGameConfig",
      "outputs": [
        {
          "components": [
            {
              "internalType": "uint8",
              "name": "maxRoomCount",
              "type": "uint8"
            },
            {
              "internalType": "uint8",
              "name": "maxPlayers",
              "type": "uint8"
            },
            {
              "internalType": "uint8",
              "name": "maxJoinTablesCount",
              "type": "uint8"
            },
            {
              "internalType": "uint8",
              "name": "maxBankerFeePercent",
              "type": "uint8"
            },
            {
              "internalType": "uint256",
              "name": "playerTimeout",
              "type": "uint256"
            },
            {
              "internalType": "uint256",
              "name": "tableInactiveTimeout",
              "type": "uint256"
            },
            {
              "internalType": "uint8",
              "name": "liquidatorFeePercent",
              "type": "uint8"
            },
            {
              "internalType": "address",
              "name": "gameMainAddress",
              "type": "address"
            },
            {
              "internalType": "address",
              "name": "rewardPoolAddress",
              "type": "address"
            },
            {
              "internalType": "address",
              "name": "roomCardAddress",
              "type": "address"
            },
            {
              "internalType": "address",
              "name": "roomLevelAddress",
              "type": "address"
            },
            {
              "internalType": "address",
              "name": "gameTableFactoryAddress",
              "type": "address"
            }
          ],
          "internalType": "struct GameConfig",
          "name": "",
          "type": "tuple"
        }
      ],
      "stateMutability": "view",
      "type": "function"
    },
    {
      "inputs": [
        {
          "internalType": "address",
          "name": "tableAddr",
          "type": "address"
        }
      ],
      "name": "getGameTableInfo",
      "outputs": [
        {
          "components": [
            {
              "internalType": "bool",
              "name": "active",
              "type": "bool"
            },
            {
              "internalType": "uint256",
              "name": "gameRound",
              "type": "uint256"
            },
            {
              "internalType": "uint256",
              "name": "gameLiquidatedCount",
              "type": "uint256"
            },
            {
              "internalType": "address",
              "name": "tableAddr",
              "type": "address"
            },
            {
              "internalType": "uint256",
              "name": "tableId",
              "type": "uint256"
            },
            {
              "internalType": "string",
              "name": "tableName",
              "type": "string"
            },
            {
              "internalType": "address",
              "name": "bankerAddr",
              "type": "address"
            },
            {
              "internalType": "uint256",
              "name": "betAmount",
              "type": "uint256"
            },
            {
              "internalType": "uint8",
              "name": "bankerFeePercent",
              "type": "uint8"
            },
            {
              "internalType": "uint8",
              "name": "playerCount",
              "type": "uint8"
            },
            {
              "internalType": "uint8",
              "name": "maxPlayers",
              "type": "uint8"
            },
            {
              "internalType": "enum GameState",
              "name": "state",
              "type": "uint8"
            },
            {
              "internalType": "uint256",
              "name": "lastActivityTimestamp",
              "type": "uint256"
            },
            {
              "internalType": "uint256",
              "name": "rewardPoolId",
              "type": "uint256"
            },
            {
              "components": [
                {
                  "internalType": "uint256",
                  "name": "poolId",
                  "type": "uint256"
                },
                {
                  "internalType": "string",
                  "name": "name",
                  "type": "string"
                },
                {
                  "internalType": "address",
                  "name": "banker",
                  "type": "address"
                },
                {
                  "internalType": "uint256",
                  "name": "totalAmount",
                  "type": "uint256"
                },
                {
                  "internalType": "uint256",
                  "name": "rewardPerGame",
                  "type": "uint256"
                },
                {
                  "internalType": "uint256",
                  "name": "winProbability",
                  "type": "uint256"
                },
                {
                  "internalType": "uint256",
                  "name": "remainingAmount",
                  "type": "uint256"
                },
                {
                  "internalType": "bool",
                  "name": "inUse",
                  "type": "bool"
                },
                {
                  "internalType": "uint256[10]",
                  "name": "__gap",
                  "type": "uint256[10]"
                }
              ],
              "internalType": "struct RewardPoolInfo",
              "name": "rewardPoolInfo",
              "type": "tuple"
            }
          ],
          "internalType": "struct GameTableInfoShort",
          "name": "",
          "type": "tuple"
        }
      ],
      "stateMutability": "view",
      "type": "function"
    },
    {
      "inputs": [
        {
          "internalType": "uint8",
          "name": "_count",
          "type": "uint8"
        }
      ],
      "name": "getNewestGameTables",
      "outputs": [
        {
          "components": [
            {
              "internalType": "bool",
              "name": "active",
              "type": "bool"
            },
            {
              "internalType": "uint256",
              "name": "gameRound",
              "type": "uint256"
            },
            {
              "internalType": "uint256",
              "name": "gameLiquidatedCount",
              "type": "uint256"
            },
            {
              "internalType": "address",
              "name": "tableAddr",
              "type": "address"
            },
            {
              "internalType": "uint256",
              "name": "tableId",
              "type": "uint256"
            },
            {
              "internalType": "string",
              "name": "tableName",
              "type": "string"
            },
            {
              "internalType": "address",
              "name": "bankerAddr",
              "type": "address"
            },
            {
              "internalType": "uint256",
              "name": "betAmount",
              "type": "uint256"
            },
            {
              "internalType": "uint8",
              "name": "bankerFeePercent",
              "type": "uint8"
            },
            {
              "internalType": "uint8",
              "name": "playerCount",
              "type": "uint8"
            },
            {
              "internalType": "uint8",
              "name": "maxPlayers",
              "type": "uint8"
            },
            {
              "internalType": "enum GameState",
              "name": "state",
              "type": "uint8"
            },
            {
              "internalType": "uint256",
              "name": "lastActivityTimestamp",
              "type": "uint256"
            },
            {
              "internalType": "uint256",
              "name": "rewardPoolId",
              "type": "uint256"
            },
            {
              "components": [
                {
                  "internalType": "uint256",
                  "name": "poolId",
                  "type": "uint256"
                },
                {
                  "internalType": "string",
                  "name": "name",
                  "type": "string"
                },
                {
                  "internalType": "address",
                  "name": "banker",
                  "type": "address"
                },
                {
                  "internalType": "uint256",
                  "name": "totalAmount",
                  "type": "uint256"
                },
                {
                  "internalType": "uint256",
                  "name": "rewardPerGame",
                  "type": "uint256"
                },
                {
                  "internalType": "uint256",
                  "name": "winProbability",
                  "type": "uint256"
                },
                {
                  "internalType": "uint256",
                  "name": "remainingAmount",
                  "type": "uint256"
                },
                {
                  "internalType": "bool",
                  "name": "inUse",
                  "type": "bool"
                },
                {
                  "internalType": "uint256[10]",
                  "name": "__gap",
                  "type": "uint256[10]"
                }
              ],
              "internalType": "struct RewardPoolInfo",
              "name": "rewardPoolInfo",
              "type": "tuple"
            }
          ],
          "internalType": "struct GameTableInfoShort[]",
          "name": "",
          "type": "tuple[]"
        }
      ],
      "stateMutability": "view",
      "type": "function"
    },
    {
      "inputs": [],
      "name": "getTableAddresses",
      "outputs": [
        {
          "internalType": "address[]",
          "name": "",
          "type": "address[]"
        }
      ],
      "stateMutability": "view",
      "type": "function"
    },
    {
      "inputs": [
        {
          "internalType": "address",
          "name": "userAddress",
          "type": "address"
        }
      ],
      "name": "getUserCreatedRoomsCount",
      "outputs": [
        {
          "internalType": "uint256",
          "name": "",
          "type": "uint256"
        }
      ],
      "stateMutability": "view",
      "type": "function"
    },
    {
      "inputs": [
        {
          "internalType": "address",
          "name": "userAddr",
          "type": "address"
        }
      ],
      "name": "getUserGameTables",
      "outputs": [
        {
          "components": [
            {
              "internalType": "bool",
              "name": "active",
              "type": "bool"
            },
            {
              "internalType": "uint256",
              "name": "gameRound",
              "type": "uint256"
            },
            {
              "internalType": "uint256",
              "name": "gameLiquidatedCount",
              "type": "uint256"
            },
            {
              "internalType": "address",
              "name": "tableAddr",
              "type": "address"
            },
            {
              "internalType": "uint256",
              "name": "tableId",
              "type": "uint256"
            },
            {
              "internalType": "string",
              "name": "tableName",
              "type": "string"
            },
            {
              "internalType": "address",
              "name": "bankerAddr",
              "type": "address"
            },
            {
              "internalType": "uint256",
              "name": "betAmount",
              "type": "uint256"
            },
            {
              "internalType": "uint8",
              "name": "bankerFeePercent",
              "type": "uint8"
            },
            {
              "internalType": "uint8",
              "name": "playerCount",
              "type": "uint8"
            },
            {
              "internalType": "uint8",
              "name": "maxPlayers",
              "type": "uint8"
            },
            {
              "internalType": "enum GameState",
              "name": "state",
              "type": "uint8"
            },
            {
              "internalType": "uint256",
              "name": "lastActivityTimestamp",
              "type": "uint256"
            },
            {
              "internalType": "uint256",
              "name": "rewardPoolId",
              "type": "uint256"
            },
            {
              "components": [
                {
                  "internalType": "uint256",
                  "name": "poolId",
                  "type": "uint256"
                },
                {
                  "internalType": "string",
                  "name": "name",
                  "type": "string"
                },
                {
                  "internalType": "address",
                  "name": "banker",
                  "type": "address"
                },
                {
                  "internalType": "uint256",
                  "name": "totalAmount",
                  "type": "uint256"
                },
                {
                  "internalType": "uint256",
                  "name": "rewardPerGame",
                  "type": "uint256"
                },
                {
                  "internalType": "uint256",
                  "name": "winProbability",
                  "type": "uint256"
                },
                {
                  "internalType": "uint256",
                  "name": "remainingAmount",
                  "type": "uint256"
                },
                {
                  "internalType": "bool",
                  "name": "inUse",
                  "type": "bool"
                },
                {
                  "internalType": "uint256[10]",
                  "name": "__gap",
                  "type": "uint256[10]"
                }
              ],
              "internalType": "struct RewardPoolInfo",
              "name": "rewardPoolInfo",
              "type": "tuple"
            }
          ],
          "internalType": "struct GameTableInfoShort[]",
          "name": "",
          "type": "tuple[]"
        }
      ],
      "stateMutability": "view",
      "type": "function"
    },
    {
      "inputs": [
        {
          "internalType": "address",
          "name": "userAddr",
          "type": "address"
        }
      ],
      "name": "getUserJoinedTables",
      "outputs": [
        {
          "components": [
            {
              "internalType": "bool",
              "name": "active",
              "type": "bool"
            },
            {
              "internalType": "uint256",
              "name": "gameRound",
              "type": "uint256"
            },
            {
              "internalType": "uint256",
              "name": "gameLiquidatedCount",
              "type": "uint256"
            },
            {
              "internalType": "address",
              "name": "tableAddr",
              "type": "address"
            },
            {
              "internalType": "uint256",
              "name": "tableId",
              "type": "uint256"
            },
            {
              "internalType": "string",
              "name": "tableName",
              "type": "string"
            },
            {
              "internalType": "address",
              "name": "bankerAddr",
              "type": "address"
            },
            {
              "internalType": "uint256",
              "name": "betAmount",
              "type": "uint256"
            },
            {
              "internalType": "uint8",
              "name": "bankerFeePercent",
              "type": "uint8"
            },
            {
              "internalType": "uint8",
              "name": "playerCount",
              "type": "uint8"
            },
            {
              "internalType": "uint8",
              "name": "maxPlayers",
              "type": "uint8"
            },
            {
              "internalType": "enum GameState",
              "name": "state",
              "type": "uint8"
            },
            {
              "internalType": "uint256",
              "name": "lastActivityTimestamp",
              "type": "uint256"
            },
            {
              "internalType": "uint256",
              "name": "rewardPoolId",
              "type": "uint256"
            },
            {
              "components": [
                {
                  "internalType": "uint256",
                  "name": "poolId",
                  "type": "uint256"
                },
                {
                  "internalType": "string",
                  "name": "name",
                  "type": "string"
                },
                {
                  "internalType": "address",
                  "name": "banker",
                  "type": "address"
                },
                {
                  "internalType": "uint256",
                  "name": "totalAmount",
                  "type": "uint256"
                },
                {
                  "internalType": "uint256",
                  "name": "rewardPerGame",
                  "type": "uint256"
                },
                {
                  "internalType": "uint256",
                  "name": "winProbability",
                  "type": "uint256"
                },
                {
                  "internalType": "uint256",
                  "name": "remainingAmount",
                  "type": "uint256"
                },
                {
                  "internalType": "bool",
                  "name": "inUse",
                  "type": "bool"
                },
                {
                  "internalType": "uint256[10]",
                  "name": "__gap",
                  "type": "uint256[10]"
                }
              ],
              "internalType": "struct RewardPoolInfo",
              "name": "rewardPoolInfo",
              "type": "tuple"
            }
          ],
          "internalType": "struct GameTableInfoShort[]",
          "name": "",
          "type": "tuple[]"
        }
      ],
      "stateMutability": "view",
      "type": "function"
    },
    {
      "inputs": [
        {
          "internalType": "address",
          "name": "userAddr",
          "type": "address"
        }
      ],
      "name": "getUserJoinedTablesCount",
      "outputs": [
        {
          "internalType": "uint8",
          "name": "",
          "type": "uint8"
        }
      ],
      "stateMutability": "view",
      "type": "function"
    },
    {
      "inputs": [
        {
          "internalType": "uint8",
          "name": "_maxPlayers",
          "type": "uint8"
        },
        {
          "internalType": "uint8",
          "name": "_maxRoomCount",
          "type": "uint8"
        },
        {
          "internalType": "uint8",
          "name": "_maxJoinTablesCount",
          "type": "uint8"
        },
        {
          "internalType": "uint8",
          "name": "_maxBankerFeePercent",
          "type": "uint8"
        },
        {
          "internalType": "uint8",
          "name": "_liquidatorFeePercent",
          "type": "uint8"
        },
        {
          "internalType": "uint256",
          "name": "_playerTimeout",
          "type": "uint256"
        },
        {
          "internalType": "uint256",
          "name": "_tableInactiveTimeout",
          "type": "uint256"
        },
        {
          "internalType": "address",
          "name": "_gameTableFactoryAddress",
          "type": "address"
        }
      ],
      "name": "initialize",
      "outputs": [],
      "stateMutability": "nonpayable",
      "type": "function"
    },
    {
      "inputs": [
        {
          "internalType": "address",
          "name": "tableAddr",
          "type": "address"
        }
      ],
      "name": "isValidGameTable",
      "outputs": [
        {
          "internalType": "bool",
          "name": "",
          "type": "bool"
        }
      ],
      "stateMutability": "view",
      "type": "function"
    },
    {
      "inputs": [],
      "name": "liquidatorFeePercent",
      "outputs": [
        {
          "internalType": "uint8",
          "name": "",
          "type": "uint8"
        }
      ],
      "stateMutability": "view",
      "type": "function"
    },
    {
      "inputs": [],
      "name": "maxBankerFeePercent",
      "outputs": [
        {
          "internalType": "uint8",
          "name": "",
          "type": "uint8"
        }
      ],
      "stateMutability": "view",
      "type": "function"
    },
    {
      "inputs": [],
      "name": "maxJoinTablesCount",
      "outputs": [
        {
          "internalType": "uint8",
          "name": "",
          "type": "uint8"
        }
      ],
      "stateMutability": "view",
      "type": "function"
    },
    {
      "inputs": [],
      "name": "maxPlayers",
      "outputs": [
        {
          "internalType": "uint8",
          "name": "",
          "type": "uint8"
        }
      ],
      "stateMutability": "view",
      "type": "function"
    },
    {
      "inputs": [],
      "name": "maxRoomCount",
      "outputs": [
        {
          "internalType": "uint8",
          "name": "",
          "type": "uint8"
        }
      ],
      "stateMutability": "view",
      "type": "function"
    },
    {
      "inputs": [],
      "name": "nextTableId",
      "outputs": [
        {
          "internalType": "uint256",
          "name": "",
          "type": "uint256"
        }
      ],
      "stateMutability": "view",
      "type": "function"
    },
    {
      "inputs": [],
      "name": "owner",
      "outputs": [
        {
          "internalType": "address",
          "name": "",
          "type": "address"
        }
      ],
      "stateMutability": "view",
      "type": "function"
    },
    {
      "inputs": [],
      "name": "pause",
      "outputs": [],
      "stateMutability": "nonpayable",
      "type": "function"
    },
    {
      "inputs": [],
      "name": "paused",
      "outputs": [
        {
          "internalType": "bool",
          "name": "",
          "type": "bool"
        }
      ],
      "stateMutability": "view",
      "type": "function"
    },
    {
      "inputs": [],
      "name": "playerTimeout",
      "outputs": [
        {
          "internalType": "uint256",
          "name": "",
          "type": "uint256"
        }
      ],
      "stateMutability": "view",
      "type": "function"
    },
    {
      "inputs": [],
      "name": "proxiableUUID",
      "outputs": [
        {
          "internalType": "bytes32",
          "name": "",
          "type": "bytes32"
        }
      ],
      "stateMutability": "view",
      "type": "function"
    },
    {
      "inputs": [],
      "name": "renounceOwnership",
      "outputs": [],
      "stateMutability": "nonpayable",
      "type": "function"
    },
    {
      "inputs": [],
      "name": "rewardPoolAddress",
      "outputs": [
        {
          "internalType": "address",
          "name": "",
          "type": "address"
        }
      ],
      "stateMutability": "view",
      "type": "function"
    },
    {
      "inputs": [
        {
          "internalType": "address",
          "name": "_bankerAddr",
          "type": "address"
        },
        {
          "internalType": "uint256",
          "name": "_poolId",
          "type": "uint256"
        }
      ],
      "name": "rewardPoolIsInUse",
      "outputs": [
        {
          "internalType": "bool",
          "name": "",
          "type": "bool"
        }
      ],
      "stateMutability": "view",
      "type": "function"
    },
    {
      "inputs": [],
      "name": "roomCardAddress",
      "outputs": [
        {
          "internalType": "address",
          "name": "",
          "type": "address"
        }
      ],
      "stateMutability": "view",
      "type": "function"
    },
    {
      "inputs": [],
      "name": "roomLevelAddress",
      "outputs": [
        {
          "internalType": "address",
          "name": "",
          "type": "address"
        }
      ],
      "stateMutability": "view",
      "type": "function"
    },
    {
      "inputs": [
        {
          "internalType": "address",
          "name": "_gameTableFactoryAddress",
          "type": "address"
        }
      ],
      "name": "setGameTableFactoryAddress",
      "outputs": [],
      "stateMutability": "nonpayable",
      "type": "function"
    },
    {
      "inputs": [
        {
          "internalType": "address",
          "name": "_rewardPoolAddress",
          "type": "address"
        }
      ],
      "name": "setRewardPoolAddress",
      "outputs": [],
      "stateMutability": "nonpayable",
      "type": "function"
    },
    {
      "inputs": [
        {
          "internalType": "address",
          "name": "_roomCardAddress",
          "type": "address"
        }
      ],
      "name": "setRoomCardAddress",
      "outputs": [],
      "stateMutability": "nonpayable",
      "type": "function"
    },
    {
      "inputs": [
        {
          "internalType": "address",
          "name": "_roomLevelAddress",
          "type": "address"
        }
      ],
      "name": "setRoomLevelAddress",
      "outputs": [],
      "stateMutability": "nonpayable",
      "type": "function"
    },
    {
      "inputs": [
        {
          "internalType": "uint256",
          "name": "",
          "type": "uint256"
        }
      ],
      "name": "tableAddresses",
      "outputs": [
        {
          "internalType": "address",
          "name": "",
          "type": "address"
        }
      ],
      "stateMutability": "view",
      "type": "function"
    },
    {
      "inputs": [],
      "name": "tableInactiveTimeout",
      "outputs": [
        {
          "internalType": "uint256",
          "name": "",
          "type": "uint256"
        }
      ],
      "stateMutability": "view",
      "type": "function"
    },
    {
      "inputs": [
        {
          "internalType": "address",
          "name": "newOwner",
          "type": "address"
        }
      ],
      "name": "transferOwnership",
      "outputs": [],
      "stateMutability": "nonpayable",
      "type": "function"
    },
    {
      "inputs": [],
      "name": "unpause",
      "outputs": [],
      "stateMutability": "nonpayable",
      "type": "function"
    },
    {
      "inputs": [
        {
          "internalType": "uint8",
          "name": "_maxPlayers",
          "type": "uint8"
        },
        {
          "internalType": "uint8",
          "name": "_maxJoinTablesCount",
          "type": "uint8"
        },
        {
          "internalType": "uint8",
          "name": "_maxBankerFeePercent",
          "type": "uint8"
        },
        {
          "internalType": "uint256",
          "name": "_playerTimeout",
          "type": "uint256"
        },
        {
          "internalType": "uint256",
          "name": "_tableInactiveTimeout",
          "type": "uint256"
        },
        {
          "internalType": "uint8",
          "name": "_liquidatorFeePercent",
          "type": "uint8"
        }
      ],
      "name": "updateGameConfig",
      "outputs": [],
      "stateMutability": "nonpayable",
      "type": "function"
    },
    {
      "inputs": [
        {
          "internalType": "address",
          "name": "newImplementation",
          "type": "address"
        },
        {
          "internalType": "bytes",
          "name": "data",
          "type": "bytes"
        }
      ],
      "name": "upgradeToAndCall",
      "outputs": [],
      "stateMutability": "payable",
      "type": "function"
    },
    {
      "inputs": [
        {
          "internalType": "address",
          "name": "userAddr",
          "type": "address"
        }
      ],
      "name": "userJoinTable",
      "outputs": [],
      "stateMutability": "nonpayable",
      "type": "function"
    },
    {
      "inputs": [
        {
          "internalType": "address",
          "name": "userAddr",
          "type": "address"
        }
      ],
      "name": "userLeaveTable",
      "outputs": [],
      "stateMutability": "nonpayable",
      "type": "function"
    },
    {
      "stateMutability": "payable",
      "type": "receive"
    }
  ],
  "transactionHash": "0xd25c22bfd70a3f0ea17a79b3006c5aaab4ebf5286f47d4cea3c01764327eb32e",
  "args": [],
  "numDeployments": 1,
  "solcInputHash": "48576e987db7584d29c5cbb1887dec70",
  "bytecode": "0x60a06040523461003257610011610037565b604051613c2a6101b182396080518181816136be015261388e0152613c2a90f35b600080fd5b61003f61007e565b610047610102565b565b61005d90610060906001600160a01b031682565b90565b6001600160a01b031690565b61005d90610049565b61005d9061006c565b61008730610075565b608052565b61005d9060401c60ff1690565b61005d905461008c565b61005d905b6001600160401b031690565b61005d90546100a3565b61005d906100a8906001600160401b031682565b906100e261005d6100fe926100be565b82546001600160401b0319166001600160401b03919091161790565b9055565b7ff0c57e16840df040f15088dc2f81fe391c3923bec73e23a9662efc9c229c6a0061012c81610099565b61019e57610139816100b4565b6001600160401b0391908290811603610150575050565b8161017f7fc7f505b2f371ae2175ee4913f4499e1f2633a7b5936321eed1cdaeb6115181d293610199936100d2565b604051918291826001600160401b03909116815260200190565b0390a1565b63f92ee8a960e01b6000908152600490fdfe6080604052600436101561001b575b361561001957600080fd5b005b60003560e01c8063155884f6146102cb57806322f19172146102c65780632f0a4d41146102c1578063373041b0146102bc5780633aeecaaf146102b75780633f4ba83a146102b25780634331346e146102ad5780634c2412a2146102a85780634f1ef286146102a35780634f5970a51461029e5780634f6efb541461029957806352d1902d1461029457806354c627401461028f57806359a020f51461028a5780635c975abb146102855780635d500d8214610280578063642d84911461027b5780636556e91c1461027657806366dc52a114610271578063715018a61461026c57806374a7f2241461026757806379d4a963146102625780637a94f4181461025d5780638456cb5914610258578063845a51ec1461025357806388a01cd71461024e5780638d8692b2146102495780638da5cb5b1461024457806390e5204b1461023f578063a8ad2c921461023a578063ad3cb1cc14610235578063b24cf5d714610230578063b571266a1461022b578063c13b16c114610226578063dac9e39d14610221578063e02feb921461021c578063e143eb9114610217578063e4645fee14610212578063e98125801461020d578063ee44130b14610208578063f2fde38b14610203578063fbcf6ca5146101fe5763fd13ca560361000e576110e0565b6110c5565b6110a1565b611086565b61105f565b611044565b611029565b611002565b610fde565b610fc3565b610f9c565b610f84565b610f5d565b610eec565b610eba565b610e8e565b610e76565b610e5b565b610e35565b610e11565b610df6565b610dcf565b610d91565b610d5d565b610d45565b610d2d565b610d06565b610c81565b610c54565b610c39565b610c06565b610b81565b610b66565b610af9565b610a6d565b61095b565b61090e565b61060a565b6105ef565b610558565b610491565b61042f565b61031b565b6001600160a01b031690565b90565b6102e8816102d0565b036102ef57565b600080fd5b90503590610301826102df565b565b906020828203126102ef576102dc916102f4565b9052565b346102ef5761034a610336610331366004610303565b611154565b6040519182918260ff909116815260200190565b0390f35b60009103126102ef57565b610317906102d0565b805160ff168252610301919061016090819060208181015160ff169085015260408181015160ff169085015260608181015160ff16908501526103aa60808201516080860152565b6103b960a082015160a0860152565b60c08181015160ff16908501526103d860e082015160e0860190610359565b6103ec610100820151610100860190610359565b610400610120820151610120860190610359565b610414610140820151610140860190610359565b0151910190610359565b610180810192916103019190610362565b346102ef5761043f36600461034e565b61034a61044a6112cc565b6040519182918261041e565b6102dc916008021c6001600160a01b031690565b906102dc9154610456565b6102dc6000600961046a565b6020810192916103019190610359565b346102ef576104a136600461034e565b61034a6104ac610475565b60405191829182610481565b60ff81166102e8565b90503590610301826104b8565b806102e8565b90503590610301826104ce565b9190610100838203126102ef576104f881846104c1565b9261050682602083016104c1565b9261051483604084016104c1565b9261052281606085016104c1565b9261053082608083016104c1565b926102dc6105418460a085016104d4565b9360e06105518260c087016104d4565b94016102f4565b346102ef5761057a61056b3660046104e1565b96959095949194939293611771565b604051005b906020828203126102ef576102dc916104d4565b634e487b7160e01b600052603260045260246000fd5b80548210156105cc576105c3600191600052602060002090565b91020190600090565b610593565b6005548110156102ef576105e96102dc9160056105a9565b9061046a565b346102ef5761034a6104ac61060536600461057f565b6105d1565b346102ef5761061a36600461034e565b61057a611794565b60005b8381106106355750506000910152565b8181015183820152602001610625565b61066661066f6020936106799361065a815190565b80835293849260200190565b95869101610622565b601f01601f191690565b0190565b634e487b7160e01b600052602160045260246000fd5b6007111561069d57565b61067d565b9061030182610693565b6102dc906106a2565b610317906106ac565b6106ce6106ca600a9390565b9190565b6000915b8383106106df5750505050565b6106f96106f26001928451815260200190565b9260200190565b920191906106d2565b80518252906102dc9061010080610729610240840160208701518582036020870152610645565b9461073c60408201516040860190610359565b61074b60608201516060860152565b61075a60808201516080860152565b61076960a082015160a0860152565b61077860c082015160c0860152565b60e08181015115159085015201519101906106be565b8051151582526102dc916101c06107f46101e083016107b260208601516020860152565b6107c160408601516040860152565b6107d360608601516060860190610359565b6107e260808601516080860152565b60a085015184820360a0860152610645565b9261080760c082015160c0850190610359565b61081660e082015160e0850152565b6101008181015160ff16908401526101208181015160ff16908401526101408181015160ff16908401526108546101608201516101608501906106b5565b610865610180820151610180850152565b6108766101a08201516101a0850152565b0151906101c0818403910152610702565b906102dc9161078e565b906108a761089d835190565b8083529160200190565b90816108b96020830284019460200190565b926000915b8383106108cd57505050505090565b909192939460206108f06108e983856001950387528951610887565b9760200190565b93019301919392906108be565b60208082526102dc92910190610891565b346102ef5761034a610929610924366004610303565b61194a565b604051918291826108fd565b6102dc916008021c5b60ff1690565b906102dc9154610935565b6102dc60026001610944565b346102ef5761096b36600461034e565b61034a61033661094f565b634e487b7160e01b600052604160045260246000fd5b90601f01601f191681019081106001600160401b038211176109ad57604052565b610976565b906103016109bf60405190565b928361098c565b6001600160401b0381116109ad57602090601f01601f19160190565b90826000939282370152565b90929192610a036109fe826109c6565b6109b2565b93818552818301116102ef576103019160208501906109e2565b9080601f830112156102ef578160206102dc933591016109ee565b9190916040818403126102ef57610a4f83826102f4565b9260208201356001600160401b0381116102ef576102dc9201610a1d565b61057a610a7b366004610a38565b906119f1565b60e0818303126102ef5780356001600160401b0381116102ef5782610aa7918301610a1d565b92610ab583602084016104d4565b92610ac381604085016104c1565b92610ad182606083016104c1565b926102dc610ae284608085016104c1565b9360c0610af28260a087016104c1565b94016104d4565b61057a610b07366004610a81565b959490949391936122dc565b6102dc906102d0906001600160a01b031682565b6102dc90610b13565b6102dc90610b27565b90610b4390610b30565b600052602052604060002090565b6000610b616102dc926006610b39565b61046a565b346102ef5761034a6104ac610b7c366004610303565b610b51565b346102ef57610b9136600461034e565b61034a610b9c61232e565b6040519182918290815260200190565b909160c0828403126102ef57610bc283836104c1565b92610bd081602085016104c1565b92610bde82604083016104c1565b926102dc610bef84606085016104d4565b9360a0610bff82608087016104d4565b94016104c1565b346102ef5761057a610c19366004610bac565b94939093929192612562565b906020828203126102ef576102dc916104c1565b346102ef5761034a610929610c4f366004610c25565b6128ce565b346102ef57610c6436600461034e565b61034a610c6f612a1d565b60405191829182901515815260200190565b346102ef57610c9136600461034e565b61034a610929612a44565b9061067981602093610359565b90610cc26106f2610cb8845190565b8084529260200190565b9060005b818110610cd35750505090565b909192610ced610ce66001928651610c9c565b9460200190565b929101610cc6565b60208082526102dc92910190610ca9565b346102ef57610d1636600461034e565b61034a610d21612d28565b60405191829182610cf5565b346102ef5761057a610d40366004610303565b612d6e565b346102ef5761057a610d58366004610303565b612e49565b346102ef57610d6d36600461034e565b61057a612fbe565b91906040838203126102ef576102dc906020610af282866102f4565b346102ef5761034a610c6f610da7366004610d75565b90612fc6565b6102dc916008021c81565b906102dc9154610dad565b6102dc60006003610db8565b346102ef57610ddf36600461034e565b61034a610b9c610dc3565b6102dc6000600a61046a565b346102ef57610e0636600461034e565b61034a6104ac610dea565b346102ef57610e2136600461034e565b61057a613089565b6102dc6000600861046a565b346102ef57610e4536600461034e565b61034a6104ac610e29565b6102dc600080610db8565b346102ef57610e6b36600461034e565b61034a610b9c610e50565b346102ef5761057a610e89366004610303565b6130cd565b346102ef57610e9e36600461034e565b61034a6104ac6130d6565b60208082526102dc9291019061078e565b346102ef5761034a610ed5610ed0366004610303565b613103565b60405191829182610ea9565b6102dc600180610944565b346102ef57610efc36600461034e565b61034a610336610ee1565b90610f146109fe836109c6565b918252565b610f236005610f07565b640352e302e360dc1b602082015290565b6102dc610f19565b6102dc610f34565b6102dc610f3c565b60208082526102dc92910190610645565b346102ef57610f6d36600461034e565b61034a610f78610f44565b60405191829182610f4c565b346102ef5761057a610f97366004610303565b6131a9565b346102ef5761034a610c6f610fb2366004610303565b6131b2565b6102dc60016004610944565b346102ef57610fd336600461034e565b61034a610336610fb7565b346102ef5761057a610ff1366004610303565b613247565b6102dc60006002610db8565b346102ef5761101236600461034e565b61034a610b9c610ff6565b6102dc6000600b61046a565b346102ef5761103936600461034e565b61034a6104ac61101d565b346102ef5761034a61092961105a366004610303565b6132c5565b346102ef5761034a610b9c611075366004610303565b6133c6565b6102dc60006004610944565b346102ef5761109636600461034e565b61034a61033661107a565b346102ef5761057a6110b4366004610303565b61342e565b6102dc60006001610944565b346102ef576110d536600461034e565b61034a6103366110b9565b346102ef5761057a6110f3366004610303565b6134bf565b61093e6102dc6102dc9290565b6102dc6102dc6102dc9290565b6102d06102dc6102dc9290565b6102dc90611112565b634e487b7160e01b600052601160045260246000fd5b60ff1660ff811461114f5760010190565b611128565b6102dc61116b91611163600090565b506007610b39565b600061117760006110f8565b906111826000611105565b600184016111916102dc825490565b8210156111ea576105e9826111a5926105a9565b6111bf6111b96111b48561111f565b6102d0565b916102d0565b036111d2575b60019081015b9050611182565b916111cb6111e160019261113e565b939150506111c5565b505050905090565b6102dc6101806109b2565b6112056111f2565b9060008252602080808080808080808080808d0160008152016000815201600081520160008152016000815201600081520160008152016000815201600081520160008152016000905250565b905250565b6102dc6111fd565b6102dc9061093e565b6102dc905461125f565b6102dc9060101c61093e565b6102dc9054611272565b6102dc9060081c61093e565b6102dc9054611288565b6102dc9081565b6102dc905461129e565b6102dc906102d0565b6102dc90546112af565b90610317906102d0565b6112d4611257565b506112df6001611268565b6112e9600161127e565b6112f36001611294565b6112fd6004611268565b61130760026112a5565b61131160036112a5565b61131b6004611294565b61132430610b30565b9161132f60086112b8565b9361133a60096112b8565b95611345600a6112b8565b97611350600b6112b8565b996113596111f2565b60ff909c168c5260ff1660208c015260ff1660408b015260ff1660608a0152608089015260a088015260ff1660c08701526113979060e087016112c2565b6113a59061010086016112c2565b6113b39061012085016112c2565b6113c19061014084016112c2565b6102dc9061016083016112c2565b6102dc9060401c61093e565b6102dc90546113cf565b6102dc905b6001600160401b031690565b6102dc90546113e5565b6113ea6102dc6102dc9290565b906001600160401b03905b9181191691161790565b6113ea6102dc6102dc926001600160401b031690565b906114486102dc61144f92611422565b825461140d565b9055565b9060ff60401b9060401b611418565b906114726102dc61144f92151590565b8254611453565b61031790611400565b6020810192916103019190611479565b94919261150b97949196936114c47ff0c57e16840df040f15088dc2f81fe391c3923bec73e23a9662efc9c229c6a0090565b9788976114e06114da6114d68b6113db565b1590565b996113f6565b9960009a6114ed8c611400565b6001600160401b0382161490816115fe575b61151860019e8f611400565b916001600160401b031690565b1490816115d9575b155b90816115d0575b506115bb57918998969492918c9a989694928c6115458d611400565b91019d6115538f9283611438565b6115639a6115ab575b50506116c6565b61156c57505050565b61159a6115a6927fc7f505b2f371ae2175ee4913f4499e1f2633a7b5936321eed1cdaeb6115181d294611462565b60405191829182611482565b0390a1565b6115b491611462565b8c8b61155c565b63f92ee8a960e01b8b528a80600481015b0390fd5b15905038611529565b90506115228c6115f56106ca6115ee30610b30565b3b92611105565b14919050611520565b8b91506114ff565b9060001990611418565b906116206102dc61144f92611105565b8254611606565b9062ff00009060101b611418565b61093e6102dc6102dc9260ff1690565b906116556102dc61144f92611635565b8254611627565b9060ff90611418565b906116756102dc61144f92611635565b825461165c565b9061ff009060081b611418565b906116996102dc61144f92611635565b825461167c565b906001600160a01b0390611418565b906116bf6102dc61144f92610b30565b82546116a0565b61174896959361172c61173a94611725611741989561171e611733966116eb336134dd565b6116f36134f9565b6116fb613514565b611703613524565b6117176117106001611105565b6000611610565b6001611645565b6001611665565b6001611689565b6004611665565b6004611689565b6002611610565b6003611610565b6117556111b4600061111f565b61175e826102d0565b036117665750565b61030190600b6116af565b9061030197969594939291611492565b61178961352c565b6103016103016135c6565b610301611781565b6001600160401b0381116109ad5760208091020190565b90610f146109fe8361179c565b6102dc6101e06109b2565b6102dc6101206109b2565b6001600160401b0381116109ad5760200290565b6109fe6102dc916117d6565b369037565b9061030161181161180b846117ea565b936117d6565b836117f6565b6102dc600a6117fb565b6118296117cb565b9060008252602080808080808080808a016060815201600081520160008152016000815201600081520160008152016000815201611252611817565b6102dc611821565b6118756117c0565b90600082526020820160008152602001600081526020016000815260200160008152602001606081526020016000815260200160008152602001600081526020016000815260200160008152602001600081526020016000815260200160008152602001610317611865565b6102dc61186d565b60005b8281106118f857505050565b6020906119036118e1565b81840152016118ec565b9061030161192361191d846117b3565b9361179c565b601f1901602084016118e9565b90611939825190565b8110156105cc576020809102010190565b6102dc61195991611163606090565b9061196d611968600084015490565b61190d565b90600061197a6000611105565b8185016119886102dc825490565b8210156119c957906119a86119a36105e9836119c4956105a9565b613611565b6119b28287611930565b526119bd8186611930565b5060010190565b61197a565b505050915090565b90610301916119de6136b3565b90610301916119ec8161372d565b613736565b90610301916119d1565b90611a12969594939291611a0d6137ea565b611eb3565b610301613848565b15611a2157565b60405162461bcd60e51b815260206004820152600f60248201526e10dbdb9d1c9858dd081c185d5cd959608a1b6044820152606490fd5b15611a5f57565b60405162461bcd60e51b815260206004820152601460248201527310995d08185b5bdd5b9d081d1bdbc81cdb585b1b60621b6044820152606490fd5b15611aa257565b60405162461bcd60e51b8152602060048201526013602482015272496e76616c6964206d617820706c617965727360681b6044820152606490fd5b15611ae457565b60405162461bcd60e51b815260206004820152601a60248201527f496e76616c69642062616e6b6572206665652070657263656e740000000000006044820152606490fd5b15611b3057565b60405162461bcd60e51b8152602060048201526012602482015271496e76616c6964207461626c65206e616d6560701b6044820152606490fd5b15611b7157565b60405162461bcd60e51b8152602060048201526013602482015272496e76616c696420666972737420726169736560681b6044820152606490fd5b15611bb357565b60405162461bcd60e51b8152602060048201526014602482015273496e76616c6964207365636f6e6420726169736560601b6044820152606490fd5b6102dc6102dc6102dc9260ff1690565b15611c0657565b60405162461bcd60e51b815260206004820152601a60248201527f496e76616c696420726f6f6d206c6576656c20616464726573730000000000006044820152606490fd5b8015156102e8565b9050519061030182611c4b565b906020828203126102ef576102dc91611c53565b6040513d6000823e3d90fd5b15611c8757565b60405162461bcd60e51b8152602060048201526013602482015272149bdbdb481b195d995b081c995c5d5a5c9959606a1b6044820152606490fd5b90505190610301826104ce565b906020828203126102ef576102dc91611cc2565b9190820180921161114f57565b15611cf757565b60405162461bcd60e51b81526020600482015260196024820152781c9bdbdb481b195d995b081b1a5b5a5d08195e18d959591959603a1b6044820152606490fd5b15611d3f57565b60405162461bcd60e51b815260206004820152602260248201527f496e76616c69642067616d65207461626c6520666163746f7279206164647265604482015261737360f01b6064820152608490fd5b90505190610301826102df565b906020828203126102ef576102dc91611d8f565b908152919998979196919591949193919290610140880188810360208a0152611dd891610645565b9960408801611de691610359565b606087015260ff16608086015260a08501611e0091610359565b60ff1660c084015260ff1660e083015260ff166101008201526101200152565b600019811461114f5760010190565b916001600160a01b0360089290920291821b911b611418565b9190611e596102dc61144f93610b30565b908354611e2f565b80549190600160401b8310156109ad5782611e84916001610301950181556105a9565b90611e48565b61031790611bef565b90815260ff90911660208201526060810192916103019160400190611e8a565b93908293969291878297611ed0611ecb6114d6612a1d565b611a1a565b6000978891611ee9611ee184611105565b871415611a58565b6001611ef4816110f8565b60ff891611806122bf575b611f0890611a9b565b611f23611f1861093e6004611268565b60ff87161115611add565b611f43838051611f356106ca88611105565b1190816122a7575b50611b29565b611f4c816110f8565b60ff871610158061228c575b611f6190611b6a565b611f6a816110f8565b60ff8316101580612271575b611f7f90611bac565b611f88336133c6565b90611f9a611f9582611268565b611bef565b821015612106575b50506020969761201791611fcf611fb9600b6112b8565b611fc86111b96111b48961111f565b1415611d38565b611fe4611fdf611fdf600b6112b8565b610b30565b96611fee866112a5565b96611ff830610b30565b6040519c8d9b8c9a8b996334f4a4e560e11b8b52339160048c01611db0565b03925af1801561210157836120a3927f5deb5bb4617e976ddbcd6c774c8245d0f8760978d08eeb2e06ede465c07b053595926120c8575b508161207c8261207161206b612066611fdf966112a5565b611e20565b82611610565b612081836005611e61565b611e61565b61209583612090816006610b39565b6116af565b6106796102dc336007610b39565b926120c36120b033610b30565b956120ba60405190565b93849384611e93565b0390a3565b61207c9250906120f2611fdf9260203d6020116120fa575b6120ea818361098c565b810190611d9c565b92509061204e565b503d6120e0565b611c74565b935095509550915061213161211b600a6112b8565b61212a6111b96111b48c61111f565b1415611bff565b612144611fdf611fdf611fdf600a6112b8565b9161214e60405190565b634ed7ff6360e01b8152602081806121693360048301610481565b0381875afa801561210157612185918b91612242575b50611c80565b602061219060405190565b938490623480f560ea1b825281806121ab3360048301610481565b03915afa9283156121015788976020978c976121ea8f976102dc8f98916106ca92612017988b92612209575b50611f956121e491611268565b90611ce3565b10156121fb575b9181999850611fa2565b61220485611cf0565b6121f1565b8f6121e4929350611f9591612233913d60201161223b575b61222b818361098c565b810190611ccf565b9291506121d7565b503d612221565b612264915060203d60201161226a575b61225c818361098c565b810190611c60565b3861217f565b503d612252565b50611f7f61227f60046110f8565b60ff841611159050611f76565b50611f6161229a60046110f8565b60ff881611159050611f58565b5190506122b76106ca6014611105565b111538611f3d565b50611f086122cf61093e8361127e565b60ff8a1611159050611eff565b906103019695949392916119fb565b6102dc906122f761387d565b612325565b6102dc7f360894a13ba1a3210667c828492db98dca3e2076cc3735a920a3ca505d382bbc611105565b506102dc6122fc565b6102dc60006122eb565b90610301959493929161234961352c565b61249a565b1561235557565b60405162461bcd60e51b815260206004820152602360248201527f42616e6b6572206665652070657263656e74206d75737420626520706f73697460448201526269766560e81b6064820152608490fd5b156123ad57565b60405162461bcd60e51b815260206004820152601f60248201527f506c617965722074696d656f7574206d75737420626520706f736974697665006044820152606490fd5b156123f957565b60405162461bcd60e51b815260206004820152602760248201527f5461626c6520696e6163746976652074696d656f7574206d75737420626520706044820152666f73697469766560c81b6064820152608490fd5b1561245557565b60405162461bcd60e51b815260206004820152601e60248201527f496e76616c6964206c697175696461746f72206665652070657263656e7400006044820152606490fd5b9261173a61030196959361172c61174194611725611733986124c96124bf60016110f8565b60ff831611611a9b565b61251960006124d7816110f8565b60ff8816141580612548575b6124ec9061234e565b6125006124f882611105565b8a14156123a6565b61251461250c82611105565b8c14156123f2565b6110f8565b60ff8c1614158061252e575b6117179061244e565b5061171761253c60646110f8565b60ff8d16109050612525565b506124ec61255660646110f8565b60ff89161090506124e3565b906103019594939291612338565b1561257757565b60405162461bcd60e51b815260206004820152601c60248201527f436f756e74206d7573742062652067726561746572207468616e2030000000006044820152606490fd5b9190820391821161114f57565b909291926125d96109fe826109c6565b93818552818301116102ef57610301916020850190610622565b9080601f830112156102ef5781516102dc926020016125c9565b90505190610301826104b8565b600711156102ef57565b905051906103018261261a565b909291926126416109fe826117d6565b9360208592028301928184116102ef57915b8383106126605750505050565b6020809161266e8486611cc2565b815201920191612653565b9080601f830112156102ef57600a6102dc92612631565b919091610240818403126102ef576126a96101206109b2565b926126b48183611cc2565b84526020820151906001600160401b0382116102ef576126d9816127559385016125f3565b60208601526126eb8160408501611d8f565b60408601526126fd8160608501611cc2565b606086015261270f8160808501611cc2565b60808601526127218160a08501611cc2565b60a08601526127338160c08501611cc2565b60c08601526127458160e08501611c53565b60e0860152610100809301612679565b90830152565b9190916101e0818403126102ef576127746101e06109b2565b9261277f8183611c53565b845261278e8160208401611cc2565b60208501526127a08160408401611cc2565b60408501526127b28160608401611d8f565b60608501526127c48160808401611cc2565b608085015260a08201516001600160401b0381116102ef57816127e89184016125f3565b60a08501526127fa8160c08401611d8f565b60c085015261280c8160e08401611cc2565b60e08501526101006128208282850161260d565b908501526101206128338282850161260d565b908501526101406128468282850161260d565b9085015261016061285982828501612624565b9085015261018061286c82828501611cc2565b908501526101a061287f82828501611cc2565b908501526101c08201516001600160401b0381116102ef576128a19201612690565b6101c0830152565b906020828203126102ef5781516001600160401b0381116102ef576102dc920161275b565b906000916128e86128de846110f8565b60ff831611612570565b6005926128f460055490565b916128fe82611105565b8314612a0c5761290d90611bef565b93848310612a03575b61291f8561190d565b9285808211156129f357612932916125bc565b61293b83611105565b868110156129ea5761295f611fdf611fdf6105e96129598587611ce3565b876105a9565b908461296a60405190565b63244dc9df60e01b815292839060049082905afa918215612101576129c3926119bd9187916129c8575b506129b1836129ac6129a66001611105565b8d6125bc565b6125bc565b906129bc828a611930565b5287611930565b61293b565b6129e491503d8089833e6129dc818361098c565b8101906128a9565b38612994565b50929450505050565b50506129fe82611105565b612932565b93508193612916565b506102dc9293506119689150611105565b6102dc6000612a2a6138b9565b01611268565b906020828203126102ef576102dc91612624565b6005805490612a528261190d565b92600091612a5f83611105565b91825b855b811015612c4857612a7e611fdf611fdf6105e984876105a9565b604051634284848960e01b8152602081600481855afa801561210157612ab0918891612c2a575b506121e460036112a5565b421180612b46575b612acd575b50612a64906001015b9050612a62565b85612ada95929560405190565b63244dc9df60e01b815291829060049082905afa90811561210157612a6492612ac692612b24928991612b2c575b50612b13828c611930565b52612b1e818b611930565b50611e20565b949150612abd565b612b4091503d808b833e6129dc818361098c565b38612b08565b5063c19d93fb612b5560405190565b612b5f8260e01b90565b8152602081600481865afa908115612101578891612c0c575b50612b8c612b8660026106a2565b916106a2565b14908115612b9b575b50612ab8565b9050612bb0612ba960405190565b9160e01b90565b8152602081600481855afa908115612101578791612bde575b50612bd7612b8660036106a2565b1438612b95565b612bff915060203d8111612c05575b612bf7818361098c565b810190612a30565b38612bc9565b503d612bed565b612c24915060203d8111612c0557612bf7818361098c565b38612b78565b612c42915060203d811161223b5761222b818361098c565b38612aa5565b50919492935050612c61612c5b8561190d565b93611105565b845b811015612c9857612c9181612c7b612c639386611930565b51612c868288611930565b526119bd8187611930565b9050612c61565b5092505090565b90612cba612cae610cb8845490565b92600052602060002090565b9060005b818110612ccb5750505090565b909192612cec612ce5600192612ce0876112b8565b610c9c565b9460010190565b929101612cbe565b906102dc91612c9f565b90610301612d1892612d0f60405190565b93848092612cf4565b038361098c565b6102dc90612cfe565b6102dc6005612d1f565b61030190612d3e61352c565b611a1290612d4a6137ea565b61030190612d67612d5e6111b4600061111f565b61212a836102d0565b600a6116af565b61030190612d32565b15612d7e57565b60405162461bcd60e51b8152602060048201526015602482015274496e76616c6964207461626c65206164647265737360581b6044820152606490fd5b15612dc257565b60405162461bcd60e51b815260206004820152601e60248201527f4d6178206a6f696e207461626c657320636f756e7420657863656564656400006044820152606490fd5b15612e0e57565b60405162461bcd60e51b8152602060048201526013602482015272155cd95c88105b1c9958591e481a9bda5b9959606a1b6044820152606490fd5b6102dc612ea991612e78612e66612e61336006610b39565b6112b8565b612e726111b9336102d0565b14612d77565b612ea2612e8482611154565b612e9b612e9461093e6001611294565b9160ff1690565b1115612dbb565b6007610b39565b6002810190612ec0612ebb3384610b39565b6112a5565b91612ed9600093612ed36106ca86611105565b14612e07565b82612ee384611105565b60018401612ef26102dc825490565b821015612f9457612f066105e983836105a9565b612f156111b96111b48961111f565b14612f235750600101612ee3565b612f629394955081612f41929350612f3a916105a9565b3391611e48565b6114d6612f536001926121e484611105565b612f5d3386610b39565b611610565b612f6a575050565b612f5d612f8c60016103019401612f88612f818290565b3390611e61565b5490565b913390610b39565b5050612f62919293501590565b612fa961352c565b610301610301612fb9600061111f565b6138dd565b610301612fa1565b6000610679612fd792611163600090565b90600090612fe56000611105565b612ff06102dc855490565b81101561306d5761300a611fdf611fdf6105e984886105a9565b602061301560405190565b634b102ef360e11b815291829060049082905afa90811561210157849161304f575b50821461304657600101612fe5565b50505050600190565b613067915060203d811161223b5761222b818361098c565b38613037565b50505050600090565b61307e61352c565b610301610301613993565b610301613076565b6103019061309d61352c565b611a12906130a96137ea565b610301906130c66130bd6111b4600061111f565b611fc8836102d0565b600b6116af565b61030190613091565b6102dc60007f9016d09d72d40fdae2fd8ceac6b6234c7706214fd39c1cd1e609a0528c1993005b016112b8565b6102dc9061310f6118e1565b50613611565b6103019061312161352c565b611a129061312d6137ea565b61317e565b1561313957565b60405162461bcd60e51b815260206004820152601b60248201527f496e76616c69642072657761726420706f6f6c206164647265737300000000006044820152606490fd5b610301906131a26131926111b4600061111f565b61319b836102d0565b1415613132565b60086116af565b61030190613115565b6131cc6111b96131c6612e61846006610b39565b926102d0565b1490565b156131d757565b60405162461bcd60e51b815260206004820152600f60248201526e155cd95c88139bdd081a9bda5b9959608a1b6044820152606490fd5b9160001960089290920291821b911b611418565b91906132336102dc61144f93611105565b90835461320e565b61030191600091613222565b60006132c06132676102dc61030194612ea2612e66612e61336006610b39565b6132b96002820191611e8461327f612ebb3386610b39565b61329261328b88611105565b82116131d0565b6132b360016132a08961111f565b9401916132ad6001611105565b906125bc565b906105a9565b3390610b39565b61323b565b6132e2611968611f956132dc6102dc856007610b39565b93611154565b916000906132ef82611105565b90815b600185016133016102dc825490565b8210156133bd576133156105e983836105a9565b6133246111b96111b48861111f565b03613338575b5060019081015b90506132f2565b611fdf611fdf6105e98461334e949795976105a9565b8461335860405190565b63244dc9df60e01b815291829060049082905afa908115612101576001926133319261339b9288916133a3575b50613390828b611930565b52612b1e818a611930565b93915061332a565b6133b791503d808a833e6129dc818361098c565b38613385565b50909350505050565b60006133d76102dc92611163600090565b015490565b610301906133e861352c565b60006133f38161111f565b6133fc816102d0565b613405846102d0565b14613415575050610301906138dd565b631e4fbdf760e01b825281906115cc9060048301610481565b610301906133dc565b6103019061344361352c565b613494565b1561344f57565b60405162461bcd60e51b815260206004820152601a60248201527f496e76616c696420726f6f6d206361726420636f6e74726163740000000000006044820152606490fd5b610301906134b86134a86111b4600061111f565b6134b1836102d0565b1415613448565b60096116af565b61030190613437565b610301906134d461399b565b610301906139ca565b610301906134c8565b6134ee61399b565b6103016103016139db565b6103016134e6565b61350961399b565b6103016103016139fc565b610301613501565b61030161399b565b61030161351c565b6135346130d6565b33906135426111b9836102d0565b0361354a5750565b63118cdaa760e01b600090815290613563906004610481565b036000fd5b613570613a04565b610301613588565b906116756102dc61144f92151590565b61359c6000806135966138b9565b01613578565b7f5db9ee0a495bf2e6ff9c91a7834c1ba4fdd244a5e8aa4e537bd38aeae4b073aa6115a6336104ac565b610301613568565b156135d557565b60405162461bcd60e51b81526020600482015260146024820152731518589b1948191bd95cc81b9bdd08195e1a5cdd60621b6044820152606490fd5b611fdf61364f916136206118e1565b50611fdf61362e600061111f565b613637816102d0565b613640846102d0565b14159081613695575b506135ce565b600061365a60405190565b63244dc9df60e01b815291829060049082905afa90811561210157600091613680575090565b6102dc91503d806000833e6129dc818361098c565b90506136ab6111b96131c6612e61866006610b39565b141538613649565b6136bc30610b30565b7f0000000000000000000000000000000000000000000000000000000000000000906136ea6111b9836102d0565b1490811561370c575b506136fa57565b63703e46dd60e11b6000908152600490fd5b905061371c6111b96131c6613a27565b1415386136f3565b5061030161352c565b61030190613724565b91613743611fdf84610b30565b91602061374f60405190565b6352d1902d60e01b815293849060049082905afa600093816137bf575b5061378957634c9c8ce360e01b6000908152613563856004610481565b9091926137976102dc6122fc565b84036137a857610301929350613a37565b632a87526960e21b60009081526004859052602490fd5b6137d991945060203d60201161223b5761222b818361098c565b923861376c565b6102dc6002611105565b7f9b779b17422d0df92223018b32b4d1fa46e071723d6817e2486d003becc55f00613814816112a5565b61381c6137e0565b90811461382c5761030191611610565b633ee5aeb560e01b6000908152600490fd5b6102dc6001611105565b6103017f9b779b17422d0df92223018b32b4d1fa46e071723d6817e2486d003becc55f00600061387661383e565b9101611610565b61388630610b30565b6138b26111b97f00000000000000000000000000000000000000000000000000000000000000006102d0565b036136fa57565b7fcd5ed15c6e187e77e9aee88184c21f4f2182ab5827cb3b7e07fbedcd63f0330090565b61391d6139177f9016d09d72d40fdae2fd8ceac6b6234c7706214fd39c1cd1e609a0528c199300611fdf84613911836112b8565b926116af565b91610b30565b907f8be0079c531659141344cd1fd0a4f28419497f9722a3daafe3b4186f6b6457e061394860405190565b80806120c3565b613957613aa3565b610301613969600160006135966138b9565b7f62e78cea01bee320cd4e420270b5ea74000d11b0c9f74754ebdbfc544b05a2586115a6336104ac565b61030161394f565b6139a66114d6613ac3565b6139ac57565b631afcd79f60e31b6000908152600490fd5b610301906133e861399b565b610301906139be565b611a1261399b565b6103016139d3565b6139eb61399b565b6103016103016000806135966138b9565b6103016139e3565b613a0f6114d6612a1d565b613a1557565b638dfc202b60e01b6000908152600490fd5b6102dc60006130fd6102dc6122fc565b90613a4182613aec565b613a4a82610b30565b7fbc7cd75a20ee27fd9adebab32041f755214dbc6bffa90cc0225b39da2e5c2d3b613a7460405190565b600090a28051613a876106ca6000611105565b1115613a9957613a9691613b71565b50565b5050610301613b2f565b613aab612a1d565b613ab157565b63d93c066560e01b6000908152600490fd5b6102dc7ff0c57e16840df040f15088dc2f81fe391c3923bec73e23a9662efc9c229c6a006113db565b6000813b613afc6106ca83611105565b14613b17579061030191613b116102dc6122fc565b016116af565b6115cc8192634c9c8ce360e01b835260048301610481565b6000613b3a81611105565b3411613b435750565b63b398979f60e01b8152600490fd5b3d15613b6c57613b613d610f07565b903d6000602084013e565b606090565b6000806102dc93613b80606090565b50602081519101845af4613b92613b52565b9190613b9e5750613bee565b815190600091613bb06106ca84611105565b1480613bd9575b613bc057505090565b639996b31560e01b825281906115cc9060048301610481565b50803b613be86106ca84611105565b14613bb7565b8051600090613bff6106ca83611105565b1115613c0e5750805190602001fd5b63d6bda27560e01b8152600490fdfea164736f6c634300081c000a",
  "devdoc": {
    "details": "",
    "errors": {
      "AddressEmptyCode(address)": [
        {
          "details": "There's no code at `target` (it is not a contract)."
        }
      ],
      "ERC1967InvalidImplementation(address)": [
        {
          "details": "The `implementation` of the proxy is invalid."
        }
      ],
      "ERC1967NonPayable()": [
        {
          "details": "An upgrade function sees `msg.value > 0` that may be lost."
        }
      ],
      "EnforcedPause()": [
        {
          "details": "The operation failed because the contract is paused."
        }
      ],
      "ExpectedPause()": [
        {
          "details": "The operation failed because the contract is not paused."
        }
      ],
      "FailedCall()": [
        {
          "details": "A call to an address target failed. The target may have reverted."
        }
      ],
      "InvalidInitialization()": [
        {
          "details": "The contract is already initialized."
        }
      ],
      "NotInitializing()": [
        {
          "details": "The contract is not initializing."
        }
      ],
      "OwnableInvalidOwner(address)": [
        {
          "details": "The owner is not a valid owner account. (eg. `address(0)`)"
        }
      ],
      "OwnableUnauthorizedAccount(address)": [
        {
          "details": "The caller account is not authorized to perform an operation."
        }
      ],
      "ReentrancyGuardReentrantCall()": [
        {
          "details": "Unauthorized reentrant call."
        }
      ],
      "UUPSUnauthorizedCallContext()": [
        {
          "details": "The call is from an unauthorized context."
        }
      ],
      "UUPSUnsupportedProxiableUUID(bytes32)": [
        {
          "details": "The storage `slot` is unsupported as a UUID."
        }
      ]
    },
    "events": {
      "Initialized(uint64)": {
        "details": "Triggered when the contract has been initialized or reinitialized."
      },
      "Paused(address)": {
        "details": "Emitted when the pause is triggered by `account`."
      },
      "Unpaused(address)": {
        "details": "Emitted when the pause is lifted by `account`."
      },
      "Upgraded(address)": {
        "details": "Emitted when the implementation is upgraded."
      }
    },
    "kind": "dev",
    "methods": {
      "constructor": {
        "custom:oz-upgrades-unsafe-allow": "constructor"
      },
      "createGameTable(string,uint256,uint8,uint8,uint8,uint8,uint256)": {
        "details": "",
        "params": {
          "bankerFeePercent": "",
          "betAmount": "",
          "tableMaxPlayers": "",
          "tableName": ""
        }
      },
      "getAllGameTablesInactive()": {
        "details": "",
        "returns": {
          "_0": ""
        }
      },
      "getGameTableInfo(address)": {
        "details": "",
        "params": {
          "tableAddr": ""
        },
        "returns": {
          "_0": ""
        }
      },
      "getNewestGameTables(uint8)": {
        "details": "",
        "params": {
          "_count": ""
        },
        "returns": {
          "_0": ""
        }
      },
      "getUserCreatedRoomsCount(address)": {
        "details": "",
        "params": {
          "userAddress": ""
        },
        "returns": {
          "_0": ""
        }
      },
      "getUserGameTables(address)": {
        "details": "",
        "params": {
          "userAddr": ""
        },
        "returns": {
          "_0": ""
        }
      },
      "initialize(uint8,uint8,uint8,uint8,uint8,uint256,uint256,address)": {
        "details": ""
      },
      "owner()": {
        "details": "Returns the address of the current owner."
      },
      "pause()": {
        "details": ""
      },
      "paused()": {
        "details": "Returns true if the contract is paused, and false otherwise."
      },
      "proxiableUUID()": {
        "details": "Implementation of the ERC-1822 {proxiableUUID} function. This returns the storage slot used by the implementation. It is used to validate the implementation's compatibility when performing an upgrade. IMPORTANT: A proxy pointing at a proxiable contract should not be considered proxiable itself, because this risks bricking a proxy that upgrades to it, by delegating to itself until out of gas. Thus it is critical that this function revert if invoked through a proxy. This is guaranteed by the `notDelegated` modifier."
      },
      "renounceOwnership()": {
        "details": "Leaves the contract without owner. It will not be possible to call `onlyOwner` functions. Can only be called by the current owner. NOTE: Renouncing ownership will leave the contract without an owner, thereby disabling any functionality that is only available to the owner."
      },
      "setGameTableFactoryAddress(address)": {
        "details": "",
        "params": {
          "_gameTableFactoryAddress": ""
        }
      },
      "setRoomCardAddress(address)": {
        "details": "",
        "params": {
          "_roomCardAddress": ""
        }
      },
      "setRoomLevelAddress(address)": {
        "details": "",
        "params": {
          "_roomLevelAddress": ""
        }
      },
      "transferOwnership(address)": {
        "details": "Transfers ownership of the contract to a new account (`newOwner`). Can only be called by the current owner."
      },
      "unpause()": {
        "details": ""
      },
      "updateGameConfig(uint8,uint8,uint8,uint256,uint256,uint8)": {
        "details": ""
      },
      "upgradeToAndCall(address,bytes)": {
        "custom:oz-upgrades-unsafe-allow-reachable": "delegatecall",
        "details": "Upgrade the implementation of the proxy to `newImplementation`, and subsequently execute the function call encoded in `data`. Calls {_authorizeUpgrade}. Emits an {Upgraded} event."
      }
    },
    "title": "BBGameMain",
    "version": 1
  },
  "userdoc": {
    "kind": "user",
    "methods": {
      "getUserJoinedTables(address)": {
        "notice": ""
      },
      "userJoinTable(address)": {
        "notice": ""
      },
      "userLeaveTable(address)": {
        "notice": ""
      }
    },
    "version": 1
  },
  "storageLayout": {
    "storage": [
      {
        "astId": 9740,
        "contract": "contracts/BBGameMain.sol:BBGameMain",
        "label": "nextTableId",
        "offset": 0,
        "slot": "0",
        "type": "t_uint256"
      },
      {
        "astId": 9742,
        "contract": "contracts/BBGameMain.sol:BBGameMain",
        "label": "maxRoomCount",
        "offset": 0,
        "slot": "1",
        "type": "t_uint8"
      },
      {
        "astId": 9744,
        "contract": "contracts/BBGameMain.sol:BBGameMain",
        "label": "maxJoinTablesCount",
        "offset": 1,
        "slot": "1",
        "type": "t_uint8"
      },
      {
        "astId": 9746,
        "contract": "contracts/BBGameMain.sol:BBGameMain",
        "label": "maxPlayers",
        "offset": 2,
        "slot": "1",
        "type": "t_uint8"
      },
      {
        "astId": 9748,
        "contract": "contracts/BBGameMain.sol:BBGameMain",
        "label": "playerTimeout",
        "offset": 0,
        "slot": "2",
        "type": "t_uint256"
      },
      {
        "astId": 9750,
        "contract": "contracts/BBGameMain.sol:BBGameMain",
        "label": "tableInactiveTimeout",
        "offset": 0,
        "slot": "3",
        "type": "t_uint256"
      },
      {
        "astId": 9752,
        "contract": "contracts/BBGameMain.sol:BBGameMain",
        "label": "maxBankerFeePercent",
        "offset": 0,
        "slot": "4",
        "type": "t_uint8"
      },
      {
        "astId": 9754,
        "contract": "contracts/BBGameMain.sol:BBGameMain",
        "label": "liquidatorFeePercent",
        "offset": 1,
        "slot": "4",
        "type": "t_uint8"
      },
      {
        "astId": 9757,
        "contract": "contracts/BBGameMain.sol:BBGameMain",
        "label": "tableAddresses",
        "offset": 0,
        "slot": "5",
        "type": "t_array(t_address)dyn_storage"
      },
      {
        "astId": 9761,
        "contract": "contracts/BBGameMain.sol:BBGameMain",
        "label": "gameTables",
        "offset": 0,
        "slot": "6",
        "type": "t_mapping(t_address,t_address)"
      },
      {
        "astId": 9766,
        "contract": "contracts/BBGameMain.sol:BBGameMain",
        "label": "userInfos",
        "offset": 0,
        "slot": "7",
        "type": "t_mapping(t_address,t_struct(UserInfo)19929_storage)"
      },
      {
        "astId": 9768,
        "contract": "contracts/BBGameMain.sol:BBGameMain",
        "label": "rewardPoolAddress",
        "offset": 0,
        "slot": "8",
        "type": "t_address"
      },
      {
        "astId": 9770,
        "contract": "contracts/BBGameMain.sol:BBGameMain",
        "label": "roomCardAddress",
        "offset": 0,
        "slot": "9",
        "type": "t_address"
      },
      {
        "astId": 9772,
        "contract": "contracts/BBGameMain.sol:BBGameMain",
        "label": "roomLevelAddress",
        "offset": 0,
        "slot": "10",
        "type": "t_address"
      },
      {
        "astId": 9774,
        "contract": "contracts/BBGameMain.sol:BBGameMain",
        "label": "gameTableFactoryAddress",
        "offset": 0,
        "slot": "11",
        "type": "t_address"
      },
      {
        "astId": 9778,
        "contract": "contracts/BBGameMain.sol:BBGameMain",
        "label": "__gap",
        "offset": 0,
        "slot": "12",
        "type": "t_array(t_uint256)25_storage"
      }
    ],
    "types": {
      "t_address": {
        "encoding": "inplace",
        "label": "address",
        "numberOfBytes": "20"
      },
      "t_array(t_address)dyn_storage": {
        "base": "t_address",
        "encoding": "dynamic_array",
        "label": "address[]",
        "numberOfBytes": "32"
      },
      "t_array(t_uint256)25_storage": {
        "base": "t_uint256",
        "encoding": "inplace",
        "label": "uint256[25]",
        "numberOfBytes": "800"
      },
      "t_mapping(t_address,t_address)": {
        "encoding": "mapping",
        "key": "t_address",
        "label": "mapping(address => address)",
        "numberOfBytes": "32",
        "value": "t_address"
      },
      "t_mapping(t_address,t_struct(UserInfo)19929_storage)": {
        "encoding": "mapping",
        "key": "t_address",
        "label": "mapping(address => struct UserInfo)",
        "numberOfBytes": "32",
        "value": "t_struct(UserInfo)19929_storage"
      },
      "t_mapping(t_address,t_uint256)": {
        "encoding": "mapping",
        "key": "t_address",
        "label": "mapping(address => uint256)",
        "numberOfBytes": "32",
        "value": "t_uint256"
      },
      "t_struct(UserInfo)19929_storage": {
        "encoding": "inplace",
        "label": "struct UserInfo",
        "members": [
          {
            "astId": 19921,
            "contract": "contracts/BBGameMain.sol:BBGameMain",
            "label": "tables",
            "offset": 0,
            "slot": "0",
            "type": "t_array(t_address)dyn_storage"
          },
          {
            "astId": 19924,
            "contract": "contracts/BBGameMain.sol:BBGameMain",
            "label": "joinedTables",
            "offset": 0,
            "slot": "1",
            "type": "t_array(t_address)dyn_storage"
          },
          {
            "astId": 19928,
            "contract": "contracts/BBGameMain.sol:BBGameMain",
            "label": "joinedTableIndex",
            "offset": 0,
            "slot": "2",
            "type": "t_mapping(t_address,t_uint256)"
          }
        ],
        "numberOfBytes": "96"
      },
      "t_uint256": {
        "encoding": "inplace",
        "label": "uint256",
        "numberOfBytes": "32"
      },
      "t_uint8": {
        "encoding": "inplace",
        "label": "uint8",
        "numberOfBytes": "1"
      }
    }
  }
}