{
  "address": "0x2315AB62967C852a5A9C45E60b3888C1d3575e97",
  "abi": [
    {
      "inputs": [],
      "stateMutability": "nonpayable",
      "type": "constructor"
    },
    {
      "inputs": [
        {
          "internalType": "address",
          "name": "owner",
          "type": "address"
        }
      ],
      "name": "OwnableInvalidOwner",
      "type": "error"
    },
    {
      "inputs": [
        {
          "internalType": "address",
          "name": "account",
          "type": "address"
        }
      ],
      "name": "OwnableUnauthorizedAccount",
      "type": "error"
    },
    {
      "inputs": [],
      "name": "ReentrancyGuardReentrantCall",
      "type": "error"
    },
    {
      "anonymous": false,
      "inputs": [
        {
          "indexed": true,
          "internalType": "address",
          "name": "tableAddr",
          "type": "address"
        },
        {
          "indexed": false,
          "internalType": "uint256",
          "name": "round",
          "type": "uint256"
        },
        {
          "indexed": false,
          "internalType": "uint256",
          "name": "gameStartTimestamp",
          "type": "uint256"
        },
        {
          "indexed": false,
          "internalType": "uint256",
          "name": "gameEndTimestamp",
          "type": "uint256"
        },
        {
          "indexed": false,
          "internalType": "address[]",
          "name": "playerAddrs",
          "type": "address[]"
        },
        {
          "indexed": false,
          "internalType": "address[]",
          "name": "winnerAddrs",
          "type": "address[]"
        },
        {
          "indexed": false,
          "internalType": "uint256[]",
          "name": "playerBets",
          "type": "uint256[]"
        },
        {
          "indexed": false,
          "internalType": "uint8[5][]",
          "name": "playerCards",
          "type": "uint8[5][]"
        }
      ],
      "name": "CreateGameHistory",
      "type": "event"
    },
    {
      "anonymous": false,
      "inputs": [
        {
          "indexed": true,
          "internalType": "address",
          "name": "tableAddr",
          "type": "address"
        }
      ],
      "name": "GameTableChanged",
      "type": "event"
    },
    {
      "anonymous": false,
      "inputs": [
        {
          "indexed": true,
          "internalType": "address",
          "name": "tableAddr",
          "type": "address"
        },
        {
          "indexed": true,
          "internalType": "address",
          "name": "banker",
          "type": "address"
        },
        {
          "indexed": false,
          "internalType": "uint256",
          "name": "version",
          "type": "uint256"
        }
      ],
      "name": "GameTableInitialized",
      "type": "event"
    },
    {
      "anonymous": false,
      "inputs": [
        {
          "indexed": true,
          "internalType": "address",
          "name": "previousOwner",
          "type": "address"
        },
        {
          "indexed": true,
          "internalType": "address",
          "name": "newOwner",
          "type": "address"
        }
      ],
      "name": "OwnershipTransferred",
      "type": "event"
    },
    {
      "inputs": [],
      "name": "_allPlayersActed",
      "outputs": [
        {
          "internalType": "bool",
          "name": "",
          "type": "bool"
        }
      ],
      "stateMutability": "view",
      "type": "function"
    },
    {
      "inputs": [],
      "name": "active",
      "outputs": [
        {
          "internalType": "bool",
          "name": "",
          "type": "bool"
        }
      ],
      "stateMutability": "view",
      "type": "function"
    },
    {
      "inputs": [],
      "name": "bankerAddr",
      "outputs": [
        {
          "internalType": "address",
          "name": "",
          "type": "address"
        }
      ],
      "stateMutability": "view",
      "type": "function"
    },
    {
      "inputs": [],
      "name": "bankerFeePercent",
      "outputs": [
        {
          "internalType": "uint8",
          "name": "",
          "type": "uint8"
        }
      ],
      "stateMutability": "view",
      "type": "function"
    },
    {
      "inputs": [
        {
          "internalType": "address",
          "name": "playerAddr",
          "type": "address"
        }
      ],
      "name": "bankerRemovePlayer",
      "outputs": [],
      "stateMutability": "nonpayable",
      "type": "function"
    },
    {
      "inputs": [],
      "name": "bankerStakeAmount",
      "outputs": [
        {
          "internalType": "uint256",
          "name": "",
          "type": "uint256"
        }
      ],
      "stateMutability": "view",
      "type": "function"
    },
    {
      "inputs": [],
      "name": "betAmount",
      "outputs": [
        {
          "internalType": "uint256",
          "name": "",
          "type": "uint256"
        }
      ],
      "stateMutability": "view",
      "type": "function"
    },
    {
      "inputs": [],
      "name": "canMoveToNextStep",
      "outputs": [
        {
          "internalType": "bool",
          "name": "canMove",
          "type": "bool"
        },
        {
          "internalType": "string",
          "name": "title",
          "type": "string"
        },
        {
          "internalType": "string",
          "name": "reason",
          "type": "string"
        }
      ],
      "stateMutability": "view",
      "type": "function"
    },
    {
      "inputs": [],
      "name": "chatGroupId",
      "outputs": [
        {
          "internalType": "string",
          "name": "",
          "type": "string"
        }
      ],
      "stateMutability": "view",
      "type": "function"
    },
    {
      "inputs": [],
      "name": "creationTimestamp",
      "outputs": [
        {
          "internalType": "uint256",
          "name": "",
          "type": "uint256"
        }
      ],
      "stateMutability": "view",
      "type": "function"
    },
    {
      "inputs": [],
      "name": "currentRoundDeadline",
      "outputs": [
        {
          "internalType": "uint256",
          "name": "",
          "type": "uint256"
        }
      ],
      "stateMutability": "view",
      "type": "function"
    },
    {
      "inputs": [
        {
          "internalType": "string",
          "name": "_tableName",
          "type": "string"
        },
        {
          "internalType": "uint256",
          "name": "_betAmount",
          "type": "uint256"
        },
        {
          "internalType": "uint8",
          "name": "_maxPlayers",
          "type": "uint8"
        },
        {
          "internalType": "uint8",
          "name": "_bankerFeePercent",
          "type": "uint8"
        },
        {
          "internalType": "uint8",
          "name": "_firstRaise",
          "type": "uint8"
        },
        {
          "internalType": "uint8",
          "name": "_secondRaise",
          "type": "uint8"
        },
        {
          "internalType": "uint256",
          "name": "_rewardPoolId",
          "type": "uint256"
        }
      ],
      "name": "editGameTable",
      "outputs": [],
      "stateMutability": "nonpayable",
      "type": "function"
    },
    {
      "inputs": [],
      "name": "finalSeed",
      "outputs": [
        {
          "internalType": "uint256",
          "name": "",
          "type": "uint256"
        }
      ],
      "stateMutability": "view",
      "type": "function"
    },
    {
      "inputs": [],
      "name": "firstBetX",
      "outputs": [
        {
          "internalType": "uint8",
          "name": "",
          "type": "uint8"
        }
      ],
      "stateMutability": "view",
      "type": "function"
    },
    {
      "inputs": [],
      "name": "gameEndTimestamp",
      "outputs": [
        {
          "internalType": "uint256",
          "name": "",
          "type": "uint256"
        }
      ],
      "stateMutability": "view",
      "type": "function"
    },
    {
      "inputs": [],
      "name": "gameLiquidatedCount",
      "outputs": [
        {
          "internalType": "uint256",
          "name": "",
          "type": "uint256"
        }
      ],
      "stateMutability": "view",
      "type": "function"
    },
    {
      "inputs": [],
      "name": "gameMainAddr",
      "outputs": [
        {
          "internalType": "address",
          "name": "",
          "type": "address"
        }
      ],
      "stateMutability": "view",
      "type": "function"
    },
    {
      "inputs": [],
      "name": "gameRound",
      "outputs": [
        {
          "internalType": "uint256",
          "name": "",
          "type": "uint256"
        }
      ],
      "stateMutability": "view",
      "type": "function"
    },
    {
      "inputs": [],
      "name": "gameStartTimestamp",
      "outputs": [
        {
          "internalType": "uint256",
          "name": "",
          "type": "uint256"
        }
      ],
      "stateMutability": "view",
      "type": "function"
    },
    {
      "inputs": [],
      "name": "getAllPlayerData",
      "outputs": [
        {
          "components": [
            {
              "internalType": "address",
              "name": "addr",
              "type": "address"
            },
            {
              "internalType": "enum PlayerState",
              "name": "state",
              "type": "uint8"
            },
            {
              "internalType": "uint256",
              "name": "totalBet",
              "type": "uint256"
            },
            {
              "internalType": "bool",
              "name": "hasActedThisRound",
              "type": "bool"
            },
            {
              "internalType": "bool",
              "name": "isWinner",
              "type": "bool"
            },
            {
              "internalType": "uint8[5]",
              "name": "cards",
              "type": "uint8[5]"
            },
            {
              "internalType": "enum CardType",
              "name": "cardType",
              "type": "uint8"
            },
            {
              "internalType": "uint256[10]",
              "name": "__gap",
              "type": "uint256[10]"
            }
          ],
          "internalType": "struct BBPlayer[]",
          "name": "",
          "type": "tuple[]"
        }
      ],
      "stateMutability": "view",
      "type": "function"
    },
    {
      "inputs": [],
      "name": "getPlayerAddresses",
      "outputs": [
        {
          "internalType": "address[]",
          "name": "",
          "type": "address[]"
        }
      ],
      "stateMutability": "view",
      "type": "function"
    },
    {
      "inputs": [
        {
          "internalType": "address",
          "name": "playerAddr",
          "type": "address"
        }
      ],
      "name": "getPlayerData",
      "outputs": [
        {
          "components": [
            {
              "internalType": "address",
              "name": "addr",
              "type": "address"
            },
            {
              "internalType": "enum PlayerState",
              "name": "state",
              "type": "uint8"
            },
            {
              "internalType": "uint256",
              "name": "totalBet",
              "type": "uint256"
            },
            {
              "internalType": "bool",
              "name": "hasActedThisRound",
              "type": "bool"
            },
            {
              "internalType": "bool",
              "name": "isWinner",
              "type": "bool"
            },
            {
              "internalType": "uint8[5]",
              "name": "cards",
              "type": "uint8[5]"
            },
            {
              "internalType": "enum CardType",
              "name": "cardType",
              "type": "uint8"
            },
            {
              "internalType": "uint256[10]",
              "name": "__gap",
              "type": "uint256[10]"
            }
          ],
          "internalType": "struct BBPlayer",
          "name": "",
          "type": "tuple"
        }
      ],
      "stateMutability": "view",
      "type": "function"
    },
    {
      "inputs": [],
      "name": "getTableInfo",
      "outputs": [
        {
          "components": [
            {
              "internalType": "bool",
              "name": "active",
              "type": "bool"
            },
            {
              "internalType": "uint256",
              "name": "gameRound",
              "type": "uint256"
            },
            {
              "internalType": "uint256",
              "name": "gameLiquidatedCount",
              "type": "uint256"
            },
            {
              "internalType": "address",
              "name": "tableAddr",
              "type": "address"
            },
            {
              "internalType": "uint256",
              "name": "tableId",
              "type": "uint256"
            },
            {
              "internalType": "string",
              "name": "tableName",
              "type": "string"
            },
            {
              "internalType": "address",
              "name": "bankerAddr",
              "type": "address"
            },
            {
              "internalType": "uint256",
              "name": "betAmount",
              "type": "uint256"
            },
            {
              "internalType": "uint8",
              "name": "bankerFeePercent",
              "type": "uint8"
            },
            {
              "internalType": "uint256",
              "name": "totalPrizePool",
              "type": "uint256"
            },
            {
              "internalType": "uint8",
              "name": "playerCount",
              "type": "uint8"
            },
            {
              "internalType": "uint8",
              "name": "maxPlayers",
              "type": "uint8"
            },
            {
              "internalType": "uint256",
              "name": "creationTimestamp",
              "type": "uint256"
            },
            {
              "internalType": "uint256",
              "name": "liquidateDeadline",
              "type": "uint256"
            },
            {
              "internalType": "enum GameState",
              "name": "state",
              "type": "uint8"
            },
            {
              "internalType": "uint8",
              "name": "liquidatorFeePercent",
              "type": "uint8"
            },
            {
              "internalType": "uint8",
              "name": "playerContinuedCount",
              "type": "uint8"
            },
            {
              "internalType": "uint8",
              "name": "playerReadyCount",
              "type": "uint8"
            },
            {
              "internalType": "address[]",
              "name": "playerAddresses",
              "type": "address[]"
            },
            {
              "internalType": "uint256",
              "name": "currentRoundDeadline",
              "type": "uint256"
            },
            {
              "internalType": "uint256",
              "name": "playerTimeout",
              "type": "uint256"
            },
            {
              "internalType": "uint256",
              "name": "tableInactiveTimeout",
              "type": "uint256"
            },
            {
              "internalType": "uint256",
              "name": "lastActivityTimestamp",
              "type": "uint256"
            },
            {
              "internalType": "uint256",
              "name": "rewardPoolId",
              "type": "uint256"
            },
            {
              "components": [
                {
                  "internalType": "uint256",
                  "name": "poolId",
                  "type": "uint256"
                },
                {
                  "internalType": "string",
                  "name": "name",
                  "type": "string"
                },
                {
                  "internalType": "address",
                  "name": "banker",
                  "type": "address"
                },
                {
                  "internalType": "uint256",
                  "name": "totalAmount",
                  "type": "uint256"
                },
                {
                  "internalType": "uint256",
                  "name": "rewardPerGame",
                  "type": "uint256"
                },
                {
                  "internalType": "uint256",
                  "name": "winProbability",
                  "type": "uint256"
                },
                {
                  "internalType": "uint256",
                  "name": "remainingAmount",
                  "type": "uint256"
                },
                {
                  "internalType": "bool",
                  "name": "inUse",
                  "type": "bool"
                },
                {
                  "internalType": "uint256[10]",
                  "name": "__gap",
                  "type": "uint256[10]"
                }
              ],
              "internalType": "struct RewardPoolInfo",
              "name": "rewardPoolInfo",
              "type": "tuple"
            },
            {
              "internalType": "uint256",
              "name": "implementationVersion",
              "type": "uint256"
            },
            {
              "internalType": "uint8",
              "name": "firstBetX",
              "type": "uint8"
            },
            {
              "internalType": "uint8",
              "name": "secondBetX",
              "type": "uint8"
            },
            {
              "internalType": "uint256",
              "name": "bankerStakeAmount",
              "type": "uint256"
            },
            {
              "internalType": "bool",
              "name": "canNext",
              "type": "bool"
            },
            {
              "internalType": "string",
              "name": "nextTitle",
              "type": "string"
            },
            {
              "internalType": "string",
              "name": "nextReason",
              "type": "string"
            },
            {
              "internalType": "address",
              "name": "rewardAddr",
              "type": "address"
            },
            {
              "internalType": "uint256",
              "name": "rewardAmount",
              "type": "uint256"
            },
            {
              "internalType": "string",
              "name": "chatGroupId",
              "type": "string"
            }
          ],
          "internalType": "struct GameTableView",
          "name": "",
          "type": "tuple"
        }
      ],
      "stateMutability": "view",
      "type": "function"
    },
    {
      "inputs": [],
      "name": "getTableInfoShort",
      "outputs": [
        {
          "components": [
            {
              "internalType": "bool",
              "name": "active",
              "type": "bool"
            },
            {
              "internalType": "uint256",
              "name": "gameRound",
              "type": "uint256"
            },
            {
              "internalType": "uint256",
              "name": "gameLiquidatedCount",
              "type": "uint256"
            },
            {
              "internalType": "address",
              "name": "tableAddr",
              "type": "address"
            },
            {
              "internalType": "uint256",
              "name": "tableId",
              "type": "uint256"
            },
            {
              "internalType": "string",
              "name": "tableName",
              "type": "string"
            },
            {
              "internalType": "address",
              "name": "bankerAddr",
              "type": "address"
            },
            {
              "internalType": "uint256",
              "name": "betAmount",
              "type": "uint256"
            },
            {
              "internalType": "uint8",
              "name": "bankerFeePercent",
              "type": "uint8"
            },
            {
              "internalType": "uint8",
              "name": "playerCount",
              "type": "uint8"
            },
            {
              "internalType": "uint8",
              "name": "maxPlayers",
              "type": "uint8"
            },
            {
              "internalType": "enum GameState",
              "name": "state",
              "type": "uint8"
            },
            {
              "internalType": "uint256",
              "name": "lastActivityTimestamp",
              "type": "uint256"
            },
            {
              "internalType": "uint256",
              "name": "rewardPoolId",
              "type": "uint256"
            },
            {
              "components": [
                {
                  "internalType": "uint256",
                  "name": "poolId",
                  "type": "uint256"
                },
                {
                  "internalType": "string",
                  "name": "name",
                  "type": "string"
                },
                {
                  "internalType": "address",
                  "name": "banker",
                  "type": "address"
                },
                {
                  "internalType": "uint256",
                  "name": "totalAmount",
                  "type": "uint256"
                },
                {
                  "internalType": "uint256",
                  "name": "rewardPerGame",
                  "type": "uint256"
                },
                {
                  "internalType": "uint256",
                  "name": "winProbability",
                  "type": "uint256"
                },
                {
                  "internalType": "uint256",
                  "name": "remainingAmount",
                  "type": "uint256"
                },
                {
                  "internalType": "bool",
                  "name": "inUse",
                  "type": "bool"
                },
                {
                  "internalType": "uint256[10]",
                  "name": "__gap",
                  "type": "uint256[10]"
                }
              ],
              "internalType": "struct RewardPoolInfo",
              "name": "rewardPoolInfo",
              "type": "tuple"
            }
          ],
          "internalType": "struct GameTableInfoShort",
          "name": "",
          "type": "tuple"
        }
      ],
      "stateMutability": "view",
      "type": "function"
    },
    {
      "inputs": [],
      "name": "implementationVersion",
      "outputs": [
        {
          "internalType": "uint256",
          "name": "",
          "type": "uint256"
        }
      ],
      "stateMutability": "view",
      "type": "function"
    },
    {
      "inputs": [
        {
          "internalType": "uint256",
          "name": "_tableId",
          "type": "uint256"
        },
        {
          "internalType": "string",
          "name": "_tableName",
          "type": "string"
        },
        {
          "internalType": "address",
          "name": "_bankerAddr",
          "type": "address"
        },
        {
          "internalType": "uint256",
          "name": "_betAmount",
          "type": "uint256"
        },
        {
          "internalType": "uint8",
          "name": "_maxPlayers",
          "type": "uint8"
        },
        {
          "internalType": "address",
          "name": "_gameMainAddr",
          "type": "address"
        },
        {
          "internalType": "uint8",
          "name": "_bankerFeePercent",
          "type": "uint8"
        },
        {
          "internalType": "uint8",
          "name": "_firstRaise",
          "type": "uint8"
        },
        {
          "internalType": "uint8",
          "name": "_secondRaise",
          "type": "uint8"
        },
        {
          "internalType": "uint256",
          "name": "_rewardPoolId",
          "type": "uint256"
        },
        {
          "internalType": "uint256",
          "name": "_implementationVersion",
          "type": "uint256"
        }
      ],
      "name": "initialize",
      "outputs": [],
      "stateMutability": "nonpayable",
      "type": "function"
    },
    {
      "inputs": [
        {
          "internalType": "address",
          "name": "playerAddr",
          "type": "address"
        }
      ],
      "name": "isPlayer",
      "outputs": [
        {
          "internalType": "bool",
          "name": "",
          "type": "bool"
        }
      ],
      "stateMutability": "view",
      "type": "function"
    },
    {
      "inputs": [],
      "name": "lastActivityTimestamp",
      "outputs": [
        {
          "internalType": "uint256",
          "name": "",
          "type": "uint256"
        }
      ],
      "stateMutability": "view",
      "type": "function"
    },
    {
      "inputs": [],
      "name": "liquidateDeadline",
      "outputs": [
        {
          "internalType": "uint256",
          "name": "",
          "type": "uint256"
        }
      ],
      "stateMutability": "view",
      "type": "function"
    },
    {
      "inputs": [],
      "name": "liquidateGame",
      "outputs": [],
      "stateMutability": "nonpayable",
      "type": "function"
    },
    {
      "inputs": [],
      "name": "liquidatorFeePercent",
      "outputs": [
        {
          "internalType": "uint8",
          "name": "",
          "type": "uint8"
        }
      ],
      "stateMutability": "view",
      "type": "function"
    },
    {
      "inputs": [],
      "name": "maxPlayers",
      "outputs": [
        {
          "internalType": "uint8",
          "name": "",
          "type": "uint8"
        }
      ],
      "stateMutability": "view",
      "type": "function"
    },
    {
      "inputs": [
        {
          "internalType": "bytes32",
          "name": "randomValue",
          "type": "bytes32"
        }
      ],
      "name": "nextStep",
      "outputs": [],
      "stateMutability": "nonpayable",
      "type": "function"
    },
    {
      "inputs": [],
      "name": "owner",
      "outputs": [
        {
          "internalType": "address",
          "name": "",
          "type": "address"
        }
      ],
      "stateMutability": "view",
      "type": "function"
    },
    {
      "inputs": [
        {
          "internalType": "bytes32",
          "name": "randomValue",
          "type": "bytes32"
        }
      ],
      "name": "playerContinue",
      "outputs": [],
      "stateMutability": "payable",
      "type": "function"
    },
    {
      "inputs": [],
      "name": "playerContinuedCount",
      "outputs": [
        {
          "internalType": "uint8",
          "name": "",
          "type": "uint8"
        }
      ],
      "stateMutability": "view",
      "type": "function"
    },
    {
      "inputs": [],
      "name": "playerCount",
      "outputs": [
        {
          "internalType": "uint8",
          "name": "",
          "type": "uint8"
        }
      ],
      "stateMutability": "view",
      "type": "function"
    },
    {
      "inputs": [
        {
          "internalType": "bytes32",
          "name": "randomValue",
          "type": "bytes32"
        }
      ],
      "name": "playerFold",
      "outputs": [],
      "stateMutability": "nonpayable",
      "type": "function"
    },
    {
      "inputs": [],
      "name": "playerJoin",
      "outputs": [],
      "stateMutability": "nonpayable",
      "type": "function"
    },
    {
      "inputs": [],
      "name": "playerQuit",
      "outputs": [],
      "stateMutability": "payable",
      "type": "function"
    },
    {
      "inputs": [
        {
          "internalType": "bytes32",
          "name": "randomValue",
          "type": "bytes32"
        }
      ],
      "name": "playerReady",
      "outputs": [],
      "stateMutability": "payable",
      "type": "function"
    },
    {
      "inputs": [],
      "name": "playerReadyCount",
      "outputs": [
        {
          "internalType": "uint8",
          "name": "",
          "type": "uint8"
        }
      ],
      "stateMutability": "view",
      "type": "function"
    },
    {
      "inputs": [],
      "name": "playerSettle",
      "outputs": [],
      "stateMutability": "payable",
      "type": "function"
    },
    {
      "inputs": [],
      "name": "playerTimeout",
      "outputs": [
        {
          "internalType": "uint256",
          "name": "",
          "type": "uint256"
        }
      ],
      "stateMutability": "view",
      "type": "function"
    },
    {
      "inputs": [],
      "name": "playerUnready",
      "outputs": [],
      "stateMutability": "payable",
      "type": "function"
    },
    {
      "inputs": [
        {
          "internalType": "uint256",
          "name": "",
          "type": "uint256"
        }
      ],
      "name": "players",
      "outputs": [
        {
          "internalType": "address",
          "name": "addr",
          "type": "address"
        },
        {
          "internalType": "enum PlayerState",
          "name": "state",
          "type": "uint8"
        },
        {
          "internalType": "uint256",
          "name": "totalBet",
          "type": "uint256"
        },
        {
          "internalType": "bool",
          "name": "hasActedThisRound",
          "type": "bool"
        },
        {
          "internalType": "bool",
          "name": "isWinner",
          "type": "bool"
        },
        {
          "internalType": "enum CardType",
          "name": "cardType",
          "type": "uint8"
        }
      ],
      "stateMutability": "view",
      "type": "function"
    },
    {
      "inputs": [],
      "name": "removeTableRewardPool",
      "outputs": [],
      "stateMutability": "nonpayable",
      "type": "function"
    },
    {
      "inputs": [],
      "name": "renounceOwnership",
      "outputs": [],
      "stateMutability": "nonpayable",
      "type": "function"
    },
    {
      "inputs": [],
      "name": "rewardAddr",
      "outputs": [
        {
          "internalType": "address",
          "name": "",
          "type": "address"
        }
      ],
      "stateMutability": "view",
      "type": "function"
    },
    {
      "inputs": [],
      "name": "rewardAmount",
      "outputs": [
        {
          "internalType": "uint256",
          "name": "",
          "type": "uint256"
        }
      ],
      "stateMutability": "view",
      "type": "function"
    },
    {
      "inputs": [],
      "name": "rewardPoolAddr",
      "outputs": [
        {
          "internalType": "address",
          "name": "",
          "type": "address"
        }
      ],
      "stateMutability": "view",
      "type": "function"
    },
    {
      "inputs": [],
      "name": "rewardPoolId",
      "outputs": [
        {
          "internalType": "uint256",
          "name": "",
          "type": "uint256"
        }
      ],
      "stateMutability": "view",
      "type": "function"
    },
    {
      "inputs": [],
      "name": "roomCardAddr",
      "outputs": [
        {
          "internalType": "address",
          "name": "",
          "type": "address"
        }
      ],
      "stateMutability": "view",
      "type": "function"
    },
    {
      "inputs": [],
      "name": "secondBetX",
      "outputs": [
        {
          "internalType": "uint8",
          "name": "",
          "type": "uint8"
        }
      ],
      "stateMutability": "view",
      "type": "function"
    },
    {
      "inputs": [
        {
          "internalType": "uint256",
          "name": "poolId",
          "type": "uint256"
        }
      ],
      "name": "setTableRewardPool",
      "outputs": [],
      "stateMutability": "nonpayable",
      "type": "function"
    },
    {
      "inputs": [
        {
          "internalType": "uint256",
          "name": "roomCardId",
          "type": "uint256"
        },
        {
          "internalType": "bytes32",
          "name": "randomValue",
          "type": "bytes32"
        }
      ],
      "name": "startGame",
      "outputs": [],
      "stateMutability": "payable",
      "type": "function"
    },
    {
      "inputs": [],
      "name": "state",
      "outputs": [
        {
          "internalType": "enum GameState",
          "name": "",
          "type": "uint8"
        }
      ],
      "stateMutability": "view",
      "type": "function"
    },
    {
      "inputs": [],
      "name": "tableId",
      "outputs": [
        {
          "internalType": "uint256",
          "name": "",
          "type": "uint256"
        }
      ],
      "stateMutability": "view",
      "type": "function"
    },
    {
      "inputs": [],
      "name": "tableInactiveTimeout",
      "outputs": [
        {
          "internalType": "uint256",
          "name": "",
          "type": "uint256"
        }
      ],
      "stateMutability": "view",
      "type": "function"
    },
    {
      "inputs": [],
      "name": "tableName",
      "outputs": [
        {
          "internalType": "string",
          "name": "",
          "type": "string"
        }
      ],
      "stateMutability": "view",
      "type": "function"
    },
    {
      "inputs": [],
      "name": "totalIncome",
      "outputs": [
        {
          "internalType": "uint256",
          "name": "",
          "type": "uint256"
        }
      ],
      "stateMutability": "view",
      "type": "function"
    },
    {
      "inputs": [],
      "name": "totalPrizePool",
      "outputs": [
        {
          "internalType": "uint256",
          "name": "",
          "type": "uint256"
        }
      ],
      "stateMutability": "view",
      "type": "function"
    },
    {
      "inputs": [
        {
          "internalType": "address",
          "name": "newOwner",
          "type": "address"
        }
      ],
      "name": "transferOwnership",
      "outputs": [],
      "stateMutability": "nonpayable",
      "type": "function"
    },
    {
      "inputs": [
        {
          "internalType": "string",
          "name": "_chatGroupId",
          "type": "string"
        }
      ],
      "name": "updateChatGroupId",
      "outputs": [],
      "stateMutability": "nonpayable",
      "type": "function"
    },
    {
      "stateMutability": "payable",
      "type": "receive"
    }
  ],
  "transactionHash": "0xa6715ece6c787b7e188316a4a56693edbd6ed91bd2a2a1fb40747e6196a1f1b6",
  "args": [],
  "numDeployments": 1,
  "solcInputHash": "c9d85574554088af08147d962ab460bc",
  "bytecode": "0x60806040523461002257610011610027565b604051617e606101d98239617e6090f35b600080fd5b61003033610074565b565b61004261003f61003f9290565b90565b6001600160a01b031690565b61003f90610032565b61006090610042565b9052565b6020810192916100309190610057565b61007c6100c6565b60006100878161004e565b61009081610042565b61009984610042565b146100a957505061003090610181565b631e4fbdf760e01b825281906100c29060048301610064565b0390fd5b610030610110565b61003f61003f61003f9290565b61003f60016100ce565b90600019905b9181191691161790565b9061010561003f61010c926100ce565b82546100e5565b9055565b61003061011b6100db565b60006100f5565b61003f90610042565b61003f9054610122565b906001600160a01b03906100eb565b61003f90610042906001600160a01b031682565b61003f90610144565b61003f90610158565b9061017a61003f61010c92610161565b8254610135565b6101a76101a1610191600161012b565b61019c84600161016a565b610161565b91610161565b907f8be0079c531659141344cd1fd0a4f28419497f9722a3daafe3b4186f6b6457e06101d260405190565b600090a356fe6103c0604052600436101561001c575b361561001a57600080fd5b005b60003560e01c80630118565f1461041c57806302fb0c5e146104175780630446ee27146104125780630575b38d1461040d57806306bfcec61461040857806309c95e10146104035780631aa7741f146103fe5780631bd355f3146103f95780631f331f06146103f4578063244dc9df146103ef5780632643e26d146103ea57806326892d96146103e55780632aa531d9146103e0578063302bcc57146103db578063398ab9a7146103d65780633da2c9b9146103d157806342848489146103cc57806344a2951f146103c75780634afe4262146103c25780634bf37e06146103bd5780634c2412a2146103b8578063522577e9146103b357806359372812146103ae5780635bfe6e00146103a95780635edfe077146103a45780635f2d82ea1461039f578063639b12861461039a578063668d6d2b146103955780636b4d7b3c146103905780636bbd22c91461038b5780637015e95e1461038657806370c3c61314610381578063715018a61461037c578063724d4924146103775780637977b9791461037257806379d4a9631461036d5780637f2d2baf14610368578063813357b61461036357806384c13aa91461035e57806388509d84146103595780638da5cb5b1461035457806396205de61461034f578063983465e41461034a5780639f185cc114610345578063a5f9b5c214610340578063a8118e141461033b578063b331108614610336578063bafb562a14610331578063bfb51ac91461032c578063c13b16c114610327578063c19d93fb14610322578063c1f1c5da1461031d578063c2c1e2cb14610318578063c480a11214610313578063c8ba6d111461030e578063d24257c014610309578063d7e8f29b14610304578063d9168cfe146102ff578063e02feb92146102fa578063e9d44c54146102f5578063f2fde38b146102f0578063f3380413146102eb578063f71d96cb146102e65763f7b2a7be0361000f576119da565b61199a565b611826565b611802565b6117e7565b6117c0565b611799565b61177e565b611757565b611738565b61171d565b6116f6565b6116cf565b61169c565b611665565b611645565b611616565b6115fb565b6115dc565b6115c1565b6115a2565b611587565b611560565b611539565b61151e565b6114fa565b6114e2565b6114c7565b6114a0565b611479565b611446565b6113e2565b6113ca565b6113af565b611390565b611366565b61131d565b6112ec565b611216565b610f50565b610f10565b610ee9565b610ec2565b610e9b565b610e74565b610e4d565b610e29565b610e0e565b610ddb565b610d85565b610d5e565b610d2b565b610d02565b610cd3565b610ca0565b610ad1565b610aa2565b610a6f565b610875565b610849565b610808565b6106c4565b61065a565b610605565b600091031261042c57565b600080fd5b634e487b7160e01b600052600060045260246000fd5b634e487b7160e01b600052602260045260246000fd5b906001600283049216801561047d575b602083101461047857565b610447565b91607f169161046d565b805460009392916104a461049a8361045d565b8085529360200190565b91600181169081156104f657506001146104bd57505050565b6104d09192939450600052602060002090565b916000925b8184106104e25750500190565b8054848401526020909301926001016104d5565b92949550505060ff1916825215156020020190565b9061051591610487565b90565b634e487b7160e01b600052604160045260246000fd5b90601f01601f191681019081106001600160401b0382111761054f57604052565b610518565b9061057561056e9261056560405190565b9384809261050b565b038361052e565b565b906000106105885761051590610554565b610431565b61051560006003610577565b60005b8381106105ac5750506000910152565b818101518382015260200161059c565b6105dd6105e66020936105f0936105d1815190565b80835293849260200190565b95869101610599565b601f01601f191690565b0190565b6020808252610515929101906105bc565b3461042c57610615366004610421565b61062c61062061058d565b604051918291826105f4565b0390f35b610515916008021c5b60ff1690565b906105159154610630565b6105156014600161063f565b9052565b3461042c5761066a366004610421565b61062c61067561064a565b60405191829182901515815260200190565b6001600160a01b031690565b61069c81610687565b0361042c57565b9050359061057582610693565b9060208282031261042c57610515916106a3565b3461042c576106dc6106d73660046106b0565b611cc8565b604051005b906105756106ee60405190565b928361052e565b6001600160401b03811161054f57602090601f01601f19160190565b90826000939282370152565b9092919261073261072d826106f5565b6106e1565b938185528183011161042c57610575916020850190610711565b9080601f8301121561042c578160206105159335910161071d565b8061069c565b9050359061057582610767565b60ff811661069c565b905035906105758261077a565b60e08183031261042c5780356001600160401b03811161042c57826107b691830161074c565b926107c4836020840161076d565b926107d28160408501610783565b926107e08260608301610783565b926105156107f18460808501610783565b9360c06108018260a08701610783565b940161076d565b3461042c576106dc61081b366004610790565b959490949391936125f7565b610515916008021c81565b906105159154610827565b61051560006015610832565b3461042c57610859366004610421565b61062c61086461083d565b6040515b9182918290815260200190565b3461042c5761062c61067561088b3660046106b0565b612606565b61065690610687565b634e487b7160e01b600052602160045260246000fd5b600511156108b957565b610899565b90610575826108af565b610515906108be565b610656906108c8565b6108ea6108e660059390565b9190565b6000915b8383106108fb5750505050565b610918610911600192845160ff16815260200190565b9260200190565b920191906108ee565b600f11156108b957565b9061057582610921565b6105159061092b565b61065690610935565b6109536108e6600a9390565b6000915b8383106109645750505050565b6109776109116001928451815260200190565b92019190610957565b9061016060e06105759361099c60008201516000860190610890565b6109ae602082015160208601906108d1565b6109bd60408201516040860152565b6060818101511515908501526080818101511515908501526109e760a082015160a08601906108da565b6109fa60c082015161014086019061093e565b0151910190610947565b906105f0816102a093610980565b90610a2b610911610a21845190565b8084529260200190565b9060005b818110610a3c5750505090565b909192610a56610a4f6001928651610a04565b9460200190565b929101610a2f565b602080825261051592910190610a12565b3461042c57610a7f366004610421565b61062c610a8a6129ad565b60405191829182610a5e565b61051560006011610832565b3461042c57610ab2366004610421565b61062c610864610a96565b9060208282031261042c576105159161076d565b3461042c576106dc610ae4366004610abd565b612cda565b600711156108b957565b9061057582610ae9565b61051590610af3565b61065690610afd565b80518252906105159061010080610b366102408401602087015185820360208701526105bc565b94610b4960408201516040860190610890565b610b5860608201516060860152565b610b6760808201516080860152565b610b7660a082015160a0860152565b610b8560c082015160c0860152565b60e0818101511515908501526109fa565b805115158252610515916101c0610bfc6101e08301610bba60208601516020860152565b610bc960408601516040860152565b610bdb60608601516060860190610890565b610bea60808601516080860152565b60a085015184820360a08601526105bc565b92610c0f60c082015160c0850190610890565b610c1e60e082015160e0850152565b6101008181015160ff16908401526101208181015160ff16908401526101408181015160ff1690840152610c5c610160820151610160850190610b06565b610c6d610180820151610180850152565b610c7e6101a08201516101a0850152565b0151906101c0818403910152610b0f565b602080825261051592910190610b96565b3461042c57610cb0366004610421565b61062c610cbb612f56565b60405191829182610c8f565b6105156000601461063f565b3461042c57610ce3366004610421565b61062c610cee610cc7565b6040519182918260ff909116815260200190565b3461042c57610d12366004610421565b6106dc61314e565b6102a0810192916105759190610980565b3461042c5761062c610d46610d413660046106b0565b613156565b60405191829182610d1a565b6105156000600661063f565b3461042c57610d6e366004610421565b61062c610cee610d52565b61051560006013610832565b3461042c57610d95366004610421565b61062c610864610d79565b610515916008021c6001600160a01b031690565b906105159154610da0565b6105156000601b610db4565b6020810192916105759190610890565b3461042c57610deb366004610421565b61062c610df6610dbf565b60405191829182610dcb565b61051560006020610832565b3461042c57610e1e366004610421565b61062c610864610e02565b3461042c57610e39366004610421565b6106dc6137bb565b6105156000600a610832565b3461042c57610e5d366004610421565b61062c610864610e41565b6105156001600c61063f565b3461042c57610e84366004610421565b61062c610cee610e68565b6105156001600661063f565b3461042c57610eab366004610421565b61062c610cee610e8f565b6105156000600b610832565b3461042c57610ed2366004610421565b61062c610864610eb6565b6105156000601d610832565b3461042c57610ef9366004610421565b61062c610864610edd565b61051560006010610832565b3461042c57610f20366004610421565b61062c610864610f04565b9060208282031261042c5781356001600160401b03811161042c57610515920161074c565b3461042c576106dc610f63366004610f2b565b6137e2565b906105f081602093610890565b90610f84610911610a21845190565b9060005b818110610f955750505090565b909192610fa8610a4f6001928651610f68565b929101610f88565b805115158252610515916104406111ce6111ba61115b6110f26110226104608701610fe060208a015160208a0152565b610fef60408a015160408a0152565b61100160608a015160608a0190610890565b61101060808a015160808a0152565b60a089015188820360a08a01526105bc565b61103460c089015160c0890190610890565b61104360e089015160e0890152565b6101008881015160ff1690880152611062610120890151610120890152565b6101408881015160ff16908801526101608881015160ff169088015261108f610180890151610180890152565b6110a06101a08901516101a0890152565b6110b46101c08901516101c0890190610b06565b6101e08881015160ff16908801526102008881015160ff16908801526102208881015160ff1690880152610240880151878203610240890152610f75565b611103610260880151610260880152565b611114610280880151610280880152565b6111256102a08801516102a0880152565b6111366102c08801516102c0880152565b6111476102e08801516102e0880152565b610300870151868203610300880152610b0f565b61116c610320870151610320870152565b6103408681015160ff16908601526103608681015160ff1690860152611199610380870151610380870152565b6103a0868101511515908601526103c08601518582036103c08701526105bc565b6103e08501518482036103e08601526105bc565b926111e3610400820151610400850190610890565b6111f4610420820151610420850152565b0151906104408184039101526105bc565b602080825261051592910190610fb0565b3461042c57611226366004610421565b61062c611231613902565b60405191829182611205565b91906101608382031261042c57611254818461076d565b9260208101356001600160401b03811161042c578261127491830161074c565b9261128283604084016106a3565b92611290816060850161076d565b9261129e8260808301610783565b926112ac8360a084016106a3565b926112ba8160c08501610783565b926112c88260e08301610783565b926105156112da846101008501610783565b9361014061080182610120870161076d565b3461042c576106dc6112ff36600461123d565b99989098979197969296959395613e27565b61051560006019610db4565b3461042c5761132d366004610421565b61062c610df6611311565b9015158152606060208201819052610515939192611358918401906105bc565b9160408184039101526105bc565b3461042c57611376366004610421565b61062c611381614104565b60405191939193849384611338565b61139b366004610421565b6106dc6143f7565b61051560006021610db4565b3461042c576113bf366004610421565b61062c610df66113a3565b3461042c576113da366004610421565b6106dc61452a565b3461042c576113f2366004610421565b6106dc61456a565b90611409610911610a21845190565b9060005b81811061141a5750505090565b90919261142d610a4f6001928651610f68565b92910161140d565b6020808252610515929101906113fa565b3461042c57611456366004610421565b61062c611461614572565b60405191829182611435565b6105156000600e610832565b3461042c57611489366004610421565b61062c61086461146d565b6105156000601f610832565b3461042c576114b0366004610421565b61062c610864611494565b6105156001601261063f565b3461042c576114d7366004610421565b61062c610cee6114bb565b3461042c576106dc6114f5366004610abd565b614773565b3461042c576106dc61150d366004610abd565b61493f565b6105156000601261063f565b3461042c5761152e366004610421565b61062c610cee611512565b3461042c57611549366004610421565b61062c610df6614948565b61051560006009610832565b3461042c57611570366004610421565b61062c610864611554565b61051560006023610577565b3461042c57611597366004610421565b61062c61062061157b565b6106dc6115b0366004610abd565b614b2d565b6105156000600d610832565b3461042c576115d1366004610421565b61062c6108646115b5565b6106dc6115ea366004610abd565b614bce565b61051560006007610832565b3461042c5761160b366004610421565b61062c6108646115ef565b611621366004610421565b6106dc614c08565b919060408382031261042c57610515906020610801828661076d565b6106dc611653366004611629565b90614f36565b6105156001601461063f565b3461042c57611675366004610421565b61062c610cee611659565b6105156000600861063f565b6020810192916105759190610b06565b3461042c576116ac366004610421565b61062c6116b7611680565b6040519182918261168c565b6105156000600c61063f565b3461042c576116df366004610421565b61062c610cee6116c3565b61051560006002610832565b3461042c57611706366004610421565b61062c6108646116ea565b61051560006004610db4565b3461042c5761172d366004610421565b61062c610df6611711565b611743366004610421565b6106dc6151f2565b61051560006005610832565b3461042c57611767366004610421565b61062c61086461174b565b6105156000600f610832565b3461042c5761178e366004610421565b61062c610864611772565b3461042c576117a9366004610421565b61062c6106756151fa565b6105156000601c610832565b3461042c576117d0366004610421565b61062c6108646117b4565b6105156000601a610db4565b3461042c576117f7366004610421565b61062c610df66117db565b3461042c576106dc6118153660046106b0565b6152db565b6105156000601e610832565b3461042c57611836366004610421565b61062c61086461181a565b634e487b7160e01b600052603260045260246000fd5b805482101561187a57611871600f91600052602060002090565b91020190600090565b611841565b61051590610687565b610515905461187f565b6105159060a01c610639565b6105159054611892565b6105159081565b61051590546118a8565b61051590610639565b61051590546118b9565b6105159060081c610639565b61051590546118cc565b6016906118ed825490565b81101561042c576118fd91611857565b509061190882611888565b916119128161189e565b9161191f600183016118af565b9161192c600282016118c2565b91610515600461193e600285016118d8565b93016118c2565b919461198a6119939298979561198160a09661197a6105759a61197060c08a019e60008b0190610890565b60208901906108d1565b6040870152565b15156060850152565b15156080830152565b019061093e565b3461042c5761062c6119b56119b0366004610abd565b6118e2565b926119c596949692919260405190565b96879687611945565b61051560006022610832565b3461042c576119ea366004610421565b61062c6108646119ce565b156119fc57565b60405162461bcd60e51b815260206004820152600a6024820152693737ba103130b735b2b960b11b604482015280606481015b0390fd5b61057590611a5b611a4c611a476004611888565b610687565b611a5533610687565b146119f5565b611a6c90611a676152ee565b611b7e565b610575615331565b15611a7b57565b60405162461bcd60e51b815260206004820152601960248201527847616d65206e6f7420696e2077616974696e6720737461746560381b6044820152606490fd5b15611ac357565b60405162461bcd60e51b815260206004820152601560248201527421b0b7103737ba103932b6b7bb32903130b735b2b960591b6044820152606490fd5b15611b0757565b60405162461bcd60e51b815260206004820152601a60248201527f506c61796572206e6f7420696e206a6f696e65642073746174650000000000006044820152606490fd5b61051590610687906001600160a01b031682565b61051590611b4c565b61051590611b60565b6040513d6000823e3d90fd5b611ba4611b8b60086118c2565b611b9e611b986001610af3565b91610af3565b14611a74565b611bc4611bb4611a476004611888565b611bbd83610687565b1415611abc565b611bfe6000611bf9611be0611bd885615343565b90930161189e565b611bf3611bed60016108be565b916108be565b14611b00565b6154fa565b611c066155fa565b611c1b611c16611c166019611888565b611b69565b803b1561042c57611c4f600092918392611c3460405190565b948593849283919063dac9e39d60e01b835260048301610dcb565b03925af18015611cc357611c9d575b50611c6b611c1630611b69565b7fa64be443397598747a19d02d7d149027a98aa2cfbaab1023f3e0cf159d1cd6f4611c9560405190565b80805b0390a2565b611cb69060005b611cae818361052e565b810190610421565b38611c5e565b503d611ca4565b611b72565b61057590611a33565b90610575969594939291611ceb611a4c611a476004611888565b90611a6c969594939291611cfd6152ee565b6122ee565b6106396105156105159290565b15611d1657565b60405162461bcd60e51b815260206004820152603160248201527f496e76616c69642067616d65207374617465206f7220706c6179657220636f756044820152706e74206e6f7420657175616c207a65726f60781b6064820152608490fd5b905051906105758261077a565b9050519061057582610767565b9050519061057582610693565b9190916101808184031261042c57611e87611db86101806106e1565b93611dc38184611d75565b8552611dd28160208501611d75565b6020860152611de48160408501611d75565b6040860152611df68160608501611d75565b6060860152611e088160808501611d82565b6080860152611e1a8160a08501611d82565b60a0860152611e2c8160c08501611d75565b60c0860152611e3e8160e08501611d8f565b60e0860152610100611e5282828601611d8f565b90860152610120611e6582828601611d8f565b90860152610140611e7882828601611d8f565b90860152610160809301611d8f565b90830152565b906101808282031261042c5761051591611d9c565b6105156105156105159290565b15611eb657565b60405162461bcd60e51b815260206004820152601460248201527310995d08185b5bdd5b9d081d1bdbc81cdb585b1b60621b6044820152606490fd5b15611ef957565b60405162461bcd60e51b8152602060048201526013602482015272496e76616c6964206d617820706c617965727360681b6044820152606490fd5b15611f3b57565b60405162461bcd60e51b815260206004820152601a60248201527f496e76616c69642062616e6b6572206665652070657263656e740000000000006044820152606490fd5b15611f8757565b60405162461bcd60e51b8152602060048201526012602482015271496e76616c6964207461626c65206e616d6560701b6044820152606490fd5b15611fc857565b60405162461bcd60e51b8152602060048201526013602482015272496e76616c696420666972737420726169736560681b6044820152606490fd5b1561200a57565b60405162461bcd60e51b8152602060048201526014602482015273496e76616c6964207365636f6e6420726169736560601b6044820152606490fd5b80151561069c565b9050519061057582612046565b9060208282031261042c576105159161204e565b91602061057592949361208a60408201966000830190610890565b0152565b1561209557565b60405162461bcd60e51b8152602060048201526013602482015272125b9d985b1a59081c995dd85c99081c1bdbdb606a1b6044820152606490fd5b9160001960089290920291821b911b6120e9565b921b90565b9181191691161790565b919061210461051561210c93611ea2565b9083546120d0565b9055565b610575916000916120f3565b818110612127575050565b806121356000600193612110565b0161211c565b9190601f811161214a57505050565b61215c61057593600052602060002090565b906020601f84018190048301931061217e575b6020601f90910104019061211c565b909150819061216f565b9060001960089091021c191690565b816121a191612188565b906002021790565b906121b2815190565b906001600160401b03821161054f576121d5826121cf855461045d565b8561213b565b602090601f83116001146122035761210c9291600091836121f8575b5050612197565b0151905038806121f1565b601f1983169161221885600052602060002090565b9260005b8181106122575750916002939185600196941061223d575b50505002019055565b61224d910151601f841690612188565b9055388080612234565b9193602060018192878701518155019501920161221c565b90610575916121a9565b90600019906120e9565b9061229361051561210c92611ea2565b8254612279565b9061ff009060081b6120e9565b6106396105156105159260ff1690565b906122c761051561210c926122a7565b825461229a565b9060ff906120e9565b906122e761051561210c926122a7565b82546122ce565b959493956122fc60086118c2565b612309611b986001610af3565b14806125cd575b61231990611d0f565b612329611c16611c166019611888565b61018061233560405190565b631178c8b960e11b815291829060049082905afa908115611cc35760009161259e575b506123ab6123a0610639606060009461237b61237387611ea2565b891415611eaf565b61238486611d02565b60ff8a16118061257c575b61239890611ef2565b015160ff1690565b60ff87161115611f34565b6123cb8280516123bd6108e685611ea2565b119081612564575b50611f80565b6123d56001611d02565b60ff8916101580612549575b6123ea90611fc1565b6123f46001611d02565b60ff871610158061252e575b61240990612003565b61241281611ea2565b8711612472575b5061245f949361244a612458946124436124669a9561243c61245196600361226f565b6005612283565b60066122b7565b60146122d7565b600c6122d7565b600c6122b7565b6009612283565b611c6b611c1630611b69565b936124ba939792959460208861248e611c16611c16601a611888565b6124986004611888565b6040518099819482936124af63c3867ce060e01b90565b84526004840161206f565b03915afa988915611cc35761244361245f9861243c612451966124ee6124669e6124589b61244a98916124ff575b5061208e565b965050959a50509450509394612419565b612521915060203d602011612527575b612519818361052e565b81019061205b565b386124e8565b503d61250f565b5061240961253c6004611d02565b60ff881611159050612400565b506123ea6125576004611d02565b60ff8a16111590506123e1565b5190506125746108e66014611ea2565b1115386123c5565b50612398612591610639602084015160ff1690565b60ff8b161115905061238f565b6125c091506101803d81116125c6575b6125b8818361052e565b810190611e8d565b38612358565b503d6125ae565b506123196125db60066118c2565b6125ef6125e86000611d02565b9160ff1690565b149050612310565b90610575969594939291611cd1565b6126139060005b50615343565b5050600190565b6105156105156105159260ff1690565b6001600160401b03811161054f5760208091020190565b9061264e61072d8361262a565b918252565b6105156101006106e1565b6001600160401b03811161054f5760200290565b61072d6105159161265e565b369037565b9061057561269961269384612672565b9361265e565b8361267e565b6105156005612683565b610515600a612683565b6126bb612653565b9060008252602080808080808080890160008152016000815201600081520160008152016126e761269f565b81520160008152016126f76126a9565b905250565b6105156126b3565b60005b82811061271357505050565b60209061271e6126fc565b8184015201612707565b9061057561273e61273884612641565b9361262a565b601f190160208401612704565b90612754825190565b81101561187a576020809102010190565b9061065690610687565b90610656906108be565b6105159060101c610639565b6105159060181c610639565b6105159060201c610639565b6000905491806127ac846118b9565b60ff1690526020019060010190806127c3846118cc565b60ff1690526020019060010190806127da84612779565b60ff1690526020019060010190806127f184612785565b60ff16905260200160018192019261280890612791565b60ff1690525050565b5050565b906105f08160a09361279d565b9061057561056e9261283360405190565b93848092612815565b906106569061092b565b6128526108e6600a9390565b6000915b8383106128635750505050565b61288461287d600192612875856118af565b815260200190565b9260010190565b92019190612856565b906105f08161014093612846565b9061057561056e926128ac60405190565b9384809261288d565b9061057561296860056128c6612653565b946128d96128d382611888565b87612765565b6128ee6128e58261189e565b6020880161276f565b6129046128fd600183016118af565b6040880152565b61291c612913600283016118c2565b15156060880152565b61293461292b600283016118d8565b15156080880152565b61294a61294360038301612822565b60a0880152565b612962612959600483016118c2565b60c0880161283c565b0161289b565b60e0840152565b610515906128b5565b61051590612822565b634e487b7160e01b600052601160045260246000fd5b60ff1660ff81146129a85760010190565b612981565b6129c76129c26129bd60066118c2565b61261a565b612728565b6129d16000611d02565b916129dc6000611ea2565b60166129e9610515825490565b821015612aa657612a09612a04612a008484611857565b5090565b615605565b612a1c575b506001016129dc565b6129dc565b8194612a9a612a7f612a7a6003612a738787612a47612a41612a179b612a9f9b611857565b5061296f565b612a5a8d612a548b61261a565b9061274b565b52612a6d612a678961261a565b8d61274b565b50611857565b5001612978565b61568f565b60c0612a93612a8d8561261a565b8961274b565b510161283c565b612997565b9390612a0e565b5050915090565b61057590612aba33615343565b5050611a6c90612ac86152ee565b612bf1565b15612ad457565b60405162461bcd60e51b8152602060048201526014602482015273496e76616c69642072616e646f6d2076616c756560601b6044820152606490fd5b15612b1757565b60405162461bcd60e51b815260206004820152601960248201527847616d65206e6f7420696e20706c6179696e6720737461746560381b6044820152606490fd5b15612b5f57565b60405162461bcd60e51b815260206004820152600e60248201526d1858dd1a5bdb881d1a5b595bdd5d60921b6044820152606490fd5b15612b9c57565b60405162461bcd60e51b815260206004820152602760248201527f506c61796572206e6f7420696e20616374697665207374617465206f722068616044820152661cc81858dd195960ca1b6064820152608490fd5b61246690612c0e612c056105156000611ea2565b825b1415612acd565b612c1860086118c2565b612c25611b986002610af3565b148015612cb7575b612c3690612b10565b612c4d612c48612c446157ce565b1590565b612b58565b612c8e612c5933615343565b9050612c648161189e565b612c71611bed60036108be565b1480612c93575b612c8190612b95565b612c896155fa565b615801565b615846565b50612c81612ca3600283016118c2565b612caf60005b91151590565b149050612c78565b50612c36612cc560086118c2565b612cd2611b986003610af3565b149050612c2d565b61057590612aad565b6105156101e06106e1565b6105156101206106e1565b612d01612cee565b9060008252602080808080808080808a016060815201600081520160008152016000815201600081520160006126e7565b610515612cf9565b612d42612ce3565b90600082526020820160008152602001600081526020016000815260200160008152602001606081526020016000815260200160008152602001600081526020016000815260200160008152602001600081526020016000815260200160008152602001610656612d32565b610515612d3a565b90929192612dc661072d826106f5565b938185528183011161042c57610575916020850190610599565b9080601f8301121561042c57815161051592602001612db6565b90929192612e0a61072d8261265e565b93602085920283019281841161042c57915b838310612e295750505050565b60208091612e378486611d82565b815201920191612e1c565b9080601f8301121561042c57600a61051592612dfa565b9190916102408184031261042c57612e726101206106e1565b92612e7d8183611d82565b84526020820151906001600160401b03821161042c57612ea281611e87938501612de0565b6020860152612eb48160408501611d8f565b6040860152612ec68160608501611d82565b6060860152612ed88160808501611d82565b6080860152612eea8160a08501611d82565b60a0860152612efc8160c08501611d82565b60c0860152612f0e8160e0850161204e565b60e0860152610100809301612e42565b9060208282031261042c5781516001600160401b03811161042c576105159201612e59565b61051590610554565b9061065690610af3565b612f5e612dae565b50612f6c611c16601a611888565b612f74612d32565b90612f7f60096118af565b612f8c6108e66000611ea2565b036130a3575b50612f9d600161189e565b90612fa8600d6118af565b612fb2600e6118af565b612fbb30611b69565b612fc560026118af565b612fcf6004611888565b612fd960056118af565b612fe360146118c2565b90612fee60066118c2565b92612ff960066118d8565b9461300460086118c2565b9661300f60206118af565b9861301a60096118af565b9a613023612ce3565b9d15158e528d6020015260408d015261303f9060608d01612765565b60808b015261304e6003612f43565b60a08b01526130609060c08b01612765565b60e089015260ff1661010088015260ff1661012087015260ff1661014086015261308e906101608601612f4c565b6101808401526101a08301526101c082015290565b6130e691506130b3600091611b69565b6130bd6004611888565b906130c860096118af565b916130d260405190565b8095819482936124af636dde1d5060e01b90565b03915afa908115611cc357600091613100575b5038612f92565b61311d91503d806000833e613115818361052e565b810190612f1e565b386130f9565b613133611a4c611a476004611888565b61057561313e6152ee565b611a6c61057561245f6000611ea2565b610575613123565b6131629061260d6126fc565b905061051561317f612a7a60036131788561296f565b9401612978565b60c0830161283c565b61319133615343565b505061057561319e6152ee565b611a6c6133c2565b156131ad57565b60405162461bcd60e51b815260206004820152601760248201527642616e6b65722063616e6e6f74206c697175696461746560481b6044820152606490fd5b156131f357565b60405162461bcd60e51b81526020600482015260136024820152725461626c65206e6f7420696e2067616d696e6760681b6044820152606490fd5b1561323557565b60405162461bcd60e51b815260206004820152601060248201526f11d85b59481b9bdd081d1a5b595bdd5d60821b6044820152606490fd5b9190613278565b9290565b82018092116129a857565b818102929181159184041417156129a857565b634e487b7160e01b600052601260045260246000fd5b81156132b6570490565b613296565b919082039182116129a857565b906105756132d861273884612641565b601f19016020840161267e565b60001981146129a85760010190565b6105159051610687565b9061264e61072d836106f5565b3d156133255761331a3d6132fe565b903d6000602084013e565b606090565b1561333157565b60405162461bcd60e51b815260206004820152601a60248201527f7472616e7366657220746f20706c6179657273206661696c65640000000000006044820152606490fd5b1561337d57565b60405162461bcd60e51b815260206004820152601d60248201527f7472616e7366657220746f206c697175696461746f72206661696c65640000006044820152606490fd5b6133e26133d2611a476004611888565b6133db33610687565b14156131a6565b6133ec60086118c2565b6133f9611b986002610af3565b14801561379d575b801561377a575b613411906131ec565b613428613421610515601e6118af565b421161322e565b61343260066158b0565b61343c600a6118af565b90600061344881611d02565b90815b6016613458610515825490565b6134618361261a565b101561351257612a008261347492611857565b61347d81615605565b806134ef575b6134df575b613493838201611888565b6134a96134a3611a476004611888565b91610687565b146134be575b506134b990612997565b61344b565b6134b991956134d260016134d893016118af565b9061326d565b94906134af565b926134e990612997565b92613488565b506134fb838201611888565b61350b6134a3611a476004611888565b1415613483565b505091909161354061353061352a6129bd60146118d8565b86613283565b61353a6064611ea2565b906132ac565b92839161354d85876132bb565b61355f61355983611ea2565b9361261a565b91613569836132c8565b9561357e613576856132c8565b9486946132ac565b95855b601661358e610515825490565b821015613685576135a3612a00838b93611857565b6135ac81615605565b80613662575b6135c6575b5050600101613581565b613581565b8a6135ec836135e76135db8a9d96979d611ea2565b6134d2600187016118af565b61326d565b916135f688611ea2565b8311613617575b5050506135c19161360d9161326d565b96905087386135b7565b976136526135c19593613645613657946136408561363a61360d9a9f8f01611888565b9261274b565b612765565b61364f838d61274b565b52565b6132e5565b969150918a386135fd565b5061366e868201611888565b61367e6134a3611a476004611888565b14156135b2565b5050939891969550938761369b9198939861326d565b90808210613763575b5050506136be6136b7613652600e6118af565b600e612283565b6136c784611ea2565b855b81101561372c576137258161371f87808b613707613703866136fd611c16611c168f6136c99d6136f89161274b565b6132f4565b9361274b565b5190565b60405190818003925af161371961330b565b5061332a565b60010190565b90506136c7565b509094506124669350829150613744611c1633611b69565b9061374e60405190565b90818003925af161375d61330b565b50613376565b6137729350906134d2916132bb565b3880806136a4565b5061341161378860086118c2565b613795611b986004610af3565b149050613408565b506137a860086118c2565b6137b5611b986003610af3565b14613401565b610575613188565b610575906137d7611a4c611a476004611888565b61246690602361226f565b610575906137c3565b6105156104606106e1565b6137fe6137eb565b90600082526020820160008152602001600081526020016000815260200160008152602001606081526020016000815260200160008152602001600081526020016000815260200160008152602001600081526020016000815260200160008152602001600081526020016000815260200160008152602001600081526020016060815260200160008152602001600081526020016000815260200160008152602001600081526020016138b0612d32565b815260200160008152602001600081526020016000815260200160008152602001600081526020016060815260200160608152602001600081526020016000815260200160609052565b6105156137f6565b61390a6138fa565b50613918611c16601a611888565b613920614104565b61022052610200526101e05260006103805261393a612d32565b6103805261394860096118af565b6139556108e66000611ea2565b03613d42575b50613966600161189e565b61036052613974600d6118af565b6101a052613982600e6118af565b6101205261398f30611b69565b6101805261399d60026118af565b610240526139ab6004611888565b6102a0526139b960056118af565b610300526139c760146118c2565b6103a052613bf26139d860136118af565b613be36139e560066118c2565b613bd46139f260066118d8565b613bc86139ff60076118af565b613bbe613a0c601e6118af565b91613bb4613a1a60086118c2565b95613ba5613a2860146118d8565b99613b96613a3660126118c2565b9d613a4160126118d8565b608052613a4c614572565b60a052613a59601d6118af565b60e052613a66601c6118af565b61014052613a74601f6118af565b61026052613a8260206118af565b6102c052613a9060096118af565b61032052613a9e60156118af565b61034052613aac600c6118c2565b6102e052613aba600c6118d8565b61028052613ac8600a6118af565b6101c052613ad66021611888565b61016052613ae460226118af565b61010052613af06137eb565b60c08190526103605115159052613b0d6101a051602060c0510152565b613b1d61012051604060c0510152565b613b2f61018051606060c05101612765565b613b3f61024051608060c0510152565b613b55613b4c6003612f43565b60a060c0510152565b613b666102a05160c0805101612765565b613b766103005160e060c0510152565b613b8c6103a05161010060c051019060ff169052565b61012060c0510152565b61014060c051019060ff169052565b61016060c051019060ff169052565b61018060c0510152565b6101a060c0510152565b6101c060c05101612f4c565b6101e060c051019060ff169052565b61020060c051019060ff169052565b613c0760805161022060c051019060ff169052565b613c1760a05161024060c0510152565b613c2760e05161026060c0510152565b613c386101405161028060c0510152565b613c49610260516102a060c0510152565b613c5a6102c0516102c060c0510152565b613c6b610320516102e060c0510152565b613c7c6103805161030060c0510152565b613c8d6103405161032060c0510152565b613ca36102e05161034060c051019060ff169052565b613cb96102805161036060c051019060ff169052565b613cca6101c05161038060c0510152565b613cdf6101e0516103a060c051019015159052565b613cf0610200516103c060c0510152565b613d01610220516103e060c0510152565b613d146101605161040060c05101612765565b613d256101005161042060c0510152565b613d3c613d326023612f43565b61044060c0510152565b60c05190565b60006130b3613d5092611b69565b03915afa908115611cc357600091613d6e575b50610380523861395b565b613d8391503d806000833e613115818361052e565b38613d63565b15613d9057565b60405162461bcd60e51b8152602060048201526013602482015272105b1c9958591e481a5b9a5d1a585b1a5e9959606a1b6044820152606490fd5b9060ff60a01b9060a01b6120e9565b90613dea61051561210c92151590565b8254613dcb565b906001600160a01b03906120e9565b90613e1061051561210c92611b69565b8254613df1565b906122e761051561210c92610afd565b94613eae613ee29895612443613ed79661243c879e9d9b97613ea7613ec198613ea06124589e613e6d613e5a60076118af565b613e676108e66000611ea2565b14613d89565b613e768b61595d565b613e8e613e836002611d02565b60ff8b161015611ef2565b613e99600180613dda565b6002612283565b600361226f565b6004613e00565b613eba60016008613e17565b6019613e00565b613ecc426007612283565b61244a426020612283565b612451876015612283565b613eea6159b0565b613ef46000611ea2565b8111613f4e575b613f06906009612283565b7f239917b02f2e4dfe65c284e0cab8547e63377093117c587f9b62be18f16a4f85613f49613f3f613f39611c1630611b69565b93611b69565b9361086860405190565b0390a3565b806020613f8692613f65611c16611c16601a611888565b613f6f6004611888565b6040518096819482936124af63c3867ce060e01b90565b03915afa918215611cc357613f0692613fa6916000916124ff575061208e565b9050613efb565b61051560006132fe565b610515613fad565b613fc960126132fe565b714e6f20706c617965727320696e2067616d6560701b602082015290565b610515613fbf565b613ff9600a6132fe565b6913995e1d08149bdd5b9960b21b602082015290565b610515613fef565b614021601a6132fe565b7f57616974696e6720666f7220706c617965727320746f20616374000000000000602082015290565b610515614017565b61405c600b6132fe565b6a536574746c652047616d6560a81b602082015290565b610515614052565b614085600a6132fe565b69283630bc9020b3b0b4b760b11b602082015290565b61051561407b565b6140ad60186132fe565b7711d85b59481a185cc81899595b881b1a5c5d5a59185d195960421b602082015290565b6105156140a3565b6140e3600d6132fe565b6c556e6b6e6f776e20737461746560981b602082015290565b6105156140d9565b61410e60086118c2565b61411b611b986006610af3565b036141345760019061412b61409b565b906105156140d1565b61413e60086118c2565b61414b611b986005610af3565b036141645760019061415b61409b565b90610515613fb7565b61416e60086118c2565b61417b611b986004610af3565b0361418b5760019061415b614073565b61419560086118c2565b6141a2611b986002610af3565b148015614251575b6141c2576000906141b9613fb7565b906105156140fc565b6141cc60066118c2565b6000906141db6125e883611d02565b1461423f576141e86157ce565b6141f06151fa565b906141f9615a7f565b1561420c5750505060019061415b614073565b8115614237575b5015614225575060019061415b61400f565b9061422e61400f565b9061051561404a565b905038614213565b90614248613fb7565b90610515613fe7565b5061425c60086118c2565b614269611b986003610af3565b146141aa565b61427833615343565b50506105756142856152ee565b611a6c614323565b1561429457565b60405162461bcd60e51b8152602060048201526019602482015278506c61796572206e6f7420696e20726561647920737461746560381b6044820152606490fd5b60ff1680156129a8576000190190565b156142ec57565b60405162461bcd60e51b815260206004820152600f60248201526e1d1c985b9cd9995c8819985a5b1959608a1b6044820152606490fd5b614330611b8b60086118c2565b6143ba61433c33615343565b905061435d61434a8261189e565b614357611bed60026108be565b1461428d565b61438361437c61436d60056118af565b61437760136118af565b6132bb565b6013612283565b61439f61439861439360126118d8565b6142d5565b60126122b7565b6143b56143ac6000611ea2565b60018301612283565b615c3b565b6143c26155fa565b6124666000806143d4611c1633611b69565b6143de60056118af565b6040515b90818003925af16143f161330b565b506142e5565b61057561426f565b6144076152ee565b611a6c614495565b1561441657565b60405162461bcd60e51b8152602060048201526015602482015274141b185e595c88185b1c9958591e481a9bda5b9959605a1b6044820152606490fd5b1561445a57565b60405162461bcd60e51b815260206004820152601360248201527213585e081c1b185e595c9cc81c995858da1959606a1b6044820152606490fd5b6144a96144a4612c4433615c47565b61440f565b6144b6611b8b60086118c2565b6144d96144c360066118c2565b6144d36125e861063960066118d8565b10614453565b6144e233615e4c565b506144eb6155fa565b6144fb611c16611c166019611888565b803b1561042c57600061450d60405190565b9182906366dc52a160e01b8252818381611c4f3360048301610dcb565b6105756143ff565b61453a61605c565b610575614558565b6106876105156105159290565b61051590614542565b610575614565600061454f565b61595d565b610575614532565b61457c60066118c2565b60009061458b6125e883611d02565b14614635576145a56145a06129bd60066118c2565b6132c8565b916145af82611ea2565b805b60166145be610515825490565b82101561462d57806145dc866145d5858295611857565b5001611888565b6145eb6134a3611a478561454f565b03614600575b50506001016145b1565b6145b1565b92613652614619614623936145d5866145fb9798611857565b613640838a61274b565b91905083386145f1565b509192505050565b6145a061051591611ea2565b61057590614655611a4c611a476004611888565b611a6c906146616152ee565b6146f8565b1561466d57565b60405162461bcd60e51b815260206004820152601b60248201527f496e76616c69642072657761726420706f6f6c206164647265737300000000006044820152606490fd5b156146b957565b60405162461bcd60e51b81526020600482015260176024820152761c1bdbdb1259081a5cc81b9bdd081e5bdd5c881c1bdbdb604a1b6044820152606490fd5b61473390614720614709601a611888565b6147196134a3611a47600061454f565b1415614666565b602081613f65611c16611c16601a611888565b03915afa918215611cc3576105759261245f91600091614754575b506146b2565b61476d915060203d60201161252757612519818361052e565b3861474e565b61057590614641565b61057590614790611a4c611a476004611888565b611a6c9061479c6152ee565b6147db565b156147a95750565b611a2f906147b660405190565b62461bcd60e51b8152918291600483016105f4565b906122e761051561210c92151590565b906000916147ef612c056105156000611ea2565b6147f7615a7f565b6149315761480e614806614104565b9190506147a1565b61481860086118c2565b90600291614829611b986002610af3565b036148b457614836616516565b6148406000611ea2565b601661484d610515825490565b82101561489d57908086858461486c612a04612a008661487b99611857565b614880575b5050505060010190565b614840565b6148949361488d91611857565b50016147cb565b80868538614871565b505090506148ac919250615846565b6124666155fa565b6148be60086118c2565b6148cb611b986003610af3565b036148dd576148d8616485565b614836565b6148e760086118c2565b6148f4611b986005610af3565b148015614913575b156148365761490961639b565b6148d860016158b0565b5061491e60086118c2565b61492b611b986006610af3565b146148fc565b6148ac919250612c8e616125565b6105759061477c565b6105156001611888565b6105759061495f33615343565b5050611a6c9061496d6152ee565b6149b3565b1561497957565b60405162461bcd60e51b8152602060048201526012602482015271496e73756666696369656e742066756e647360701b6044820152606490fd5b61246690614abd61437c60006149d46149ce61051583611ea2565b85612c07565b6149de60086118c2565b6149eb611b986002610af3565b148015614b0a575b6149fc90612b10565b614a0581611ea2565b50614a1060086118c2565b614a1d611b986002610af3565b03614ae657614a9c614a45614a3260056118af565b614a3f6129bd600c6118c2565b90613283565b80925b614a54825b3414614972565b614a62612c48612c446157ce565b614a97614a6e33615343565b929050614a7c81840161189e565b614a89611bed60036108be565b149081614ac5575b50612b95565b616570565b614ab3614aac612a9a60126118c2565b60126122d7565b6135e760136118af565b612c8e6155fa565b9050614adf612ca9614ad9600286016118c2565b92151590565b1438614a91565b614a9c614b03614af660056118af565b614a3f6129bd600c6118d8565b8092614a48565b506149fc614b1860086118c2565b614b25611b986003610af3565b1490506149f3565b61057590614952565b61057590614b4333615343565b5050611a6c90614b516152ee565b61246690614b65612c056105156000611ea2565b614b72611b8b60086118c2565b614abd614b7e33615343565b9050614b8c611be08261189e565b614b9c614a4d61051560056118af565b614ba96143ac60056118af565b614bb961437c614ab360056118af565b614bc9614398612a9a60126118d8565b61659d565b61057590614b36565b614be033615343565b5050610575614bed6152ee565b611a6c614c00614bfb6165a9565b61322e565b610575616125565b610575614bd7565b9061057591614c25611a4c611a476004611888565b90611a6c91614c326152ee565b614d4f565b15614c3e57565b60405162461bcd60e51b8152602060048201526018602482015277496e76616c696420726f6f6d206361726420706172616d7360401b6044820152606490fd5b15614c8557565b60405162461bcd60e51b815260206004820152601a60248201527f496e76616c696420726f6f6d206361726420636f6e74726163740000000000006044820152606490fd5b15614cd157565b60405162461bcd60e51b81526020600482015260156024820152744e6f7420616c6c20706c617965727320726561647960581b6044820152606490fd5b15614d1557565b60405162461bcd60e51b81526020600482015260126024820152714e6f7420656e6f75676820706c617965727360701b6044820152606490fd5b90600091614d68614d6261051585611ea2565b83612c07565b614d706159b0565b614d84614d7c84611ea2565b821415614c37565b614da7614d91601b611888565b614da06134a3611a478761454f565b1415614c7e565b614dca614db460126118d8565b614dc46125e861063960066118c2565b14614cca565b614dd7611b8b60086118c2565b614df8614de460066118c2565b614df16125e86002611d02565b1015614d0e565b614e15614a4d610515614e0b60056118af565b614a3f6002611ea2565b614e2c614e25614e0b60056118af565b600a612283565b614e3c611c16611c16601b611888565b614e756020614e4b60066118c2565b60405163245f7ec960e11b81526004810186905260ff909116602482015291829081906044820190565b0381855afa8015611cc357614e91918691614f17575b50614c37565b803b1561042c57614ec58492918392614ea960405190565b9687938492839190631125ae3960e11b8352336004840161206f565b03925af1928315611cc357614ef293614efa575b5050612c8e614eeb613652600d6118af565b600d612283565b61057561660e565b81614f1092903d10611cbc57611cae818361052e565b3880614ed9565b614f30915060203d60201161252757612519818361052e565b38614e8b565b9061057591614c10565b614f4933615343565b5050610575614f566152ee565b611a6c61500e565b15614f6557565b60405162461bcd60e51b8152602060048201526024808201527f47616d65206e6f7420696e2077616974696e67206f7220736574746c656420736044820152637461746560e01b6064820152608490fd5b15614fbd57565b60405162461bcd60e51b815260206004820152602360248201527f506c61796572206e6f7420696e204a4f494e4544206f7220524541445920737460448201526261746560e81b6064820152608490fd5b61501860086118c2565b600190615027611b9883610af3565b1480156151d4575b80156151b1575b61503f90614f5e565b61504833615343565b9161505360086118c2565b61505f611b9883610af3565b036151a1576150bb91906150a49061509e908561507b8161189e565b615087611bed846108be565b14801561517f575b61509890614fb6565b016118af565b9361189e565b6150b1611bed60026108be565b1461515e576154fa565b6150c56000611ea2565b811161513b575b505b6150de611c16611c166019611888565b803b1561042c5760006150f060405190565b91829063dac9e39d60e01b825281838161510d3360048301610dcb565b03925af18015611cc357615125575b506124666155fa565b615135906000611cae818361052e565b3861511c565b6000806151589261514e611c1633611b69565b906143e260405190565b386150cc565b61516e61439861439360126118d8565b611bf961437c8461437760136118af565b5061509861518c8861189e565b615199611bed60026108be565b14905061508f565b506151ac91506154fa565b6150ce565b5061503f6151bf60086118c2565b6151cc611b986006610af3565b149050615036565b506151df60086118c2565b6151ec611b986005610af3565b1461502f565b610575614f40565b60006152066000611ea2565b6016615213610515825490565b82101561528157612a008261522792611857565b61523081615605565b61523e575b50600101615206565b61524983820161189e565b615256611bed60046108be565b1415908161526a575b50612a005738615235565b61527b91506002612c4491016118c2565b3861525f565b505050600190565b6105759061529561605c565b60006152a08161454f565b6152a981610687565b6152b284610687565b146152c25750506105759061595d565b631e4fbdf760e01b82528190611a2f9060048301610dcb565b61057590615289565b6105156002611ea2565b6152f860006118af565b6153006152e4565b90811461531257610575906000612283565b633ee5aeb560e01b600090815260045b036000fd5b6105156001611ea2565b61057561533c615327565b6000612283565b61534c906166d2565b90610515612a00836016611857565b90613dea61051561210c926108c8565b906122c761051561210c92151590565b9061538e90600019906020036008021c90565b8154169055565b9190918282106153a457505050565b610575926020601f9091010490600160206153c3601f86018290049390565b928301940602600081116153da575b50019061211c565b6153e7906001850361537b565b386153d2565b90600160401b811161054f5761057591600590615395565b919060086120e99102916120e460ff841b90565b9060059061327461542e9161051584866153ed565b602082049160005b83811061549c575060208302900360008111615453575b50505050565b9260009360005b81811061546f5750505001553880808061544d565b90919460206154926001926154886105158a5160ff1690565b9085850290615405565b960192910161545a565b6000805b602081106154b5575083820155600101615436565b959060206154d76001926154cd610515865160ff1690565b908a850290615405565b920196016154a0565b9061057591615419565b906122e761051561210c92610935565b6155e39060046155dc60009261550f8461454f565b615527601691866155208585611857565b5001613e00565b61553d85806155368585611857565b500161535b565b61555c61554986611ea2565b60016155558585611857565b5001612283565b61556c85600261488d8585611857565b61558385600261557c8585611857565b500161536b565b6155d76155906005612672565b6155c461559c88611d02565b60ff8116838a01525b60ff166020830181905260408301819052606083018190526080830152565b60036155d08585611857565b50016154e0565b611857565b50016154ea565b6105756155f361439360066118c2565b60066122d7565b610575426020612283565b6000615613916145d5600090565b6156236134a3611a47600061454f565b141590565b6001610515910160ff1690565b9060055b81101561187a576020020190565b6156539060ff166125e8565b90039060ff82116129a857565b61566c9060ff166125e8565b9081156132b6570690565b6156839060ff166125e8565b019060ff82116129a857565b600061569a81611d02565b6156a46005611d02565b60ff821610156156ef576156ca6156c36156bd8361261a565b85615635565b5160ff1690565b6156d66125e884611d02565b146156e9576156e490615628565b61569a565b50905090565b50906157026156fc61269f565b92611d02565b61570c6005611d02565b60ff8216101561578a578061578061576c6157356156c361572f6157859661261a565b87615635565b61576661576061575060019361574a85611d02565b90615647565b61575a600d611d02565b90615660565b91611d02565b90615677565b61577861572f8461261a565b9060ff169052565b615628565b615702565b505061579581616742565b6157c8576157a2816167a3565b6157c2576157af8161688a565b6157bc5761051590616929565b50600d90565b50600c90565b50600e90565b6157d8601d6118af565b6157e56108e66000611ea2565b11806157ee5790565b506157fc610515601d6118af565b421190565b600160026105759261581760046000830161535b565b016147cb565b61582961065691610687565b60601b90565b01918252565b01809261581d565b61051590611ea2565b6158a96158856158916105759361585d600f6118af565b6040516020808201928352909485939091906105f060143361582f8542615835824485828e82565b9081038252038261052e565b6158a361589c825190565b9160200190565b2061583d565b600f612283565b6158bb816008613e17565b6158c56002610af3565b6158ce82610af3565b148015615943575b615917575b6158e8611b986004610af3565b146158f5576124666155fa565b61591261590b615905601f6118af565b4261326d565b601e612283565b6148ac565b61592e615927615905601c6118af565b601d612283565b61593e61590b615905601f6118af565b6158db565b5061594e6003610af3565b61595782610af3565b146158d6565b61597e61597861596d6001611888565b611c16846001613e00565b91611b69565b907f8be0079c531659141344cd1fd0a4f28419497f9722a3daafe3b4186f6b6457e06159a960405190565b8080613f49565b6159c0611c16611c166019611888565b6101806159cc60405190565b631178c8b960e11b815291829060049082905afa8015611cc357610100615a599161057593600091615a60575b50615a0f615a08608083015190565b601c612283565b615a27615a2060c083015160ff1690565b60146122b7565b615a3c615a3560a083015190565b601f612283565b615a53615a4c61012083016132f4565b601b613e00565b016132f4565b601a613e00565b615a7991506101803d81116125c6576125b8818361052e565b386159f9565b615a8960086118c2565b600190615a98611b9883610af3565b148015615c1d575b8015615bff575b615b7957615ab560086118c2565b615ac2611b986004610af3565b1461051557615ad160086118c2565b615ade611b986002610af3565b148015615be1575b615af05750600090565b615af8616b59565b615b0260126118c2565b615b0e6125e885611d02565b149182615bbb575b615b266125e861063960066118c2565b14615b2f6157ce565b91615b3d6125e86000611d02565b1490615b4960126118c2565b615b556125e887611d02565b1115908415615bb3575b508315615b98575b508215615b7f575b505015615b795790565b50600090565b90915081615b90575b503880615b6f565b905038615b88565b828092945091615bab575b509138615b67565b905038615ba3565b935038615b5f565b9150615bd6610639615bcd60066118c2565b61574a86611d02565b60ff83161491615b16565b50615bec60086118c2565b615bf9611b986003610af3565b14615ae6565b50615c0a60086118c2565b615c17611b986006610af3565b14615aa7565b50615c2860086118c2565b615c35611b986005610af3565b14615aa0565b6105759060019061535b565b6000615c536000611d02565b6016615c60610515825490565b615c698361261a565b1015615cc1578282615c81612a04612a008386611857565b9283615c9d575b50505061528157615c9890612997565b615c53565b615cac9350906145d591611857565b615cb86134a385610687565b14828238615c88565b50505050600090565b61051590516108be565b610515905161092b565b919091828210615ced57505050565b610575928101910161211c565b90600160401b811161054f5761057591600a90615cde565b600a91615d286132746001926105158686615cfa565b92049160005b838110615d3b5750505050565b6001906020615d4b610515865190565b9401938184015501615d2e565b9061057591615d12565b61057591600590615e0d9060e090615d9885615d86615d80846132f4565b82613e00565b615d9260208401615cca565b9061535b565b615daf615da6604083015190565b60018701612283565b615dd960028601615dcc615dc66060850151151590565b826147cb565b608083015115159061536b565b615df0615de760a083015190565b600387016154e0565b615e08615dff60c08301615cd4565b600487016154ea565b015190565b9101615d58565b91906105885761057591615d62565b80549190600160401b83101561054f5782615e4691600161057595018155611857565b90615e14565b6000615e5781611d02565b6016615e64610515825490565b615e6d8361261a565b1015615f0a57615e81836145d58484611857565b615e906134a3611a478661454f565b14615ea45750615e9f90612997565b615e57565b9160046155dc8385615ec2610515988661552085615efa9a9b611857565b615eea6001615ed681886155368787611857565b615edf87611ea2565b906155558585611857565b61558385600261488d8585611857565b6129bd6155f3612a9a60066118c2565b5050906160309161602b615f1c601690565b91612968615f2a6005612672565b91615f5c615f3782611d02565b60ff168285018190526020850181905260408501819052606085018190526080850152565b616022615f69600a612672565b9361600e615f7684611ea2565b615f808186890152565b615f8b816020890152565b615f96816040890152565b615fa1816060890152565b615fac816080890152565b615fb78160a0890152565b615fc28160c0890152565b615fcd8160e0890152565b615fd981610100890152565b615fe581610120890152565b615ff9615ff0612653565b9a868c01612765565b616007600160208c0161276f565b60408a0152565b821515606089018190526080890152612943565b60c0860161283c565b615e23565b6160406155f3612a9a60066118c2565b61051561604c60165490565b6160566001611ea2565b906132bb565b616064614948565b33906160726134a383610687565b0361607a5750565b63118cdaa760e01b600090815290615322906004610dcb565b1561609a57565b60405162461bcd60e51b81526020600482015260196024820152781d1c985b9cd9995c881d1bc818985b9ad95c8819985a5b1959603a1b6044820152606490fd5b919060408382031261042c576105159060206160f78286611d8f565b9401611d82565b90815292916105759160409061612090606087019087820360208901526113fa565b940152565b61612f60056158b0565b61613a426011612283565b61614460126118c2565b6000906161536125e883611d02565b148061617261353061616560136118af565b614a3f6129bd60146118c2565b9061638c575b826161878261437760136118af565b9161619b616195600a6118af565b8261326d565b926161a583611ea2565b946161b186600a612283565b6161bb60126118c2565b6161c86125e86001611d02565b0361637057506161d7906173a4565b83831161631c575b5050506161ec601a611888565b906161f68361454f565b916162036134a384610687565b14159081616305575b50616220575b5050611c6b611c1630611b69565b61627890604061622e614572565b61623e611c16611c16601a611888565b61624860096118af565b9186616254600f6118af565b9361625e60405190565b9788958694859363a05d549960e01b8552600485016160fe565b03925af18392816162cf575b50616294575050505b3880616212565b61629d90610687565b6162a683610687565b036162b3575b505061628d565b6162c16162c8926021613e00565b6022612283565b38806162ac565b9093506162f591925060403d6040116162fe575b6162ed818361052e565b8101906160db565b91909238616284565b503d6162e3565b905061631461051560096118af565b14153861620c565b6163689261633961633284936135e7600b6118af565b600b612283565b616349611c16611c166004611888565b9061635360405190565b90818003925af161636261330b565b50616093565b3882816161df565b15616383575061637e61718f565b6161d7565b61637e90616d99565b5061639682611ea2565b616178565b600061641361640c6163ac83611d02565b926163b88460126122d7565b6163fc6163c482611ea2565b946163d0866010612283565b6163db866011612283565b6163e686601d612283565b6163f186601e612283565b61439886600a612283565b616407846013612283565b61454f565b6021613e00565b61641e816022612283565b61642d60176175f5565b6175f5565b60169061643b610515835490565b811015612811578181616457612a04612a008361646497611857565b616469575b505060010190565b61642d565b612a006164799161647e93611857565b617650565b388161645c565b61648f6000611ea2565b60169061649d610515835490565b8110156164f8576164b4612a00826164cf94611857565b6164bd81615605565b806164e3575b6164d4575b5060010190565b61648f565b6164dd90615801565b386164c8565b506164f3612c44600283016118c2565b6164c3565b505061650c6165076003611d02565b6176ff565b614c0060046158b0565b6165206000611ea2565b60169061652e610515835490565b81101561654a576164b4612a008261654594611857565b616520565b50506165596165076002611d02565b61656360036158b0565b610575614aac6000611d02565b60026001916165926105759461658c858401916135e7836118af565b90612283565b61581760038261535b565b6105759060029061535b565b6165b360086118c2565b6165c0611b986002610af3565b1480156165eb575b6165d190612b10565b6157fc6105156165e160206118af565b6134d2601f6118af565b506165d16165f960086118c2565b616606611b986003610af3565b1490506165c8565b600061661a6000611ea2565b601690616628610515835490565b81101561666e5782616640612a008361665595611857565b61664981615605565b61665a57505060010190565b61661a565b616667916003910161535b565b823861645c565b50505061667c616428601790565b6166896165076001611d02565b61057560026158b0565b1561669a57565b60405162461bcd60e51b815260206004820152601060248201526f141b185e595c881b9bdd08199bdd5b9960821b6044820152606490fd5b6000906166de82611d02565b60166166eb610515825490565b6166f48361261a565b101561672d57836145d58361670893611857565b6167146134a384610687565b146167275761672290612997565b6166de565b91505090565b5050506105159061673d81616693565b611d02565b600061674e6000611d02565b6167586005611d02565b60ff82161015615281576167716156c36156bd8361261a565b61677e6125e8600b611d02565b106156e95761678c90615628565b61674e565b610515600e612683565b90600e615639565b6167ab616791565b906167b66000611d02565b6167c06005611d02565b60ff8216101561681557806157806167e66156c36167e06168109561261a565b86615635565b61577861680a616804612a9a6156c36167fe8661261a565b8b61679b565b9261261a565b8761679b565b6167b6565b5050600180916168256001611d02565b915b616834575b505050600090565b61683e600d611d02565b60ff831611616885578161685e6156c3616858869561261a565b8461679b565b61686b6125e86004611d02565b1461687f5761687990612997565b91616827565b50505090565b61682c565b6000906168976000611d02565b91825b6168a46005611d02565b60ff851610156168fe576168e26168e8916168c46156c361572f8861261a565b600a906168d36125e883611d02565b11156168ee5761576690611d02565b93615628565b9261689a565b506157666156c361572f8861261a565b9250505061690f6125e8600a611d02565b111590565b6169246105156105159260ff1690565b61092b565b9061693261269f565b60009061693e82611d02565b91825b61694b6005611d02565b60ff851610156169d7576168e26169b3916169716156c361696b8861261a565b8a615635565b600a906169806125e883611d02565b11156169b9576169926169a491611d02565b61577861699e8961261a565b88615635565b6157666156c361572f8861261a565b92616941565b506169a46169d26156c36169cc8961261a565b8b615635565b616992565b92509293506169e583611d02565b6169ef6003611d02565b60ff82161015616b5057600180616a0e616a0882611d02565b84615677565b905b616a25575b5050616a2090615628565b6169e5565b616a356004969492959396611d02565b60ff82161015616b455784616a52616a4c82611d02565b83615677565b905b616a73575b5090616a6785949392615628565b90939194959295616a10565b616a806005979297611d02565b60ff82161015616b3d57616abd616aae616a9f6156c361572f8661261a565b6157666156c361699e8c61261a565b6157666156c361572f8561261a565b600a90616ad2616acc83611d02565b82615660565b616ade6125e889611d02565b14616afc57505090616af286949392615628565b9096919293616a54565b909350616b1895975061575a925061576091506156fc94615647565b60ff831603616b28575050600b90565b61051591615766616b3892611d02565b616914565b959095616a59565b819395929450616a15565b50505050600190565b6000616b656000611d02565b80616b706000611ea2565b6016616b7d610515825490565b821015616c0f57612a0082616b9192611857565b616b9a81615605565b616bad575b50600101616b70565b616b70565b616bb885820161189e565b616bc5611bed60046108be565b14616bf7575b6002616bd791016118c2565b616be2575b38616b9f565b91616bef616ba891612997565b929050616bdc565b916002616c06616bd792612997565b93915050616bcb565b50909391925050565b60005b828110616c2757505050565b602090616c3261269f565b8184015201616c1b565b90610575616c4c61273884612641565b601f190160208401616c18565b15616c6057565b60405162461bcd60e51b815260206004820152601a60248201527f7472616e7366657220746f2077696e6e657273206661696c65640000000000006044820152606490fd5b90616cb4610911610a21845190565b9060005b818110616cc55750505090565b909192616cdb610a4f6001928651815260200190565b929101616cb8565b906105f08160a0936108da565b90616cff610911610a21845190565b9060005b818110616d105750505090565b909192616d23610a4f6001928651616ce3565b929101616d03565b959286616d8b95616d62616d6f93616d5b616d7d97616d546105159e9c98600060e08901980152565b60208d0152565b60408b0152565b88820360608a01526113fa565b9086820360808801526113fa565b9084820360a0860152616ca5565b9160c0818403910152616cf0565b600080616dac6145a06129bd60066118c2565b908194616dbf6145a06129bd60066118c2565b616dd4616dcf6129bd60066118c2565b616c3c565b90616de56145a06129bd60066118c2565b92616def87611ea2565b97616df988611d02565b96899a5b60168c616e0e6108e6610515845490565b1015616f0c57612a008d616e2192611857565b616e2a81615605565b616e3f575b506105159b6001015b9b50616dfd565b6003819d9a9d01616e52612a7a82612978565b616e606004840191826154ea565b8a616e816125e8610639616e7b616e76866118c2565b610935565b93610935565b11616ef1575b506105159d612a9a616edd8e858c616ecf616ec5616ee9988f616ec09061364f616eb66001616e389f016118af565b91612a548d61261a565b612978565b91612a548861261a565b526145d58d612a548761261a565b613640612a678461261a565b999c50616e2f565b879a509d88918d9f616f02906118c2565b9b5091509d616e87565b50939894959750959098919950600195616f26600161092b565b616f2f8361092b565b036170935750505050616f40617930565b90935b818552616f4f83611ea2565b8211616fb5575b505050600080516020617e34833981519152939450611c9890616f7830611b69565b95616f83600d6118af565b93616f8e60106118af565b95616fa2616f9c60116118af565b99611b69565b98616fac60405190565b97889788616d2b565b616fbf82896132ac565b9080616fca85611ea2565b905b617059575b5050600080516020617e348339815191529697616056611c98959493616ff693613283565b9061700081611ea2565b8211617012575b879650829350616f56565b8061705292617032611c16611c166136f861702c86611ea2565b8b61274b565b9061703c60405190565b9081805b03925af161704c61330b565b50616c59565b3880617007565b8381101561708e578061371f868061707d611c16611c166136f8617088988f61274b565b604051888180617040565b81616fcc565b616fd1565b908693969183945b6170aa575b5050909150616f43565b60166170b7610515825490565b86101561714d57612a00866170cb92611857565b6170d481615605565b6170ed575b506170e683949560010190565b949361709b565b866170fa600483016118c2565b61710c6171068661092b565b9161092b565b14617118575b506170d9565b84956136528660028561713f617135617145976170e69901611888565b613640878b61274b565b0161536b565b945086617112565b506170a0565b1561715a57565b60405162461bcd60e51b815260206004820152600d60248201526c1c99599d5b990819985a5b1959609a1b6044820152606490fd5b61719f6145a06129bd60066118c2565b6171af6145a06129bd60066118c2565b6171bf6145a06129bd60066118c2565b906171d0616dcf6129bd60066118c2565b916171e16145a06129bd60066118c2565b6000946171ed86611ea2565b6171f6816132c8565b96819461720282611d02565b96839a5b60168c6172176108e6610515845490565b101561731f5761722d612a04612a008f84611857565b617242575b506105159b6001015b9b50617206565b617251612a008e9b9e83611857565b61725d600182016118af565b908782116172d4575b50506172cc6105159d612a9a616edd888f8f87612a6d6145d5936172a18e61364f616eb6600161723b9f8961729a91611857565b50016118af565b6172b06003612a738686611857565b6172c26172bc8b61261a565b8361274b565b52612a548961261a565b999c50617232565b9d8c879f9b8d9493818c8a9f8c016172eb90611888565b916172f59161274b565b906172ff91612765565b617309828961274b565b52617313906132e5565b9b50509d819250617266565b509699939195949750979199505b885b81101561737d576173768161371f8c808c61735e613703868f611c16611c166136f861732f9d6136fd9461274b565b60405190818003925af161737061330b565b50617153565b905061732d565b50919450929650611c98919550600080516020617e348339815191529450616f7830611b69565b9060016173b46145a06001611ea2565b906173c56145a06129bd60066118c2565b916173d6616dcf6129bd60066118c2565b6173e66145a06129bd60066118c2565b926000906173f382611ea2565b906173fd8361454f565b90819261740985611d02565b9080835b61746b575b5050505091600080516020617e3483398151915296979891617437611c989594610687565b61744082610687565b03617452575b505050616f7830611b69565b61746392617032611c168493611b69565b388080617446565b6016617478610515825490565b8210156175cd57908a8c8a8c617494612a00868b9a9998611857565b61749d81615605565b6174b9575b50505050506174b19060010190565b90919261740d565b909192939497508b8197969701936174d08561189e565b926003936174e0611bed866108be565b14806175bb575b61755c575b5061754561754f9561753f8996617529612a9a978f9e9d9c978f6174b19d9961364f6136409a612a546135596175239587016118af565b01612978565b6175356172bc8a61261a565b52612a548861261a565b50611888565b91612a548561261a565b9290508a8c8a8c386174a2565b9b50958998979685888b9961757585989a969799611888565b9f61757f84611888565b916175899161274b565b9061759391612765565b6175a08a6002880161536b565b6175a9906132e5565b999a509593929694509096508e6174ec565b506175c8600284016118c2565b6174e7565b50617412565b6105156034611d02565b906175e7906122a7565b600052602052604060002090565b6001806176026001611d02565b905b617619575b5050610575906001429101612283565b6176246106396175d3565b60ff82161161764b5761764590612a9a600061764083876175dd565b6147cb565b81617604565b617609565b6105759061765f60018261535b565b6004600091617690836002830161767682826147cb565b61768b61768283611ea2565b60018601612283565b61536b565b6176bf61769d6005612672565b6176b66176a986611d02565b60ff8116838801526155a5565b600383016154e0565b016154ea565b909190600583101561187a5760206176dc60019290565b8185040193060290565b91906176f761051561210c936122a7565b908354615405565b60179061771561770f600f6118af565b83617b59565b600191829161772383611d02565b60ff82160361780f5760009493949161773c6000611ea2565b955b61774b575b505050509050565b6016617758610515825490565b8710156178095761776f612a04612a008984611857565b617788575b5061778184959660010190565b959461773e565b6177a08361779a866145d58b86611857565b84617be7565b856177aa86611ea2565b905b6177b8575b5050617774565b60036177c381611ea2565b821015617803578161371f8b6177f7836177fd956177f06177e98f996156c3908c61274b565b948b611857565b50016176c5565b906176e6565b906177ac565b506177b1565b50617743565b906000949394906178206000611ea2565b955b61782e57505050509050565b601661783b610515825490565b87101561780957617852612a04612a008984611857565b80617907575b617871575b5061786a84959660010190565b9594617822565b6178838461779a856145d58b86611857565b8561788d85611ea2565b905b61789b575b505061785d565b6178a6610515835190565b811015617902576178fc8161371f856177f78a6178f68f6178e78f996178df6178ed936178d96156c38f9460039561274b565b98611857565b50019361261a565b8761326d565b6134d289611ea2565b906176c5565b9061788f565b617894565b5061791d836179168984611857565b500161189e565b61792a611bed60036108be565b14617858565b60009061793c82611d02565b9161794681611ea2565b6179566145a06129bd60066118c2565b815b6016617965610515825490565b821015617a3c57612a008261797992611857565b61798281615605565b617995575b50600101617958565b617958565b9190946179a185611d02565b93805b6179ae6005611ea2565b811015617a17576179ce6157506179c883600389016176c5565b9061063f565b806179db6125e88a611d02565b14617a07575b60ff871660ff8216116179fd575b506001016179a4565b6179a4565b95506179f86179ef565b50617a126001611d02565b6179e1565b50939095919250617a288760ff1690565b60ff82161115617987579550617990617987565b50509190805b6016617a4f610515825490565b821015617b4d57612a0082617a6392611857565b617a6c81615605565b617a7f575b50600101617a42565b617a42565b91617a8c84959694611d02565b93617a9686611ea2565b617aa06005611ea2565b811015617b0357617aba6157506179c883600389016176c5565b80617ac76125e88a611d02565b14617af3575b60ff871660ff821611617ae9575b50600101617a96565b617a96565b9550617ae4617adb565b50617afe6001611d02565b617acd565b5095949390928491617b1760ff8a166125e8565b14617b23575b50617a71565b92613652617b39617b4393617a7a959601611888565b613640838961274b565b9190508238617b1d565b50509350508281529190565b9061658c6158856158916001610575950193617b74856118af565b6040516020808201928352909485939091906105f0824261582f824482828b82565b15617b9d57565b60405162461bcd60e51b815260206004820152600d60248201526c125b9d985b1a59081c9bdd5b99609a1b6044820152606490fd5b6106569060ff1660f81b90565b018092617bd2565b610515929190617c78600193617bfc85611d02565b60ff8216101580617c95575b617c1190617b96565b617c1a85611d02565b60ff821603617c7d5761658c615885615891617c366003611d02565b975b860193617c44856118af565b604051938492602084019244918c42928660016105f09461582f6014602099989596617bdf8b8761583561582f99839c9052565b617cb0565b61658c615885615891617c8f88611d02565b97617c38565b50617c11617ca36003611d02565b60ff831611159050617c08565b9190617cbe6145a08361261a565b92617cc96000611d02565b60ff841660ff82161015617cfa57617cf590615780617ce9868686617d53565b615778612a8d8461261a565b617cc9565b5050505090565b9061566c565b15617d0e57565b60405162461bcd60e51b815260206004820152601e60248201527f4661696c656420746f2067656e657261746520756e69717565206361726400006044820152606490fd5b600093600090617d636000611d02565b9560015b15617e02575b508195617de4617dde61673d617dd4617dc38a6158918b617d9060018d016118af565b6158858a617d9d60405190565b95869460208601948592617bdf60146105f094617bdf60208861583560019b9a8c999052565b617dce6129bd6175d3565b90617d01565b6134d26001611ea2565b91612997565b96617dfd88617df66125e86019611d02565b1115617d07565b617d67565b617e16617e11828587016175dd565b6118c2565b617d6d5794509450506105159150617640836000600193016175dd56fe20786a8558624b257af8ba89cbe180d5dfa2182bc9122d51facb2c215823a5bfa164736f6c634300081c000a",
  "devdoc": {
    "details": "",
    "errors": {
      "OwnableInvalidOwner(address)": [
        {
          "details": "The owner is not a valid owner account. (eg. `address(0)`)"
        }
      ],
      "OwnableUnauthorizedAccount(address)": [
        {
          "details": "The caller account is not authorized to perform an operation."
        }
      ],
      "ReentrancyGuardReentrantCall()": [
        {
          "details": "Unauthorized reentrant call."
        }
      ]
    },
    "kind": "dev",
    "methods": {
      "bankerRemovePlayer(address)": {
        "details": ""
      },
      "initialize(uint256,string,address,uint256,uint8,address,uint8,uint8,uint8,uint256,uint256)": {
        "details": ""
      },
      "liquidateGame()": {
        "details": "  "
      },
      "nextStep(bytes32)": {
        "details": ""
      },
      "owner()": {
        "details": "Returns the address of the current owner."
      },
      "playerContinue(bytes32)": {
        "details": ""
      },
      "playerFold(bytes32)": {
        "details": ""
      },
      "playerJoin()": {
        "details": ""
      },
      "playerQuit()": {
        "details": ""
      },
      "playerReady(bytes32)": {
        "details": ""
      },
      "playerSettle()": {
        "details": ""
      },
      "playerUnready()": {
        "details": ""
      },
      "removeTableRewardPool()": {
        "details": ""
      },
      "renounceOwnership()": {
        "details": "Leaves the contract without owner. It will not be possible to call `onlyOwner` functions. Can only be called by the current owner. NOTE: Renouncing ownership will leave the contract without an owner, thereby disabling any functionality that is only available to the owner."
      },
      "setTableRewardPool(uint256)": {
        "details": "",
        "params": {
          "poolId": "ID"
        }
      },
      "transferOwnership(address)": {
        "details": "Transfers ownership of the contract to a new account (`newOwner`). Can only be called by the current owner."
      }
    },
    "title": "BBGameTableImplementation",
    "version": 1
  },
  "userdoc": {
    "kind": "user",
    "methods": {},
    "version": 1
  },
  "storageLayout": {
    "storage": [
      {
        "astId": 188,
        "contract": "contracts/BBGameTableImplementation.sol:BBGameTableImplementation",
        "label": "_status",
        "offset": 0,
        "slot": "0",
        "type": "t_uint256"
      },
      {
        "astId": 8,
        "contract": "contracts/BBGameTableImplementation.sol:BBGameTableImplementation",
        "label": "_owner",
        "offset": 0,
        "slot": "1",
        "type": "t_address"
      },
      {
        "astId": 1046,
        "contract": "contracts/BBGameTableImplementation.sol:BBGameTableImplementation",
        "label": "active",
        "offset": 20,
        "slot": "1",
        "type": "t_bool"
      },
      {
        "astId": 1048,
        "contract": "contracts/BBGameTableImplementation.sol:BBGameTableImplementation",
        "label": "tableId",
        "offset": 0,
        "slot": "2",
        "type": "t_uint256"
      },
      {
        "astId": 1050,
        "contract": "contracts/BBGameTableImplementation.sol:BBGameTableImplementation",
        "label": "tableName",
        "offset": 0,
        "slot": "3",
        "type": "t_string_storage"
      },
      {
        "astId": 1052,
        "contract": "contracts/BBGameTableImplementation.sol:BBGameTableImplementation",
        "label": "bankerAddr",
        "offset": 0,
        "slot": "4",
        "type": "t_address"
      },
      {
        "astId": 1054,
        "contract": "contracts/BBGameTableImplementation.sol:BBGameTableImplementation",
        "label": "betAmount",
        "offset": 0,
        "slot": "5",
        "type": "t_uint256"
      },
      {
        "astId": 1056,
        "contract": "contracts/BBGameTableImplementation.sol:BBGameTableImplementation",
        "label": "playerCount",
        "offset": 0,
        "slot": "6",
        "type": "t_uint8"
      },
      {
        "astId": 1058,
        "contract": "contracts/BBGameTableImplementation.sol:BBGameTableImplementation",
        "label": "maxPlayers",
        "offset": 1,
        "slot": "6",
        "type": "t_uint8"
      },
      {
        "astId": 1060,
        "contract": "contracts/BBGameTableImplementation.sol:BBGameTableImplementation",
        "label": "creationTimestamp",
        "offset": 0,
        "slot": "7",
        "type": "t_uint256"
      },
      {
        "astId": 1063,
        "contract": "contracts/BBGameTableImplementation.sol:BBGameTableImplementation",
        "label": "state",
        "offset": 0,
        "slot": "8",
        "type": "t_enum(GameState)6041"
      },
      {
        "astId": 1065,
        "contract": "contracts/BBGameTableImplementation.sol:BBGameTableImplementation",
        "label": "rewardPoolId",
        "offset": 0,
        "slot": "9",
        "type": "t_uint256"
      },
      {
        "astId": 1067,
        "contract": "contracts/BBGameTableImplementation.sol:BBGameTableImplementation",
        "label": "bankerStakeAmount",
        "offset": 0,
        "slot": "10",
        "type": "t_uint256"
      },
      {
        "astId": 1069,
        "contract": "contracts/BBGameTableImplementation.sol:BBGameTableImplementation",
        "label": "totalIncome",
        "offset": 0,
        "slot": "11",
        "type": "t_uint256"
      },
      {
        "astId": 1071,
        "contract": "contracts/BBGameTableImplementation.sol:BBGameTableImplementation",
        "label": "firstBetX",
        "offset": 0,
        "slot": "12",
        "type": "t_uint8"
      },
      {
        "astId": 1073,
        "contract": "contracts/BBGameTableImplementation.sol:BBGameTableImplementation",
        "label": "secondBetX",
        "offset": 1,
        "slot": "12",
        "type": "t_uint8"
      },
      {
        "astId": 1075,
        "contract": "contracts/BBGameTableImplementation.sol:BBGameTableImplementation",
        "label": "gameRound",
        "offset": 0,
        "slot": "13",
        "type": "t_uint256"
      },
      {
        "astId": 1077,
        "contract": "contracts/BBGameTableImplementation.sol:BBGameTableImplementation",
        "label": "gameLiquidatedCount",
        "offset": 0,
        "slot": "14",
        "type": "t_uint256"
      },
      {
        "astId": 1079,
        "contract": "contracts/BBGameTableImplementation.sol:BBGameTableImplementation",
        "label": "finalSeed",
        "offset": 0,
        "slot": "15",
        "type": "t_uint256"
      },
      {
        "astId": 1081,
        "contract": "contracts/BBGameTableImplementation.sol:BBGameTableImplementation",
        "label": "gameStartTimestamp",
        "offset": 0,
        "slot": "16",
        "type": "t_uint256"
      },
      {
        "astId": 1083,
        "contract": "contracts/BBGameTableImplementation.sol:BBGameTableImplementation",
        "label": "gameEndTimestamp",
        "offset": 0,
        "slot": "17",
        "type": "t_uint256"
      },
      {
        "astId": 1085,
        "contract": "contracts/BBGameTableImplementation.sol:BBGameTableImplementation",
        "label": "playerContinuedCount",
        "offset": 0,
        "slot": "18",
        "type": "t_uint8"
      },
      {
        "astId": 1087,
        "contract": "contracts/BBGameTableImplementation.sol:BBGameTableImplementation",
        "label": "playerReadyCount",
        "offset": 1,
        "slot": "18",
        "type": "t_uint8"
      },
      {
        "astId": 1089,
        "contract": "contracts/BBGameTableImplementation.sol:BBGameTableImplementation",
        "label": "totalPrizePool",
        "offset": 0,
        "slot": "19",
        "type": "t_uint256"
      },
      {
        "astId": 1091,
        "contract": "contracts/BBGameTableImplementation.sol:BBGameTableImplementation",
        "label": "bankerFeePercent",
        "offset": 0,
        "slot": "20",
        "type": "t_uint8"
      },
      {
        "astId": 1093,
        "contract": "contracts/BBGameTableImplementation.sol:BBGameTableImplementation",
        "label": "liquidatorFeePercent",
        "offset": 1,
        "slot": "20",
        "type": "t_uint8"
      },
      {
        "astId": 1095,
        "contract": "contracts/BBGameTableImplementation.sol:BBGameTableImplementation",
        "label": "implementationVersion",
        "offset": 0,
        "slot": "21",
        "type": "t_uint256"
      },
      {
        "astId": 1099,
        "contract": "contracts/BBGameTableImplementation.sol:BBGameTableImplementation",
        "label": "players",
        "offset": 0,
        "slot": "22",
        "type": "t_array(t_struct(BBPlayer)5638_storage)dyn_storage"
      },
      {
        "astId": 1102,
        "contract": "contracts/BBGameTableImplementation.sol:BBGameTableImplementation",
        "label": "dealerState",
        "offset": 0,
        "slot": "23",
        "type": "t_struct(DealerState)262_storage"
      },
      {
        "astId": 1104,
        "contract": "contracts/BBGameTableImplementation.sol:BBGameTableImplementation",
        "label": "gameMainAddr",
        "offset": 0,
        "slot": "25",
        "type": "t_address"
      },
      {
        "astId": 1106,
        "contract": "contracts/BBGameTableImplementation.sol:BBGameTableImplementation",
        "label": "rewardPoolAddr",
        "offset": 0,
        "slot": "26",
        "type": "t_address"
      },
      {
        "astId": 1108,
        "contract": "contracts/BBGameTableImplementation.sol:BBGameTableImplementation",
        "label": "roomCardAddr",
        "offset": 0,
        "slot": "27",
        "type": "t_address"
      },
      {
        "astId": 1110,
        "contract": "contracts/BBGameTableImplementation.sol:BBGameTableImplementation",
        "label": "playerTimeout",
        "offset": 0,
        "slot": "28",
        "type": "t_uint256"
      },
      {
        "astId": 1112,
        "contract": "contracts/BBGameTableImplementation.sol:BBGameTableImplementation",
        "label": "currentRoundDeadline",
        "offset": 0,
        "slot": "29",
        "type": "t_uint256"
      },
      {
        "astId": 1114,
        "contract": "contracts/BBGameTableImplementation.sol:BBGameTableImplementation",
        "label": "liquidateDeadline",
        "offset": 0,
        "slot": "30",
        "type": "t_uint256"
      },
      {
        "astId": 1116,
        "contract": "contracts/BBGameTableImplementation.sol:BBGameTableImplementation",
        "label": "tableInactiveTimeout",
        "offset": 0,
        "slot": "31",
        "type": "t_uint256"
      },
      {
        "astId": 1118,
        "contract": "contracts/BBGameTableImplementation.sol:BBGameTableImplementation",
        "label": "lastActivityTimestamp",
        "offset": 0,
        "slot": "32",
        "type": "t_uint256"
      },
      {
        "astId": 1120,
        "contract": "contracts/BBGameTableImplementation.sol:BBGameTableImplementation",
        "label": "rewardAddr",
        "offset": 0,
        "slot": "33",
        "type": "t_address"
      },
      {
        "astId": 1122,
        "contract": "contracts/BBGameTableImplementation.sol:BBGameTableImplementation",
        "label": "rewardAmount",
        "offset": 0,
        "slot": "34",
        "type": "t_uint256"
      },
      {
        "astId": 1124,
        "contract": "contracts/BBGameTableImplementation.sol:BBGameTableImplementation",
        "label": "chatGroupId",
        "offset": 0,
        "slot": "35",
        "type": "t_string_storage"
      },
      {
        "astId": 1128,
        "contract": "contracts/BBGameTableImplementation.sol:BBGameTableImplementation",
        "label": "__gap",
        "offset": 0,
        "slot": "36",
        "type": "t_array(t_uint256)25_storage"
      }
    ],
    "types": {
      "t_address": {
        "encoding": "inplace",
        "label": "address",
        "numberOfBytes": "20"
      },
      "t_array(t_struct(BBPlayer)5638_storage)dyn_storage": {
        "base": "t_struct(BBPlayer)5638_storage",
        "encoding": "dynamic_array",
        "label": "struct BBPlayer[]",
        "numberOfBytes": "32"
      },
      "t_array(t_uint256)10_storage": {
        "base": "t_uint256",
        "encoding": "inplace",
        "label": "uint256[10]",
        "numberOfBytes": "320"
      },
      "t_array(t_uint256)25_storage": {
        "base": "t_uint256",
        "encoding": "inplace",
        "label": "uint256[25]",
        "numberOfBytes": "800"
      },
      "t_array(t_uint8)5_storage": {
        "base": "t_uint8",
        "encoding": "inplace",
        "label": "uint8[5]",
        "numberOfBytes": "32"
      },
      "t_bool": {
        "encoding": "inplace",
        "label": "bool",
        "numberOfBytes": "1"
      },
      "t_enum(CardType)6063": {
        "encoding": "inplace",
        "label": "enum CardType",
        "numberOfBytes": "1"
      },
      "t_enum(GameState)6041": {
        "encoding": "inplace",
        "label": "enum GameState",
        "numberOfBytes": "1"
      },
      "t_enum(PlayerState)6047": {
        "encoding": "inplace",
        "label": "enum PlayerState",
        "numberOfBytes": "1"
      },
      "t_mapping(t_uint8,t_bool)": {
        "encoding": "mapping",
        "key": "t_uint8",
        "label": "mapping(uint8 => bool)",
        "numberOfBytes": "32",
        "value": "t_bool"
      },
      "t_string_storage": {
        "encoding": "bytes",
        "label": "string",
        "numberOfBytes": "32"
      },
      "t_struct(BBPlayer)5638_storage": {
        "encoding": "inplace",
        "label": "struct BBPlayer",
        "members": [
          {
            "astId": 5617,
            "contract": "contracts/BBGameTableImplementation.sol:BBGameTableImplementation",
            "label": "addr",
            "offset": 0,
            "slot": "0",
            "type": "t_address"
          },
          {
            "astId": 5620,
            "contract": "contracts/BBGameTableImplementation.sol:BBGameTableImplementation",
            "label": "state",
            "offset": 20,
            "slot": "0",
            "type": "t_enum(PlayerState)6047"
          },
          {
            "astId": 5622,
            "contract": "contracts/BBGameTableImplementation.sol:BBGameTableImplementation",
            "label": "totalBet",
            "offset": 0,
            "slot": "1",
            "type": "t_uint256"
          },
          {
            "astId": 5624,
            "contract": "contracts/BBGameTableImplementation.sol:BBGameTableImplementation",
            "label": "hasActedThisRound",
            "offset": 0,
            "slot": "2",
            "type": "t_bool"
          },
          {
            "astId": 5626,
            "contract": "contracts/BBGameTableImplementation.sol:BBGameTableImplementation",
            "label": "isWinner",
            "offset": 1,
            "slot": "2",
            "type": "t_bool"
          },
          {
            "astId": 5630,
            "contract": "contracts/BBGameTableImplementation.sol:BBGameTableImplementation",
            "label": "cards",
            "offset": 0,
            "slot": "3",
            "type": "t_array(t_uint8)5_storage"
          },
          {
            "astId": 5633,
            "contract": "contracts/BBGameTableImplementation.sol:BBGameTableImplementation",
            "label": "cardType",
            "offset": 0,
            "slot": "4",
            "type": "t_enum(CardType)6063"
          },
          {
            "astId": 5637,
            "contract": "contracts/BBGameTableImplementation.sol:BBGameTableImplementation",
            "label": "__gap",
            "offset": 0,
            "slot": "5",
            "type": "t_array(t_uint256)10_storage"
          }
        ],
        "numberOfBytes": "480"
      },
      "t_struct(DealerState)262_storage": {
        "encoding": "inplace",
        "label": "struct BBCardDealer.DealerState",
        "members": [
          {
            "astId": 259,
            "contract": "contracts/BBGameTableImplementation.sol:BBGameTableImplementation",
            "label": "usedCards",
            "offset": 0,
            "slot": "0",
            "type": "t_mapping(t_uint8,t_bool)"
          },
          {
            "astId": 261,
            "contract": "contracts/BBGameTableImplementation.sol:BBGameTableImplementation",
            "label": "lastSeed",
            "offset": 0,
            "slot": "1",
            "type": "t_uint256"
          }
        ],
        "numberOfBytes": "64"
      },
      "t_uint256": {
        "encoding": "inplace",
        "label": "uint256",
        "numberOfBytes": "32"
      },
      "t_uint8": {
        "encoding": "inplace",
        "label": "uint8",
        "numberOfBytes": "1"
      }
    }
  }
}