{
  "address": "0x0D5cEb8300484964d30C7565bDC2bE4e3716e5A8",
  "abi": [
    {
      "inputs": [],
      "stateMutability": "nonpayable",
      "type": "constructor"
    },
    {
      "inputs": [
        {
          "internalType": "address",
          "name": "target",
          "type": "address"
        }
      ],
      "name": "AddressEmptyCode",
      "type": "error"
    },
    {
      "inputs": [
        {
          "internalType": "address",
          "name": "implementation",
          "type": "address"
        }
      ],
      "name": "ERC1967InvalidImplementation",
      "type": "error"
    },
    {
      "inputs": [],
      "name": "ERC1967NonPayable",
      "type": "error"
    },
    {
      "inputs": [],
      "name": "FailedCall",
      "type": "error"
    },
    {
      "inputs": [],
      "name": "InvalidInitialization",
      "type": "error"
    },
    {
      "inputs": [],
      "name": "NotInitializing",
      "type": "error"
    },
    {
      "inputs": [
        {
          "internalType": "address",
          "name": "owner",
          "type": "address"
        }
      ],
      "name": "OwnableInvalidOwner",
      "type": "error"
    },
    {
      "inputs": [
        {
          "internalType": "address",
          "name": "account",
          "type": "address"
        }
      ],
      "name": "OwnableUnauthorizedAccount",
      "type": "error"
    },
    {
      "inputs": [],
      "name": "ReentrancyGuardReentrantCall",
      "type": "error"
    },
    {
      "inputs": [],
      "name": "UUPSUnauthorizedCallContext",
      "type": "error"
    },
    {
      "inputs": [
        {
          "internalType": "bytes32",
          "name": "slot",
          "type": "bytes32"
        }
      ],
      "name": "UUPSUnsupportedProxiableUUID",
      "type": "error"
    },
    {
      "anonymous": false,
      "inputs": [
        {
          "indexed": true,
          "internalType": "address",
          "name": "gameMainAddr",
          "type": "address"
        }
      ],
      "name": "GameMainAddressUpdated",
      "type": "event"
    },
    {
      "anonymous": false,
      "inputs": [
        {
          "indexed": false,
          "internalType": "uint64",
          "name": "version",
          "type": "uint64"
        }
      ],
      "name": "Initialized",
      "type": "event"
    },
    {
      "anonymous": false,
      "inputs": [
        {
          "indexed": true,
          "internalType": "address",
          "name": "previousOwner",
          "type": "address"
        },
        {
          "indexed": true,
          "internalType": "address",
          "name": "newOwner",
          "type": "address"
        }
      ],
      "name": "OwnershipTransferred",
      "type": "event"
    },
    {
      "anonymous": false,
      "inputs": [
        {
          "indexed": true,
          "internalType": "uint256",
          "name": "poolId",
          "type": "uint256"
        },
        {
          "indexed": true,
          "internalType": "address",
          "name": "tableAddr",
          "type": "address"
        },
        {
          "indexed": true,
          "internalType": "address",
          "name": "winner",
          "type": "address"
        },
        {
          "indexed": false,
          "internalType": "uint256",
          "name": "amount",
          "type": "uint256"
        }
      ],
      "name": "RewardDistributed",
      "type": "event"
    },
    {
      "anonymous": false,
      "inputs": [
        {
          "indexed": true,
          "internalType": "uint256",
          "name": "poolId",
          "type": "uint256"
        },
        {
          "indexed": true,
          "internalType": "address",
          "name": "banker",
          "type": "address"
        },
        {
          "indexed": false,
          "internalType": "uint256",
          "name": "totalAmount",
          "type": "uint256"
        },
        {
          "indexed": false,
          "internalType": "uint256",
          "name": "rewardPerGame",
          "type": "uint256"
        },
        {
          "indexed": false,
          "internalType": "uint256",
          "name": "winProbability",
          "type": "uint256"
        }
      ],
      "name": "RewardPoolCreated",
      "type": "event"
    },
    {
      "anonymous": false,
      "inputs": [
        {
          "indexed": true,
          "internalType": "uint256",
          "name": "poolId",
          "type": "uint256"
        },
        {
          "indexed": true,
          "internalType": "address",
          "name": "banker",
          "type": "address"
        },
        {
          "indexed": false,
          "internalType": "uint256",
          "name": "remainingAmount",
          "type": "uint256"
        }
      ],
      "name": "RewardPoolRemoved",
      "type": "event"
    },
    {
      "anonymous": false,
      "inputs": [
        {
          "indexed": true,
          "internalType": "address",
          "name": "tableAddr",
          "type": "address"
        },
        {
          "indexed": true,
          "internalType": "uint256",
          "name": "poolId",
          "type": "uint256"
        },
        {
          "indexed": true,
          "internalType": "address",
          "name": "banker",
          "type": "address"
        }
      ],
      "name": "TableRewardPoolRemoved",
      "type": "event"
    },
    {
      "anonymous": false,
      "inputs": [
        {
          "indexed": true,
          "internalType": "address",
          "name": "tableAddr",
          "type": "address"
        },
        {
          "indexed": true,
          "internalType": "uint256",
          "name": "poolId",
          "type": "uint256"
        },
        {
          "indexed": true,
          "internalType": "address",
          "name": "banker",
          "type": "address"
        }
      ],
      "name": "TableRewardPoolSet",
      "type": "event"
    },
    {
      "anonymous": false,
      "inputs": [
        {
          "indexed": true,
          "internalType": "address",
          "name": "implementation",
          "type": "address"
        }
      ],
      "name": "Upgraded",
      "type": "event"
    },
    {
      "inputs": [],
      "name": "UPGRADE_INTERFACE_VERSION",
      "outputs": [
        {
          "internalType": "string",
          "name": "",
          "type": "string"
        }
      ],
      "stateMutability": "view",
      "type": "function"
    },
    {
      "inputs": [
        {
          "internalType": "string",
          "name": "name",
          "type": "string"
        },
        {
          "internalType": "uint256",
          "name": "_totalReward",
          "type": "uint256"
        },
        {
          "internalType": "uint256",
          "name": "_rewardPerGame",
          "type": "uint256"
        },
        {
          "internalType": "uint256",
          "name": "_winProbability",
          "type": "uint256"
        }
      ],
      "name": "createRewardPool",
      "outputs": [],
      "stateMutability": "payable",
      "type": "function"
    },
    {
      "inputs": [],
      "name": "gameMainAddr",
      "outputs": [
        {
          "internalType": "address",
          "name": "",
          "type": "address"
        }
      ],
      "stateMutability": "view",
      "type": "function"
    },
    {
      "inputs": [
        {
          "internalType": "address",
          "name": "_banker",
          "type": "address"
        }
      ],
      "name": "getBankerPools",
      "outputs": [
        {
          "components": [
            {
              "internalType": "uint256",
              "name": "poolId",
              "type": "uint256"
            },
            {
              "internalType": "string",
              "name": "name",
              "type": "string"
            },
            {
              "internalType": "address",
              "name": "banker",
              "type": "address"
            },
            {
              "internalType": "uint256",
              "name": "totalAmount",
              "type": "uint256"
            },
            {
              "internalType": "uint256",
              "name": "rewardPerGame",
              "type": "uint256"
            },
            {
              "internalType": "uint256",
              "name": "winProbability",
              "type": "uint256"
            },
            {
              "internalType": "uint256",
              "name": "remainingAmount",
              "type": "uint256"
            },
            {
              "internalType": "bool",
              "name": "inUse",
              "type": "bool"
            },
            {
              "internalType": "uint256[10]",
              "name": "__gap",
              "type": "uint256[10]"
            }
          ],
          "internalType": "struct RewardPoolInfo[]",
          "name": "",
          "type": "tuple[]"
        }
      ],
      "stateMutability": "view",
      "type": "function"
    },
    {
      "inputs": [
        {
          "internalType": "address",
          "name": "_banker",
          "type": "address"
        },
        {
          "internalType": "uint256",
          "name": "_poolId",
          "type": "uint256"
        }
      ],
      "name": "getRewardPoolInfo",
      "outputs": [
        {
          "components": [
            {
              "internalType": "uint256",
              "name": "poolId",
              "type": "uint256"
            },
            {
              "internalType": "string",
              "name": "name",
              "type": "string"
            },
            {
              "internalType": "address",
              "name": "banker",
              "type": "address"
            },
            {
              "internalType": "uint256",
              "name": "totalAmount",
              "type": "uint256"
            },
            {
              "internalType": "uint256",
              "name": "rewardPerGame",
              "type": "uint256"
            },
            {
              "internalType": "uint256",
              "name": "winProbability",
              "type": "uint256"
            },
            {
              "internalType": "uint256",
              "name": "remainingAmount",
              "type": "uint256"
            },
            {
              "internalType": "bool",
              "name": "inUse",
              "type": "bool"
            },
            {
              "internalType": "uint256[10]",
              "name": "__gap",
              "type": "uint256[10]"
            }
          ],
          "internalType": "struct RewardPoolInfo",
          "name": "",
          "type": "tuple"
        }
      ],
      "stateMutability": "view",
      "type": "function"
    },
    {
      "inputs": [
        {
          "internalType": "address",
          "name": "_gameMainAddr",
          "type": "address"
        }
      ],
      "name": "initialize",
      "outputs": [],
      "stateMutability": "nonpayable",
      "type": "function"
    },
    {
      "inputs": [
        {
          "internalType": "address",
          "name": "_banker",
          "type": "address"
        },
        {
          "internalType": "uint256",
          "name": "_poolId",
          "type": "uint256"
        }
      ],
      "name": "isBankerPool",
      "outputs": [
        {
          "internalType": "bool",
          "name": "",
          "type": "bool"
        }
      ],
      "stateMutability": "view",
      "type": "function"
    },
    {
      "inputs": [],
      "name": "owner",
      "outputs": [
        {
          "internalType": "address",
          "name": "",
          "type": "address"
        }
      ],
      "stateMutability": "view",
      "type": "function"
    },
    {
      "inputs": [],
      "name": "proxiableUUID",
      "outputs": [
        {
          "internalType": "bytes32",
          "name": "",
          "type": "bytes32"
        }
      ],
      "stateMutability": "view",
      "type": "function"
    },
    {
      "inputs": [
        {
          "internalType": "uint256",
          "name": "_poolId",
          "type": "uint256"
        }
      ],
      "name": "removeRewardPool",
      "outputs": [],
      "stateMutability": "nonpayable",
      "type": "function"
    },
    {
      "inputs": [],
      "name": "renounceOwnership",
      "outputs": [],
      "stateMutability": "nonpayable",
      "type": "function"
    },
    {
      "inputs": [
        {
          "internalType": "address",
          "name": "_gameMainAddr",
          "type": "address"
        }
      ],
      "name": "setGameMainAddress",
      "outputs": [],
      "stateMutability": "nonpayable",
      "type": "function"
    },
    {
      "inputs": [
        {
          "internalType": "address",
          "name": "newOwner",
          "type": "address"
        }
      ],
      "name": "transferOwnership",
      "outputs": [],
      "stateMutability": "nonpayable",
      "type": "function"
    },
    {
      "inputs": [
        {
          "internalType": "uint256",
          "name": "_poolId",
          "type": "uint256"
        },
        {
          "internalType": "address[]",
          "name": "_players",
          "type": "address[]"
        },
        {
          "internalType": "uint256",
          "name": "finalSeed",
          "type": "uint256"
        }
      ],
      "name": "tryDistributeReward",
      "outputs": [
        {
          "internalType": "address",
          "name": "",
          "type": "address"
        },
        {
          "internalType": "uint256",
          "name": "",
          "type": "uint256"
        }
      ],
      "stateMutability": "nonpayable",
      "type": "function"
    },
    {
      "inputs": [
        {
          "internalType": "address",
          "name": "newImplementation",
          "type": "address"
        },
        {
          "internalType": "bytes",
          "name": "data",
          "type": "bytes"
        }
      ],
      "name": "upgradeToAndCall",
      "outputs": [],
      "stateMutability": "payable",
      "type": "function"
    }
  ],
  "transactionHash": "0xab22e88d936c741df2bc2669b64ddb3bc6c11a39d155b42ce5eb982d26e3ce39",
  "args": [],
  "numDeployments": 1,
  "solcInputHash": "48576e987db7584d29c5cbb1887dec70",
  "bytecode": "0x60a06040523461003257610011610037565b604051612d916101b182396080518181816126bb01526129af0152612d9190f35b600080fd5b61003f61007e565b610047610102565b565b61005d90610060906001600160a01b031682565b90565b6001600160a01b031690565b61005d90610049565b61005d9061006c565b61008730610075565b608052565b61005d9060401c60ff1690565b61005d905461008c565b61005d905b6001600160401b031690565b61005d90546100a3565b61005d906100a8906001600160401b031682565b906100e261005d6100fe926100be565b82546001600160401b0319166001600160401b03919091161790565b9055565b7ff0c57e16840df040f15088dc2f81fe391c3923bec73e23a9662efc9c229c6a0061012c81610099565b61019e57610139816100b4565b6001600160401b0391908290811603610150575050565b8161017f7fc7f505b2f371ae2175ee4913f4499e1f2633a7b5936321eed1cdaeb6115181d293610199936100d2565b604051918291826001600160401b03909116815260200190565b0390a1565b63f92ee8a960e01b6000908152600490fdfe6080604052600436101561001257600080fd5b60003560e01c806341d5ffc9146101025780634f1ef286146100fd5780634fb8ed9b146100f857806352d1902d146100f3578063668d6d2b146100ee5780636dde1d50146100e9578063715018a6146100e45780637c33cba7146100df5780638da5cb5b146100da578063a05d5499146100d5578063ad3cb1cc146100d0578063c3867ce0146100cb578063c4d66de8146100c6578063e2b21eac146100c15763f2fde38b03610107576107de565b6107c6565b6107ae565b610780565b610759565b6106d1565b610624565b61060d565b61057c565b610554565b6104f9565b610492565b61046f565b61042f565b61030d565b600080fd5b6001600160a01b031690565b90565b6101248161010c565b0361010757565b905035906101388261011b565b565b90602082820312610107576101189161012b565b9052565b60005b8381106101655750506000910152565b8181015183820152602001610155565b61019661019f6020936101a99361018a815190565b80835293849260200190565b95869101610152565b601f01601f191690565b0190565b61014e9061010c565b6101c66101c2600a9390565b9190565b6000915b8383106101d75750505050565b6101f16101ea6001928451815260200190565b9260200190565b920191906101ca565b80518252906101189061010080610221610240840160208701518582036020870152610175565b94610234604082015160408601906101ad565b61024360608201516060860152565b61025260808201516080860152565b61026160a082015160a0860152565b61027060c082015160c0860152565b60e08181015115159085015201519101906101b6565b90610118916101fa565b906102a661029c835190565b8083529160200190565b90816102b86020830284019460200190565b926000915b8383106102cc57505050505090565b909192939460206102ef6102e883856001950387528951610286565b9760200190565b93019301919392906102bd565b602080825261011892910190610290565b346101075761033461032861032336600461013a565b610c58565b604051918291826102fc565b0390f35b634e487b7160e01b600052604160045260246000fd5b90601f01601f191681019081106001600160401b0382111761036f57604052565b610338565b9061013861038160405190565b928361034e565b6001600160401b03811161036f57602090601f01601f19160190565b90826000939282370152565b909291926103c56103c082610388565b610374565b9381855281830111610107576101389160208501906103a4565b9080601f8301121561010757816020610118933591016103b0565b91909160408184031261010757610411838261012b565b9260208201356001600160401b0381116101075761011892016103df565b61044361043d3660046103fa565b90610db3565b604051005b80610124565b9050359061013882610448565b90602082820312610107576101189161044e565b346101075761044361048236600461045b565b6116fe565b600091031261010757565b34610107576104a2366004610487565b6103346104ad61174a565b6040515b9182918290815260200190565b610118916008021c6001600160a01b031690565b9061011891546104be565b610118600060026104d2565b60208101929161013891906101ad565b3461010757610509366004610487565b6103346105146104dd565b604051918291826104e9565b91906040838203126101075761011890602061053c828661012b565b940161044e565b6020808252610118929101906101fa565b346101075761033461057061056a366004610520565b90611754565b60405191829182610543565b346101075761058c366004610487565b61044361178e565b909182601f83011215610107578135916001600160401b03831161010757602001926001830284011161010757565b906080828203126101075781356001600160401b03811161010757816105ea918401610594565b9290936101186105fd846020850161044e565b93606061053c826040870161044e565b61044361061b3660046105c3565b93929092611cdc565b3461010757610634366004610487565b610334610514611ce9565b909182601f83011215610107578135916001600160401b03831161010757602001926020830284011161010757565b9060608282031261010757610683818361044e565b9260208301356001600160401b03811161010757826106a960409461011893870161063f565b9490950161044e565b9160206101389294936106cd604082019660008301906101ad565b0152565b34610107576106ed6106e436600461066e565b929190916121f5565b906103346106fa60405190565b928392836106b2565b906107106103c083610388565b918252565b61071f6005610703565b640352e302e360dc1b602082015290565b610118610715565b610118610730565b610118610738565b602080825261011892910190610175565b3461010757610769366004610487565b610334610774610740565b60405191829182610748565b346101075761033461079c610796366004610520565b906122a0565b60405191829182901515815260200190565b34610107576104436107c136600461013a565b6125e8565b34610107576104436107d936600461013a565b61264c565b34610107576104436107f136600461013a565b6126a7565b6101189061010c906001600160a01b031682565b610118906107f6565b6101189061080a565b9061082690610813565b600052602052604060002090565b6001600160401b03811161036f5760208091020190565b906107106103c083610834565b610118610120610374565b6001600160401b03811161036f5760200290565b6103c061011891610863565b369037565b9061013861089e61089884610877565b93610863565b83610883565b610118600a610888565b6108b6610858565b9060008252602080808080808080808a0160608152016000815201600081520160008152016000815201600081520160008152016108f26108a4565b905250565b6101186108ae565b60005b82811061090e57505050565b6020906109196108f7565b8184015201610902565b906101386109396109338461084b565b93610834565b601f1901602084016108ff565b6101186101186101189290565b634e487b7160e01b600052603260045260246000fd5b805482101561098c57610983601291600052602060002090565b91020190600090565b610953565b9061099a825190565b81101561098c576020809102010190565b6101189081565b61011890546109ab565b634e487b7160e01b600052602260045260246000fd5b90600160028304921680156109f2575b60208310146109ed57565b6109bc565b91607f16916109e2565b80546000939291610a19610a0f836109d2565b8085529360200190565b9160018116908115610a6b5750600114610a3257505050565b610a459192939450600052602060002090565b916000925b818410610a575750500190565b805484840152602090930192600101610a4a565b92949550505060ff1916825215156020020190565b90610118916109fc565b90610138610aa492610a9b60405190565b93848092610a80565b038361034e565b6101189061010c565b6101189054610aab565b9061014e9061010c565b610118905b60ff1690565b6101189054610ac8565b610ae96101c2600a9390565b6000915b838310610afa5750505050565b610b1b610b14600192610b0c856109b2565b815260200190565b9260010190565b92019190610aed565b906101a98161014093610add565b90610138610aa492610b4360405190565b93848092610b24565b90610138610c126008610b5d610858565b94610b6e610b6a826109b2565b8752565b610b84610b7d60018301610a8a565b6020880152565b610b9c610b9360028301610ab4565b60408801610abe565b610bb2610bab600383016109b2565b6060880152565b610bc8610bc1600483016109b2565b6080880152565b610bde610bd7600583016109b2565b60a0880152565b610bf4610bed600683016109b2565b60c0880152565b610c0c610c0360078301610ad3565b151560e0880152565b01610b32565b610100840152565b61011890610b4c565b801515610124565b9050519061013882610c23565b906020828203126101075761011891610c2b565b6040513d6000823e3d90fd5b6001610c6b610c67838361081c565b5490565b610c7481610923565b9282600092610c836000610946565b915b610c92575b505050505090565b80821015610d8e5781610cba610cb4610d1e94610caf878a61081c565b610969565b50610c1a565b610cc48289610991565b52610ccf8188610991565b506020610ce5610ce0806002610ab4565b610813565b610cf987610cf3858c610991565b51015190565b90610d0360405190565b95869283918291631d29fc8960e21b83528a600484016106b2565b03915afa908115610d8957610d4f610d559288958891610d5b575b5060e0610d46848c610991565b51019015159052565b60010190565b91610c85565b610d7c915060203d8111610d82575b610d74818361034e565b810190610c38565b38610d39565b503d610d6a565b610c4c565b610c8a565b9061013891610da06126b0565b9061013891610dae81612739565b612763565b9061013891610d93565b610dce90610dc9612827565b61152c565b610138612885565b61010c6101186101189290565b61011890610dd6565b15610df357565b60405162461bcd60e51b8152602060048201526016602482015275496e76616c69642062616e6b6572206164647265737360501b604482015280606481015b0390fd5b15610e3d57565b60405162461bcd60e51b815260206004820152601260248201527152657761726420706f6f6c20696e2075736560701b6044820152606490fd5b634e487b7160e01b600052601160045260246000fd5b9190610e98565b9290565b8203918211610ea357565b610e77565b634e487b7160e01b600052600060045260246000fd5b90600019905b9181191691161790565b90610ede610118610ee592610946565b8254610ebe565b9055565b61011890546109d2565b9160001960089290920291821b911b610ec4565b9190610f18610118610ee593610946565b908354610ef3565b61013891600091610f07565b818110610f37575050565b80610f456000600193610f20565b01610f2c565b9190601f8111610f5a57505050565b610f6c61013893600052602060002090565b906020601f840181900483019310610f8f575b6020601f909101045b0190610f2c565b9091508190610f7f565b9060001960089091021c191690565b81610fb291610f99565b906002021790565b9080821461109757610fcb81610ee9565b906001600160401b03821161036f57610fee82610fe885546109d2565b85610f4b565b600090601f831160011461101c57610ee5929160009183611011575b5050610fa8565b01549050388061100a565b90611031601f19841692600052602060002090565b9061104185600052602060002090565b92815b81811061107f57509160029391856001969410611065575b50505002019055565b611075910154601f841690610f99565b905538808061105c565b91936001806020928787015481550195019201611044565b5050565b9061013891610fba565b906001600160a01b0390610ec4565b906110c4610118610ee592610813565b82546110a5565b9060ff90610ec4565b906110e4610118610ee592151590565b82546110cb565b906110fe90600019906020036008021c90565b8154169055565b91909182821061111457505050565b6101389281019101610f2c565b90600160401b811161036f5761013891600a90611105565b81811461109757600a91611156610e946001926101188686611121565b9204918154916000925b84841061116e575050505050565b6001611178819290565b92019384549281850155019290611160565b9061013891611139565b81810361119f575050565b600880836111bb6111b5600061013897016109b2565b85610ece565b6111cb600182016001860161109b565b6111e36111da60028301610ab4565b600286016110b4565b6111fb6111f2600383016109b2565b60038601610ece565b61121361120a600483016109b2565b60048601610ece565b61122b611222600583016109b2565b60058601610ece565b61124361123a600683016109b2565b60068601610ece565b61125b61125260078301610ad3565b600786016110d4565b01910161118a565b91906112725761013891611194565b610ea8565b634e487b7160e01b600052603160045260246000fd5b906000916112ab6112a382600052602060002090565b928354610fa8565b905555565b919290602082101561130857601f84116001146112d257610ee5929350610fa8565b50906113036101389360016112fa6112ef85600052602060002090565b92601f602091010490565b82019101610f2c565b61128d565b50611341829361131f600194600052602060002090565b610f886020601f860104820192601f861680611349575b50601f602091010490565b600202179055565b611355908886036110eb565b38611336565b929091600160401b821161036f57602011156113a257602081101561138357610ee591610fa8565b60019160ff191661139984600052602060002090565b55600202019055565b60019150600202019055565b9081546113ba816109d2565b908183116113e3575b8183106113d1575b50505050565b6113da936112b0565b388080806113cb565b6113ef8383838761135b565b6113c3565b6000610138916113ae565b9060000361127257610138906113f4565b61013890600a810190610f2c565b906000036112725761013890611410565b600060086101389261144383808301610f20565b61145083600183016113ff565b8260028201556114638360038301610f20565b6114708360048301610f20565b61147d8360058301610f20565b61148a8360068301610f20565b8260078201550161141e565b90600003611272576101389061142f565b805480156114ca5760001901906114c76114c18383610969565b90611496565b55565b611277565b3d156114e9576114de3d610703565b903d6000602084013e565b606090565b156114f557565b60405162461bcd60e51b815260206004820152600f60248201526e151c985b9cd9995c8819985a5b1959608a1b6044820152606490fd5b60009061155361154361153e84610de3565b61010c565b61154c3361010c565b1415610dec565b61155d81336128f7565b919092611570610ce0610ce06002610ab4565b602061157b60405190565b918290631d29fc8960e21b825281806115988833600484016106b2565b03915afa908115610d89576101186115ca600661161a97611604956115ff9588916116df575b506116d1575b016109b2565b966001906115f06101186115e1610c67338661081c565b6115ea85610946565b90610e8d565b8103611686575b50339061081c565b6114a7565b61160d81610946565b8411611656575b50610946565b7f0706e9f5d874e7d7db036db12b7763a4c9b38db9708af1330751f862cbc1ffae61165161164733610813565b936104b160405190565b0390a3565b8061168091611667610ce033610813565b6040518781805b03925af161167a6114cf565b506114ee565b38611614565b6116cb906116c56116b961169a338661081c565b6116b36116aa610c67338961081c565b6115ea88610946565b90610969565b5091610caf338661081c565b90611263565b386115f7565b6116da87610e36565b6115c4565b6116f8915060203d602011610d8257610d74818361034e565b386115be565b61013890610dbd565b6101189061171361299e565b611741565b6101187f360894a13ba1a3210667c828492db98dca3e2076cc3735a920a3ca505d382bbc610946565b50610118611718565b6101186000611707565b6101189161176a916117646108f7565b506128f7565b9050610c1a565b6117796129da565b6101386101386117896000610de3565b612a11565b610138611771565b90610dce949392916117a6612827565b611af4565b156117b257565b60405162461bcd60e51b8152602060048201526015602482015274125b9d985b1a59081c995dd85c9908185b5bdd5b9d605a1b6044820152606490fd5b610acd6101186101189290565b61011860646117ef565b6101186101186101189260ff1690565b1561181d57565b60405162461bcd60e51b8152602060048201526017602482015276496e76616c69642077696e2070726f626162696c69747960481b6044820152606490fd5b1561186357565b60405162461bcd60e51b8152602060048201526012602482015271496e73756666696369656e742066756e647360701b6044820152606490fd5b6101189136916103b0565b6000198114610ea35760010190565b906118c0815190565b906001600160401b03821161036f576118dd82610fe885546109d2565b602090601f831160011461190a57610ee59291600091836118ff575050610fa8565b01519050388061100a565b601f1983169161191f85600052602060002090565b9260005b818110611953575091600293918560019694106119435750505002019055565b611075910151601f841690610f99565b91936020600181928787015181550195019201611923565b90610138916118b7565b610118905161010c565b600a91611995610e946001926101188686611121565b92049160005b8381106119a85750505050565b60019060206119b8610118865190565b940193818401550161199b565b906101389161197f565b6008611a98610100610138946119ef6119e9600083015190565b86610ece565b611a066119fd602083015190565b6001870161196b565b611a1e611a1560408301611975565b600287016110b4565b611a35611a2c606083015190565b60038701610ece565b611a4c611a43608083015190565b60048701610ece565b611a63611a5a60a083015190565b60058701610ece565b611a7a611a7160c083015190565b60068701610ece565b611a93611a8a60e0830151151590565b600787016110d4565b015190565b91016119c5565b919061127257610138916119cf565b80549190600160401b83101561036f5782611ad191600161013895018155610969565b90611a9f565b9081526060810193926101389290916040916106cd906020830152565b7f6d3e1386229e2cb9911be0a8d83dbd798fc01a2de4f78f45af7300888acfe06a92611c7e611c8292611c8794979697611b77600091611b3383610946565b8b1180611cc6575b611b44906117ab565b611b4d83610946565b8a1180611ca8575b611b5e90611816565b611b6986341461185c565b611b716108f7565b9361189d565b6020830152611bdb611b88826109b2565b94611b9b611b95876118a8565b84610ece565b611ba6838501968752565b611bb33360408601610abe565b611bbe816060860152565b611bc98b6080860152565b611bd48a60a0860152565b60c0840152565b80151560e0830152611c65611bf0600a610877565b91611c04611bfd82610946565b8092850152565b611c0f816020850152565b611c1a816040850152565b611c25816060850152565b611c30816080850152565b611c3b8160a0850152565b611c468160c0850152565b611c518160e0850152565b611c5d81610100850152565b610120830152565b610100820152611c7961011833600161081c565b611aae565b5190565b610946565b91611c9133610813565b93611651611c9e60405190565b9283923484611ad7565b50611b5e611cbc611cb76117fc565b611806565b8b11159050611b55565b50611b44611cd384610946565b87119050611b3b565b9061013894939291611796565b61011860007f9016d09d72d40fdae2fd8ceac6b6234c7706214fd39c1cd1e609a0528c1993005b01610ab4565b15611d1d57565b60405162461bcd60e51b815260206004820152600d60248201526c696e76616c6964207461626c6560981b6044820152606490fd5b9493929190611d67610ce0610ce06002610ab4565b956020611d7360405190565b978890635ab8933560e11b82528180611d8f33600483016104e9565b03915afa968715610d8957611db597611db091600091611db9575b50611d16565b611dd8565b9091565b611dd2915060203d602011610d8257610d74818361034e565b38611daa565b90611dee9594939291611de9612827565b611f3b565b9091610138612885565b905051906101388261011b565b906020828203126101075761011891611df8565b15611e2057565b60405162461bcd60e51b8152602060048201526016602482015275696e76616c69642062616e6b6572206164647265737360501b6044820152606490fd5b634e487b7160e01b600052601260045260246000fd5b8115611e7e570690565b611e5e565b91908201809211610ea357565b15611e9757565b60405162461bcd60e51b815260206004820152601a60248201527f57696e6e657220696e646578206f7574206f6620626f756e64730000000000006044820152606490fd5b919081101561098c576020020190565b356101188161011b565b15611efd57565b60405162461bcd60e51b8152602060048201526016602482015275496e76616c69642077696e6e6572206164647265737360501b6044820152606490fd5b9594959392935050611f4f610ce033610813565b926020611f5b60405190565b636240508960e11b815294859060049082905afa938415610d89576000946121c4575b50600095611fb183611f8f89610de3565b96611fac611f9c8961010c565b611fa58361010c565b1415611e19565b6128f7565b949050611fbf8886016109b2565b611fcb6101c28a610946565b146121b5576006850192611fde846109b2565b956004810196611ff36101c26101188a6109b2565b106121a45782906120038b610946565b82146121925761203a6101c26101186005612033612022338d8c612aac565b61202d611cb76117fc565b90611e74565b94016109b2565b1061205057505050505050506101189092610946565b6120ac6120a66120a18c966120dc966120fd99966101189d9f966120766120bc98610946565b938d6120826001610946565b8311612158575b505061209561209c9190565b8410611e90565b611edc565b611eec565b9a61010c565b6120b58b61010c565b1415611ef6565b6120d66120c8876109b2565b6120d1836109b2565b610e8d565b90610ece565b806120e9610ce089610813565b6120f2866109b2565b60405190818061166e565b61210f612109836109b2565b91610946565b61211833610813565b907f8b7985a52210ce409ea99655babe77d75168039a483252bb0f6d89ab695bc2e461215061214689610813565b946104b160405190565b0390a46109b2565b8261209c9396506121846120959361217d612189946121776001610946565b90611e83565b3391612aac565b611e74565b9491508d612089565b50505050505050506101189092610946565b505050505050506101189092610946565b50505050506101189092610946565b6121e791945060203d6020116121ee575b6121df818361034e565b810190611e05565b9238611f7e565b503d6121d5565b611db593929190600080611d52565b1561220b57565b60405162461bcd60e51b815260206004820152600f60248201526e125b9d985b1a59081c1bdbdb081251608a1b6044820152606490fd5b9061224b825490565b6122548161084b565b926122686020850191600052602060002090565b6000915b8383106122795750505050565b6012602060019261228985610c1a565b81520192019201919061226c565b61011890612242565b6122e291906000916122c06122b761153e85610de3565b61154c8461010c565b6122d36122cc84610946565b8211612204565b6122e76001948593600161081c565b612297565b6122f084610946565b945b6122ff575b505050905090565b61230a610118825190565b8510156123405761231f84610cf38784610991565b82146123385761233183949560010190565b94936122f2565b505091505090565b6122f7565b6101189060401c610acd565b6101189054612345565b610118905b6001600160401b031690565b610118905461235b565b6123606101186101189290565b906001600160401b0390610ec4565b612360610118610118926001600160401b031690565b906123b8610118610ee592612392565b8254612383565b9060ff60401b9060401b610ec4565b906123de610118610ee592151590565b82546123bf565b61014e90612376565b60208101929161013891906123e5565b7ff0c57e16840df040f15088dc2f81fe391c3923bec73e23a9662efc9c229c6a00908161243a61243461243083612351565b1590565b9161236c565b9060009261244784612376565b6001600160401b0384161480612541575b60019361247461246786612376565b916001600160401b031690565b14908161251d575b155b9081612514575b50612505576124ae90826124a58661249c87612376565b980197886123a8565b6124f657612590565b6124b757505050565b6124e56124f1927fc7f505b2f371ae2175ee4913f4499e1f2633a7b5936321eed1cdaeb6115181d2946123ce565b604051918291826123ee565b0390a1565b61250084876123ce565b612590565b63f92ee8a960e01b8452600484fd5b15905038612485565b905061247e61252b30610813565b3b6125386101c288610946565b1491905061247c565b5081612458565b1561254f57565b60405162461bcd60e51b8152602060048201526019602482015278496e76616c69642067616d65206d61696e206164647265737360381b6044820152606490fd5b6125d49061259d33612b4c565b6125a5612b68565b6125ad612b78565b6125cd6125bd61153e6000610de3565b6125c68361010c565b1415612548565b60026110b4565b6101386125e16001610946565b6000610ece565b610138906123fe565b610138906125fd6129da565b61261c906126116125bd61153e6000610de3565b610ce08160026110b4565b7f7b78706aae990345fb7432d302b61e15f0a211419238fd433543cad10d2d462061264660405190565b600090a2565b610138906125f1565b610138906126616129da565b600061266c81610de3565b6126758161010c565b61267e8461010c565b1461268e57505061013890612a11565b631e4fbdf760e01b82528190610e3290600483016104e9565b61013890612655565b6126b930610813565b7f0000000000000000000000000000000000000000000000000000000000000000906126ed6126e78361010c565b9161010c565b14908115612712575b506126fd57565b63703e46dd60e11b600090815260045b036000fd5b90506127286126e7612722612b80565b9261010c565b1415386126f6565b506101386129da565b61013890612730565b9050519061013882610448565b906020828203126101075761011891612742565b91612770610ce084610813565b91602061277c60405190565b6352d1902d60e01b815293849060049082905afa600093816127ec575b506127b657634c9c8ce360e01b600090815261270d8560046104e9565b9091926127c4610118611718565b84036127d557610138929350612b90565b632a87526960e21b60009081526004859052602490fd5b61280f91945060203d602011612816575b612807818361034e565b81019061274f565b9238612799565b503d6127fd565b6101186002610946565b7f9b779b17422d0df92223018b32b4d1fa46e071723d6817e2486d003becc55f00612851816109b2565b61285961281d565b9081146128695761013891610ece565b633ee5aeb560e01b6000908152600490fd5b6101186001610946565b6101387f9b779b17422d0df92223018b32b4d1fa46e071723d6817e2486d003becc55f0060006128b361287b565b9101610ece565b156128c157565b60405162461bcd60e51b815260206004820152600e60248201526d141bdbdb081b9bdd08199bdd5b9960921b6044820152606490fd5b9190612909610118600194600161081c565b9060006129166000610946565b94859260009284835b61293d575b505050509061011892610caf612939936128ba565b5090565b909192939461294d610118885490565b821015612997575061296a826129638389610969565b50016109b2565b831461297f578392919060010188959461291f565b9650869350849150610caf9050612939610118612924565b9493612924565b6129a730610813565b6129d36126e77f000000000000000000000000000000000000000000000000000000000000000061010c565b036126fd57565b6129e2611ce9565b33906129f06126e78361010c565b036129f85750565b63118cdaa760e01b60009081529061270d9060046104e9565b612a51612a4b7f9016d09d72d40fdae2fd8ceac6b6234c7706214fd39c1cd1e609a0528c199300610ce084612a4583610ab4565b926110b4565b91610813565b907f8be0079c531659141344cd1fd0a4f28419497f9722a3daafe3b4186f6b6457e0612a7c60405190565b8080611651565b612a8f61014e9161010c565b60601b90565b01918252565b018092612a83565b61011890610946565b612b1f9061011893612abc600090565b50612b13612ad3612acd6001610946565b43610e8d565b91612add60405190565b9586946020860194409244924292876101a994612a956014602099989596612a958b8099612a9b8289612a95829b612a959d9052565b9081038252038261034e565b612b31612b2a825190565b9160200190565b20612aa3565b61013890612b43612bfc565b61013890612c2b565b61013890612b37565b612b5d612bfc565b610138610138612c3c565b610138612b55565b610138612bfc565b610138612b70565b6101186000611d10610118611718565b90612b9a82612c44565b612ba382610813565b7fbc7cd75a20ee27fd9adebab32041f755214dbc6bffa90cc0225b39da2e5c2d3b612bcd60405190565b600090a28051612be06101c26000610946565b1115612bf257612bef91612caa565b50565b5050610138612c87565b612c07612430612cd1565b612c0d57565b631afcd79f60e31b6000908152600490fd5b61013890612661612bfc565b61013890612c1f565b610dce612bfc565b610138612c34565b6000813b612c546101c283610946565b14612c6f579061013891612c69610118611718565b016110b4565b610e328192634c9c8ce360e01b8352600483016104e9565b6000612c9281610946565b3411612c9b5750565b63b398979f60e01b8152600490fd5b60008061011893612cb9606090565b50602081519101845af4612ccb6114cf565b91612cfa565b6101187ff0c57e16840df040f15088dc2f81fe391c3923bec73e23a9662efc9c229c6a00612351565b90612d055750612d55565b815190600091612d176101c284610946565b1480612d40575b612d2757505090565b639996b31560e01b82528190610e3290600483016104e9565b50803b612d4f6101c284610946565b14612d1e565b8051600090612d666101c283610946565b1115612d755750805190602001fd5b63d6bda27560e01b8152600490fdfea164736f6c634300081c000a",
  "devdoc": {
    "details": "",
    "errors": {
      "AddressEmptyCode(address)": [
        {
          "details": "There's no code at `target` (it is not a contract)."
        }
      ],
      "ERC1967InvalidImplementation(address)": [
        {
          "details": "The `implementation` of the proxy is invalid."
        }
      ],
      "ERC1967NonPayable()": [
        {
          "details": "An upgrade function sees `msg.value > 0` that may be lost."
        }
      ],
      "FailedCall()": [
        {
          "details": "A call to an address target failed. The target may have reverted."
        }
      ],
      "InvalidInitialization()": [
        {
          "details": "The contract is already initialized."
        }
      ],
      "NotInitializing()": [
        {
          "details": "The contract is not initializing."
        }
      ],
      "OwnableInvalidOwner(address)": [
        {
          "details": "The owner is not a valid owner account. (eg. `address(0)`)"
        }
      ],
      "OwnableUnauthorizedAccount(address)": [
        {
          "details": "The caller account is not authorized to perform an operation."
        }
      ],
      "ReentrancyGuardReentrantCall()": [
        {
          "details": "Unauthorized reentrant call."
        }
      ],
      "UUPSUnauthorizedCallContext()": [
        {
          "details": "The call is from an unauthorized context."
        }
      ],
      "UUPSUnsupportedProxiableUUID(bytes32)": [
        {
          "details": "The storage `slot` is unsupported as a UUID."
        }
      ]
    },
    "events": {
      "Initialized(uint64)": {
        "details": "Triggered when the contract has been initialized or reinitialized."
      },
      "Upgraded(address)": {
        "details": "Emitted when the implementation is upgraded."
      }
    },
    "kind": "dev",
    "methods": {
      "constructor": {
        "custom:oz-upgrades-unsafe-allow": "constructor"
      },
      "createRewardPool(string,uint256,uint256,uint256)": {
        "details": "",
        "params": {
          "_rewardPerGame": "",
          "_totalReward": "",
          "_winProbability": "1010%",
          "name": ""
        }
      },
      "getBankerPools(address)": {
        "details": "",
        "params": {
          "_banker": ""
        },
        "returns": {
          "_0": ""
        }
      },
      "getRewardPoolInfo(address,uint256)": {
        "details": "",
        "params": {
          "_banker": "",
          "_poolId": "ID"
        },
        "returns": {
          "_0": ""
        }
      },
      "initialize(address)": {
        "details": "",
        "params": {
          "_gameMainAddr": ""
        }
      },
      "owner()": {
        "details": "Returns the address of the current owner."
      },
      "proxiableUUID()": {
        "details": "Implementation of the ERC-1822 {proxiableUUID} function. This returns the storage slot used by the implementation. It is used to validate the implementation's compatibility when performing an upgrade. IMPORTANT: A proxy pointing at a proxiable contract should not be considered proxiable itself, because this risks bricking a proxy that upgrades to it, by delegating to itself until out of gas. Thus it is critical that this function revert if invoked through a proxy. This is guaranteed by the `notDelegated` modifier."
      },
      "removeRewardPool(uint256)": {
        "details": "",
        "params": {
          "_poolId": "ID"
        }
      },
      "renounceOwnership()": {
        "details": "Leaves the contract without owner. It will not be possible to call `onlyOwner` functions. Can only be called by the current owner. NOTE: Renouncing ownership will leave the contract without an owner, thereby disabling any functionality that is only available to the owner."
      },
      "setGameMainAddress(address)": {
        "details": "",
        "params": {
          "_gameMainAddr": ""
        }
      },
      "transferOwnership(address)": {
        "details": "Transfers ownership of the contract to a new account (`newOwner`). Can only be called by the current owner."
      },
      "tryDistributeReward(uint256,address[],uint256)": {
        "details": "",
        "params": {
          "_players": "",
          "_poolId": "ID",
          "finalSeed": ""
        },
        "returns": {
          "_0": ""
        }
      },
      "upgradeToAndCall(address,bytes)": {
        "custom:oz-upgrades-unsafe-allow-reachable": "delegatecall",
        "details": "Upgrade the implementation of the proxy to `newImplementation`, and subsequently execute the function call encoded in `data`. Calls {_authorizeUpgrade}. Emits an {Upgraded} event."
      }
    },
    "title": "BBRewardPool",
    "version": 1
  },
  "userdoc": {
    "kind": "user",
    "methods": {},
    "version": 1
  },
  "storageLayout": {
    "storage": [
      {
        "astId": 16120,
        "contract": "contracts/BBRewardPool.sol:BBRewardPool",
        "label": "nextPoolId",
        "offset": 0,
        "slot": "0",
        "type": "t_uint256"
      },
      {
        "astId": 16126,
        "contract": "contracts/BBRewardPool.sol:BBRewardPool",
        "label": "bankerPools",
        "offset": 0,
        "slot": "1",
        "type": "t_mapping(t_address,t_array(t_struct(RewardPoolInfo)19753_storage)dyn_storage)"
      },
      {
        "astId": 16128,
        "contract": "contracts/BBRewardPool.sol:BBRewardPool",
        "label": "gameMainAddr",
        "offset": 0,
        "slot": "2",
        "type": "t_address"
      },
      {
        "astId": 16135,
        "contract": "contracts/BBRewardPool.sol:BBRewardPool",
        "label": "__gap",
        "offset": 0,
        "slot": "3",
        "type": "t_array(t_uint256)25_storage"
      }
    ],
    "types": {
      "t_address": {
        "encoding": "inplace",
        "label": "address",
        "numberOfBytes": "20"
      },
      "t_array(t_struct(RewardPoolInfo)19753_storage)dyn_storage": {
        "base": "t_struct(RewardPoolInfo)19753_storage",
        "encoding": "dynamic_array",
        "label": "struct RewardPoolInfo[]",
        "numberOfBytes": "32"
      },
      "t_array(t_uint256)10_storage": {
        "base": "t_uint256",
        "encoding": "inplace",
        "label": "uint256[10]",
        "numberOfBytes": "320"
      },
      "t_array(t_uint256)25_storage": {
        "base": "t_uint256",
        "encoding": "inplace",
        "label": "uint256[25]",
        "numberOfBytes": "800"
      },
      "t_bool": {
        "encoding": "inplace",
        "label": "bool",
        "numberOfBytes": "1"
      },
      "t_mapping(t_address,t_array(t_struct(RewardPoolInfo)19753_storage)dyn_storage)": {
        "encoding": "mapping",
        "key": "t_address",
        "label": "mapping(address => struct RewardPoolInfo[])",
        "numberOfBytes": "32",
        "value": "t_array(t_struct(RewardPoolInfo)19753_storage)dyn_storage"
      },
      "t_string_storage": {
        "encoding": "bytes",
        "label": "string",
        "numberOfBytes": "32"
      },
      "t_struct(RewardPoolInfo)19753_storage": {
        "encoding": "inplace",
        "label": "struct RewardPoolInfo",
        "members": [
          {
            "astId": 19734,
            "contract": "contracts/BBRewardPool.sol:BBRewardPool",
            "label": "poolId",
            "offset": 0,
            "slot": "0",
            "type": "t_uint256"
          },
          {
            "astId": 19736,
            "contract": "contracts/BBRewardPool.sol:BBRewardPool",
            "label": "name",
            "offset": 0,
            "slot": "1",
            "type": "t_string_storage"
          },
          {
            "astId": 19738,
            "contract": "contracts/BBRewardPool.sol:BBRewardPool",
            "label": "banker",
            "offset": 0,
            "slot": "2",
            "type": "t_address"
          },
          {
            "astId": 19740,
            "contract": "contracts/BBRewardPool.sol:BBRewardPool",
            "label": "totalAmount",
            "offset": 0,
            "slot": "3",
            "type": "t_uint256"
          },
          {
            "astId": 19742,
            "contract": "contracts/BBRewardPool.sol:BBRewardPool",
            "label": "rewardPerGame",
            "offset": 0,
            "slot": "4",
            "type": "t_uint256"
          },
          {
            "astId": 19744,
            "contract": "contracts/BBRewardPool.sol:BBRewardPool",
            "label": "winProbability",
            "offset": 0,
            "slot": "5",
            "type": "t_uint256"
          },
          {
            "astId": 19746,
            "contract": "contracts/BBRewardPool.sol:BBRewardPool",
            "label": "remainingAmount",
            "offset": 0,
            "slot": "6",
            "type": "t_uint256"
          },
          {
            "astId": 19748,
            "contract": "contracts/BBRewardPool.sol:BBRewardPool",
            "label": "inUse",
            "offset": 0,
            "slot": "7",
            "type": "t_bool"
          },
          {
            "astId": 19752,
            "contract": "contracts/BBRewardPool.sol:BBRewardPool",
            "label": "__gap",
            "offset": 0,
            "slot": "8",
            "type": "t_array(t_uint256)10_storage"
          }
        ],
        "numberOfBytes": "576"
      },
      "t_uint256": {
        "encoding": "inplace",
        "label": "uint256",
        "numberOfBytes": "32"
      }
    }
  }
}