{
  "address": "0x4d4289eBAa41216f70eEAFc3994C84f8b6a9A869",
  "abi": [
    {
      "inputs": [],
      "stateMutability": "nonpayable",
      "type": "constructor"
    },
    {
      "inputs": [
        {
          "internalType": "address",
          "name": "target",
          "type": "address"
        }
      ],
      "name": "AddressEmptyCode",
      "type": "error"
    },
    {
      "inputs": [
        {
          "internalType": "address",
          "name": "implementation",
          "type": "address"
        }
      ],
      "name": "ERC1967InvalidImplementation",
      "type": "error"
    },
    {
      "inputs": [],
      "name": "ERC1967NonPayable",
      "type": "error"
    },
    {
      "inputs": [],
      "name": "ERC721EnumerableForbiddenBatchMint",
      "type": "error"
    },
    {
      "inputs": [
        {
          "internalType": "address",
          "name": "sender",
          "type": "address"
        },
        {
          "internalType": "uint256",
          "name": "tokenId",
          "type": "uint256"
        },
        {
          "internalType": "address",
          "name": "owner",
          "type": "address"
        }
      ],
      "name": "ERC721IncorrectOwner",
      "type": "error"
    },
    {
      "inputs": [
        {
          "internalType": "address",
          "name": "operator",
          "type": "address"
        },
        {
          "internalType": "uint256",
          "name": "tokenId",
          "type": "uint256"
        }
      ],
      "name": "ERC721InsufficientApproval",
      "type": "error"
    },
    {
      "inputs": [
        {
          "internalType": "address",
          "name": "approver",
          "type": "address"
        }
      ],
      "name": "ERC721InvalidApprover",
      "type": "error"
    },
    {
      "inputs": [
        {
          "internalType": "address",
          "name": "operator",
          "type": "address"
        }
      ],
      "name": "ERC721InvalidOperator",
      "type": "error"
    },
    {
      "inputs": [
        {
          "internalType": "address",
          "name": "owner",
          "type": "address"
        }
      ],
      "name": "ERC721InvalidOwner",
      "type": "error"
    },
    {
      "inputs": [
        {
          "internalType": "address",
          "name": "receiver",
          "type": "address"
        }
      ],
      "name": "ERC721InvalidReceiver",
      "type": "error"
    },
    {
      "inputs": [
        {
          "internalType": "address",
          "name": "sender",
          "type": "address"
        }
      ],
      "name": "ERC721InvalidSender",
      "type": "error"
    },
    {
      "inputs": [
        {
          "internalType": "uint256",
          "name": "tokenId",
          "type": "uint256"
        }
      ],
      "name": "ERC721NonexistentToken",
      "type": "error"
    },
    {
      "inputs": [
        {
          "internalType": "address",
          "name": "owner",
          "type": "address"
        },
        {
          "internalType": "uint256",
          "name": "index",
          "type": "uint256"
        }
      ],
      "name": "ERC721OutOfBoundsIndex",
      "type": "error"
    },
    {
      "inputs": [],
      "name": "FailedCall",
      "type": "error"
    },
    {
      "inputs": [],
      "name": "InvalidInitialization",
      "type": "error"
    },
    {
      "inputs": [],
      "name": "NotInitializing",
      "type": "error"
    },
    {
      "inputs": [
        {
          "internalType": "address",
          "name": "owner",
          "type": "address"
        }
      ],
      "name": "OwnableInvalidOwner",
      "type": "error"
    },
    {
      "inputs": [
        {
          "internalType": "address",
          "name": "account",
          "type": "address"
        }
      ],
      "name": "OwnableUnauthorizedAccount",
      "type": "error"
    },
    {
      "inputs": [],
      "name": "UUPSUnauthorizedCallContext",
      "type": "error"
    },
    {
      "inputs": [
        {
          "internalType": "bytes32",
          "name": "slot",
          "type": "bytes32"
        }
      ],
      "name": "UUPSUnsupportedProxiableUUID",
      "type": "error"
    },
    {
      "anonymous": false,
      "inputs": [
        {
          "indexed": true,
          "internalType": "address",
          "name": "owner",
          "type": "address"
        },
        {
          "indexed": true,
          "internalType": "address",
          "name": "approved",
          "type": "address"
        },
        {
          "indexed": true,
          "internalType": "uint256",
          "name": "tokenId",
          "type": "uint256"
        }
      ],
      "name": "Approval",
      "type": "event"
    },
    {
      "anonymous": false,
      "inputs": [
        {
          "indexed": true,
          "internalType": "address",
          "name": "owner",
          "type": "address"
        },
        {
          "indexed": true,
          "internalType": "address",
          "name": "operator",
          "type": "address"
        },
        {
          "indexed": false,
          "internalType": "bool",
          "name": "approved",
          "type": "bool"
        }
      ],
      "name": "ApprovalForAll",
      "type": "event"
    },
    {
      "anonymous": false,
      "inputs": [
        {
          "indexed": true,
          "internalType": "address",
          "name": "buyer",
          "type": "address"
        },
        {
          "indexed": false,
          "internalType": "uint256[]",
          "name": "tokenIds",
          "type": "uint256[]"
        },
        {
          "indexed": false,
          "internalType": "uint256",
          "name": "totalPrice",
          "type": "uint256"
        },
        {
          "indexed": false,
          "internalType": "uint256",
          "name": "nftTypeId",
          "type": "uint256"
        }
      ],
      "name": "BatchRoomCardPurchased",
      "type": "event"
    },
    {
      "anonymous": false,
      "inputs": [
        {
          "indexed": true,
          "internalType": "uint256",
          "name": "nftTypeId",
          "type": "uint256"
        },
        {
          "indexed": false,
          "internalType": "bool",
          "name": "active",
          "type": "bool"
        }
      ],
      "name": "CardTypeActiveStatusChanged",
      "type": "event"
    },
    {
      "anonymous": false,
      "inputs": [
        {
          "indexed": true,
          "internalType": "uint256",
          "name": "nftTypeId",
          "type": "uint256"
        },
        {
          "indexed": false,
          "internalType": "string",
          "name": "name",
          "type": "string"
        },
        {
          "indexed": false,
          "internalType": "uint8",
          "name": "maxPlayers",
          "type": "uint8"
        },
        {
          "indexed": false,
          "internalType": "uint256",
          "name": "price",
          "type": "uint256"
        },
        {
          "indexed": false,
          "internalType": "string",
          "name": "uriSuffix",
          "type": "string"
        },
        {
          "indexed": false,
          "internalType": "uint256",
          "name": "maxMint",
          "type": "uint256"
        },
        {
          "indexed": false,
          "internalType": "string",
          "name": "rarity",
          "type": "string"
        }
      ],
      "name": "CardTypeAdded",
      "type": "event"
    },
    {
      "anonymous": false,
      "inputs": [
        {
          "indexed": true,
          "internalType": "uint256",
          "name": "nftTypeId",
          "type": "uint256"
        },
        {
          "indexed": false,
          "internalType": "uint256",
          "name": "newMaxMint",
          "type": "uint256"
        }
      ],
      "name": "CardTypeMaxMintIncreased",
      "type": "event"
    },
    {
      "anonymous": false,
      "inputs": [
        {
          "indexed": true,
          "internalType": "uint256",
          "name": "nftTypeId",
          "type": "uint256"
        },
        {
          "indexed": false,
          "internalType": "uint8",
          "name": "maxPlayers",
          "type": "uint8"
        },
        {
          "indexed": false,
          "internalType": "uint256",
          "name": "price",
          "type": "uint256"
        },
        {
          "indexed": false,
          "internalType": "string",
          "name": "uriSuffix",
          "type": "string"
        },
        {
          "indexed": false,
          "internalType": "uint256",
          "name": "maxMint",
          "type": "uint256"
        },
        {
          "indexed": false,
          "internalType": "string",
          "name": "rarity",
          "type": "string"
        }
      ],
      "name": "CardTypeUpdated",
      "type": "event"
    },
    {
      "anonymous": false,
      "inputs": [
        {
          "indexed": false,
          "internalType": "uint64",
          "name": "version",
          "type": "uint64"
        }
      ],
      "name": "Initialized",
      "type": "event"
    },
    {
      "anonymous": false,
      "inputs": [
        {
          "indexed": true,
          "internalType": "address",
          "name": "previousOwner",
          "type": "address"
        },
        {
          "indexed": true,
          "internalType": "address",
          "name": "newOwner",
          "type": "address"
        }
      ],
      "name": "OwnershipTransferred",
      "type": "event"
    },
    {
      "anonymous": false,
      "inputs": [
        {
          "indexed": true,
          "internalType": "address",
          "name": "owner",
          "type": "address"
        },
        {
          "indexed": false,
          "internalType": "uint256",
          "name": "tokenId",
          "type": "uint256"
        }
      ],
      "name": "RoomCardConsumed",
      "type": "event"
    },
    {
      "anonymous": false,
      "inputs": [
        {
          "indexed": true,
          "internalType": "address",
          "name": "buyer",
          "type": "address"
        },
        {
          "indexed": false,
          "internalType": "uint256",
          "name": "tokenId",
          "type": "uint256"
        },
        {
          "indexed": false,
          "internalType": "uint256",
          "name": "price",
          "type": "uint256"
        },
        {
          "indexed": false,
          "internalType": "uint256",
          "name": "nftTypeId",
          "type": "uint256"
        }
      ],
      "name": "RoomCardPurchased",
      "type": "event"
    },
    {
      "anonymous": false,
      "inputs": [
        {
          "indexed": true,
          "internalType": "address",
          "name": "from",
          "type": "address"
        },
        {
          "indexed": true,
          "internalType": "address",
          "name": "to",
          "type": "address"
        },
        {
          "indexed": true,
          "internalType": "uint256",
          "name": "tokenId",
          "type": "uint256"
        }
      ],
      "name": "Transfer",
      "type": "event"
    },
    {
      "anonymous": false,
      "inputs": [
        {
          "indexed": true,
          "internalType": "address",
          "name": "implementation",
          "type": "address"
        }
      ],
      "name": "Upgraded",
      "type": "event"
    },
    {
      "anonymous": false,
      "inputs": [
        {
          "indexed": true,
          "internalType": "address",
          "name": "to",
          "type": "address"
        },
        {
          "indexed": false,
          "internalType": "uint256",
          "name": "amount",
          "type": "uint256"
        }
      ],
      "name": "Withdrawn",
      "type": "event"
    },
    {
      "inputs": [],
      "name": "UPGRADE_INTERFACE_VERSION",
      "outputs": [
        {
          "internalType": "string",
          "name": "",
          "type": "string"
        }
      ],
      "stateMutability": "view",
      "type": "function"
    },
    {
      "inputs": [
        {
          "internalType": "string",
          "name": "name",
          "type": "string"
        },
        {
          "internalType": "uint8",
          "name": "maxPlayers",
          "type": "uint8"
        },
        {
          "internalType": "uint256",
          "name": "price",
          "type": "uint256"
        },
        {
          "internalType": "string",
          "name": "uriSuffix",
          "type": "string"
        },
        {
          "internalType": "uint256",
          "name": "maxMint",
          "type": "uint256"
        },
        {
          "internalType": "string",
          "name": "rarity",
          "type": "string"
        }
      ],
      "name": "addType",
      "outputs": [
        {
          "internalType": "uint256",
          "name": "",
          "type": "uint256"
        }
      ],
      "stateMutability": "nonpayable",
      "type": "function"
    },
    {
      "inputs": [
        {
          "internalType": "address",
          "name": "to",
          "type": "address"
        },
        {
          "internalType": "uint256",
          "name": "tokenId",
          "type": "uint256"
        }
      ],
      "name": "approve",
      "outputs": [],
      "stateMutability": "nonpayable",
      "type": "function"
    },
    {
      "inputs": [
        {
          "internalType": "address",
          "name": "owner",
          "type": "address"
        }
      ],
      "name": "balanceOf",
      "outputs": [
        {
          "internalType": "uint256",
          "name": "",
          "type": "uint256"
        }
      ],
      "stateMutability": "view",
      "type": "function"
    },
    {
      "inputs": [
        {
          "internalType": "uint256",
          "name": "nftTypeId",
          "type": "uint256"
        },
        {
          "internalType": "uint256",
          "name": "amount",
          "type": "uint256"
        }
      ],
      "name": "batchBuy",
      "outputs": [
        {
          "internalType": "uint256[]",
          "name": "",
          "type": "uint256[]"
        }
      ],
      "stateMutability": "payable",
      "type": "function"
    },
    {
      "inputs": [
        {
          "internalType": "uint256",
          "name": "nftTypeId",
          "type": "uint256"
        }
      ],
      "name": "buy",
      "outputs": [
        {
          "internalType": "uint256",
          "name": "",
          "type": "uint256"
        }
      ],
      "stateMutability": "payable",
      "type": "function"
    },
    {
      "inputs": [
        {
          "internalType": "address",
          "name": "owner",
          "type": "address"
        },
        {
          "internalType": "uint256",
          "name": "tokenId",
          "type": "uint256"
        }
      ],
      "name": "consume",
      "outputs": [],
      "stateMutability": "nonpayable",
      "type": "function"
    },
    {
      "inputs": [],
      "name": "gameMainAddress",
      "outputs": [
        {
          "internalType": "address",
          "name": "",
          "type": "address"
        }
      ],
      "stateMutability": "view",
      "type": "function"
    },
    {
      "inputs": [],
      "name": "getActiveTypes",
      "outputs": [
        {
          "internalType": "uint256[]",
          "name": "",
          "type": "uint256[]"
        },
        {
          "components": [
            {
              "internalType": "uint256",
              "name": "id",
              "type": "uint256"
            },
            {
              "internalType": "string",
              "name": "name",
              "type": "string"
            },
            {
              "internalType": "uint8",
              "name": "maxPlayers",
              "type": "uint8"
            },
            {
              "internalType": "uint256",
              "name": "price",
              "type": "uint256"
            },
            {
              "internalType": "string",
              "name": "uriSuffix",
              "type": "string"
            },
            {
              "internalType": "bool",
              "name": "active",
              "type": "bool"
            },
            {
              "internalType": "uint256",
              "name": "maxMint",
              "type": "uint256"
            },
            {
              "internalType": "string",
              "name": "rarity",
              "type": "string"
            },
            {
              "internalType": "uint256",
              "name": "minted",
              "type": "uint256"
            },
            {
              "internalType": "uint256[10]",
              "name": "__gap",
              "type": "uint256[10]"
            }
          ],
          "internalType": "struct RoomCardNftType[]",
          "name": "",
          "type": "tuple[]"
        }
      ],
      "stateMutability": "view",
      "type": "function"
    },
    {
      "inputs": [],
      "name": "getAllTypeIds",
      "outputs": [
        {
          "internalType": "uint256[]",
          "name": "",
          "type": "uint256[]"
        }
      ],
      "stateMutability": "view",
      "type": "function"
    },
    {
      "inputs": [
        {
          "internalType": "uint256",
          "name": "tokenId",
          "type": "uint256"
        }
      ],
      "name": "getApproved",
      "outputs": [
        {
          "internalType": "address",
          "name": "",
          "type": "address"
        }
      ],
      "stateMutability": "view",
      "type": "function"
    },
    {
      "inputs": [
        {
          "internalType": "uint256",
          "name": "tokenId",
          "type": "uint256"
        }
      ],
      "name": "getType",
      "outputs": [
        {
          "components": [
            {
              "internalType": "uint256",
              "name": "id",
              "type": "uint256"
            },
            {
              "internalType": "string",
              "name": "name",
              "type": "string"
            },
            {
              "internalType": "uint8",
              "name": "maxPlayers",
              "type": "uint8"
            },
            {
              "internalType": "uint256",
              "name": "price",
              "type": "uint256"
            },
            {
              "internalType": "string",
              "name": "uriSuffix",
              "type": "string"
            },
            {
              "internalType": "bool",
              "name": "active",
              "type": "bool"
            },
            {
              "internalType": "uint256",
              "name": "maxMint",
              "type": "uint256"
            },
            {
              "internalType": "string",
              "name": "rarity",
              "type": "string"
            },
            {
              "internalType": "uint256",
              "name": "minted",
              "type": "uint256"
            },
            {
              "internalType": "uint256[10]",
              "name": "__gap",
              "type": "uint256[10]"
            }
          ],
          "internalType": "struct RoomCardNftType",
          "name": "",
          "type": "tuple"
        }
      ],
      "stateMutability": "view",
      "type": "function"
    },
    {
      "inputs": [
        {
          "internalType": "address",
          "name": "userAddress",
          "type": "address"
        }
      ],
      "name": "getUserNfts",
      "outputs": [
        {
          "internalType": "bool",
          "name": "has",
          "type": "bool"
        },
        {
          "components": [
            {
              "internalType": "uint256",
              "name": "tokenId",
              "type": "uint256"
            },
            {
              "components": [
                {
                  "internalType": "uint256",
                  "name": "id",
                  "type": "uint256"
                },
                {
                  "internalType": "string",
                  "name": "name",
                  "type": "string"
                },
                {
                  "internalType": "uint8",
                  "name": "maxPlayers",
                  "type": "uint8"
                },
                {
                  "internalType": "uint256",
                  "name": "price",
                  "type": "uint256"
                },
                {
                  "internalType": "string",
                  "name": "uriSuffix",
                  "type": "string"
                },
                {
                  "internalType": "bool",
                  "name": "active",
                  "type": "bool"
                },
                {
                  "internalType": "uint256",
                  "name": "maxMint",
                  "type": "uint256"
                },
                {
                  "internalType": "string",
                  "name": "rarity",
                  "type": "string"
                },
                {
                  "internalType": "uint256",
                  "name": "minted",
                  "type": "uint256"
                },
                {
                  "internalType": "uint256[10]",
                  "name": "__gap",
                  "type": "uint256[10]"
                }
              ],
              "internalType": "struct RoomCardNftType",
              "name": "nftType",
              "type": "tuple"
            }
          ],
          "internalType": "struct RoomCardNftDetail[]",
          "name": "details",
          "type": "tuple[]"
        }
      ],
      "stateMutability": "view",
      "type": "function"
    },
    {
      "inputs": [
        {
          "internalType": "address",
          "name": "owner",
          "type": "address"
        }
      ],
      "name": "hasNft",
      "outputs": [
        {
          "internalType": "bool",
          "name": "",
          "type": "bool"
        }
      ],
      "stateMutability": "view",
      "type": "function"
    },
    {
      "inputs": [
        {
          "internalType": "uint256",
          "name": "nftTypeId",
          "type": "uint256"
        },
        {
          "internalType": "uint256",
          "name": "addAmount",
          "type": "uint256"
        }
      ],
      "name": "increaseMaxMint",
      "outputs": [],
      "stateMutability": "nonpayable",
      "type": "function"
    },
    {
      "inputs": [
        {
          "internalType": "string",
          "name": "name",
          "type": "string"
        },
        {
          "internalType": "string",
          "name": "symbol",
          "type": "string"
        },
        {
          "internalType": "string",
          "name": "baseTokenURI",
          "type": "string"
        }
      ],
      "name": "initialize",
      "outputs": [],
      "stateMutability": "nonpayable",
      "type": "function"
    },
    {
      "inputs": [
        {
          "internalType": "address",
          "name": "owner",
          "type": "address"
        },
        {
          "internalType": "address",
          "name": "operator",
          "type": "address"
        }
      ],
      "name": "isApprovedForAll",
      "outputs": [
        {
          "internalType": "bool",
          "name": "",
          "type": "bool"
        }
      ],
      "stateMutability": "view",
      "type": "function"
    },
    {
      "inputs": [],
      "name": "name",
      "outputs": [
        {
          "internalType": "string",
          "name": "",
          "type": "string"
        }
      ],
      "stateMutability": "view",
      "type": "function"
    },
    {
      "inputs": [
        {
          "internalType": "uint256",
          "name": "",
          "type": "uint256"
        }
      ],
      "name": "nftTypes",
      "outputs": [
        {
          "internalType": "uint256",
          "name": "id",
          "type": "uint256"
        },
        {
          "internalType": "string",
          "name": "name",
          "type": "string"
        },
        {
          "internalType": "uint8",
          "name": "maxPlayers",
          "type": "uint8"
        },
        {
          "internalType": "uint256",
          "name": "price",
          "type": "uint256"
        },
        {
          "internalType": "string",
          "name": "uriSuffix",
          "type": "string"
        },
        {
          "internalType": "bool",
          "name": "active",
          "type": "bool"
        },
        {
          "internalType": "uint256",
          "name": "maxMint",
          "type": "uint256"
        },
        {
          "internalType": "string",
          "name": "rarity",
          "type": "string"
        },
        {
          "internalType": "uint256",
          "name": "minted",
          "type": "uint256"
        }
      ],
      "stateMutability": "view",
      "type": "function"
    },
    {
      "inputs": [],
      "name": "owner",
      "outputs": [
        {
          "internalType": "address",
          "name": "",
          "type": "address"
        }
      ],
      "stateMutability": "view",
      "type": "function"
    },
    {
      "inputs": [
        {
          "internalType": "uint256",
          "name": "tokenId",
          "type": "uint256"
        }
      ],
      "name": "ownerOf",
      "outputs": [
        {
          "internalType": "address",
          "name": "",
          "type": "address"
        }
      ],
      "stateMutability": "view",
      "type": "function"
    },
    {
      "inputs": [],
      "name": "proxiableUUID",
      "outputs": [
        {
          "internalType": "bytes32",
          "name": "",
          "type": "bytes32"
        }
      ],
      "stateMutability": "view",
      "type": "function"
    },
    {
      "inputs": [],
      "name": "renounceOwnership",
      "outputs": [],
      "stateMutability": "nonpayable",
      "type": "function"
    },
    {
      "inputs": [
        {
          "internalType": "address",
          "name": "from",
          "type": "address"
        },
        {
          "internalType": "address",
          "name": "to",
          "type": "address"
        },
        {
          "internalType": "uint256",
          "name": "tokenId",
          "type": "uint256"
        }
      ],
      "name": "safeTransferFrom",
      "outputs": [],
      "stateMutability": "nonpayable",
      "type": "function"
    },
    {
      "inputs": [
        {
          "internalType": "address",
          "name": "from",
          "type": "address"
        },
        {
          "internalType": "address",
          "name": "to",
          "type": "address"
        },
        {
          "internalType": "uint256",
          "name": "tokenId",
          "type": "uint256"
        },
        {
          "internalType": "bytes",
          "name": "data",
          "type": "bytes"
        }
      ],
      "name": "safeTransferFrom",
      "outputs": [],
      "stateMutability": "nonpayable",
      "type": "function"
    },
    {
      "inputs": [
        {
          "internalType": "address",
          "name": "operator",
          "type": "address"
        },
        {
          "internalType": "bool",
          "name": "approved",
          "type": "bool"
        }
      ],
      "name": "setApprovalForAll",
      "outputs": [],
      "stateMutability": "nonpayable",
      "type": "function"
    },
    {
      "inputs": [
        {
          "internalType": "string",
          "name": "baseURI",
          "type": "string"
        }
      ],
      "name": "setBaseURI",
      "outputs": [],
      "stateMutability": "nonpayable",
      "type": "function"
    },
    {
      "inputs": [
        {
          "internalType": "address",
          "name": "_gameMainAddress",
          "type": "address"
        }
      ],
      "name": "setGameMainAddress",
      "outputs": [],
      "stateMutability": "nonpayable",
      "type": "function"
    },
    {
      "inputs": [
        {
          "internalType": "uint256",
          "name": "nftTypeId",
          "type": "uint256"
        },
        {
          "internalType": "bool",
          "name": "active",
          "type": "bool"
        }
      ],
      "name": "setTypeActive",
      "outputs": [],
      "stateMutability": "nonpayable",
      "type": "function"
    },
    {
      "inputs": [
        {
          "internalType": "bytes4",
          "name": "interfaceId",
          "type": "bytes4"
        }
      ],
      "name": "supportsInterface",
      "outputs": [
        {
          "internalType": "bool",
          "name": "",
          "type": "bool"
        }
      ],
      "stateMutability": "view",
      "type": "function"
    },
    {
      "inputs": [],
      "name": "symbol",
      "outputs": [
        {
          "internalType": "string",
          "name": "",
          "type": "string"
        }
      ],
      "stateMutability": "view",
      "type": "function"
    },
    {
      "inputs": [
        {
          "internalType": "uint256",
          "name": "index",
          "type": "uint256"
        }
      ],
      "name": "tokenByIndex",
      "outputs": [
        {
          "internalType": "uint256",
          "name": "",
          "type": "uint256"
        }
      ],
      "stateMutability": "view",
      "type": "function"
    },
    {
      "inputs": [
        {
          "internalType": "uint256",
          "name": "",
          "type": "uint256"
        }
      ],
      "name": "tokenNftTypes",
      "outputs": [
        {
          "internalType": "uint256",
          "name": "",
          "type": "uint256"
        }
      ],
      "stateMutability": "view",
      "type": "function"
    },
    {
      "inputs": [
        {
          "internalType": "address",
          "name": "owner",
          "type": "address"
        },
        {
          "internalType": "uint256",
          "name": "index",
          "type": "uint256"
        }
      ],
      "name": "tokenOfOwnerByIndex",
      "outputs": [
        {
          "internalType": "uint256",
          "name": "",
          "type": "uint256"
        }
      ],
      "stateMutability": "view",
      "type": "function"
    },
    {
      "inputs": [
        {
          "internalType": "uint256",
          "name": "tokenId",
          "type": "uint256"
        }
      ],
      "name": "tokenURI",
      "outputs": [
        {
          "internalType": "string",
          "name": "",
          "type": "string"
        }
      ],
      "stateMutability": "view",
      "type": "function"
    },
    {
      "inputs": [],
      "name": "totalSupply",
      "outputs": [
        {
          "internalType": "uint256",
          "name": "",
          "type": "uint256"
        }
      ],
      "stateMutability": "view",
      "type": "function"
    },
    {
      "inputs": [
        {
          "internalType": "address",
          "name": "from",
          "type": "address"
        },
        {
          "internalType": "address",
          "name": "to",
          "type": "address"
        },
        {
          "internalType": "uint256",
          "name": "tokenId",
          "type": "uint256"
        }
      ],
      "name": "transferFrom",
      "outputs": [],
      "stateMutability": "nonpayable",
      "type": "function"
    },
    {
      "inputs": [
        {
          "internalType": "address",
          "name": "newOwner",
          "type": "address"
        }
      ],
      "name": "transferOwnership",
      "outputs": [],
      "stateMutability": "nonpayable",
      "type": "function"
    },
    {
      "inputs": [
        {
          "internalType": "uint256",
          "name": "nftTypeId",
          "type": "uint256"
        },
        {
          "internalType": "uint8",
          "name": "maxPlayers",
          "type": "uint8"
        },
        {
          "internalType": "uint256",
          "name": "price",
          "type": "uint256"
        },
        {
          "internalType": "string",
          "name": "uriSuffix",
          "type": "string"
        },
        {
          "internalType": "uint256",
          "name": "maxMint",
          "type": "uint256"
        },
        {
          "internalType": "string",
          "name": "rarity",
          "type": "string"
        }
      ],
      "name": "updateType",
      "outputs": [],
      "stateMutability": "nonpayable",
      "type": "function"
    },
    {
      "inputs": [
        {
          "internalType": "address",
          "name": "newImplementation",
          "type": "address"
        },
        {
          "internalType": "bytes",
          "name": "data",
          "type": "bytes"
        }
      ],
      "name": "upgradeToAndCall",
      "outputs": [],
      "stateMutability": "payable",
      "type": "function"
    },
    {
      "inputs": [
        {
          "internalType": "uint256",
          "name": "tokenId",
          "type": "uint256"
        },
        {
          "internalType": "uint8",
          "name": "maxPlayers",
          "type": "uint8"
        }
      ],
      "name": "validateParams",
      "outputs": [
        {
          "internalType": "bool",
          "name": "",
          "type": "bool"
        }
      ],
      "stateMutability": "view",
      "type": "function"
    },
    {
      "inputs": [],
      "name": "withdraw",
      "outputs": [],
      "stateMutability": "nonpayable",
      "type": "function"
    },
    {
      "stateMutability": "payable",
      "type": "receive"
    }
  ],
  "transactionHash": "0xb1fe1ea3e6fcb006e27777e361096a04354326b62f43852f6078ef0128ee5f08",
  "args": [],
  "numDeployments": 1,
  "solcInputHash": "48576e987db7584d29c5cbb1887dec70",
  "bytecode": "0x60a06040523461003257610011610037565b6040516141bb6101b1823960805181818161348801526135ec01526141bb90f35b600080fd5b61003f61007e565b610047610102565b565b61005d90610060906001600160a01b031682565b90565b6001600160a01b031690565b61005d90610049565b61005d9061006c565b61008730610075565b608052565b61005d9060401c60ff1690565b61005d905461008c565b61005d905b6001600160401b031690565b61005d90546100a3565b61005d906100a8906001600160401b031682565b906100e261005d6100fe926100be565b82546001600160401b0319166001600160401b03919091161790565b9055565b7ff0c57e16840df040f15088dc2f81fe391c3923bec73e23a9662efc9c229c6a0061012c81610099565b61019e57610139816100b4565b6001600160401b0391908290811603610150575050565b8161017f7fc7f505b2f371ae2175ee4913f4499e1f2633a7b5936321eed1cdaeb6115181d293610199936100d2565b604051918291826001600160401b03909116815260200190565b0390a1565b63f92ee8a960e01b6000908152600490fdfe6080604052600436101561001b575b361561001957600080fd5b005b60003560e01c8062788b3d146102ba57806301ffc9a7146102b557806306fdde03146102b0578063081812fc146102ab578063094ae9ed146102a6578063095ea7b3146102a157806318160ddd1461029c578063224b5c721461029757806323b872dd146102925780632f745c591461028d5780633aca5922146102885780633ccfd60b146102835780634036ab781461027e57806342842e0e1461027957806348befd92146102745780634ed7ff631461026f5780634f1ef2861461026a5780634f6ccce71461026557806352d1902d1461026057806355f804b31461025b5780636352211e1461025657806370a0823114610251578063715018a61461024c5780637908d0091461024757806379b2ab23146102425780638b90dc851461023d5780638da5cb5b1461023857806395d89b4114610233578063a22cb4651461022e578063a6487c5314610229578063ab16d82314610224578063ad3cb1cc1461021f578063ad752eb81461021a578063b88d4fde14610215578063c87b56dd14610210578063d96a094a1461020b578063dfda3cb614610206578063e2b21eac14610201578063e985e9c5146101fc578063eb238441146101f7578063f2fde38b146101f25763fa55b7260361000e576111a3565b611101565b6110e6565b61109f565b611064565b61104b565b611019565b610ffe565b610fe2565b610f78565b610f5d565b610ef5565b610e7c565b610dfe565b610dab565b610d90565b610d75565b610d13565b610aa9565b6109e2565b6109c7565b6109ac565b610994565b610954565b610939565b610925565b6108d5565b6108a5565b610869565b610842565b610731565b610712565b6106e1565b6106c8565b610686565b61066b565b610652565b6105ed565b61045f565b6103ff565b61035a565b610302565b805b036102c857565b600080fd5b905035906102da826102bf565b565b91906040838203126102c8576102ff9060206102f882866102cd565b94016102cd565b90565b346102c85761031b6103153660046102dc565b90611341565b60405180805b0390f35b6001600160e01b031981166102c1565b905035906102da82610325565b906020828203126102c8576102ff91610335565b9052565b346102c857610321610375610370366004610342565b61134b565b6040515b91829182901515815260200190565b60009103126102c857565b60005b8381106103a65750506000910152565b8181015183820152602001610396565b6103d76103e06020936103ea936103cb815190565b80835293849260200190565b95869101610393565b601f01601f191690565b0190565b60208082526102ff929101906103b6565b346102c85761040f366004610388565b61032161041a61135d565b604051918291826103ee565b906020828203126102c8576102ff916102cd565b6001600160a01b031690565b6103569061043a565b6020810192916102da9190610446565b346102c85761032161047a610475366004610426565b611370565b6040519182918261044f565b634e487b7160e01b600052604160045260246000fd5b90601f01601f191681019081106001600160401b038211176104bd57604052565b610486565b906102da6104cf60405190565b928361049c565b6001600160401b0381116104bd57602090601f01601f19160190565b90826000939282370152565b9092919261051361050e826104d6565b6104c2565b93818552818301116102c8576102da9160208501906104f2565b9080601f830112156102c8578160206102ff933591016104fe565b60ff81166102c1565b905035906102da82610548565b9160c0838303126102c85782356001600160401b0381116102c8578261058591850161052d565b926105938360208301610551565b926105a181604084016102cd565b9260608301356001600160401b0381116102c857826105c191850161052d565b926105cf83608083016102cd565b9260a08201356001600160401b0381116102c8576102ff920161052d565b346102c85761032161060f61060336600461055e565b94939093929192611b62565b6040515b9182918290815260200190565b6102c18161043a565b905035906102da82610620565b91906040838203126102c8576102ff9060206102f88286610629565b346102c85761031b610665366004610636565b90611b72565b346102c85761067b366004610388565b61032161060f611b7d565b346102c85761031b610699366004610636565b90611dda565b90916060828403126102c8576102ff6106b88484610629565b9360406102f88260208701610629565b346102c85761031b6106db36600461069f565b91611e12565b346102c85761032161060f6106f7366004610636565b90611ebb565b9160c0838303126102c85761058582846102cd565b346102c85761031b6107253660046106fd565b94939093929192612083565b346102c857610741366004610388565b61031b6121bc565b610759610755600a9390565b9190565b6000915b83831061076a5750505050565b61078461077d6001928451815260200190565b9260200190565b9201919061075d565b80518252906102ff90610120806108156107e86107ba6102608601602089015187820360208901526103b6565b60408881015160ff16908701526107d660608901516060880152565b608088015186820360808801526103b6565b60a08781015115159086015261080360c088015160c0870152565b60e087015185820360e08701526103b6565b94610827610100820151610100860152565b0151910190610749565b60208082526102ff9291019061078d565b346102c85761032161085d610858366004610426565b6123a4565b60405191829182610831565b346102c85761031b61087c36600461069f565b916123e2565b91906040838203126102c8576102ff90602061089e82866102cd565b9401610551565b346102c8576103216103756108bb366004610882565b906123f6565b906020828203126102c8576102ff91610629565b346102c8576103216103756108eb3660046108c1565b61242a565b9190916040818403126102c8576109078382610629565b9260208201356001600160401b0381116102c8576102ff920161052d565b61031b6109333660046108f0565b90612464565b346102c85761032161060f61094f366004610426565b61246e565b346102c857610964366004610388565b61032161060f612504565b906020828203126102c85781356001600160401b0381116102c8576102ff920161052d565b346102c85761031b6109a736600461096f565b612525565b346102c85761032161047a6109c2366004610426565b61252e565b346102c85761032161060f6109dd3660046108c1565b612537565b346102c8576109f2366004610388565b61031b6125a9565b805182526102ff9160408101916020015190602081840391015261078d565b906102ff916109fa565b90610a39610a2f835190565b8083529160200190565b9081610a4b6020830284019460200190565b926000915b838310610a5f57505050505090565b90919293946020610a82610a7b83856001950387528951610a19565b9760200190565b9301930191939290610a50565b90151581526040602082018190526102ff92910190610a23565b346102c857610ac1610abc3660046108c1565b612662565b90610321610ace60405190565b92839283610a8f565b6102ff6102ff6102ff9290565b90610aee90610ad7565b600052602052604060002090565b6102ff9081565b6102ff9054610afc565b634e487b7160e01b600052602260045260246000fd5b9060016002830492168015610b43575b6020831014610b3e57565b610b0d565b91607f1691610b33565b80546000939291610b6a610b6083610b23565b8085529360200190565b9160018116908115610bbc5750600114610b8357505050565b610b969192939450600052602060002090565b916000925b818410610ba85750500190565b805484840152602090930192600101610b9b565b92949550505060ff1916825215156020020190565b906102ff91610b4d565b906102da610bf592610bec60405190565b93848092610bd1565b038361049c565b6102ff905b60ff1690565b6102ff9054610bfc565b610c1c906004610ae4565b610c2581610b03565b91610c3260018301610bdb565b91610c3f60028201610c07565b91610c4c60038301610b03565b91610c5960048201610bdb565b91610c6660058301610c07565b91610c7360068201610b03565b916102ff6008610c8560078501610bdb565b9301610b03565b99989690610cf06102da9994610d0e97610ce36101009a988f606090610cdf610cd3610cfa99610d019c610cc66101208601926000870152565b84820360208601526103b6565b60ff9097166040830152565b0152565b8d820360808f01526103b6565b94151560a08c0152565b60c08a0152565b87820360e08901526103b6565b940152565b346102c857610321610d2e610d29366004610426565b610c11565b95610d4199979995919594929460405190565b998a998a610c8c565b6102ff916008021c81565b906102ff9154610d4a565b6000610d706102ff926005610ae4565b610d55565b346102c85761032161060f610d8b366004610426565b610d60565b346102c857610da0366004610388565b61032161047a612727565b346102c857610dbb366004610388565b61032161041a612754565b8015156102c1565b905035906102da82610dc6565b91906040838203126102c8576102ff906020610df78286610629565b9401610dce565b346102c85761031b610e11366004610ddb565b90612761565b916060838303126102c85782356001600160401b0381116102c85782610e3e91850161052d565b9260208101356001600160401b0381116102c85783610e5e91830161052d565b9260408201356001600160401b0381116102c8576102ff920161052d565b346102c85761031b610e8f366004610e17565b916129c0565b90610eae61077d610ea4845190565b8084529260200190565b9060005b818110610ebf5750505090565b909192610edc610ed56001928651815260200190565b9460200190565b929101610eb2565b60208082526102ff92910190610e95565b610321610f0c610f063660046102dc565b90612b85565b60405191829182610ee4565b90610f2561050e836104d6565b918252565b610f346005610f18565b640352e302e360dc1b602082015290565b6102ff610f2a565b6102ff610f45565b6102ff610f4d565b346102c857610f6d366004610388565b61032161041a610f55565b346102c857610f88366004610388565b610321610f0c612df9565b906080828203126102c857610fa88183610629565b92610fb68260208501610629565b92610fc483604083016102cd565b9260608201356001600160401b0381116102c8576102ff920161052d565b346102c85761031b610ff5366004610f93565b92919091612e03565b346102c85761032161041a611014366004610426565b612e50565b61032161060f61102a366004610426565b612ede565b91906040838203126102c8576102ff906020610df782866102cd565b346102c85761031b61105e36600461102f565b90613076565b346102c85761031b6110773660046108c1565b61312a565b91906040838203126102c8576102ff9060206110988286610629565b9401610629565b346102c8576103216103756110b536600461107c565b90613133565b6102ff916008021c6001600160a01b031690565b906102ff91546110bb565b6102ff600060036110cf565b346102c8576110f6366004610388565b61032161047a6110da565b346102c85761031b6111143660046108c1565b6131b3565b906102ff9161078d565b9061112f610a2f835190565b90816111416020830284019460200190565b926000915b83831061115557505050505090565b90919293946020611171610a7b83856001950387528951611119565b9301930191939290611146565b60408082526102ff93919261119591840190610e95565b916020818403910152611123565b346102c8576111b3366004610388565b6111bb6131fd565b906103216111c860405190565b9283928361117e565b906102da916111de613312565b6112e1565b156111ea57565b60405162461bcd60e51b815260206004820152601860248201527710d85c99081d1e5c1948191bd95cc81b9bdd08195e1a5cdd60421b604482015280606481015b0390fd5b1561123657565b60405162461bcd60e51b815260206004820152602160248201527f41646420616d6f756e74206d7573742062652067726561746572207468616e206044820152600360fc1b6064820152608490fd5b634e487b7160e01b600052601160045260246000fd5b91906112a6565b9290565b82018092116112b157565b611285565b90600019905b9181191691161790565b906112d66102ff6112dd92610ad7565b82546112b6565b9055565b9061133b600661132b6102da946113106113076000611301846004610ae4565b01610b03565b82905b146111e3565b61132461131d6000610ad7565b861161122f565b6004610ae4565b019161133683610b03565b61129b565b906112c6565b906102da916111d1565b6102ff90613349565b6102ff90610bdb565b6102ff600061136a613372565b01611354565b6102ff9061137d81613396565b506133d6565b906102ff969594939291611395613312565b61197f565b156113a157565b60405162461bcd60e51b81526020600482015260146024820152734e616d652063616e6e6f7420626520656d70747960601b6044820152606490fd5b610c016102ff6102ff9290565b156113f157565b60405162461bcd60e51b815260206004820152602260248201527f4d617820706c6179657273206d7573742062652067726561746572207468616e604482015261203160f01b6064820152608490fd5b1561144857565b60405162461bcd60e51b815260206004820152601c60248201527f5072696365206d7573742062652067726561746572207468616e2030000000006044820152606490fd5b1561149457565b60405162461bcd60e51b815260206004820152601f60248201527f4d6178206d696e74206d7573742062652067726561746572207468616e2030006044820152606490fd5b156114e057565b60405162461bcd60e51b81526020600482015260166024820152755261726974792063616e6e6f7420626520656d70747960501b6044820152606490fd5b60001981146112b15760010190565b6001600160401b0381116104bd5760200290565b61050e6102ff9161152d565b6102ff6101406104c2565b9160001960089290920291821b911b6112bc565b919061157d6102ff6112dd93610ad7565b908354611558565b6102da9160009161156c565b81811061159c575050565b806115aa6000600193611585565b01611591565b9190601f81116115bf57505050565b6115d16102da93600052602060002090565b906020601f8401819004830193106115f3575b6020601f909101040190611591565b90915081906115e4565b9060001960089091021c191690565b81611616916115fd565b906002021790565b90611627815190565b906001600160401b0382116104bd5761164a826116448554610b23565b856115b0565b602090601f8311600114611678576112dd92916000918361166d575b505061160c565b015190503880611666565b601f1983169161168d85600052602060002090565b9260005b8181106116cc575091600293918560019694106116b2575b50505002019055565b6116c2910151601f8416906115fd565b90553880806116a9565b91936020600181928787015181550195019201611691565b906102da9161161e565b9060ff906112bc565b610c016102ff6102ff9260ff1690565b906117176102ff6112dd926116f7565b82546116ee565b906117176102ff6112dd92151590565b818102929181159184041417156112b157565b91909182821061175057505050565b6102da9281019101611591565b90600160401b81116104bd576102da91600a90611741565b600a9161178b6112a26001926102ff868661175d565b92049160005b83811061179e5750505050565b60019060206117ae6102ff865190565b9401938184015501611791565b906102da91611775565b60096118a86101206102da946117e56117df600083015190565b866112c6565b6117fc6117f3602083015190565b600187016116e4565b61181661180d604083015160ff1690565b60028701611707565b61182d611824606083015190565b600387016112c6565b61184461183b608083015190565b600487016116e4565b61185d61185460a0830151151590565b6005870161171e565b61187461186b60c083015190565b600687016112c6565b61188b61188260e083015190565b600787016116e4565b6118a361189a61010083015190565b600887016112c6565b015190565b91016117bb565b906102da916117c5565b634e487b7160e01b600052603260045260246000fd5b80548210156118f2576118e9600191600052602060002090565b91020190600090565b6118b9565b80549190600160401b8310156104bd578261191a9160016102da950181556118cf565b9061156c565b92916102ff969461195d6119729461195661194a61196a9660c08a01908a820360008c01526103b6565b60ff9095166020890152565b6040870152565b84820360608601526103b6565b936080830152565b60a08184039101526103b6565b959091929394955061198e8290565b519560009661199c88610ad7565b106119a69061139a565b6001966119b2886113dd565b60ff8616116119c0906113ea565b6119c981610ad7565b86116119d490611441565b6119dd81610ad7565b82116119e89061148d565b82516119f382610ad7565b106119fd906114d9565b611a0688610b03565b97611a1081610b03565b611a199061151e565b611a2390826112c6565b611a2d600a611541565b90611a3783610ad7565b90611a428284860152565b611a4d826020850152565b611a58826040850152565b611a63826060850152565b611a6e826080850152565b611a798260a0850152565b611a848260c0850152565b611a8f8260e0850152565b611a9b82610100850152565b611aa782610120850152565b8a611ab061154d565b948501526020840187905260ff88166040850152611acf896060860152565b608084018a9052151560a0840152611ae88460c0850152565b60e08301859052610100830152610120820152611b06886004610ae4565b90611b10916118af565b611b1b8760066118f7565b611b2487610ad7565b95611b2e60405190565b958695611b3b9587611920565b037f3a5e2e36ac53adb658032492c66ca1b865ed4d8dbf9f248ddaecdc1457c6dd8691a290565b6102ff9594939291906000611383565b6102da9133916133fb565b6102ff6002611b8a613408565b015490565b6102ff9061043a565b6102ff9054611b8f565b61043a6102ff6102ff9290565b6102ff90611ba2565b6102ff9061043a906001600160a01b031682565b6102ff90611bb8565b6102ff90611bcc565b905051906102da82610dc6565b906020828203126102c8576102ff91611bde565b6040513d6000823e3d90fd5b15611c1257565b60405162461bcd60e51b815260206004820152601860248201527713db9b1e4819d85b59481d18589b194818d85b8818d85b1b60421b6044820152606490fd5b9060009182611c616003611b98565b611c7b611c75611c7084611baf565b61043a565b9161043a565b03611c93575b50611c8e6102da93611c0b565b611d7c565b9250611caa611ca5611ca56003611b98565b611bd5565b926020611cb660405190565b948590635ab8933560e11b82528180611cd2336004830161044f565b03915afa8015611d33576102da948291611d04575b5015611cfb5750611c8e60015b9350611c81565b611c8e90611cf4565b611d26915060203d602011611d2c575b611d1e818361049c565b810190611beb565b38611ce7565b503d611d14565b611bff565b15611d3f57565b60405162461bcd60e51b81526020600482015260156024820152742737ba1030b8383937bb32b21037b91037bbb732b960591b6044820152606490fd5b611dd5611dcb7fd2a1c8eed5b52b5f7dd72d9b49c8901a19690207345595b61a5c633a4978d41b92611dc2611db08661342c565b611dbc611c758461043a565b14611d38565b611ca585613446565b9261061360405190565b0390a2565b906102da91611c52565b604090611e0b6102da9496959396611e0460608401986000850190610446565b6020830152565b0190610446565b9091600092611e2084611baf565b611e298161043a565b611e328361043a565b14611e7d5750611e4490823391613472565b91611e4e8161043a565b611e578461043a565b03611e625750505050565b6364283d7b60e01b8452839261122b92909160048501611de4565b8461122b8192633250574960e11b83526004830161044f565b9160206102da929493610cdf60408201966000830190610446565b90610aee90611bd5565b611ec3613408565b611ecf6102ff83612537565b831015611ef45791611eea611eef9260006102ff9501611eb1565b610ae4565b610b03565b63295f44f760e21b6000908152611f0d84846004611e96565b036000fd5b906102da9594939291611f23613312565b611f76565b91611f69916102ff9694611f54611f6193611f4d60a0880194600089019060ff169052565b6020870152565b84820360408601526103b6565b936060830152565b60808184039101526103b6565b947f89f111784ea123a14b3f97adf8c42611da99ed48f03cb179d205f58173076bf294612070611dd59394959761206b846007886120588d8c612051600491611fce611fc760006113018d87610ae4565b8b9061130a565b611fe5611fdb60016113dd565b60ff8816116113ea565b611ff9611ff26000610ad7565b8211611441565b6120108c61200a6107556000610ad7565b1161148d565b61202e61201b895190565b6120286107556000610ad7565b116114d9565b61204861203e6102ff8c86610ae4565b9660028801611707565b600386016112c6565b83016116e4565b61206587600683016112c6565b016116e4565b610ad7565b9661207a60405190565b95869586611f28565b906102da9594939291611f12565b612099613312565b6102da612143565b156120a857565b60405162461bcd60e51b81526020600482015260146024820152734e6f2066756e647320746f20776974686472617760601b6044820152606490fd5b3d156120fe576120f33d610f18565b903d6000602084013e565b606090565b1561210a57565b60405162461bcd60e51b815260206004820152601160248201527015da5d1a191c985dd85b0819985a5b1959607a1b6044820152606490fd5b61214c30611bd5565b3161216161215a6000610ad7565b82116120a1565b61218d600080612175611ca5611ca5612727565b60405160009186905af16121876120e4565b50612103565b7f7084f5476618d8e60b11ef0d7d3f06914655adb8793e28ff7f018d4c76d505d5611dd5611dcb611ca5612727565b6102da612091565b369037565b906102da6121df6121d984611541565b9361152d565b836121c4565b6102ff600a6121c9565b6121f761154d565b906000825260208080808080808080808b01606081520160008152016000815201606081520160008152016000815201606081520160008152016122396121e5565b905250565b6102ff6121ef565b612252610755600a9390565b6000915b8383106122635750505050565b61228461227d60019261227585610b03565b815260200190565b9260010190565b92019190612256565b906103ea8161014093612246565b906102da610bf5926122ac60405190565b9384809261228d565b906102da61239360096122c661154d565b946122d76122d382610b03565b8752565b6122ed6122e660018301610bdb565b6020880152565b6123066122fc60028301610c07565b60ff166040880152565b61231c61231560038301610b03565b6060880152565b61233261232b60048301610bdb565b6080880152565b61234a61234160058301610c07565b151560a0880152565b61236061235960068301610b03565b60c0880152565b61237661236f60078301610bdb565b60e0880152565b61238d61238560088301610b03565b610100880152565b0161229b565b610120840152565b6102ff906122b5565b6123cb611324611eef6102ff936123b961223e565b506123c381613396565b506005610ae4565b61239b565b6102ff6000610f18565b6102ff6123d0565b90916102da926123f06123da565b92612e03565b61241e610c0160406124166123cb611324611eef612425976123b9600090565b015160ff1690565b9160ff1690565b111590565b61243390612537565b6124406107556000610ad7565b1190565b906102da9161245161347d565b906102da9161245f816134f7565b613521565b906102da91612444565b612476613408565b6124816102ff611b7d565b82101561249e576102ff91600261249892016118cf565b90610d55565b60008061122b846124ae83611baf565b63295f44f760e21b845260048401611e96565b6102ff906124cd6135db565b6124fb565b6102ff7f360894a13ba1a3210667c828492db98dca3e2076cc3735a920a3ca505d382bbc610ad7565b506102ff6124d2565b6102ff60006124c1565b6102da9061251a613312565b6102da9060026116e4565b6102da9061250e565b6102ff90613396565b61253f613372565b600061254a81611baf565b6125538161043a565b61255c8561043a565b146125735750506102ff916003611eef9201611eb1565b6322718ad960e21b8252819061122b906004830161044f565b612594613312565b6102da6102da6125a46000611baf565b613617565b6102da61258c565b6001600160401b0381116104bd5760208091020190565b90610f2561050e836125b1565b6102ff60406104c2565b6125e76125d5565b9060008252602080830161223961223e565b6102ff6125df565b60005b82811061261057505050565b60209061261b6125f9565b8184015201612604565b906102da61263b612635846125c8565b936125b1565b601f190160208401612601565b90612651825190565b8110156118f2576020809102010190565b61266b81612537565b60009061267a61075583610ad7565b119182156127125761268b81612537565b9261269584612625565b9485916126a185610ad7565b865b81101561270757612700816126bb6126a39388611ebb565b6126e4611e046126d2611324611eef856005610ae4565b6123cb6126dd6125d5565b948d860152565b6126ee828c612648565b526126f9818b612648565b5060010190565b90506126a1565b509550909350915050565b506127226102ff91939293610ad7565b612625565b6102ff60007f9016d09d72d40fdae2fd8ceac6b6234c7706214fd39c1cd1e609a0528c1993005b01611b98565b6102ff600161136a613372565b6102da91903361368a565b6102ff9060401c610c01565b6102ff905461276c565b6102ff905b6001600160401b031690565b6102ff9054612782565b6127876102ff6102ff9290565b906001600160401b03906112bc565b6127876102ff6102ff926001600160401b031690565b906127df6102ff6112dd926127b9565b82546127aa565b9060ff60401b9060401b6112bc565b906128056102ff6112dd92151590565b82546127e6565b6103569061279d565b6020810192916102da919061280c565b907ff0c57e16840df040f15088dc2f81fe391c3923bec73e23a9662efc9c229c6a0092839061286361285d61285984612778565b1590565b92612793565b926000946128708661279d565b6001600160401b038616148061296c575b60019561289d6128908861279d565b916001600160401b031690565b149081612948575b155b908161293f575b5061293057906128d99291846128d0886128c78961279d565b9a01998a6127cf565b61292157612973565b6128e257505050565b61291061291c927fc7f505b2f371ae2175ee4913f4499e1f2633a7b5936321eed1cdaeb6115181d2946127f5565b60405191829182612815565b0390a1565b61292b86896127f5565b612973565b63f92ee8a960e01b8652600486fd5b159050386128ae565b90506128a761295630611bd5565b3b6129636107558a610ad7565b149190506128a5565b5083612881565b6129a1929161298191613733565b612989613745565b61299233613762565b61299a613745565b60026116e4565b6102da6129ae6001610ad7565b6129b98160006112c6565b60016112c6565b906102da9291612825565b156129d257565b60405162461bcd60e51b8152602060048201526014602482015273436172642074797065206e6f742061637469766560601b6044820152606490fd5b15612a1557565b60405162461bcd60e51b815260206004820152601d60248201527f416d6f756e74206d7573742062652067726561746572207468616e20300000006044820152606490fd5b15612a6157565b60405162461bcd60e51b8152602060048201526014602482015273125b9cdd59999a58da595b9d081c185e5b595b9d60621b6044820152606490fd5b15612aa457565b60405162461bcd60e51b815260206004820152602360248201527f4d6178206d696e74207265616368656420666f7220746869732063617264207460448201526279706560e81b6064820152608490fd5b906102da612b05612635846125c8565b601f1901602084016121c4565b919082039182116112b157565b15612b2657565b60405162461bcd60e51b815260206004820152600d60248201526c1499599d5b990819985a5b1959609a1b6044820152606490fd5b604090610cdf612b7d6102da9597969460608401908482036000860152610e95565b966020830152565b9190612b956102ff846004610ae4565b90612ba9612ba283610b03565b859061130a565b612bbd612bb860058401610c07565b6129cb565b600091612bd3612bcc84610ad7565b8311612a0e565b6003810193612bf8612bf06102ff85612beb89610b03565b61172e565b341015612a5a565b6008820190612c286006612c0f8661133686610b03565b940193612c216107556102ff87610b03565b1115612a9d565b612c3184612af5565b93612c3b86610ad7565b81811015612cd75780612ccc8a612cc7612cae612cc08c612cbd612cd2988e612c918f8f6107556102ff612c8b612c2193611eef612c85612c7c6001610ad7565b61133684610b03565b826112c6565b93610b03565b612c9a84610b03565b958461133b612ca98997610b03565b61151e565b612cb8843361376b565b612648565b52565b6005610ae4565b6112c6565b60010190565b612c3b565b5090969250612d0c9150612beb7f9e0f55090ce950de8278f10f58780bc67078a861e5667651b71f46f12f16b31a9496610b03565b92833411612d3c575b50612d1f33611bd5565b92612d36612d2c60405190565b9283928784612b5b565b0390a290565b80612d7691612d4b8634612b12565b612d57611ca533611bd5565b90612d6160405190565b90818003925af1612d706120e4565b50612b1f565b38612d15565b90612d97612d8b610ea4845490565b92600052602060002090565b9060005b818110612da85750505090565b909192612dc4612dbd60019261227587610b03565b9460010190565b929101612d9b565b906102ff91612d7c565b906102da610bf592612de760405190565b93848092612dcc565b6102ff90612dd6565b6102ff6006612df0565b906102da939291612e15838383611e12565b336137dc565b6103ea612e3392602092612e2d815190565b94859290565b93849101610393565b612e4a906102ff9392612e1b565b90612e1b565b611eef612e5f916123b9606090565b612e76600461136a612e6f6138fa565b9382610ae4565b8151612e856107556000610ad7565b1115612eb9576102ff612ead916102ff93612e9f60405190565b938492602084019283612e3c565b9081038252038261049c565b50506102ff6123da565b9081526060810193926102da929091604091610cdf90611e04565b612eec6102ff826004610ae4565b90612ef961130783610b03565b612f08612bb860058401610c07565b612f5e6003830192612f1f612bf06102ff86610b03565b612f486008820191612f426107556102ff6006612f3b87610b03565b9401610b03565b10612a9d565b61133b612f556001610ad7565b61133683610b03565b7ffeb0a6d9a39332a80a0bf5d24af7d578c47f681cb3596305f2093d63f2827042612fd4612f8c6000610b03565b93612fa4612f9d612ca96000610b03565b60006112c6565b612fae853361376b565b612fbd84612cc7876005610ae4565b612fc96102ff82610b03565b3411612ff557610b03565b91612fde33611bd5565b92612d36612feb60405190565b9283928784612ec3565b611eef600080612d4b61300785610b03565b34612b12565b906102da9161301a613312565b611dd561306c7fb58f0f5a57890402ca596a98b9a57bed7713f59eb09a71d5167e174d8716814c926130556113076000611301846004610ae4565b61206b856005613066846004610ae4565b0161171e565b9261037960405190565b906102da9161300d565b6102da9061308c613312565b6130ff565b1561309857565b60405162461bcd60e51b8152602060048201526019602482015278496e76616c69642067616d65206d61696e206164647265737360381b6044820152606490fd5b906001600160a01b03906112bc565b906130f86102ff6112dd92611bd5565b82546130d9565b6102da90613123613113611c706000611baf565b61311c8361043a565b1415613091565b60036130e8565b6102da90613080565b6102ff9161315761315c92613146600090565b506005613151613372565b01611eb1565b611eb1565b610c07565b6102da9061316d613312565b600061317881611baf565b6131818161043a565b61318a8461043a565b1461319a5750506102da90613617565b631e4fbdf760e01b8252819061122b906004830161044f565b6102da90613161565b60005b8281106131cb57505050565b6020906131d661223e565b81840152016131bf565b906102da6131f0612635846125c8565b601f1901602084016131bc565b6132076000610ad7565b90815b60066132176102ff825490565b82101561326057600561323361132461249885613239956118cf565b01610c07565b61324b575b60010161320a565b61320a565b916132586132469161151e565b92905061323e565b505061327461326e83612af5565b926131e0565b61327e6000610ad7565b805b600661328d6102ff825490565b82101561330c57612498826132a1926118cf565b6004866132b360056132338585610ae4565b6132ca575b5050506132c59060010190565b613280565b6123cb838693611eea61330396612cbd6132c5999a6132e897612648565b6132f28287612648565b526132fd8186612648565b5061151e565b919038866132b8565b50505090565b61331a612727565b3390613328611c758361043a565b036133305750565b63118cdaa760e01b600090815290611f0d90600461044f565b63780e9d6360e01b6001600160e01b0319821614908115613368575090565b6102ff9150613904565b7f80bb2b638cc20bc4d0a60d66940f3ab4a00c1d7b313497ca82fb0b4ab007930090565b61339f8161342c565b906000906133af611c7083611baf565b6133b88461043a565b146133c257505090565b637e27328960e01b82526004820152602490fd5b6133f66102ff916133e5600090565b5060046133f0613372565b01610ae4565b611b98565b916001916102da9361394f565b7f645e039705490088daad89bae25049a34f4a9072d398537b1ab2425f24cbed0090565b6133f66102ff9161343b600090565b5060026133f0613372565b60009061345282611baf565b613469611c75613463838581613472565b9261043a565b146133c2575050565b6102ff929190613a88565b61348630611bd5565b7f0000000000000000000000000000000000000000000000000000000000000000906134b4611c758361043a565b149081156134d6575b506134c457565b63703e46dd60e11b6000908152600490fd5b90506134e6611c75613463613b21565b1415386134bd565b506102da613312565b6102da906134ee565b905051906102da826102bf565b906020828203126102c8576102ff91613500565b9161352e611ca584611bd5565b91602061353a60405190565b6352d1902d60e01b815293849060049082905afa600093816135aa575b5061357457634c9c8ce360e01b6000908152611f0d85600461044f565b9091926135826102ff6124d2565b8403613593576102da929350613b31565b632a87526960e21b60009081526004859052602490fd5b6135cd91945060203d6020116135d4575b6135c5818361049c565b81019061350d565b9238613557565b503d6135bb565b6135e430611bd5565b613610611c757f000000000000000000000000000000000000000000000000000000000000000061043a565b036134c457565b6136576136517f9016d09d72d40fdae2fd8ceac6b6234c7706214fd39c1cd1e609a0528c199300611ca58461364b83611b98565b926130e8565b91611bd5565b907f8be0079c531659141344cd1fd0a4f28419497f9722a3daafe3b4186f6b6457e061368260405190565b80805b0390a3565b613692613372565b60006136a0611c7082611baf565b6136a98561043a565b1461370457506136fa6136f483611ca5876136ef886131577f17307eab39ab6107e8899845ad3d59bd9653f200f220920489ca2b5937696c319960056136859a01611eb1565b61171e565b93611bd5565b9361037960405190565b630b61174360e31b81528061122b856004830161044f565b906102da91613729613b9d565b906102da91613be6565b906102da9161371c565b6102da613b9d565b6102da61373d565b6102da90613759613b9d565b6102da90613bfc565b6102da9061374d565b6102da916137776123da565b91613c05565b905051906102da82610325565b906020828203126102c8576102ff9161377d565b90926137cf906137c86102ff96946137be60808601976000870190610446565b6020850190610446565b6040830152565b60608184039101526103b6565b600094929390843b6137f061075588610ad7565b116137fe575b505050505050565b6020928661380e611ca588611bd5565b9261383561381b60405190565b97889687958694630a85bd0160e11b86526004860161379e565b03925af18391816138c9575b50613884575061384f6120e4565b805161385d61075585610ad7565b0361387c5750633250574960e11b8252819061122b906004830161044f565b805190602001fd5b61389e630a85bd0160e11b5b916001600160e01b03191690565b036138b05750503880808080806137f6565b633250574960e11b8252819061122b906004830161044f565b6138ec91925060203d6020116138f3575b6138e4818361049c565b81019061378a565b9038613841565b503d6138da565b6102ff6002611354565b6380ac58cd60e01b6001600160e01b0319821614908115613934575b811561392a575090565b6102ff9150613c26565b6001600160e01b03198116635b5e139f60e01b149150613920565b92909161395a613372565b91808115613a6a575b613980575b50506102da9291600461397b9201610ae4565b6130e8565b61398984613396565b91600090613999611c7083611baf565b6139a28261043a565b141580613a50575b80613a3d575b613a2457505061397b926102da9594926004926139d4575b50925081939450613968565b6139dd90611bd5565b6139e686611bd5565b6139ef85610ad7565b917f8c5be1e5ebec7d5bd14f71427d1e84f3dd0314c0f7b2291e5b200ac8c7c3b925613a1a60405190565b600090a4386139c8565b63a9fbf51f60e01b8252819061122b906004830161044f565b50613a4b6128598286613133565b6139b0565b50613a5a8161043a565b613a638561043a565b14156139aa565b50613a78611c706000611baf565b613a818361043a565b1415613963565b9091613a95908383613c3a565b91613ac3613aa36000611baf565b613aac8161043a565b613ab58661043a565b03613b0057611c7083613dfa565b613acc8361043a565b03613adb576102ff9150613eaa565b613ae48261043a565b613aed8461043a565b03613af757505090565b6102ff91613e2b565b613b098461043a565b613b128661043a565b1461043a57611c708386613d77565b6102ff600061274e6102ff6124d2565b90613b3b82613f14565b613b4482611bd5565b7fbc7cd75a20ee27fd9adebab32041f755214dbc6bffa90cc0225b39da2e5c2d3b613b6e60405190565b600090a28051613b816107556000610ad7565b1115613b9357613b9091613f7a565b50565b50506102da613f57565b613ba8612859613fa1565b613bae57565b631afcd79f60e31b6000908152600490fd5b906102da91613bcd613b9d565b9060016102da92612065613bdf613372565b91826116e4565b906102da91613bc0565b6102da9061316d613b9d565b6102da90613bf0565b906102da9291613c158282613fca565b33613c206000611baf565b906137dc565b613c366301ffc9a760e01b613890565b1490565b90613cb58261397b836002613c4d613372565b613ca1613c598461342c565b9960008b86613c6783611baf565b93613c718561043a565b613c7a8261043a565b03613d66575b505050613c8c8261043a565b613c958d61043a565b03613d28575b5061043a565b613caa8661043a565b03613cfc5701610ae4565b613cca613cc46136f485611bd5565b91610ad7565b917fddf252ad1be2c89b69c2b068fc378daa952ba7f163c4a11628f55a4df523b3ef613cf560405190565b600090a490565b613d23613d096001610ad7565b61133b613d198860038601611eb1565b916103ea83610b03565b6133f0565b613d349082878161394f565b613d608b61133b613d52613d486001610ad7565b9260038801611eb1565b91613d5c83610b03565b0390565b38613c9b565b613d6f92614040565b8b8638613c80565b613dc76000916102da93611eea84613dc7613d90613408565b93613d9a86612537565b95613db8600187019185613db1611eef8686610ae4565b9801611eb1565b95878103613dcc575b50610ae4565b611585565b613df490612cc7613de0611eef8b8b610ae4565b613dee81612cc7858d610ae4565b84610ae4565b38613dc1565b6102da90613e26613e09613408565b6102ff6002820191612cc7856003613e1f865490565b9301610ae4565b6118f7565b612cc76102da926001611eea936133f083612cc7613e47613408565b93613e63613e5482612537565b613e5d88610ad7565b90612b12565b98899186611eb1565b634e487b7160e01b600052603160045260246000fd5b80548015613ea5576000190190613ea2613e9c83836118cf565b90611585565b55565b613e6c565b613f0f6102da916102ff6000613dc7613ec1613408565b936002850194611eea6003613ee1613ed7895490565b613e5d6001610ad7565b920191612cc7613f01612498613efa611eef8888610ae4565b938b6118cf565b613dee8161191a858d6118cf565b613e82565b6000813b613f2461075583610ad7565b14613f3f57906102da91613f396102ff6124d2565b016130e8565b61122b8192634c9c8ce360e01b83526004830161044f565b6000613f6281610ad7565b3411613f6b5750565b63b398979f60e01b8152600490fd5b6000806102ff93613f89606090565b50602081519101845af4613f9b6120e4565b916140a0565b6102ff7ff0c57e16840df040f15088dc2f81fe391c3923bec73e23a9662efc9c229c6a00612778565b600091613fd683611baf565b91613fe08361043a565b613fe98261043a565b1461402757613ff9918391613472565b614005611c758361043a565b0361400e575050565b6339e3563760e11b8252819061122b906004830161044f565b633250574960e11b8452838061122b856004830161044f565b9061404f6128598483856140fb565b61405857505050565b600092839261406c611c75611c7086611baf565b0361408957637e27328960e01b8352600483015250602481010390fd5b63177e802f60e01b835261122b9160048401611e96565b906140ab575061417f565b8151906000916140bd61075584610ad7565b14806140e6575b6140cd57505090565b639996b31560e01b8252819061122b906004830161044f565b50803b6140f561075584610ad7565b146140c4565b90614109611c706000611baf565b6141128261043a565b141592836141205750505090565b9091925061412d8261043a565b6141368461043a565b1492831561416b575b508215614151575b505038808061330c565b614163919250613463611c75916133d6565b143880614147565b6141789193508290613133565b913861413f565b805160009061419061075583610ad7565b111561419f5750805190602001fd5b63d6bda27560e01b8152600490fdfea164736f6c634300081c000a",
  "devdoc": {
    "details": "Niu Niu game room card NFT contract with dynamic card types",
    "errors": {
      "AddressEmptyCode(address)": [
        {
          "details": "There's no code at `target` (it is not a contract)."
        }
      ],
      "ERC1967InvalidImplementation(address)": [
        {
          "details": "The `implementation` of the proxy is invalid."
        }
      ],
      "ERC1967NonPayable()": [
        {
          "details": "An upgrade function sees `msg.value > 0` that may be lost."
        }
      ],
      "ERC721EnumerableForbiddenBatchMint()": [
        {
          "details": "Batch mint is not allowed."
        }
      ],
      "ERC721IncorrectOwner(address,uint256,address)": [
        {
          "details": "Indicates an error related to the ownership over a particular token. Used in transfers.",
          "params": {
            "owner": "Address of the current owner of a token.",
            "sender": "Address whose tokens are being transferred.",
            "tokenId": "Identifier number of a token."
          }
        }
      ],
      "ERC721InsufficientApproval(address,uint256)": [
        {
          "details": "Indicates a failure with the `operator`s approval. Used in transfers.",
          "params": {
            "operator": "Address that may be allowed to operate on tokens without being their owner.",
            "tokenId": "Identifier number of a token."
          }
        }
      ],
      "ERC721InvalidApprover(address)": [
        {
          "details": "Indicates a failure with the `approver` of a token to be approved. Used in approvals.",
          "params": {
            "approver": "Address initiating an approval operation."
          }
        }
      ],
      "ERC721InvalidOperator(address)": [
        {
          "details": "Indicates a failure with the `operator` to be approved. Used in approvals.",
          "params": {
            "operator": "Address that may be allowed to operate on tokens without being their owner."
          }
        }
      ],
      "ERC721InvalidOwner(address)": [
        {
          "details": "Indicates that an address can't be an owner. For example, `address(0)` is a forbidden owner in ERC-20. Used in balance queries.",
          "params": {
            "owner": "Address of the current owner of a token."
          }
        }
      ],
      "ERC721InvalidReceiver(address)": [
        {
          "details": "Indicates a failure with the token `receiver`. Used in transfers.",
          "params": {
            "receiver": "Address to which tokens are being transferred."
          }
        }
      ],
      "ERC721InvalidSender(address)": [
        {
          "details": "Indicates a failure with the token `sender`. Used in transfers.",
          "params": {
            "sender": "Address whose tokens are being transferred."
          }
        }
      ],
      "ERC721NonexistentToken(uint256)": [
        {
          "details": "Indicates a `tokenId` whose `owner` is the zero address.",
          "params": {
            "tokenId": "Identifier number of a token."
          }
        }
      ],
      "ERC721OutOfBoundsIndex(address,uint256)": [
        {
          "details": "An `owner`'s token query was out of bounds for `index`. NOTE: The owner being `address(0)` indicates a global out of bounds index."
        }
      ],
      "FailedCall()": [
        {
          "details": "A call to an address target failed. The target may have reverted."
        }
      ],
      "InvalidInitialization()": [
        {
          "details": "The contract is already initialized."
        }
      ],
      "NotInitializing()": [
        {
          "details": "The contract is not initializing."
        }
      ],
      "OwnableInvalidOwner(address)": [
        {
          "details": "The owner is not a valid owner account. (eg. `address(0)`)"
        }
      ],
      "OwnableUnauthorizedAccount(address)": [
        {
          "details": "The caller account is not authorized to perform an operation."
        }
      ],
      "UUPSUnauthorizedCallContext()": [
        {
          "details": "The call is from an unauthorized context."
        }
      ],
      "UUPSUnsupportedProxiableUUID(bytes32)": [
        {
          "details": "The storage `slot` is unsupported as a UUID."
        }
      ]
    },
    "events": {
      "Approval(address,address,uint256)": {
        "details": "Emitted when `owner` enables `approved` to manage the `tokenId` token."
      },
      "ApprovalForAll(address,address,bool)": {
        "details": "Emitted when `owner` enables or disables (`approved`) `operator` to manage all of its assets."
      },
      "Initialized(uint64)": {
        "details": "Triggered when the contract has been initialized or reinitialized."
      },
      "Transfer(address,address,uint256)": {
        "details": "Emitted when `tokenId` token is transferred from `from` to `to`."
      },
      "Upgraded(address)": {
        "details": "Emitted when the implementation is upgraded."
      }
    },
    "kind": "dev",
    "methods": {
      "addType(string,uint8,uint256,string,uint256,string)": {
        "details": "Add a new card type",
        "params": {
          "maxPlayers": "Maximum number of players allowed",
          "name": "Name of the card type",
          "price": "Price to purchase this card",
          "uriSuffix": "URI suffix for metadata"
        },
        "returns": {
          "_0": "The ID of the newly created card type"
        }
      },
      "approve(address,uint256)": {
        "details": "See {IERC721-approve}."
      },
      "balanceOf(address)": {
        "details": "See {IERC721-balanceOf}."
      },
      "batchBuy(uint256,uint256)": {
        "details": "Batch purchase room cards",
        "params": {
          "amount": "Purchase quantity",
          "nftTypeId": "Card type ID"
        },
        "returns": {
          "_0": "Returns an array of minted room card IDs"
        }
      },
      "buy(uint256)": {
        "details": "Purchase a room card",
        "params": {
          "nftTypeId": "Card type ID"
        },
        "returns": {
          "_0": "Returns the minted room card ID"
        }
      },
      "constructor": {
        "custom:oz-upgrades-unsafe-allow": "constructor"
      },
      "consume(address,uint256)": {
        "details": "Consume room card",
        "params": {
          "owner": "Owner of the room card",
          "tokenId": "Room card ID to be consumed"
        }
      },
      "getActiveTypes()": {
        "details": "Get all active card types",
        "returns": {
          "_0": "Arrays of card type IDs and card types"
        }
      },
      "getAllTypeIds()": {
        "details": "Get all card type IDs",
        "returns": {
          "_0": "Array of all card type IDs"
        }
      },
      "getApproved(uint256)": {
        "details": "See {IERC721-getApproved}."
      },
      "getType(uint256)": {
        "details": "Get card type for a specific token",
        "params": {
          "tokenId": "Room card ID"
        },
        "returns": {
          "_0": "Card type information"
        }
      },
      "getUserNfts(address)": {
        "details": "",
        "params": {
          "userAddress": ""
        },
        "returns": {
          "details": "",
          "has": ""
        }
      },
      "hasNft(address)": {
        "details": "Check if a user owns any room cards",
        "params": {
          "owner": "User address"
        },
        "returns": {
          "_0": "Whether the user owns any room cards"
        }
      },
      "initialize(string,string,string)": {
        "details": "Initialization function, replaces constructor"
      },
      "isApprovedForAll(address,address)": {
        "details": "See {IERC721-isApprovedForAll}."
      },
      "name()": {
        "details": "See {IERC721Metadata-name}."
      },
      "owner()": {
        "details": "Returns the address of the current owner."
      },
      "ownerOf(uint256)": {
        "details": "See {IERC721-ownerOf}."
      },
      "proxiableUUID()": {
        "details": "Implementation of the ERC-1822 {proxiableUUID} function. This returns the storage slot used by the implementation. It is used to validate the implementation's compatibility when performing an upgrade. IMPORTANT: A proxy pointing at a proxiable contract should not be considered proxiable itself, because this risks bricking a proxy that upgrades to it, by delegating to itself until out of gas. Thus it is critical that this function revert if invoked through a proxy. This is guaranteed by the `notDelegated` modifier."
      },
      "renounceOwnership()": {
        "details": "Leaves the contract without owner. It will not be possible to call `onlyOwner` functions. Can only be called by the current owner. NOTE: Renouncing ownership will leave the contract without an owner, thereby disabling any functionality that is only available to the owner."
      },
      "safeTransferFrom(address,address,uint256)": {
        "details": "See {IERC721-safeTransferFrom}."
      },
      "safeTransferFrom(address,address,uint256,bytes)": {
        "details": "See {IERC721-safeTransferFrom}."
      },
      "setApprovalForAll(address,bool)": {
        "details": "See {IERC721-setApprovalForAll}."
      },
      "setBaseURI(string)": {
        "details": "Set base URI",
        "params": {
          "baseURI": "New base URI"
        }
      },
      "setGameMainAddress(address)": {
        "details": "Set the game main contract address",
        "params": {
          "_gameMainAddress": "Game main contract address"
        }
      },
      "setTypeActive(uint256,bool)": {
        "details": "Set a card type's active status",
        "params": {
          "active": "New active status",
          "nftTypeId": "Card type ID"
        }
      },
      "symbol()": {
        "details": "See {IERC721Metadata-symbol}."
      },
      "tokenByIndex(uint256)": {
        "details": "See {IERC721Enumerable-tokenByIndex}."
      },
      "tokenOfOwnerByIndex(address,uint256)": {
        "details": "See {IERC721Enumerable-tokenOfOwnerByIndex}."
      },
      "tokenURI(uint256)": {
        "details": "Override tokenURI function, returns different URIs based on room card type"
      },
      "totalSupply()": {
        "details": "See {IERC721Enumerable-totalSupply}."
      },
      "transferFrom(address,address,uint256)": {
        "details": "See {IERC721-transferFrom}."
      },
      "transferOwnership(address)": {
        "details": "Transfers ownership of the contract to a new account (`newOwner`). Can only be called by the current owner."
      },
      "updateType(uint256,uint8,uint256,string,uint256,string)": {
        "details": "Update an existing card type",
        "params": {
          "maxPlayers": "New maximum number of players",
          "nftTypeId": "Card type ID to update",
          "price": "New price",
          "uriSuffix": "New URI suffix"
        }
      },
      "upgradeToAndCall(address,bytes)": {
        "custom:oz-upgrades-unsafe-allow-reachable": "delegatecall",
        "details": "Upgrade the implementation of the proxy to `newImplementation`, and subsequently execute the function call encoded in `data`. Calls {_authorizeUpgrade}. Emits an {Upgraded} event."
      },
      "validateParams(uint256,uint8)": {
        "details": "Validate if room card meets game parameter requirements",
        "params": {
          "maxPlayers": "Maximum number of players",
          "tokenId": "Room card ID"
        },
        "returns": {
          "_0": "Whether requirements are met"
        }
      },
      "withdraw()": {
        "details": "Withdraw ETH from the contract"
      }
    },
    "title": "BBRoomCard",
    "version": 1
  },
  "userdoc": {
    "kind": "user",
    "methods": {},
    "version": 1
  },
  "storageLayout": {
    "storage": [
      {
        "astId": 17050,
        "contract": "contracts/BBRoomCardNFT.sol:BBRoomCardNFT",
        "label": "_tokenIdCounter",
        "offset": 0,
        "slot": "0",
        "type": "t_uint256"
      },
      {
        "astId": 17052,
        "contract": "contracts/BBRoomCardNFT.sol:BBRoomCardNFT",
        "label": "_nftTypeIdCounter",
        "offset": 0,
        "slot": "1",
        "type": "t_uint256"
      },
      {
        "astId": 17054,
        "contract": "contracts/BBRoomCardNFT.sol:BBRoomCardNFT",
        "label": "_baseTokenURI",
        "offset": 0,
        "slot": "2",
        "type": "t_string_storage"
      },
      {
        "astId": 17056,
        "contract": "contracts/BBRoomCardNFT.sol:BBRoomCardNFT",
        "label": "gameMainAddress",
        "offset": 0,
        "slot": "3",
        "type": "t_address"
      },
      {
        "astId": 17061,
        "contract": "contracts/BBRoomCardNFT.sol:BBRoomCardNFT",
        "label": "nftTypes",
        "offset": 0,
        "slot": "4",
        "type": "t_mapping(t_uint256,t_struct(RoomCardNftType)19776_storage)"
      },
      {
        "astId": 17065,
        "contract": "contracts/BBRoomCardNFT.sol:BBRoomCardNFT",
        "label": "tokenNftTypes",
        "offset": 0,
        "slot": "5",
        "type": "t_mapping(t_uint256,t_uint256)"
      },
      {
        "astId": 17068,
        "contract": "contracts/BBRoomCardNFT.sol:BBRoomCardNFT",
        "label": "_allNftTypeIds",
        "offset": 0,
        "slot": "6",
        "type": "t_array(t_uint256)dyn_storage"
      },
      {
        "astId": 17072,
        "contract": "contracts/BBRoomCardNFT.sol:BBRoomCardNFT",
        "label": "__gap",
        "offset": 0,
        "slot": "7",
        "type": "t_array(t_uint256)25_storage"
      }
    ],
    "types": {
      "t_address": {
        "encoding": "inplace",
        "label": "address",
        "numberOfBytes": "20"
      },
      "t_array(t_uint256)10_storage": {
        "base": "t_uint256",
        "encoding": "inplace",
        "label": "uint256[10]",
        "numberOfBytes": "320"
      },
      "t_array(t_uint256)25_storage": {
        "base": "t_uint256",
        "encoding": "inplace",
        "label": "uint256[25]",
        "numberOfBytes": "800"
      },
      "t_array(t_uint256)dyn_storage": {
        "base": "t_uint256",
        "encoding": "dynamic_array",
        "label": "uint256[]",
        "numberOfBytes": "32"
      },
      "t_bool": {
        "encoding": "inplace",
        "label": "bool",
        "numberOfBytes": "1"
      },
      "t_mapping(t_uint256,t_struct(RoomCardNftType)19776_storage)": {
        "encoding": "mapping",
        "key": "t_uint256",
        "label": "mapping(uint256 => struct RoomCardNftType)",
        "numberOfBytes": "32",
        "value": "t_struct(RoomCardNftType)19776_storage"
      },
      "t_mapping(t_uint256,t_uint256)": {
        "encoding": "mapping",
        "key": "t_uint256",
        "label": "mapping(uint256 => uint256)",
        "numberOfBytes": "32",
        "value": "t_uint256"
      },
      "t_string_storage": {
        "encoding": "bytes",
        "label": "string",
        "numberOfBytes": "32"
      },
      "t_struct(RoomCardNftType)19776_storage": {
        "encoding": "inplace",
        "label": "struct RoomCardNftType",
        "members": [
          {
            "astId": 19755,
            "contract": "contracts/BBRoomCardNFT.sol:BBRoomCardNFT",
            "label": "id",
            "offset": 0,
            "slot": "0",
            "type": "t_uint256"
          },
          {
            "astId": 19757,
            "contract": "contracts/BBRoomCardNFT.sol:BBRoomCardNFT",
            "label": "name",
            "offset": 0,
            "slot": "1",
            "type": "t_string_storage"
          },
          {
            "astId": 19759,
            "contract": "contracts/BBRoomCardNFT.sol:BBRoomCardNFT",
            "label": "maxPlayers",
            "offset": 0,
            "slot": "2",
            "type": "t_uint8"
          },
          {
            "astId": 19761,
            "contract": "contracts/BBRoomCardNFT.sol:BBRoomCardNFT",
            "label": "price",
            "offset": 0,
            "slot": "3",
            "type": "t_uint256"
          },
          {
            "astId": 19763,
            "contract": "contracts/BBRoomCardNFT.sol:BBRoomCardNFT",
            "label": "uriSuffix",
            "offset": 0,
            "slot": "4",
            "type": "t_string_storage"
          },
          {
            "astId": 19765,
            "contract": "contracts/BBRoomCardNFT.sol:BBRoomCardNFT",
            "label": "active",
            "offset": 0,
            "slot": "5",
            "type": "t_bool"
          },
          {
            "astId": 19767,
            "contract": "contracts/BBRoomCardNFT.sol:BBRoomCardNFT",
            "label": "maxMint",
            "offset": 0,
            "slot": "6",
            "type": "t_uint256"
          },
          {
            "astId": 19769,
            "contract": "contracts/BBRoomCardNFT.sol:BBRoomCardNFT",
            "label": "rarity",
            "offset": 0,
            "slot": "7",
            "type": "t_string_storage"
          },
          {
            "astId": 19771,
            "contract": "contracts/BBRoomCardNFT.sol:BBRoomCardNFT",
            "label": "minted",
            "offset": 0,
            "slot": "8",
            "type": "t_uint256"
          },
          {
            "astId": 19775,
            "contract": "contracts/BBRoomCardNFT.sol:BBRoomCardNFT",
            "label": "__gap",
            "offset": 0,
            "slot": "9",
            "type": "t_array(t_uint256)10_storage"
          }
        ],
        "numberOfBytes": "608"
      },
      "t_uint256": {
        "encoding": "inplace",
        "label": "uint256",
        "numberOfBytes": "32"
      },
      "t_uint8": {
        "encoding": "inplace",
        "label": "uint8",
        "numberOfBytes": "1"
      }
    }
  }
}