{
  "address": "0x8434040e88f1469a42FEaA5270f2621898d26029",
  "abi": [
    {
      "inputs": [],
      "stateMutability": "nonpayable",
      "type": "constructor"
    },
    {
      "inputs": [
        {
          "internalType": "address",
          "name": "target",
          "type": "address"
        }
      ],
      "name": "AddressEmptyCode",
      "type": "error"
    },
    {
      "inputs": [
        {
          "internalType": "address",
          "name": "implementation",
          "type": "address"
        }
      ],
      "name": "ERC1967InvalidImplementation",
      "type": "error"
    },
    {
      "inputs": [],
      "name": "ERC1967NonPayable",
      "type": "error"
    },
    {
      "inputs": [],
      "name": "ERC721EnumerableForbiddenBatchMint",
      "type": "error"
    },
    {
      "inputs": [
        {
          "internalType": "address",
          "name": "sender",
          "type": "address"
        },
        {
          "internalType": "uint256",
          "name": "tokenId",
          "type": "uint256"
        },
        {
          "internalType": "address",
          "name": "owner",
          "type": "address"
        }
      ],
      "name": "ERC721IncorrectOwner",
      "type": "error"
    },
    {
      "inputs": [
        {
          "internalType": "address",
          "name": "operator",
          "type": "address"
        },
        {
          "internalType": "uint256",
          "name": "tokenId",
          "type": "uint256"
        }
      ],
      "name": "ERC721InsufficientApproval",
      "type": "error"
    },
    {
      "inputs": [
        {
          "internalType": "address",
          "name": "approver",
          "type": "address"
        }
      ],
      "name": "ERC721InvalidApprover",
      "type": "error"
    },
    {
      "inputs": [
        {
          "internalType": "address",
          "name": "operator",
          "type": "address"
        }
      ],
      "name": "ERC721InvalidOperator",
      "type": "error"
    },
    {
      "inputs": [
        {
          "internalType": "address",
          "name": "owner",
          "type": "address"
        }
      ],
      "name": "ERC721InvalidOwner",
      "type": "error"
    },
    {
      "inputs": [
        {
          "internalType": "address",
          "name": "receiver",
          "type": "address"
        }
      ],
      "name": "ERC721InvalidReceiver",
      "type": "error"
    },
    {
      "inputs": [
        {
          "internalType": "address",
          "name": "sender",
          "type": "address"
        }
      ],
      "name": "ERC721InvalidSender",
      "type": "error"
    },
    {
      "inputs": [
        {
          "internalType": "uint256",
          "name": "tokenId",
          "type": "uint256"
        }
      ],
      "name": "ERC721NonexistentToken",
      "type": "error"
    },
    {
      "inputs": [
        {
          "internalType": "address",
          "name": "owner",
          "type": "address"
        },
        {
          "internalType": "uint256",
          "name": "index",
          "type": "uint256"
        }
      ],
      "name": "ERC721OutOfBoundsIndex",
      "type": "error"
    },
    {
      "inputs": [],
      "name": "FailedCall",
      "type": "error"
    },
    {
      "inputs": [],
      "name": "InvalidInitialization",
      "type": "error"
    },
    {
      "inputs": [],
      "name": "NotInitializing",
      "type": "error"
    },
    {
      "inputs": [
        {
          "internalType": "address",
          "name": "owner",
          "type": "address"
        }
      ],
      "name": "OwnableInvalidOwner",
      "type": "error"
    },
    {
      "inputs": [
        {
          "internalType": "address",
          "name": "account",
          "type": "address"
        }
      ],
      "name": "OwnableUnauthorizedAccount",
      "type": "error"
    },
    {
      "inputs": [],
      "name": "UUPSUnauthorizedCallContext",
      "type": "error"
    },
    {
      "inputs": [
        {
          "internalType": "bytes32",
          "name": "slot",
          "type": "bytes32"
        }
      ],
      "name": "UUPSUnsupportedProxiableUUID",
      "type": "error"
    },
    {
      "anonymous": false,
      "inputs": [
        {
          "indexed": true,
          "internalType": "address",
          "name": "owner",
          "type": "address"
        },
        {
          "indexed": true,
          "internalType": "address",
          "name": "approved",
          "type": "address"
        },
        {
          "indexed": true,
          "internalType": "uint256",
          "name": "tokenId",
          "type": "uint256"
        }
      ],
      "name": "Approval",
      "type": "event"
    },
    {
      "anonymous": false,
      "inputs": [
        {
          "indexed": true,
          "internalType": "address",
          "name": "owner",
          "type": "address"
        },
        {
          "indexed": true,
          "internalType": "address",
          "name": "operator",
          "type": "address"
        },
        {
          "indexed": false,
          "internalType": "bool",
          "name": "approved",
          "type": "bool"
        }
      ],
      "name": "ApprovalForAll",
      "type": "event"
    },
    {
      "anonymous": false,
      "inputs": [
        {
          "indexed": true,
          "internalType": "address",
          "name": "buyer",
          "type": "address"
        },
        {
          "indexed": false,
          "internalType": "uint256[]",
          "name": "tokenIds",
          "type": "uint256[]"
        },
        {
          "indexed": false,
          "internalType": "uint256",
          "name": "totalPrice",
          "type": "uint256"
        },
        {
          "indexed": false,
          "internalType": "uint256",
          "name": "nftTypeId",
          "type": "uint256"
        }
      ],
      "name": "BatchRoomLevelPurchased",
      "type": "event"
    },
    {
      "anonymous": false,
      "inputs": [
        {
          "indexed": false,
          "internalType": "uint64",
          "name": "version",
          "type": "uint64"
        }
      ],
      "name": "Initialized",
      "type": "event"
    },
    {
      "anonymous": false,
      "inputs": [
        {
          "indexed": true,
          "internalType": "uint256",
          "name": "nftTypeId",
          "type": "uint256"
        },
        {
          "indexed": false,
          "internalType": "bool",
          "name": "active",
          "type": "bool"
        }
      ],
      "name": "LevelTypeActiveStatusChanged",
      "type": "event"
    },
    {
      "anonymous": false,
      "inputs": [
        {
          "indexed": true,
          "internalType": "uint256",
          "name": "nftTypeId",
          "type": "uint256"
        },
        {
          "indexed": false,
          "internalType": "string",
          "name": "name",
          "type": "string"
        },
        {
          "indexed": false,
          "internalType": "uint256",
          "name": "maxRooms",
          "type": "uint256"
        },
        {
          "indexed": false,
          "internalType": "uint256",
          "name": "price",
          "type": "uint256"
        },
        {
          "indexed": false,
          "internalType": "string",
          "name": "uriSuffix",
          "type": "string"
        }
      ],
      "name": "LevelTypeAdded",
      "type": "event"
    },
    {
      "anonymous": false,
      "inputs": [
        {
          "indexed": true,
          "internalType": "uint256",
          "name": "nftTypeId",
          "type": "uint256"
        },
        {
          "indexed": false,
          "internalType": "uint256",
          "name": "maxRooms",
          "type": "uint256"
        },
        {
          "indexed": false,
          "internalType": "uint256",
          "name": "price",
          "type": "uint256"
        },
        {
          "indexed": false,
          "internalType": "string",
          "name": "uriSuffix",
          "type": "string"
        }
      ],
      "name": "LevelTypeUpdated",
      "type": "event"
    },
    {
      "anonymous": false,
      "inputs": [
        {
          "indexed": true,
          "internalType": "address",
          "name": "previousOwner",
          "type": "address"
        },
        {
          "indexed": true,
          "internalType": "address",
          "name": "newOwner",
          "type": "address"
        }
      ],
      "name": "OwnershipTransferred",
      "type": "event"
    },
    {
      "anonymous": false,
      "inputs": [
        {
          "indexed": true,
          "internalType": "address",
          "name": "buyer",
          "type": "address"
        },
        {
          "indexed": false,
          "internalType": "uint256",
          "name": "tokenId",
          "type": "uint256"
        },
        {
          "indexed": false,
          "internalType": "uint256",
          "name": "price",
          "type": "uint256"
        },
        {
          "indexed": false,
          "internalType": "uint256",
          "name": "nftTypeId",
          "type": "uint256"
        }
      ],
      "name": "RoomLevelPurchased",
      "type": "event"
    },
    {
      "anonymous": false,
      "inputs": [
        {
          "indexed": true,
          "internalType": "address",
          "name": "owner",
          "type": "address"
        },
        {
          "indexed": false,
          "internalType": "uint256",
          "name": "tokenId",
          "type": "uint256"
        },
        {
          "indexed": false,
          "internalType": "uint256",
          "name": "oldLevelTypeId",
          "type": "uint256"
        },
        {
          "indexed": false,
          "internalType": "uint256",
          "name": "newLevelTypeId",
          "type": "uint256"
        },
        {
          "indexed": false,
          "internalType": "uint256",
          "name": "pricePaid",
          "type": "uint256"
        }
      ],
      "name": "RoomLevelUpgraded",
      "type": "event"
    },
    {
      "anonymous": false,
      "inputs": [
        {
          "indexed": true,
          "internalType": "address",
          "name": "from",
          "type": "address"
        },
        {
          "indexed": true,
          "internalType": "address",
          "name": "to",
          "type": "address"
        },
        {
          "indexed": true,
          "internalType": "uint256",
          "name": "tokenId",
          "type": "uint256"
        }
      ],
      "name": "Transfer",
      "type": "event"
    },
    {
      "anonymous": false,
      "inputs": [
        {
          "indexed": true,
          "internalType": "address",
          "name": "implementation",
          "type": "address"
        }
      ],
      "name": "Upgraded",
      "type": "event"
    },
    {
      "anonymous": false,
      "inputs": [
        {
          "indexed": true,
          "internalType": "address",
          "name": "to",
          "type": "address"
        },
        {
          "indexed": false,
          "internalType": "uint256",
          "name": "amount",
          "type": "uint256"
        }
      ],
      "name": "Withdrawn",
      "type": "event"
    },
    {
      "inputs": [],
      "name": "UPGRADE_INTERFACE_VERSION",
      "outputs": [
        {
          "internalType": "string",
          "name": "",
          "type": "string"
        }
      ],
      "stateMutability": "view",
      "type": "function"
    },
    {
      "inputs": [
        {
          "internalType": "string",
          "name": "name",
          "type": "string"
        },
        {
          "internalType": "uint256",
          "name": "maxRooms",
          "type": "uint256"
        },
        {
          "internalType": "uint256",
          "name": "price",
          "type": "uint256"
        },
        {
          "internalType": "string",
          "name": "uriSuffix",
          "type": "string"
        },
        {
          "internalType": "uint256",
          "name": "maxMint",
          "type": "uint256"
        },
        {
          "internalType": "string",
          "name": "rarity",
          "type": "string"
        }
      ],
      "name": "addType",
      "outputs": [
        {
          "internalType": "uint256",
          "name": "",
          "type": "uint256"
        }
      ],
      "stateMutability": "nonpayable",
      "type": "function"
    },
    {
      "inputs": [
        {
          "internalType": "address",
          "name": "to",
          "type": "address"
        },
        {
          "internalType": "uint256",
          "name": "tokenId",
          "type": "uint256"
        }
      ],
      "name": "approve",
      "outputs": [],
      "stateMutability": "nonpayable",
      "type": "function"
    },
    {
      "inputs": [
        {
          "internalType": "address",
          "name": "owner",
          "type": "address"
        }
      ],
      "name": "balanceOf",
      "outputs": [
        {
          "internalType": "uint256",
          "name": "",
          "type": "uint256"
        }
      ],
      "stateMutability": "view",
      "type": "function"
    },
    {
      "inputs": [
        {
          "internalType": "uint256",
          "name": "nftTypeId",
          "type": "uint256"
        },
        {
          "internalType": "uint256",
          "name": "amount",
          "type": "uint256"
        }
      ],
      "name": "batchBuy",
      "outputs": [
        {
          "internalType": "uint256[]",
          "name": "",
          "type": "uint256[]"
        }
      ],
      "stateMutability": "payable",
      "type": "function"
    },
    {
      "inputs": [
        {
          "internalType": "uint256",
          "name": "nftTypeId",
          "type": "uint256"
        }
      ],
      "name": "buy",
      "outputs": [
        {
          "internalType": "uint256",
          "name": "",
          "type": "uint256"
        }
      ],
      "stateMutability": "payable",
      "type": "function"
    },
    {
      "inputs": [],
      "name": "gameMainAddress",
      "outputs": [
        {
          "internalType": "address",
          "name": "",
          "type": "address"
        }
      ],
      "stateMutability": "view",
      "type": "function"
    },
    {
      "inputs": [],
      "name": "getActiveTypes",
      "outputs": [
        {
          "internalType": "uint256[]",
          "name": "",
          "type": "uint256[]"
        },
        {
          "components": [
            {
              "internalType": "uint256",
              "name": "id",
              "type": "uint256"
            },
            {
              "internalType": "string",
              "name": "name",
              "type": "string"
            },
            {
              "internalType": "uint256",
              "name": "maxRooms",
              "type": "uint256"
            },
            {
              "internalType": "uint256",
              "name": "price",
              "type": "uint256"
            },
            {
              "internalType": "string",
              "name": "uriSuffix",
              "type": "string"
            },
            {
              "internalType": "bool",
              "name": "active",
              "type": "bool"
            },
            {
              "internalType": "uint256",
              "name": "maxMint",
              "type": "uint256"
            },
            {
              "internalType": "uint256",
              "name": "minted",
              "type": "uint256"
            },
            {
              "internalType": "string",
              "name": "rarity",
              "type": "string"
            },
            {
              "internalType": "uint256[10]",
              "name": "__gap",
              "type": "uint256[10]"
            }
          ],
          "internalType": "struct RoomLevelNftType[]",
          "name": "",
          "type": "tuple[]"
        }
      ],
      "stateMutability": "view",
      "type": "function"
    },
    {
      "inputs": [],
      "name": "getAllTypeIds",
      "outputs": [
        {
          "internalType": "uint256[]",
          "name": "",
          "type": "uint256[]"
        }
      ],
      "stateMutability": "view",
      "type": "function"
    },
    {
      "inputs": [
        {
          "internalType": "uint256",
          "name": "tokenId",
          "type": "uint256"
        }
      ],
      "name": "getApproved",
      "outputs": [
        {
          "internalType": "address",
          "name": "",
          "type": "address"
        }
      ],
      "stateMutability": "view",
      "type": "function"
    },
    {
      "inputs": [
        {
          "internalType": "address",
          "name": "user",
          "type": "address"
        }
      ],
      "name": "getMaxRooms",
      "outputs": [
        {
          "internalType": "uint256",
          "name": "",
          "type": "uint256"
        }
      ],
      "stateMutability": "view",
      "type": "function"
    },
    {
      "inputs": [
        {
          "internalType": "uint256",
          "name": "tokenId",
          "type": "uint256"
        }
      ],
      "name": "getType",
      "outputs": [
        {
          "components": [
            {
              "internalType": "uint256",
              "name": "id",
              "type": "uint256"
            },
            {
              "internalType": "string",
              "name": "name",
              "type": "string"
            },
            {
              "internalType": "uint256",
              "name": "maxRooms",
              "type": "uint256"
            },
            {
              "internalType": "uint256",
              "name": "price",
              "type": "uint256"
            },
            {
              "internalType": "string",
              "name": "uriSuffix",
              "type": "string"
            },
            {
              "internalType": "bool",
              "name": "active",
              "type": "bool"
            },
            {
              "internalType": "uint256",
              "name": "maxMint",
              "type": "uint256"
            },
            {
              "internalType": "uint256",
              "name": "minted",
              "type": "uint256"
            },
            {
              "internalType": "string",
              "name": "rarity",
              "type": "string"
            },
            {
              "internalType": "uint256[10]",
              "name": "__gap",
              "type": "uint256[10]"
            }
          ],
          "internalType": "struct RoomLevelNftType",
          "name": "",
          "type": "tuple"
        }
      ],
      "stateMutability": "view",
      "type": "function"
    },
    {
      "inputs": [
        {
          "internalType": "address",
          "name": "userAddress",
          "type": "address"
        }
      ],
      "name": "getUserNfts",
      "outputs": [
        {
          "internalType": "bool",
          "name": "has",
          "type": "bool"
        },
        {
          "components": [
            {
              "internalType": "uint256",
              "name": "tokenId",
              "type": "uint256"
            },
            {
              "components": [
                {
                  "internalType": "uint256",
                  "name": "id",
                  "type": "uint256"
                },
                {
                  "internalType": "string",
                  "name": "name",
                  "type": "string"
                },
                {
                  "internalType": "uint256",
                  "name": "maxRooms",
                  "type": "uint256"
                },
                {
                  "internalType": "uint256",
                  "name": "price",
                  "type": "uint256"
                },
                {
                  "internalType": "string",
                  "name": "uriSuffix",
                  "type": "string"
                },
                {
                  "internalType": "bool",
                  "name": "active",
                  "type": "bool"
                },
                {
                  "internalType": "uint256",
                  "name": "maxMint",
                  "type": "uint256"
                },
                {
                  "internalType": "uint256",
                  "name": "minted",
                  "type": "uint256"
                },
                {
                  "internalType": "string",
                  "name": "rarity",
                  "type": "string"
                },
                {
                  "internalType": "uint256[10]",
                  "name": "__gap",
                  "type": "uint256[10]"
                }
              ],
              "internalType": "struct RoomLevelNftType",
              "name": "nftType",
              "type": "tuple"
            }
          ],
          "internalType": "struct RoomLevelNftDetail[]",
          "name": "details",
          "type": "tuple[]"
        },
        {
          "internalType": "uint256",
          "name": "totalMaxRooms",
          "type": "uint256"
        }
      ],
      "stateMutability": "view",
      "type": "function"
    },
    {
      "inputs": [
        {
          "internalType": "address",
          "name": "user",
          "type": "address"
        }
      ],
      "name": "hasNft",
      "outputs": [
        {
          "internalType": "bool",
          "name": "",
          "type": "bool"
        }
      ],
      "stateMutability": "view",
      "type": "function"
    },
    {
      "inputs": [
        {
          "internalType": "uint256",
          "name": "nftTypeId",
          "type": "uint256"
        },
        {
          "internalType": "uint256",
          "name": "addAmount",
          "type": "uint256"
        }
      ],
      "name": "increaseMaxMint",
      "outputs": [],
      "stateMutability": "nonpayable",
      "type": "function"
    },
    {
      "inputs": [
        {
          "internalType": "string",
          "name": "name",
          "type": "string"
        },
        {
          "internalType": "string",
          "name": "symbol",
          "type": "string"
        },
        {
          "internalType": "string",
          "name": "baseTokenURI",
          "type": "string"
        }
      ],
      "name": "initialize",
      "outputs": [],
      "stateMutability": "nonpayable",
      "type": "function"
    },
    {
      "inputs": [
        {
          "internalType": "address",
          "name": "owner",
          "type": "address"
        },
        {
          "internalType": "address",
          "name": "operator",
          "type": "address"
        }
      ],
      "name": "isApprovedForAll",
      "outputs": [
        {
          "internalType": "bool",
          "name": "",
          "type": "bool"
        }
      ],
      "stateMutability": "view",
      "type": "function"
    },
    {
      "inputs": [],
      "name": "name",
      "outputs": [
        {
          "internalType": "string",
          "name": "",
          "type": "string"
        }
      ],
      "stateMutability": "view",
      "type": "function"
    },
    {
      "inputs": [
        {
          "internalType": "uint256",
          "name": "",
          "type": "uint256"
        }
      ],
      "name": "nftTypes",
      "outputs": [
        {
          "internalType": "uint256",
          "name": "id",
          "type": "uint256"
        },
        {
          "internalType": "string",
          "name": "name",
          "type": "string"
        },
        {
          "internalType": "uint256",
          "name": "maxRooms",
          "type": "uint256"
        },
        {
          "internalType": "uint256",
          "name": "price",
          "type": "uint256"
        },
        {
          "internalType": "string",
          "name": "uriSuffix",
          "type": "string"
        },
        {
          "internalType": "bool",
          "name": "active",
          "type": "bool"
        },
        {
          "internalType": "uint256",
          "name": "maxMint",
          "type": "uint256"
        },
        {
          "internalType": "uint256",
          "name": "minted",
          "type": "uint256"
        },
        {
          "internalType": "string",
          "name": "rarity",
          "type": "string"
        }
      ],
      "stateMutability": "view",
      "type": "function"
    },
    {
      "inputs": [],
      "name": "owner",
      "outputs": [
        {
          "internalType": "address",
          "name": "",
          "type": "address"
        }
      ],
      "stateMutability": "view",
      "type": "function"
    },
    {
      "inputs": [
        {
          "internalType": "uint256",
          "name": "tokenId",
          "type": "uint256"
        }
      ],
      "name": "ownerOf",
      "outputs": [
        {
          "internalType": "address",
          "name": "",
          "type": "address"
        }
      ],
      "stateMutability": "view",
      "type": "function"
    },
    {
      "inputs": [],
      "name": "proxiableUUID",
      "outputs": [
        {
          "internalType": "bytes32",
          "name": "",
          "type": "bytes32"
        }
      ],
      "stateMutability": "view",
      "type": "function"
    },
    {
      "inputs": [],
      "name": "renounceOwnership",
      "outputs": [],
      "stateMutability": "nonpayable",
      "type": "function"
    },
    {
      "inputs": [
        {
          "internalType": "address",
          "name": "from",
          "type": "address"
        },
        {
          "internalType": "address",
          "name": "to",
          "type": "address"
        },
        {
          "internalType": "uint256",
          "name": "tokenId",
          "type": "uint256"
        }
      ],
      "name": "safeTransferFrom",
      "outputs": [],
      "stateMutability": "nonpayable",
      "type": "function"
    },
    {
      "inputs": [
        {
          "internalType": "address",
          "name": "from",
          "type": "address"
        },
        {
          "internalType": "address",
          "name": "to",
          "type": "address"
        },
        {
          "internalType": "uint256",
          "name": "tokenId",
          "type": "uint256"
        },
        {
          "internalType": "bytes",
          "name": "data",
          "type": "bytes"
        }
      ],
      "name": "safeTransferFrom",
      "outputs": [],
      "stateMutability": "nonpayable",
      "type": "function"
    },
    {
      "inputs": [
        {
          "internalType": "address",
          "name": "operator",
          "type": "address"
        },
        {
          "internalType": "bool",
          "name": "approved",
          "type": "bool"
        }
      ],
      "name": "setApprovalForAll",
      "outputs": [],
      "stateMutability": "nonpayable",
      "type": "function"
    },
    {
      "inputs": [
        {
          "internalType": "string",
          "name": "baseURI",
          "type": "string"
        }
      ],
      "name": "setBaseURI",
      "outputs": [],
      "stateMutability": "nonpayable",
      "type": "function"
    },
    {
      "inputs": [
        {
          "internalType": "address",
          "name": "_gameMainAddress",
          "type": "address"
        }
      ],
      "name": "setGameMainAddress",
      "outputs": [],
      "stateMutability": "nonpayable",
      "type": "function"
    },
    {
      "inputs": [
        {
          "internalType": "uint256",
          "name": "nftTypeId",
          "type": "uint256"
        },
        {
          "internalType": "bool",
          "name": "active",
          "type": "bool"
        }
      ],
      "name": "setTypeActive",
      "outputs": [],
      "stateMutability": "nonpayable",
      "type": "function"
    },
    {
      "inputs": [
        {
          "internalType": "bytes4",
          "name": "interfaceId",
          "type": "bytes4"
        }
      ],
      "name": "supportsInterface",
      "outputs": [
        {
          "internalType": "bool",
          "name": "",
          "type": "bool"
        }
      ],
      "stateMutability": "view",
      "type": "function"
    },
    {
      "inputs": [],
      "name": "symbol",
      "outputs": [
        {
          "internalType": "string",
          "name": "",
          "type": "string"
        }
      ],
      "stateMutability": "view",
      "type": "function"
    },
    {
      "inputs": [
        {
          "internalType": "uint256",
          "name": "index",
          "type": "uint256"
        }
      ],
      "name": "tokenByIndex",
      "outputs": [
        {
          "internalType": "uint256",
          "name": "",
          "type": "uint256"
        }
      ],
      "stateMutability": "view",
      "type": "function"
    },
    {
      "inputs": [
        {
          "internalType": "uint256",
          "name": "",
          "type": "uint256"
        }
      ],
      "name": "tokenNftTypes",
      "outputs": [
        {
          "internalType": "uint256",
          "name": "",
          "type": "uint256"
        }
      ],
      "stateMutability": "view",
      "type": "function"
    },
    {
      "inputs": [
        {
          "internalType": "address",
          "name": "owner",
          "type": "address"
        },
        {
          "internalType": "uint256",
          "name": "index",
          "type": "uint256"
        }
      ],
      "name": "tokenOfOwnerByIndex",
      "outputs": [
        {
          "internalType": "uint256",
          "name": "",
          "type": "uint256"
        }
      ],
      "stateMutability": "view",
      "type": "function"
    },
    {
      "inputs": [
        {
          "internalType": "uint256",
          "name": "tokenId",
          "type": "uint256"
        }
      ],
      "name": "tokenURI",
      "outputs": [
        {
          "internalType": "string",
          "name": "",
          "type": "string"
        }
      ],
      "stateMutability": "view",
      "type": "function"
    },
    {
      "inputs": [],
      "name": "totalSupply",
      "outputs": [
        {
          "internalType": "uint256",
          "name": "",
          "type": "uint256"
        }
      ],
      "stateMutability": "view",
      "type": "function"
    },
    {
      "inputs": [
        {
          "internalType": "address",
          "name": "from",
          "type": "address"
        },
        {
          "internalType": "address",
          "name": "to",
          "type": "address"
        },
        {
          "internalType": "uint256",
          "name": "tokenId",
          "type": "uint256"
        }
      ],
      "name": "transferFrom",
      "outputs": [],
      "stateMutability": "nonpayable",
      "type": "function"
    },
    {
      "inputs": [
        {
          "internalType": "address",
          "name": "newOwner",
          "type": "address"
        }
      ],
      "name": "transferOwnership",
      "outputs": [],
      "stateMutability": "nonpayable",
      "type": "function"
    },
    {
      "inputs": [
        {
          "internalType": "uint256",
          "name": "nftTypeId",
          "type": "uint256"
        },
        {
          "internalType": "uint256",
          "name": "maxRooms",
          "type": "uint256"
        },
        {
          "internalType": "uint256",
          "name": "price",
          "type": "uint256"
        },
        {
          "internalType": "string",
          "name": "uriSuffix",
          "type": "string"
        },
        {
          "internalType": "uint256",
          "name": "maxMint",
          "type": "uint256"
        },
        {
          "internalType": "string",
          "name": "rarity",
          "type": "string"
        }
      ],
      "name": "updateType",
      "outputs": [],
      "stateMutability": "nonpayable",
      "type": "function"
    },
    {
      "inputs": [
        {
          "internalType": "address",
          "name": "newImplementation",
          "type": "address"
        },
        {
          "internalType": "bytes",
          "name": "data",
          "type": "bytes"
        }
      ],
      "name": "upgradeToAndCall",
      "outputs": [],
      "stateMutability": "payable",
      "type": "function"
    },
    {
      "inputs": [],
      "name": "withdraw",
      "outputs": [],
      "stateMutability": "nonpayable",
      "type": "function"
    },
    {
      "stateMutability": "payable",
      "type": "receive"
    }
  ],
  "transactionHash": "0x470802b07ce26b00a35a2701688155ddbfe1741f74df9533a8cbedca1493266c",
  "args": [],
  "numDeployments": 1,
  "solcInputHash": "48576e987db7584d29c5cbb1887dec70",
  "bytecode": "0x60a06040523461003257610011610037565b604051613f5d6101b1823960805181818161321f01526133890152613f5d90f35b600080fd5b61003f61007e565b610047610102565b565b61005d90610060906001600160a01b031682565b90565b6001600160a01b031690565b61005d90610049565b61005d9061006c565b61008730610075565b608052565b61005d9060401c60ff1690565b61005d905461008c565b61005d905b6001600160401b031690565b61005d90546100a3565b61005d906100a8906001600160401b031682565b906100e261005d6100fe926100be565b82546001600160401b0319166001600160401b03919091161790565b9055565b7ff0c57e16840df040f15088dc2f81fe391c3923bec73e23a9662efc9c229c6a0061012c81610099565b61019e57610139816100b4565b6001600160401b0391908290811603610150575050565b8161017f7fc7f505b2f371ae2175ee4913f4499e1f2633a7b5936321eed1cdaeb6115181d293610199936100d2565b604051918291826001600160401b03909116815260200190565b0390a1565b63f92ee8a960e01b6000908152600490fdfe6080604052600436101561001b575b361561001957600080fd5b005b60003560e01c8062788b3d146102a9578062c05729146102a457806301ffc9a71461029f57806306fdde031461029a578063081812fc14610295578063095ea7b31461029057806318160ddd1461028b57806323b872dd146102865780632f745c59146102815780633ccfd60b1461027c5780634036ab781461027757806342842e0e146102725780634ed7ff631461026d5780634f1ef286146102685780634f6ccce71461026357806352d1902d1461025e57806355f804b3146102595780635a104ced146102545780636352211e1461024f57806370a082311461024a578063715018a6146102455780637908d0091461024057806379b2ab231461023b5780638b90dc85146102365780638da5cb5b1461023157806395d89b411461022c578063a22cb46514610227578063a6487c5314610222578063ab16d8231461021d578063ad3cb1cc14610218578063ad752eb814610213578063b88d4fde1461020e578063c87b56dd14610209578063d203d40014610204578063d96a094a146101ff578063dfda3cb6146101fa578063e2b21eac146101f5578063e985e9c5146101f0578063eb238441146101eb578063f2fde38b146101e65763fa55b7260361000e57611148565b6110a6565b61108b565b611044565b611009565b610ff0565b610fbe565b610fa3565b610f88565b610f6c565b610f02565b610ee7565b610e7f565b610e06565b610d88565b610d35565b610d1a565b610cff565b610c9d565b610a3b565b610965565b61094a565b61092f565b610910565b6108e3565b6108a3565b610888565b610874565b610824565b6107f7565b6107d0565b6106bd565b6106a1565b610688565b610644565b61062b565b6105d2565b610572565b6104d1565b61046d565b6102f1565b805b036102b757565b600080fd5b905035906102c9826102ae565b565b91906040838203126102b7576102ee9060206102e782866102bc565b94016102bc565b90565b346102b75761030a6103043660046102cb565b906112e7565b60405180805b0390f35b634e487b7160e01b600052604160045260246000fd5b90601f01601f191681019081106001600160401b0382111761034b57604052565b610314565b906102c961035d60405190565b928361032a565b6001600160401b03811161034b57602090601f01601f19160190565b0190565b90826000939282370152565b909291926103a56103a082610364565b610350565b93818552818301116102b7576102c9916020850190610384565b9080601f830112156102b7578160206102ee93359101610390565b9160c0838303126102b75782356001600160401b0381116102b757826104019185016103bf565b9261040f83602083016102bc565b9261041d81604084016102bc565b9260608301356001600160401b0381116102b7578261043d9185016103bf565b9261044b83608083016102bc565b9260a08201356001600160401b0381116102b7576102ee92016103bf565b9052565b346102b75761031061048f6104833660046103da565b94939093929192611a0f565b6040515b9182918290815260200190565b6001600160e01b031981166102b0565b905035906102c9826104a0565b906020828203126102b7576102ee916104b0565b346102b7576103106104ec6104e73660046104bd565b611a1f565b6040515b91829182901515815260200190565b60009103126102b757565b60005b83811061051d5750506000910152565b818101518382015260200161050d565b61054e61055760209361038093610542815190565b80835293849260200190565b9586910161050a565b601f01601f191690565b60208082526102ee9291019061052d565b346102b7576105823660046104ff565b61031061058d611a31565b60405191829182610561565b906020828203126102b7576102ee916102bc565b6001600160a01b031690565b610469906105ad565b6020810192916102c991906105b9565b346102b7576103106105ed6105e8366004610599565b611a44565b604051918291826105c2565b6102b0816105ad565b905035906102c9826105f9565b91906040838203126102b7576102ee9060206102e78286610602565b346102b75761030a61063e36600461060f565b90611a57565b346102b7576106543660046104ff565b61031061048f611a62565b90916060828403126102b7576102ee6106788484610602565b9360406102e78260208701610602565b346102b75761030a61069b36600461065f565b91611ab8565b346102b75761031061048f6106b736600461060f565b90611b8b565b346102b7576106cd3660046104ff565b61030a611d21565b6106e56106e1600a9390565b9190565b6000915b8383106106f65750505050565b6107106107096001928451815260200190565b9260200190565b920191906106e9565b80518252906102ee90610120806107b461077661074661026086016020890151878203602089015261052d565b61075560408901516040880152565b61076460608901516060880152565b6080880151868203608088015261052d565b60a08781015115159086015261079160c088015160c0870152565b6107a060e088015160e0870152565b61010087015185820361010087015261052d565b9401519101906106d5565b60208082526102ee92910190610719565b346102b7576103106107eb6107e6366004610599565b611f06565b604051918291826107bf565b346102b75761030a61080a36600461065f565b91611f44565b906020828203126102b7576102ee91610602565b346102b7576103106104ec61083a366004610810565b611f58565b9190916040818403126102b7576108568382610602565b9260208201356001600160401b0381116102b7576102ee92016103bf565b61030a61088236600461083f565b90611f92565b346102b75761031061048f61089e366004610599565b611f9c565b346102b7576108b33660046104ff565b61031061048f612032565b906020828203126102b75781356001600160401b0381116102b7576102ee92016103bf565b346102b75761030a6108f63660046108be565b612053565b9160c0838303126102b75761040182846102bc565b346102b75761030a6109233660046108fb565b9493909392919261217a565b346102b7576103106105ed610945366004610599565b612188565b346102b75761031061048f610960366004610810565b612191565b346102b7576109753660046104ff565b61030a612203565b805182526102ee91604081019160200151906020818403910152610719565b906102ee9161097d565b906109bc6109b2835190565b8083529160200190565b90816109ce6020830284019460200190565b926000915b8383106109e257505050505090565b90919293946020610a056109fe8385600195038752895161099c565b9760200190565b93019301919392906109d3565b901515815292916102c991604090610a3690606087019087820360208901526109a6565b940152565b346102b757610310610a56610a51366004610810565b6122bc565b60405191939193849384610a12565b6102ee6102ee6102ee9290565b90610a7c90610a65565b600052602052604060002090565b6102ee9081565b6102ee9054610a8a565b634e487b7160e01b600052602260045260246000fd5b9060016002830492168015610ad1575b6020831014610acc57565b610a9b565b91607f1691610ac1565b80546000939291610af8610aee83610ab1565b8085529360200190565b9160018116908115610b4a5750600114610b1157505050565b610b249192939450600052602060002090565b916000925b818410610b365750500190565b805484840152602090930192600101610b29565b92949550505060ff1916825215156020020190565b906102ee91610adb565b906102c9610b8392610b7a60405190565b93848092610b5f565b038361032a565b6102ee905b60ff1690565b6102ee9054610b8a565b610baa906004610a72565b610bb381610a91565b91610bc060018301610b69565b91610bcd60028201610a91565b91610bda60038301610a91565b91610be760048201610b69565b91610bf460058301610b95565b91610c0160068201610a91565b916102ee6008610c1360078501610a91565b9301610b69565b959793610c8893610c8f96610c6a610c7793610c63610c5b6102ee9f9d9897610c81988e610c4e6101208201936000830152565b602081840391015261052d565b9460408d0152565b60608b0152565b88820360808a015261052d565b97151560a0870152565b60c0850152565b60e0830152565b61010081840391015261052d565b346102b757610310610cb8610cb3366004610599565b610b9f565b95610ccb99979995919594929460405190565b998a998a610c1a565b6102ee916008021c81565b906102ee9154610cd4565b6000610cfa6102ee926005610a72565b610cdf565b346102b75761031061048f610d15366004610599565b610cea565b346102b757610d2a3660046104ff565b6103106105ed6123c7565b346102b757610d453660046104ff565b61031061058d6123f4565b8015156102b0565b905035906102c982610d50565b91906040838203126102b7576102ee906020610d818286610602565b9401610d58565b346102b75761030a610d9b366004610d65565b90612401565b916060838303126102b75782356001600160401b0381116102b75782610dc89185016103bf565b9260208101356001600160401b0381116102b75783610de89183016103bf565b9260408201356001600160401b0381116102b7576102ee92016103bf565b346102b75761030a610e19366004610da1565b91612669565b90610e38610709610e2e845190565b8084529260200190565b9060005b818110610e495750505090565b909192610e66610e5f6001928651815260200190565b9460200190565b929101610e3c565b60208082526102ee92910190610e1f565b610310610e96610e903660046102cb565b9061282f565b60405191829182610e6e565b90610eaf6103a083610364565b918252565b610ebe6005610ea2565b640352e302e360dc1b602082015290565b6102ee610eb4565b6102ee610ecf565b6102ee610ed7565b346102b757610ef73660046104ff565b61031061058d610edf565b346102b757610f123660046104ff565b610310610e96612aa3565b906080828203126102b757610f328183610602565b92610f408260208501610602565b92610f4e83604083016102bc565b9260608201356001600160401b0381116102b7576102ee92016103bf565b346102b75761030a610f7f366004610f1d565b92919091612aad565b346102b75761031061058d610f9e366004610599565b612afa565b346102b75761031061048f610fb9366004610810565b612b6d565b61031061048f610fcf366004610599565b612bf7565b91906040838203126102b7576102ee906020610d8182866102bc565b346102b75761030a611003366004610fd4565b90612d88565b346102b75761030a61101c366004610810565b612e41565b91906040838203126102b7576102ee90602061103d8286610602565b9401610602565b346102b7576103106104ec61105a366004611021565b90612e4a565b6102ee916008021c6001600160a01b031690565b906102ee9154611060565b6102ee60006003611074565b346102b75761109b3660046104ff565b6103106105ed61107f565b346102b75761030a6110b9366004610810565b612eca565b906102ee91610719565b906110d46109b2835190565b90816110e66020830284019460200190565b926000915b8383106110fa57505050505090565b909192939460206111166109fe838560019503875289516110be565b93019301919392906110eb565b60408082526102ee93919261113a91840190610e1f565b9160208184039101526110c8565b346102b7576111583660046104ff565b611160612f14565b9061031061116d60405190565b92839283611123565b906102c991611183613029565b611287565b1561118f57565b60405162461bcd60e51b815260206004820152601960248201527813195d995b081d1e5c1948191bd95cc81b9bdd08195e1a5cdd603a1b604482015280606481015b0390fd5b156111dc57565b60405162461bcd60e51b815260206004820152602160248201527f41646420616d6f756e74206d7573742062652067726561746572207468616e206044820152600360fc1b6064820152608490fd5b634e487b7160e01b600052601160045260246000fd5b919061124c565b9290565b820180921161125757565b61122b565b90600019905b9181191691161790565b9061127c6102ee61128392610a65565b825461125c565b9055565b906112e160066112d16102c9946112b66112ad60006112a7846004610a72565b01610a91565b82905b14611188565b6112ca6112c36000610a65565b86116111d5565b6004610a72565b01916112dc83610a91565b611241565b9061126c565b906102c991611176565b906102ee969594939291611303613029565b611851565b1561130f57565b60405162461bcd60e51b81526020600482015260146024820152734e616d652063616e6e6f7420626520656d70747960601b6044820152606490fd5b1561135257565b60405162461bcd60e51b8152806111d1600482016020808252818101527f4d617820726f6f6d73206d7573742062652067726561746572207468616e2030604082015260600190565b156113a257565b60405162461bcd60e51b815260206004820152601c60248201527f5072696365206d7573742062652067726561746572207468616e2030000000006044820152606490fd5b156113ee57565b60405162461bcd60e51b815260206004820152601f60248201527f4d6178206d696e74206d7573742062652067726561746572207468616e2030006044820152606490fd5b60001981146112575760010190565b6001600160401b03811161034b5760200290565b6103a06102ee91611442565b6102ee610140610350565b9160001960089290920291821b911b611262565b91906114926102ee61128393610a65565b90835461146d565b6102c991600091611481565b8181106114b1575050565b806114bf600060019361149a565b016114a6565b9190601f81116114d457505050565b6114e66102c993600052602060002090565b906020601f840181900483019310611508575b6020601f9091010401906114a6565b90915081906114f9565b9060001960089091021c191690565b8161152b91611512565b906002021790565b9061153c815190565b906001600160401b03821161034b5761155f826115598554610ab1565b856114c5565b602090601f831160011461158d57611283929160009183611582575b5050611521565b01519050388061157b565b601f198316916115a285600052602060002090565b9260005b8181106115e1575091600293918560019694106115c7575b50505002019055565b6115d7910151601f841690611512565b90553880806115be565b919360206001819287870151815501950192016115a6565b906102c991611533565b9060ff90611262565b9061161c6102ee61128392151590565b8254611603565b8181029291811591840414171561125757565b91909182821061164557505050565b6102c992810191016114a6565b90600160401b811161034b576102c991600a90611636565b600a916116806112486001926102ee8686611652565b92049160005b8381106116935750505050565b60019060206116a36102ee865190565b9401938184015501611686565b906102c99161166a565b600961179a6101206102c9946116da6116d4600083015190565b8661126c565b6116f16116e8602083015190565b600187016115f9565b6117086116ff604083015190565b6002870161126c565b61171f611716606083015190565b6003870161126c565b61173661172d608083015190565b600487016115f9565b61174f61174660a0830151151590565b6005870161160c565b61176661175d60c083015190565b6006870161126c565b61177d61177460e083015190565b6007870161126c565b61179561178c61010083015190565b600887016115f9565b015190565b91016116b0565b906102c9916116ba565b634e487b7160e01b600052603260045260246000fd5b80548210156117e4576117db600191600052602060002090565b91020190600090565b6117ab565b80549190600160401b83101561034b578261180c9160016102c9950181556117c1565b90611481565b906102ee94929361183d611835611844936080860190868203600088015261052d565b956020850152565b6040830152565b606081840391015261052d565b5092939192909181519060009161186783610a65565b1061187190611308565b61187a82610a65565b84116118859061134b565b61188e82610a65565b85116118999061139b565b6118a282610a65565b81116118ad906113e7565b6118b76001610a91565b966118c26001610a91565b6118cb90611433565b6118d690600161126c565b6118e0600a611456565b916118ea84610a65565b906118f58285870152565b611900826020860152565b61190b826040860152565b611916826060860152565b611921826080860152565b61192c8260a0860152565b6119378260c0860152565b6119428260e0860152565b61194e82610100860152565b61195a82610120860152565b89611963611462565b9586015260208501869052611979876040870152565b611984886060870152565b60808501899052600160a086015260c085015260e08401526101008301526101208201526119b3866004610a72565b906119bd916117a1565b6119c88560066117e9565b6119d185610a65565b936119db60405190565b9384936119e89385611812565b037f48f6315234502ecb15554d0ed642af007b99388ffa57a52180cb0e423e816bc391a290565b6102ee95949392919060006112f1565b6102ee90613066565b6102ee90610b69565b6102ee6000611a3e61308f565b01611a28565b6102ee90611a51816130b3565b506130f3565b6102c9913391613118565b6102ee6002611a6f613125565b015490565b6105ad6102ee6102ee9290565b6102ee90611a74565b604090611ab16102c99496959396611aaa606084019860008501906105b9565b6020830152565b01906105b9565b9091600092611ac684611a81565b611acf816105ad565b611ad8836105ad565b14611b235750611aea908233916131a1565b91611af4816105ad565b611afd846105ad565b03611b085750505050565b6364283d7b60e01b845283926111d192909160048501611a8a565b846111d18192633250574960e11b8352600483016105c2565b9160206102c9929493611b57604082019660008301906105b9565b0152565b6102ee906105ad906001600160a01b031682565b6102ee90611b5b565b6102ee90611b6f565b90610a7c90611b78565b611b93613125565b611b9f6102ee83612191565b831015611bc45791611bba611bbf9260006102ee9501611b81565b610a72565b610a91565b63295f44f760e21b6000908152611bdd84846004611b3c565b036000fd5b611bea613029565b6102c9611c94565b15611bf957565b60405162461bcd60e51b81526020600482015260146024820152734e6f2066756e647320746f20776974686472617760601b6044820152606490fd5b3d15611c4f57611c443d610ea2565b903d6000602084013e565b606090565b15611c5b57565b60405162461bcd60e51b815260206004820152601160248201527015da5d1a191c985dd85b0819985a5b1959607a1b6044820152606490fd5b611c9d30611b78565b31611cb2611cab6000610a65565b8211611bf2565b611ce3600080611ccb611cc6611cc66123c7565b611b78565b60405160009186905af1611cdd611c35565b50611c54565b7f7084f5476618d8e60b11ef0d7d3f06914655adb8793e28ff7f018d4c76d505d5611d1c611d12611cc66123c7565b9261049360405190565b0390a2565b6102c9611be2565b369037565b906102c9611d44611d3e84611456565b93611442565b83611d29565b6102ee600a611d2e565b611d5c611462565b906000825260208080808080808080808b0160608152016000815201600081520160608152016000815201600081520160008152016060815201611d9e611d4a565b905250565b6102ee611d54565b611db76106e1600a9390565b6000915b838310611dc85750505050565b611de9611de2600192611dda85610a91565b815260200190565b9260010190565b92019190611dbb565b906103808161014093611dab565b906102c9610b8392611e1160405190565b93848092611df2565b906102c9611ef56009611e2b611462565b94611e3c611e3882610a91565b8752565b611e52611e4b60018301610b69565b6020880152565b611e68611e6160028301610a91565b6040880152565b611e7e611e7760038301610a91565b6060880152565b611e94611e8d60048301610b69565b6080880152565b611eac611ea360058301610b95565b151560a0880152565b611ec2611ebb60068301610a91565b60c0880152565b611ed8611ed160078301610a91565b60e0880152565b611eef611ee760088301610b69565b610100880152565b01611e00565b610120840152565b6102ee90611e1a565b611f2d6112ca611bbf6102ee93611f1b611da3565b50611f25816130b3565b506005610a72565b611efd565b6102ee6000610ea2565b6102ee611f32565b90916102c992611f52611f3c565b92612aad565b611f6190612191565b611f6e6106e16000610a65565b1190565b906102c991611f7f613214565b906102c991611f8d81613294565b6132be565b906102c991611f72565b611fa4613125565b611faf6102ee611a62565b821015611fcc576102ee916002611fc692016117c1565b90610cdf565b6000806111d184611fdc83611a81565b63295f44f760e21b845260048401611b3c565b6102ee90611ffb613378565b612029565b6102ee7f360894a13ba1a3210667c828492db98dca3e2076cc3735a920a3ca505d382bbc610a65565b506102ee612000565b6102ee6000611fef565b6102c990612048613029565b6102c99060026115f9565b6102c99061203c565b906102c9959493929161206d613029565b612097565b61208a6102ee949293611aaa60608401956000850152565b604081840391015261052d565b80612162859760088561215c7f1c981826415f09b267e81baec9746173fc3536ced25492286aae29fa56d4c5309a6121538a9b6121679961214c611d1c9c9d6121436121396102ee6004956120f46112ad60006112a7848b610a72565b61210b8c6121056106e16000610a65565b1161134b565b61211f6121186000610a65565b861161139b565b61213361212c6000610a65565b8b116113e7565b86610a72565b9860028a0161126c565b6003880161126c565b85016115f9565b6006830161126c565b016115f9565b610a65565b9461217160405190565b93849384612072565b906102c9959493929161205c565b6102ee906130b3565b61219961308f565b60006121a481611a81565b6121ad816105ad565b6121b6856105ad565b146121cd5750506102ee916003611bbf9201611b81565b6322718ad960e21b825281906111d190600483016105c2565b6121ee613029565b6102c96102c96121fe6000611a81565b6133b4565b6102c96121e6565b6001600160401b03811161034b5760208091020190565b90610eaf6103a08361220b565b6102ee6040610350565b61224161222f565b90600082526020808301611d9e611da3565b6102ee612239565b60005b82811061226a57505050565b602090612275612253565b818401520161225e565b906102c961229561228f84612222565b9361220b565b601f19016020840161225b565b906122ab825190565b8110156117e4576020809102010190565b906122c682612191565b6000906122d56106e183610a65565b1191821561239a576122e684612191565b936122f08561227f565b9182906122fc85610a65565b95865b885b88101561238c5761238461237d6123019261237760026112a78c8c8f8061232c8f9261237193611b8b565b9261233b611bbf856005610a72565b94612361611aaa600496611f2d6123528a8a610a72565b9161235b61222f565b95860152565b61236b83836122a2565b526122a2565b50610a72565b90611241565b9860010190565b9790506122ff565b965093509350945050929190565b92506123a590610a65565b916123af8361227f565b919290565b6102ee906105ad565b6102ee90546123b4565b6102ee60007f9016d09d72d40fdae2fd8ceac6b6234c7706214fd39c1cd1e609a0528c1993005b016123bd565b6102ee6001611a3e61308f565b6102c9919033613427565b6102ee9060401c610b8f565b6102ee905461240c565b6102ee905b6001600160401b031690565b6102ee9054612422565b6124276102ee6102ee9290565b906001600160401b0390611262565b6124276102ee6102ee926001600160401b031690565b9061247f6102ee61128392612459565b825461244a565b9060ff60401b9060401b611262565b906124a56102ee61128392151590565b8254612486565b6104699061243d565b6020810192916102c991906124ac565b907ff0c57e16840df040f15088dc2f81fe391c3923bec73e23a9662efc9c229c6a009283906125036124fd6124f984612418565b1590565b92612433565b926000946125108661243d565b6001600160401b038616148061260c575b60019561253d6125308861243d565b916001600160401b031690565b1490816125e8575b155b90816125df575b506125d05790612579929184612570886125678961243d565b9a01998a61246f565b6125c157612613565b61258257505050565b6125b06125bc927fc7f505b2f371ae2175ee4913f4499e1f2633a7b5936321eed1cdaeb6115181d294612495565b604051918291826124b5565b0390a1565b6125cb8689612495565b612613565b63f92ee8a960e01b8652600486fd5b1590503861254e565b90506125476125f630611b78565b3b6126036106e18a610a65565b14919050612545565b5083612521565b6126419291612621916134d0565b6126296134e2565b612632336134ff565b61263a6134e2565b60026115f9565b61265561264e6000610a65565b600061126c565b6102c96126626001610a65565b600161126c565b906102c992916124c5565b1561267b57565b60405162461bcd60e51b81526020600482015260156024820152744c6576656c2074797065206e6f742061637469766560581b6044820152606490fd5b156126bf57565b60405162461bcd60e51b815260206004820152601d60248201527f416d6f756e74206d7573742062652067726561746572207468616e20300000006044820152606490fd5b1561270b57565b60405162461bcd60e51b8152602060048201526014602482015273125b9cdd59999a58da595b9d081c185e5b595b9d60621b6044820152606490fd5b1561274e57565b60405162461bcd60e51b8152602060048201526024808201527f4d6178206d696e74207265616368656420666f722074686973206c6576656c206044820152637479706560e01b6064820152608490fd5b906102c96127af61228f84612222565b601f190160208401611d29565b9190820391821161125757565b156127d057565b60405162461bcd60e51b815260206004820152600d60248201526c1499599d5b990819985a5b1959609a1b6044820152606490fd5b604090611b576128276102c99597969460608401908482036000860152610e1f565b966020830152565b919061283f6102ee846004610a72565b9061285361284c83610a91565b85906112b0565b61286761286260058401610b95565b612674565b60009161287d61287684610a65565b83116126b8565b60038101936128a261289a6102ee8561289589610a91565b611623565b341015612704565b60078201906128d260066128b9866112dc86610a91565b9401936128cb6106e16102ee87610a91565b1115612747565b6128db8461279f565b936128e586610a65565b8181101561298157806129768a61297161295861296a8c61296761297c988e61293b8f8f6106e16102ee6129356128cb93611bbf61292f6129266001610a65565b6112dc84610a91565b8261126c565b93610a91565b61294484610a91565b95846112e16129538997610a91565b611433565b6129628433613508565b6122a2565b52565b6005610a72565b61126c565b60010190565b6128e5565b50909692506129b691506128957f2e799799cdc35e2879579aff3edbc36d6950bfeb4deea01ac57f0e8eda4d1dff9496610a91565b928334116129e6575b506129c933611b78565b926129e06129d660405190565b9283928784612805565b0390a290565b80612a20916129f586346127bc565b612a01611cc633611b78565b90612a0b60405190565b90818003925af1612a1a611c35565b506127c9565b386129bf565b90612a41612a35610e2e845490565b92600052602060002090565b9060005b818110612a525750505090565b909192612a6e612a67600192611dda87610a91565b9460010190565b929101612a45565b906102ee91612a26565b906102c9610b8392612a9160405190565b93848092612a76565b6102ee90612a80565b6102ee6006612a9a565b906102c9939291612abf838383611ab8565b33613565565b610380612add92602092612ad7815190565b94859290565b9384910161050a565b612af4906102ee9392612ac5565b90612ac5565b611bbf612b0991611f1b606090565b612b206004611a3e612b19613683565b9382610a72565b8151612b2f6106e16000610a65565b1115612b63576102ee612b57916102ee93612b4960405190565b938492602084019283612ae6565b9081038252038261032a565b50506102ee611f3c565b90612b7782612191565b916000612b8381610a65565b8414612bcf57612b9290610a65565b91825b845b841015612bc857612bc0612a67612b979261237760026112a76112ca611bbf61296a8c8c611b8b565b939050612b95565b9350915050565b90506102ee919250610a65565b9081526060810193926102c9929091604091611b5790611aaa565b612c056102ee826004610a72565b90612c126112ad83610a91565b612c2161286260058401610b95565b612c776003830192612c3861289a6102ee86610a91565b612c616007820191612c5b6106e16102ee6006612c5487610a91565b9401610a91565b10612747565b6112e1612c6e6001610a65565b6112dc83610a91565b7f079434c3107427ebc5262d731fce3f3cf1351bb75f843e69fb2c411680c1df3f612ce6612ca56000610a91565b93612cb661264e6129536000610a91565b612cc08533613508565b612ccf84612971876005610a72565b612cdb6102ee82610a91565b3411612d0757610a91565b91612cf033611b78565b926129e0612cfd60405190565b9283928784612bdc565b611bbf6000806129f5612d1985610a91565b346127bc565b906102c991612d2c613029565b611d1c612d7e7fb04121c367f63cb6eb5f453344896e4ab436ba1efe804791411ed8bfdcf3937692612d676112ad60006112a7846004610a72565b612162856005612d78846004610a72565b0161160c565b926104f060405190565b906102c991612d1f565b6102c990612d9e613029565b612e11565b15612daa57565b60405162461bcd60e51b8152602060048201526019602482015278496e76616c69642067616d65206d61696e206164647265737360381b6044820152606490fd5b906001600160a01b0390611262565b90612e0a6102ee61128392611b78565b8254612deb565b6102c990612e3a612e2a612e256000611a81565b6105ad565b612e33836105ad565b1415612da3565b6003612dfa565b6102c990612d92565b6102ee91612e6e612e7392612e5d600090565b506005612e6861308f565b01611b81565b611b81565b610b95565b6102c990612e84613029565b6000612e8f81611a81565b612e98816105ad565b612ea1846105ad565b14612eb15750506102c9906133b4565b631e4fbdf760e01b825281906111d190600483016105c2565b6102c990612e78565b60005b828110612ee257505050565b602090612eed611da3565b8184015201612ed6565b906102c9612f0761228f84612222565b601f190160208401612ed3565b612f1e6000610a65565b90815b6006612f2e6102ee825490565b821015612f77576005612f4a6112ca611fc685612f50956117c1565b01610b95565b612f62575b600101612f21565b612f21565b91612f6f612f5d91611433565b929050612f55565b5050612f8b612f858361279f565b92612ef7565b612f956000610a65565b805b6006612fa46102ee825490565b82101561302357611fc682612fb8926117c1565b600486612fca6005612f4a8585610a72565b612fe1575b505050612fdc9060010190565b612f97565b611f2d838693611bba61301a96612967612fdc999a612fff976122a2565b61300982876122a2565b5261301481866122a2565b50611433565b91903886612fcf565b50505090565b6130316123c7565b339061304561303f836105ad565b916105ad565b0361304d5750565b63118cdaa760e01b600090815290611bdd9060046105c2565b63780e9d6360e01b6001600160e01b0319821614908115613085575090565b6102ee915061368d565b7f80bb2b638cc20bc4d0a60d66940f3ab4a00c1d7b313497ca82fb0b4ab007930090565b6130bc816136d8565b906000906130cc612e2583611a81565b6130d5846105ad565b146130df57505090565b637e27328960e01b82526004820152602490fd5b6131136102ee91613102600090565b50600461310d61308f565b01610a72565b6123bd565b916001916102c9936136f2565b7f645e039705490088daad89bae25049a34f4a9072d398537b1ab2425f24cbed0090565b1561315057565b60405162461bcd60e51b8152602060048201526024808201527f4242526f6f6d4c6576656c3a204e4654206973206e6f74207472616e7366657260448201526361626c6560e01b6064820152608490fd5b6102ee9291906131b0826136d8565b6131ba6000611a81565b906131c761303f836105ad565b141590816131f9575b501561382b576131f46131e5612e2530611b78565b6131ee856105ad565b14613149565b61382b565b61320391506105ad565b61320c826105ad565b1415386131d0565b61321d30611b78565b7f00000000000000000000000000000000000000000000000000000000000000009061324b61303f836105ad565b1490811561326d575b5061325b57565b63703e46dd60e11b6000908152600490fd5b905061328361303f61327d6138c4565b926105ad565b141538613254565b506102c9613029565b6102c99061328b565b905051906102c9826102ae565b906020828203126102b7576102ee9161329d565b916132cb611cc684611b78565b9160206132d760405190565b6352d1902d60e01b815293849060049082905afa60009381613347575b5061331157634c9c8ce360e01b6000908152611bdd8560046105c2565b90919261331f6102ee612000565b8403613330576102c99293506138d4565b632a87526960e21b60009081526004859052602490fd5b61336a91945060203d602011613371575b613362818361032a565b8101906132aa565b92386132f4565b503d613358565b61338130611b78565b6133ad61303f7f00000000000000000000000000000000000000000000000000000000000000006105ad565b0361325b57565b6133f46133ee7f9016d09d72d40fdae2fd8ceac6b6234c7706214fd39c1cd1e609a0528c199300611cc6846133e8836123bd565b92612dfa565b91611b78565b907f8be0079c531659141344cd1fd0a4f28419497f9722a3daafe3b4186f6b6457e061341f60405190565b80805b0390a3565b61342f61308f565b600061343d612e2582611a81565b613446856105ad565b146134a1575061349761349183611cc68761348c88612e6e7f17307eab39ab6107e8899845ad3d59bd9653f200f220920489ca2b5937696c319960056134229a01611b81565b61160c565b93611b78565b936104f060405190565b630b61174360e31b8152806111d185600483016105c2565b906102c9916134c6613940565b906102c991613989565b906102c9916134b9565b6102c9613940565b6102c96134da565b6102c9906134f6613940565b6102c99061399f565b6102c9906134ea565b6102c991613514611f3c565b916139a8565b905051906102c9826104a0565b906020828203126102b7576102ee9161351a565b90926118449061183d6102ee969461355b608086019760008701906105b9565b60208501906105b9565b600094929390843b6135796106e188610a65565b11613587575b505050505050565b60209286613597611cc688611b78565b926135be6135a460405190565b97889687958694630a85bd0160e11b86526004860161353b565b03925af1839181613652575b5061360d57506135d8611c35565b80516135e66106e185610a65565b036136055750633250574960e11b825281906111d190600483016105c2565b805190602001fd5b613627630a85bd0160e11b5b916001600160e01b03191690565b0361363957505038808080808061357f565b633250574960e11b825281906111d190600483016105c2565b61367591925060203d60201161367c575b61366d818361032a565b810190613527565b90386135ca565b503d613663565b6102ee6002611a28565b6380ac58cd60e01b6001600160e01b03198216149081156136bd575b81156136b3575090565b6102ee91506139c9565b6001600160e01b03198116635b5e139f60e01b1491506136a9565b6131136102ee916136e7600090565b50600261310d61308f565b9290916136fd61308f565b9180811561380d575b613723575b50506102c99291600461371e9201610a72565b612dfa565b61372c846130b3565b9160009061373c612e2583611a81565b613745826105ad565b1415806137f3575b806137e0575b6137c757505061371e926102c9959492600492613777575b5092508193945061370b565b61378090611b78565b61378986611b78565b61379285610a65565b917f8c5be1e5ebec7d5bd14f71427d1e84f3dd0314c0f7b2291e5b200ac8c7c3b9256137bd60405190565b600090a43861376b565b63a9fbf51f60e01b825281906111d190600483016105c2565b506137ee6124f98286612e4a565b613753565b506137fd816105ad565b613806856105ad565b141561374d565b5061381b612e256000611a81565b613824836105ad565b1415613706565b90916138389083836139dd565b916138666138466000611a81565b61384f816105ad565b613858866105ad565b036138a357612e2583613b9c565b61386f836105ad565b0361387e576102ee9150613c4c565b613887826105ad565b613890846105ad565b0361389a57505090565b6102ee91613bcd565b6138ac846105ad565b6138b5866105ad565b146105ad57612e258386613b1a565b6102ee60006123ee6102ee612000565b906138de82613cb6565b6138e782611b78565b7fbc7cd75a20ee27fd9adebab32041f755214dbc6bffa90cc0225b39da2e5c2d3b61391160405190565b600090a280516139246106e16000610a65565b11156139365761393391613d1c565b50565b50506102c9613cf9565b61394b6124f9613d43565b61395157565b631afcd79f60e31b6000908152600490fd5b906102c991613970613940565b9060016102c99261215c61398261308f565b91826115f9565b906102c991613963565b6102c990612e84613940565b6102c990613993565b906102c992916139b88282613d6c565b336139c36000611a81565b90613565565b6139d96301ffc9a760e01b613619565b1490565b90613a588261371e8360026139f061308f565b613a446139fc846136d8565b9960008b86613a0a83611a81565b93613a14856105ad565b613a1d826105ad565b03613b09575b505050613a2f826105ad565b613a388d6105ad565b03613acb575b506105ad565b613a4d866105ad565b03613a9f5701610a72565b613a6d613a6761349185611b78565b91610a65565b917fddf252ad1be2c89b69c2b068fc378daa952ba7f163c4a11628f55a4df523b3ef613a9860405190565b600090a490565b613ac6613aac6001610a65565b6112e1613abc8860038601611b81565b9161038083610a91565b61310d565b613ad7908287816136f2565b613b038b6112e1613af5613aeb6001610a65565b9260038801611b81565b91613aff83610a91565b0390565b38613a3e565b613b1292613de2565b8b8638613a23565b613b696000916102c993611bba84613b69613b33613125565b93613b3d86612191565b95613b5b600187019185613b54611bbf8686610a72565b9801611b81565b95878103613b6e5750610a72565b61149a565b613b9690612971613b82611bbf8b8b610a72565b613b9081612971858d610a72565b84610a72565b38612371565b6102c990613bc8613bab613125565b6102ee6002820191612971856003613bc1865490565b9301610a72565b6117e9565b6129716102c9926001611bba9361310d83612971613be9613125565b93613c05613bf682612191565b613bff88610a65565b906127bc565b98899186611b81565b634e487b7160e01b600052603160045260246000fd5b80548015613c47576000190190613c44613c3e83836117c1565b9061149a565b55565b613c0e565b613cb16102c9916102ee6000613b69613c63613125565b936002850194611bba6003613c83613c79895490565b613bff6001610a65565b920191612971613ca3611fc6613c9c611bbf8888610a72565b938b6117c1565b613b908161180c858d6117c1565b613c24565b6000813b613cc66106e183610a65565b14613ce157906102c991613cdb6102ee612000565b01612dfa565b6111d18192634c9c8ce360e01b8352600483016105c2565b6000613d0481610a65565b3411613d0d5750565b63b398979f60e01b8152600490fd5b6000806102ee93613d2b606090565b50602081519101845af4613d3d611c35565b91613e42565b6102ee7ff0c57e16840df040f15088dc2f81fe391c3923bec73e23a9662efc9c229c6a00612418565b600091613d7883611a81565b91613d82836105ad565b613d8b826105ad565b14613dc957613d9b9183916131a1565b613da761303f836105ad565b03613db0575050565b6339e3563760e11b825281906111d190600483016105c2565b633250574960e11b845283806111d185600483016105c2565b90613df16124f9848385613e9d565b613dfa57505050565b6000928392613e0e61303f612e2586611a81565b03613e2b57637e27328960e01b8352600483015250602481010390fd5b63177e802f60e01b83526111d19160048401611b3c565b90613e4d5750613f21565b815190600091613e5f6106e184610a65565b1480613e88575b613e6f57505090565b639996b31560e01b825281906111d190600483016105c2565b50803b613e976106e184610a65565b14613e66565b90613eab612e256000611a81565b613eb4826105ad565b14159283613ec25750505090565b90919250613ecf826105ad565b613ed8846105ad565b14928315613f0d575b508215613ef3575b5050388080613023565b613f0591925061327d61303f916130f3565b143880613ee9565b613f1a9193508290612e4a565b9138613ee1565b8051600090613f326106e183610a65565b1115613f415750805190602001fd5b63d6bda27560e01b8152600490fdfea164736f6c634300081c000a",
  "devdoc": {
    "details": "Niu Niu game room level NFT contract that determines how many rooms a player can create",
    "errors": {
      "AddressEmptyCode(address)": [
        {
          "details": "There's no code at `target` (it is not a contract)."
        }
      ],
      "ERC1967InvalidImplementation(address)": [
        {
          "details": "The `implementation` of the proxy is invalid."
        }
      ],
      "ERC1967NonPayable()": [
        {
          "details": "An upgrade function sees `msg.value > 0` that may be lost."
        }
      ],
      "ERC721EnumerableForbiddenBatchMint()": [
        {
          "details": "Batch mint is not allowed."
        }
      ],
      "ERC721IncorrectOwner(address,uint256,address)": [
        {
          "details": "Indicates an error related to the ownership over a particular token. Used in transfers.",
          "params": {
            "owner": "Address of the current owner of a token.",
            "sender": "Address whose tokens are being transferred.",
            "tokenId": "Identifier number of a token."
          }
        }
      ],
      "ERC721InsufficientApproval(address,uint256)": [
        {
          "details": "Indicates a failure with the `operator`s approval. Used in transfers.",
          "params": {
            "operator": "Address that may be allowed to operate on tokens without being their owner.",
            "tokenId": "Identifier number of a token."
          }
        }
      ],
      "ERC721InvalidApprover(address)": [
        {
          "details": "Indicates a failure with the `approver` of a token to be approved. Used in approvals.",
          "params": {
            "approver": "Address initiating an approval operation."
          }
        }
      ],
      "ERC721InvalidOperator(address)": [
        {
          "details": "Indicates a failure with the `operator` to be approved. Used in approvals.",
          "params": {
            "operator": "Address that may be allowed to operate on tokens without being their owner."
          }
        }
      ],
      "ERC721InvalidOwner(address)": [
        {
          "details": "Indicates that an address can't be an owner. For example, `address(0)` is a forbidden owner in ERC-20. Used in balance queries.",
          "params": {
            "owner": "Address of the current owner of a token."
          }
        }
      ],
      "ERC721InvalidReceiver(address)": [
        {
          "details": "Indicates a failure with the token `receiver`. Used in transfers.",
          "params": {
            "receiver": "Address to which tokens are being transferred."
          }
        }
      ],
      "ERC721InvalidSender(address)": [
        {
          "details": "Indicates a failure with the token `sender`. Used in transfers.",
          "params": {
            "sender": "Address whose tokens are being transferred."
          }
        }
      ],
      "ERC721NonexistentToken(uint256)": [
        {
          "details": "Indicates a `tokenId` whose `owner` is the zero address.",
          "params": {
            "tokenId": "Identifier number of a token."
          }
        }
      ],
      "ERC721OutOfBoundsIndex(address,uint256)": [
        {
          "details": "An `owner`'s token query was out of bounds for `index`. NOTE: The owner being `address(0)` indicates a global out of bounds index."
        }
      ],
      "FailedCall()": [
        {
          "details": "A call to an address target failed. The target may have reverted."
        }
      ],
      "InvalidInitialization()": [
        {
          "details": "The contract is already initialized."
        }
      ],
      "NotInitializing()": [
        {
          "details": "The contract is not initializing."
        }
      ],
      "OwnableInvalidOwner(address)": [
        {
          "details": "The owner is not a valid owner account. (eg. `address(0)`)"
        }
      ],
      "OwnableUnauthorizedAccount(address)": [
        {
          "details": "The caller account is not authorized to perform an operation."
        }
      ],
      "UUPSUnauthorizedCallContext()": [
        {
          "details": "The call is from an unauthorized context."
        }
      ],
      "UUPSUnsupportedProxiableUUID(bytes32)": [
        {
          "details": "The storage `slot` is unsupported as a UUID."
        }
      ]
    },
    "events": {
      "Approval(address,address,uint256)": {
        "details": "Emitted when `owner` enables `approved` to manage the `tokenId` token."
      },
      "ApprovalForAll(address,address,bool)": {
        "details": "Emitted when `owner` enables or disables (`approved`) `operator` to manage all of its assets."
      },
      "Initialized(uint64)": {
        "details": "Triggered when the contract has been initialized or reinitialized."
      },
      "Transfer(address,address,uint256)": {
        "details": "Emitted when `tokenId` token is transferred from `from` to `to`."
      },
      "Upgraded(address)": {
        "details": "Emitted when the implementation is upgraded."
      }
    },
    "kind": "dev",
    "methods": {
      "addType(string,uint256,uint256,string,uint256,string)": {
        "details": "Add a new level type",
        "params": {
          "maxRooms": "Maximum number of rooms allowed",
          "name": "Name of the level type",
          "price": "Price to purchase this level",
          "uriSuffix": "URI suffix for metadata"
        },
        "returns": {
          "_0": "The ID of the newly created level type"
        }
      },
      "approve(address,uint256)": {
        "details": "See {IERC721-approve}."
      },
      "balanceOf(address)": {
        "details": "See {IERC721-balanceOf}."
      },
      "batchBuy(uint256,uint256)": {
        "details": "Batch purchase room levels",
        "params": {
          "amount": "Purchase quantity",
          "nftTypeId": "Level type ID"
        },
        "returns": {
          "_0": "Returns an array of minted room level IDs"
        }
      },
      "buy(uint256)": {
        "details": "Purchase a room level",
        "params": {
          "nftTypeId": "Level type ID"
        },
        "returns": {
          "_0": "Returns the minted level token ID"
        }
      },
      "constructor": {
        "custom:oz-upgrades-unsafe-allow": "constructor"
      },
      "getActiveTypes()": {
        "details": "Get all active level types",
        "returns": {
          "_0": "Arrays of level type IDs and level types"
        }
      },
      "getAllTypeIds()": {
        "details": "Get all level type IDs",
        "returns": {
          "_0": "Array of all level type IDs"
        }
      },
      "getApproved(uint256)": {
        "details": "See {IERC721-getApproved}."
      },
      "getMaxRooms(address)": {
        "details": "Get the maximum number of rooms a user can create",
        "params": {
          "user": "User address"
        },
        "returns": {
          "_0": "Maximum number of rooms the user can create (sum of all level NFTs owned)"
        }
      },
      "getType(uint256)": {
        "details": "Get level type for a specific token",
        "params": {
          "tokenId": "Level token ID"
        },
        "returns": {
          "_0": "Level type information"
        }
      },
      "getUserNfts(address)": {
        "details": "Get user's room level information",
        "params": {
          "userAddress": "User address to check"
        },
        "returns": {
          "details": "Array of level details",
          "has": "Whether the user has any room level",
          "totalMaxRooms": "Total maximum rooms allowed"
        }
      },
      "hasNft(address)": {
        "details": "Check if a user has a room level",
        "params": {
          "user": "User address"
        },
        "returns": {
          "_0": "Whether the user has a room level"
        }
      },
      "initialize(string,string,string)": {
        "details": "Initialization function, replaces constructor"
      },
      "isApprovedForAll(address,address)": {
        "details": "See {IERC721-isApprovedForAll}."
      },
      "name()": {
        "details": "See {IERC721Metadata-name}."
      },
      "owner()": {
        "details": "Returns the address of the current owner."
      },
      "ownerOf(uint256)": {
        "details": "See {IERC721-ownerOf}."
      },
      "proxiableUUID()": {
        "details": "Implementation of the ERC-1822 {proxiableUUID} function. This returns the storage slot used by the implementation. It is used to validate the implementation's compatibility when performing an upgrade. IMPORTANT: A proxy pointing at a proxiable contract should not be considered proxiable itself, because this risks bricking a proxy that upgrades to it, by delegating to itself until out of gas. Thus it is critical that this function revert if invoked through a proxy. This is guaranteed by the `notDelegated` modifier."
      },
      "renounceOwnership()": {
        "details": "Leaves the contract without owner. It will not be possible to call `onlyOwner` functions. Can only be called by the current owner. NOTE: Renouncing ownership will leave the contract without an owner, thereby disabling any functionality that is only available to the owner."
      },
      "safeTransferFrom(address,address,uint256)": {
        "details": "See {IERC721-safeTransferFrom}."
      },
      "safeTransferFrom(address,address,uint256,bytes)": {
        "details": "See {IERC721-safeTransferFrom}."
      },
      "setApprovalForAll(address,bool)": {
        "details": "See {IERC721-setApprovalForAll}."
      },
      "setBaseURI(string)": {
        "details": "Set base URI",
        "params": {
          "baseURI": "New base URI"
        }
      },
      "setGameMainAddress(address)": {
        "details": "Set the game main contract address",
        "params": {
          "_gameMainAddress": "Game main contract address"
        }
      },
      "setTypeActive(uint256,bool)": {
        "details": "Set a level type's active status",
        "params": {
          "active": "New active status",
          "nftTypeId": "Level type ID"
        }
      },
      "symbol()": {
        "details": "See {IERC721Metadata-symbol}."
      },
      "tokenByIndex(uint256)": {
        "details": "See {IERC721Enumerable-tokenByIndex}."
      },
      "tokenOfOwnerByIndex(address,uint256)": {
        "details": "See {IERC721Enumerable-tokenOfOwnerByIndex}."
      },
      "tokenURI(uint256)": {
        "details": "Override tokenURI function, returns different URIs based on level type"
      },
      "totalSupply()": {
        "details": "See {IERC721Enumerable-totalSupply}."
      },
      "transferFrom(address,address,uint256)": {
        "details": "See {IERC721-transferFrom}."
      },
      "transferOwnership(address)": {
        "details": "Transfers ownership of the contract to a new account (`newOwner`). Can only be called by the current owner."
      },
      "updateType(uint256,uint256,uint256,string,uint256,string)": {
        "details": "Update an existing level type",
        "params": {
          "maxRooms": "New maximum number of rooms",
          "nftTypeId": "Level type ID to update",
          "price": "New price",
          "uriSuffix": "New URI suffix"
        }
      },
      "upgradeToAndCall(address,bytes)": {
        "custom:oz-upgrades-unsafe-allow-reachable": "delegatecall",
        "details": "Upgrade the implementation of the proxy to `newImplementation`, and subsequently execute the function call encoded in `data`. Calls {_authorizeUpgrade}. Emits an {Upgraded} event."
      },
      "withdraw()": {
        "details": "Withdraw ETH from the contract"
      }
    },
    "title": "BBRoomLevel",
    "version": 1
  },
  "userdoc": {
    "kind": "user",
    "methods": {},
    "version": 1
  },
  "storageLayout": {
    "storage": [
      {
        "astId": 18402,
        "contract": "contracts/BBRoomLevelNFT.sol:BBRoomLevelNFT",
        "label": "_tokenIdCounter",
        "offset": 0,
        "slot": "0",
        "type": "t_uint256"
      },
      {
        "astId": 18404,
        "contract": "contracts/BBRoomLevelNFT.sol:BBRoomLevelNFT",
        "label": "_nftTypeIdCounter",
        "offset": 0,
        "slot": "1",
        "type": "t_uint256"
      },
      {
        "astId": 18406,
        "contract": "contracts/BBRoomLevelNFT.sol:BBRoomLevelNFT",
        "label": "_baseTokenURI",
        "offset": 0,
        "slot": "2",
        "type": "t_string_storage"
      },
      {
        "astId": 18408,
        "contract": "contracts/BBRoomLevelNFT.sol:BBRoomLevelNFT",
        "label": "gameMainAddress",
        "offset": 0,
        "slot": "3",
        "type": "t_address"
      },
      {
        "astId": 18413,
        "contract": "contracts/BBRoomLevelNFT.sol:BBRoomLevelNFT",
        "label": "nftTypes",
        "offset": 0,
        "slot": "4",
        "type": "t_mapping(t_uint256,t_struct(RoomLevelNftType)19805_storage)"
      },
      {
        "astId": 18417,
        "contract": "contracts/BBRoomLevelNFT.sol:BBRoomLevelNFT",
        "label": "tokenNftTypes",
        "offset": 0,
        "slot": "5",
        "type": "t_mapping(t_uint256,t_uint256)"
      },
      {
        "astId": 18420,
        "contract": "contracts/BBRoomLevelNFT.sol:BBRoomLevelNFT",
        "label": "_allNftTypeIds",
        "offset": 0,
        "slot": "6",
        "type": "t_array(t_uint256)dyn_storage"
      },
      {
        "astId": 18424,
        "contract": "contracts/BBRoomLevelNFT.sol:BBRoomLevelNFT",
        "label": "__gap",
        "offset": 0,
        "slot": "7",
        "type": "t_array(t_uint256)25_storage"
      }
    ],
    "types": {
      "t_address": {
        "encoding": "inplace",
        "label": "address",
        "numberOfBytes": "20"
      },
      "t_array(t_uint256)10_storage": {
        "base": "t_uint256",
        "encoding": "inplace",
        "label": "uint256[10]",
        "numberOfBytes": "320"
      },
      "t_array(t_uint256)25_storage": {
        "base": "t_uint256",
        "encoding": "inplace",
        "label": "uint256[25]",
        "numberOfBytes": "800"
      },
      "t_array(t_uint256)dyn_storage": {
        "base": "t_uint256",
        "encoding": "dynamic_array",
        "label": "uint256[]",
        "numberOfBytes": "32"
      },
      "t_bool": {
        "encoding": "inplace",
        "label": "bool",
        "numberOfBytes": "1"
      },
      "t_mapping(t_uint256,t_struct(RoomLevelNftType)19805_storage)": {
        "encoding": "mapping",
        "key": "t_uint256",
        "label": "mapping(uint256 => struct RoomLevelNftType)",
        "numberOfBytes": "32",
        "value": "t_struct(RoomLevelNftType)19805_storage"
      },
      "t_mapping(t_uint256,t_uint256)": {
        "encoding": "mapping",
        "key": "t_uint256",
        "label": "mapping(uint256 => uint256)",
        "numberOfBytes": "32",
        "value": "t_uint256"
      },
      "t_string_storage": {
        "encoding": "bytes",
        "label": "string",
        "numberOfBytes": "32"
      },
      "t_struct(RoomLevelNftType)19805_storage": {
        "encoding": "inplace",
        "label": "struct RoomLevelNftType",
        "members": [
          {
            "astId": 19784,
            "contract": "contracts/BBRoomLevelNFT.sol:BBRoomLevelNFT",
            "label": "id",
            "offset": 0,
            "slot": "0",
            "type": "t_uint256"
          },
          {
            "astId": 19786,
            "contract": "contracts/BBRoomLevelNFT.sol:BBRoomLevelNFT",
            "label": "name",
            "offset": 0,
            "slot": "1",
            "type": "t_string_storage"
          },
          {
            "astId": 19788,
            "contract": "contracts/BBRoomLevelNFT.sol:BBRoomLevelNFT",
            "label": "maxRooms",
            "offset": 0,
            "slot": "2",
            "type": "t_uint256"
          },
          {
            "astId": 19790,
            "contract": "contracts/BBRoomLevelNFT.sol:BBRoomLevelNFT",
            "label": "price",
            "offset": 0,
            "slot": "3",
            "type": "t_uint256"
          },
          {
            "astId": 19792,
            "contract": "contracts/BBRoomLevelNFT.sol:BBRoomLevelNFT",
            "label": "uriSuffix",
            "offset": 0,
            "slot": "4",
            "type": "t_string_storage"
          },
          {
            "astId": 19794,
            "contract": "contracts/BBRoomLevelNFT.sol:BBRoomLevelNFT",
            "label": "active",
            "offset": 0,
            "slot": "5",
            "type": "t_bool"
          },
          {
            "astId": 19796,
            "contract": "contracts/BBRoomLevelNFT.sol:BBRoomLevelNFT",
            "label": "maxMint",
            "offset": 0,
            "slot": "6",
            "type": "t_uint256"
          },
          {
            "astId": 19798,
            "contract": "contracts/BBRoomLevelNFT.sol:BBRoomLevelNFT",
            "label": "minted",
            "offset": 0,
            "slot": "7",
            "type": "t_uint256"
          },
          {
            "astId": 19800,
            "contract": "contracts/BBRoomLevelNFT.sol:BBRoomLevelNFT",
            "label": "rarity",
            "offset": 0,
            "slot": "8",
            "type": "t_string_storage"
          },
          {
            "astId": 19804,
            "contract": "contracts/BBRoomLevelNFT.sol:BBRoomLevelNFT",
            "label": "__gap",
            "offset": 0,
            "slot": "9",
            "type": "t_array(t_uint256)10_storage"
          }
        ],
        "numberOfBytes": "608"
      },
      "t_uint256": {
        "encoding": "inplace",
        "label": "uint256",
        "numberOfBytes": "32"
      }
    }
  }
}